
c:/Users/localadmin/Documents/EAL-ITT/20s-itt2-project/particle_programs/serial_test/target/1.4.4/boron/serial_test.elf:     file format elf32-littlearm

Sections:
Idx Name          Size      VMA       LMA       File off  Algn
  0 .module_info  00000018  000d4000  000d4000  00004000  2**2
                  CONTENTS, ALLOC, LOAD, READONLY, DATA
  1 .dynalib      00000004  000d4018  000d4018  00004018  2**2
                  CONTENTS, ALLOC, LOAD, READONLY, DATA
  2 .text         000013e4  000d401c  000d401c  0000401c  2**2
                  CONTENTS, ALLOC, LOAD, READONLY, CODE
  3 .backup       00000000  2003f400  2003f400  00015494  2**0
                  CONTENTS
  4 .data         00000068  2003e348  000d5400  0000e348  2**2
                  CONTENTS, ALLOC, LOAD, DATA
  5 .bss          00000440  2003e3b0  2003e3b0  0001e3b0  2**2
                  ALLOC
  6 .module_info_suffix 00000028  000d5468  000d5468  00015468  2**0
                  CONTENTS, ALLOC, LOAD, READONLY, DATA
  7 .module_info_crc 00000004  000d5490  000d5490  00015490  2**0
                  CONTENTS, ALLOC, LOAD, READONLY, DATA
  8 .debug_info   000a566d  00000000  00000000  00015494  2**0
                  CONTENTS, READONLY, DEBUGGING
  9 .debug_abbrev 0000d158  00000000  00000000  000bab01  2**0
                  CONTENTS, READONLY, DEBUGGING
 10 .debug_loc    0001817f  00000000  00000000  000c7c59  2**0
                  CONTENTS, READONLY, DEBUGGING
 11 .debug_aranges 00001e28  00000000  00000000  000dfdd8  2**0
                  CONTENTS, READONLY, DEBUGGING
 12 .debug_ranges 000039e8  00000000  00000000  000e1c00  2**0
                  CONTENTS, READONLY, DEBUGGING
 13 .debug_macro  00030089  00000000  00000000  000e55e8  2**0
                  CONTENTS, READONLY, DEBUGGING
 14 .debug_line   00020576  00000000  00000000  00115671  2**0
                  CONTENTS, READONLY, DEBUGGING
 15 .debug_str    000fae85  00000000  00000000  00135be7  2**0
                  CONTENTS, READONLY, DEBUGGING
 16 .debug_frame  0000b8a4  00000000  00000000  00230a6c  2**2
                  CONTENTS, READONLY, DEBUGGING

Disassembly of section .text:

000d401c <module_user_pre_init>:
/**
 * Initializes this user module. Returns the start of the heap.
 */
void* module_user_pre_init() {

    if ( (&link_global_data_start!=&link_global_data_initial_values) && (link_global_data_size != 0))
   d401c:	4809      	ldr	r0, [pc, #36]	; (d4044 <link_dynalib_end+0x28>)
   d401e:	490a      	ldr	r1, [pc, #40]	; (d4048 <link_dynalib_end+0x2c>)
   d4020:	4288      	cmp	r0, r1
extern constructor_ptr_t link_constructors_end;

/**
 * Initializes this user module. Returns the start of the heap.
 */
void* module_user_pre_init() {
   d4022:	b508      	push	{r3, lr}

    if ( (&link_global_data_start!=&link_global_data_initial_values) && (link_global_data_size != 0))
   d4024:	d005      	beq.n	d4032 <module_user_pre_init+0x16>
   d4026:	4a09      	ldr	r2, [pc, #36]	; (d404c <link_dynalib_end+0x30>)
   d4028:	4282      	cmp	r2, r0
   d402a:	d002      	beq.n	d4032 <module_user_pre_init+0x16>
    {
        memcpy(&link_global_data_start, &link_global_data_initial_values, link_global_data_size);
   d402c:	1a12      	subs	r2, r2, r0
   d402e:	f001 f809 	bl	d5044 <memcpy>
    }

    memset(&link_bss_location, 0, link_bss_size );
   d4032:	4807      	ldr	r0, [pc, #28]	; (d4050 <link_dynalib_end+0x34>)
   d4034:	4a07      	ldr	r2, [pc, #28]	; (d4054 <link_dynalib_end+0x38>)
   d4036:	2100      	movs	r1, #0
   d4038:	1a12      	subs	r2, r2, r0
   d403a:	f001 f80e 	bl	d505a <memset>
    return &link_global_data_start;
}
   d403e:	4801      	ldr	r0, [pc, #4]	; (d4044 <link_dynalib_end+0x28>)
   d4040:	bd08      	pop	{r3, pc}
   d4042:	bf00      	nop
   d4044:	2003e348 	.word	0x2003e348
   d4048:	000d5400 	.word	0x000d5400
   d404c:	2003e3b0 	.word	0x2003e3b0
   d4050:	2003e3b0 	.word	0x2003e3b0
   d4054:	2003e7f0 	.word	0x2003e7f0

000d4058 <module_user_init>:
extern constructor_ptr_t link_constructors_location[];
extern constructor_ptr_t link_constructors_end;
#define link_constructors_size   ((unsigned long)&link_constructors_end  -  (unsigned long)&link_constructors_location )

void module_user_init()
{
   d4058:	b570      	push	{r4, r5, r6, lr}
    module_user_init_hook();
   d405a:	f000 fb3b 	bl	d46d4 <module_user_init_hook>
   d405e:	4c07      	ldr	r4, [pc, #28]	; (d407c <module_user_init+0x24>)
   d4060:	4b07      	ldr	r3, [pc, #28]	; (d4080 <module_user_init+0x28>)
   d4062:	1ae4      	subs	r4, r4, r3
   d4064:	08a4      	lsrs	r4, r4, #2

    // invoke constructors
    int ctor_num;
    for (ctor_num=0; ctor_num < link_constructors_size/sizeof(constructor_ptr_t); ctor_num++ )
   d4066:	2500      	movs	r5, #0
   d4068:	461e      	mov	r6, r3
   d406a:	42a5      	cmp	r5, r4
   d406c:	d004      	beq.n	d4078 <module_user_init+0x20>
    {
        link_constructors_location[ctor_num]();
   d406e:	f856 3025 	ldr.w	r3, [r6, r5, lsl #2]
   d4072:	4798      	blx	r3
{
    module_user_init_hook();

    // invoke constructors
    int ctor_num;
    for (ctor_num=0; ctor_num < link_constructors_size/sizeof(constructor_ptr_t); ctor_num++ )
   d4074:	3501      	adds	r5, #1
   d4076:	e7f8      	b.n	d406a <module_user_init+0x12>
    {
        link_constructors_location[ctor_num]();
    }
}
   d4078:	bd70      	pop	{r4, r5, r6, pc}
   d407a:	bf00      	nop
   d407c:	000d5400 	.word	0x000d5400
   d4080:	000d53c4 	.word	0x000d53c4

000d4084 <module_user_setup>:

/**
 * Export these functions with a fuller name so they don't clash with the setup/loop wrappers in the system module.
 */
void module_user_setup() {
    setup();
   d4084:	f000 b813 	b.w	d40ae <setup>

000d4088 <module_user_loop>:
}

void module_user_loop() {
   d4088:	b508      	push	{r3, lr}
    loop();
   d408a:	f000 f819 	bl	d40c0 <loop>
    _post_loop();
}
   d408e:	e8bd 4008 	ldmia.w	sp!, {r3, lr}
    setup();
}

void module_user_loop() {
    loop();
    _post_loop();
   d4092:	f000 baed 	b.w	d4670 <_post_loop>

000d4096 <_ZdlPv>:
   d4096:	f000 b97f 	b.w	d4398 <free>

000d409a <_ZdaPv>:
	free(p);
}

void operator delete[](void *p)
{
	free(p);
   d409a:	f000 b97d 	b.w	d4398 <free>

000d409e <__cxa_guard_acquire>:

/* Provide default implemenation for __cxa_guard_acquire() and
 * __cxa_guard_release(). Note: these must be revisited if a multitasking
 * OS is ported to this platform. */
__extension__ typedef int __guard __attribute__((mode (__DI__)));
int __cxa_guard_acquire(__guard *g) {return !*(char *)(g);};
   d409e:	7800      	ldrb	r0, [r0, #0]
   d40a0:	fab0 f080 	clz	r0, r0
   d40a4:	0940      	lsrs	r0, r0, #5
   d40a6:	4770      	bx	lr

000d40a8 <__cxa_guard_release>:
void __cxa_guard_release (__guard *g) {*(char *)g = 1;};
   d40a8:	2301      	movs	r3, #1
   d40aa:	7003      	strb	r3, [r0, #0]
   d40ac:	4770      	bx	lr

000d40ae <setup>:
   d40ae:	b508      	push	{r3, lr}
   d40b0:	f000 fccc 	bl	d4a4c <_Z22__fetch_global_Serial1v>
   d40b4:	f44f 5116 	mov.w	r1, #9600	; 0x2580
   d40b8:	e8bd 4008 	ldmia.w	sp!, {r3, lr}
   d40bc:	f000 bcc2 	b.w	d4a44 <_ZN11USARTSerial5beginEm>

000d40c0 <loop>:
   d40c0:	b508      	push	{r3, lr}
   d40c2:	f000 fcc3 	bl	d4a4c <_Z22__fetch_global_Serial1v>
   d40c6:	4a07      	ldr	r2, [pc, #28]	; (d40e4 <loop+0x24>)
   d40c8:	6813      	ldr	r3, [r2, #0]
   d40ca:	3301      	adds	r3, #1
   d40cc:	6013      	str	r3, [r2, #0]
    }

    template <typename... Args>
    inline size_t printlnf(const char* format, Args... args)
    {
        return this->printf_impl(true, format, args...);
   d40ce:	2101      	movs	r1, #1
   d40d0:	4a05      	ldr	r2, [pc, #20]	; (d40e8 <loop+0x28>)
   d40d2:	f000 fa43 	bl	d455c <_ZN5Print11printf_implEbPKcz>
   d40d6:	f44f 707a 	mov.w	r0, #1000	; 0x3e8
   d40da:	e8bd 4008 	ldmia.w	sp!, {r3, lr}
   d40de:	f000 ba89 	b.w	d45f4 <delay>
   d40e2:	bf00      	nop
   d40e4:	2003e3b4 	.word	0x2003e3b4
   d40e8:	000d50e0 	.word	0x000d50e0

000d40ec <_GLOBAL__sub_I_counter>:

inline void pinSetFast(pin_t _pin) __attribute__((always_inline));
inline void pinResetFast(pin_t _pin) __attribute__((always_inline));
inline int32_t pinReadFast(pin_t _pin) __attribute__((always_inline));

static Hal_Pin_Info* PIN_MAP = HAL_Pin_Map();
   d40ec:	f000 b810 	b.w	d4110 <HAL_Pin_Map>

000d40f0 <netdb_freeaddrinfo>:

DYNALIB_BEGIN(hal_netdb)

DYNALIB_FN(0, hal_netdb, netdb_gethostbyname, struct hostent*(const char*))
DYNALIB_FN(1, hal_netdb, netdb_gethostbyname_r, int(const char*, struct hostent*, char*, size_t, struct hostent**, int*))
DYNALIB_FN(2, hal_netdb, netdb_freeaddrinfo, void(struct addrinfo*))
   d40f0:	b508      	push	{r3, lr}
   d40f2:	4b02      	ldr	r3, [pc, #8]	; (d40fc <netdb_freeaddrinfo+0xc>)
   d40f4:	681b      	ldr	r3, [r3, #0]
   d40f6:	689b      	ldr	r3, [r3, #8]
   d40f8:	9301      	str	r3, [sp, #4]
   d40fa:	bd08      	pop	{r3, pc}
   d40fc:	00030268 	.word	0x00030268

000d4100 <netdb_getaddrinfo>:
DYNALIB_FN(3, hal_netdb, netdb_getaddrinfo, int(const char*, const char*, const struct addrinfo*, struct addrinfo**))
   d4100:	b508      	push	{r3, lr}
   d4102:	4b02      	ldr	r3, [pc, #8]	; (d410c <netdb_getaddrinfo+0xc>)
   d4104:	681b      	ldr	r3, [r3, #0]
   d4106:	68db      	ldr	r3, [r3, #12]
   d4108:	9301      	str	r3, [sp, #4]
   d410a:	bd08      	pop	{r3, pc}
   d410c:	00030268 	.word	0x00030268

000d4110 <HAL_Pin_Map>:
// New HAL functions must be added to the end of this list.
// GNINRAW

DYNALIB_BEGIN(hal_gpio)

DYNALIB_FN(0, hal_gpio, HAL_Pin_Map, Hal_Pin_Info*(void))
   d4110:	b508      	push	{r3, lr}
   d4112:	4b02      	ldr	r3, [pc, #8]	; (d411c <HAL_Pin_Map+0xc>)
   d4114:	681b      	ldr	r3, [r3, #0]
   d4116:	681b      	ldr	r3, [r3, #0]
   d4118:	9301      	str	r3, [sp, #4]
   d411a:	bd08      	pop	{r3, pc}
   d411c:	0003022c 	.word	0x0003022c

000d4120 <HAL_SPI_Init>:
DYNALIB_FN(2, hal_spi, HAL_SPI_Set_Bit_Order, void(HAL_SPI_Interface, uint8_t))
DYNALIB_FN(3, hal_spi, HAL_SPI_Set_Data_Mode, void(HAL_SPI_Interface, uint8_t))
DYNALIB_FN(4, hal_spi, HAL_SPI_Set_Clock_Divider, void(HAL_SPI_Interface, uint8_t))
DYNALIB_FN(5, hal_spi, HAL_SPI_Send_Receive_Data, uint16_t(HAL_SPI_Interface, uint16_t))
DYNALIB_FN(6, hal_spi, HAL_SPI_Is_Enabled_Old, bool(void))
DYNALIB_FN(7, hal_spi, HAL_SPI_Init, void(HAL_SPI_Interface))
   d4120:	b508      	push	{r3, lr}
   d4122:	4b02      	ldr	r3, [pc, #8]	; (d412c <HAL_SPI_Init+0xc>)
   d4124:	681b      	ldr	r3, [r3, #0]
   d4126:	69db      	ldr	r3, [r3, #28]
   d4128:	9301      	str	r3, [sp, #4]
   d412a:	bd08      	pop	{r3, pc}
   d412c:	00030230 	.word	0x00030230

000d4130 <HAL_RNG_GetRandomNumber>:

DYNALIB_BEGIN(hal)

#if PLATFORM_ID > 3
DYNALIB_FN(0, hal, HAL_RNG_Configuration, void(void))
DYNALIB_FN(1, hal, HAL_RNG_GetRandomNumber, uint32_t(void))
   d4130:	b508      	push	{r3, lr}
   d4132:	4b02      	ldr	r3, [pc, #8]	; (d413c <HAL_RNG_GetRandomNumber+0xc>)
   d4134:	681b      	ldr	r3, [r3, #0]
   d4136:	685b      	ldr	r3, [r3, #4]
   d4138:	9301      	str	r3, [sp, #4]
   d413a:	bd08      	pop	{r3, pc}
   d413c:	00030218 	.word	0x00030218

000d4140 <HAL_Timer_Get_Milli_Seconds>:
#endif

DYNALIB_FN(BASE_IDX + 0, hal, HAL_Delay_Milliseconds, void(uint32_t))
DYNALIB_FN(BASE_IDX + 1, hal, HAL_Delay_Microseconds, void(uint32_t))
DYNALIB_FN(BASE_IDX + 2, hal, HAL_Timer_Get_Micro_Seconds, system_tick_t(void))
DYNALIB_FN(BASE_IDX + 3, hal, HAL_Timer_Get_Milli_Seconds, system_tick_t(void))
   d4140:	b508      	push	{r3, lr}
   d4142:	4b02      	ldr	r3, [pc, #8]	; (d414c <HAL_Timer_Get_Milli_Seconds+0xc>)
   d4144:	681b      	ldr	r3, [r3, #0]
   d4146:	695b      	ldr	r3, [r3, #20]
   d4148:	9301      	str	r3, [sp, #4]
   d414a:	bd08      	pop	{r3, pc}
   d414c:	00030218 	.word	0x00030218

000d4150 <os_thread_is_current>:
DYNALIB_BEGIN(hal_concurrent)

#if PLATFORM_THREADING
DYNALIB_FN(0, hal_concurrent, __gthread_equal, bool(__gthread_t, __gthread_t))
DYNALIB_FN(1, hal_concurrent, os_thread_create, os_result_t(os_thread_t*, const char*, os_thread_prio_t, os_thread_fn_t, void*, size_t))
DYNALIB_FN(2, hal_concurrent, os_thread_is_current, bool(os_thread_t))
   d4150:	b508      	push	{r3, lr}
   d4152:	4b02      	ldr	r3, [pc, #8]	; (d415c <os_thread_is_current+0xc>)
   d4154:	681b      	ldr	r3, [r3, #0]
   d4156:	689b      	ldr	r3, [r3, #8]
   d4158:	9301      	str	r3, [sp, #4]
   d415a:	bd08      	pop	{r3, pc}
   d415c:	00030248 	.word	0x00030248

000d4160 <os_thread_join>:
DYNALIB_FN(3, hal_concurrent, os_thread_yield, os_result_t(void))
DYNALIB_FN(4, hal_concurrent, os_thread_join, os_result_t(os_thread_t))
   d4160:	b508      	push	{r3, lr}
   d4162:	4b02      	ldr	r3, [pc, #8]	; (d416c <os_thread_join+0xc>)
   d4164:	681b      	ldr	r3, [r3, #0]
   d4166:	691b      	ldr	r3, [r3, #16]
   d4168:	9301      	str	r3, [sp, #4]
   d416a:	bd08      	pop	{r3, pc}
   d416c:	00030248 	.word	0x00030248

000d4170 <os_thread_cleanup>:
DYNALIB_FN(5, hal_concurrent, os_thread_cleanup, os_result_t(os_thread_t))
   d4170:	b508      	push	{r3, lr}
   d4172:	4b02      	ldr	r3, [pc, #8]	; (d417c <os_thread_cleanup+0xc>)
   d4174:	681b      	ldr	r3, [r3, #0]
   d4176:	695b      	ldr	r3, [r3, #20]
   d4178:	9301      	str	r3, [sp, #4]
   d417a:	bd08      	pop	{r3, pc}
   d417c:	00030248 	.word	0x00030248

000d4180 <os_mutex_create>:
DYNALIB_FN(8, hal_concurrent, os_timer_create, int(os_timer_t*, unsigned, void(*)(os_timer_t), void*, bool, void*))
DYNALIB_FN(9, hal_concurrent, os_timer_destroy, int(os_timer_t, void*))
DYNALIB_FN(10, hal_concurrent, os_timer_get_id, int(os_timer_t, void**))
DYNALIB_FN(11, hal_concurrent, os_timer_change, int(os_timer_t, os_timer_change_t, bool, unsigned, unsigned, void*))

DYNALIB_FN(12, hal_concurrent, os_mutex_create, int(os_mutex_t*))
   d4180:	b508      	push	{r3, lr}
   d4182:	4b02      	ldr	r3, [pc, #8]	; (d418c <os_mutex_create+0xc>)
   d4184:	681b      	ldr	r3, [r3, #0]
   d4186:	6b1b      	ldr	r3, [r3, #48]	; 0x30
   d4188:	9301      	str	r3, [sp, #4]
   d418a:	bd08      	pop	{r3, pc}
   d418c:	00030248 	.word	0x00030248

000d4190 <os_mutex_recursive_create>:
DYNALIB_FN(13, hal_concurrent, os_mutex_destroy, int(os_mutex_t))
DYNALIB_FN(14, hal_concurrent, os_mutex_lock, int(os_mutex_t))
DYNALIB_FN(15, hal_concurrent, os_mutex_trylock, int(os_mutex_t))
DYNALIB_FN(16, hal_concurrent, os_mutex_unlock, int(os_mutex_t))

DYNALIB_FN(17, hal_concurrent, os_mutex_recursive_create, int(os_mutex_recursive_t*))
   d4190:	b508      	push	{r3, lr}
   d4192:	4b02      	ldr	r3, [pc, #8]	; (d419c <os_mutex_recursive_create+0xc>)
   d4194:	681b      	ldr	r3, [r3, #0]
   d4196:	6c5b      	ldr	r3, [r3, #68]	; 0x44
   d4198:	9301      	str	r3, [sp, #4]
   d419a:	bd08      	pop	{r3, pc}
   d419c:	00030248 	.word	0x00030248

000d41a0 <inet_inet_ntop>:
DYNALIB_FN(0, hal_inet, inet_inet_addr, in_addr_t(const char*))
DYNALIB_FN(1, hal_inet, inet_inet_aton, int(const char*, struct in_addr*))
DYNALIB_FN(2, hal_inet, inet_inet_network, in_addr_t(const char*))
DYNALIB_FN(3, hal_inet, inet_inet_ntoa, char*(struct in_addr))
DYNALIB_FN(4, hal_inet, inet_inet_ntoa_r, char*(struct in_addr, char*, socklen_t))
DYNALIB_FN(5, hal_inet, inet_inet_ntop, const char*(int, const void*, char*, socklen_t))
   d41a0:	b508      	push	{r3, lr}
   d41a2:	4b02      	ldr	r3, [pc, #8]	; (d41ac <inet_inet_ntop+0xc>)
   d41a4:	681b      	ldr	r3, [r3, #0]
   d41a6:	695b      	ldr	r3, [r3, #20]
   d41a8:	9301      	str	r3, [sp, #4]
   d41aa:	bd08      	pop	{r3, pc}
   d41ac:	00030264 	.word	0x00030264

000d41b0 <HAL_USART_Init>:
#define BASE_IDX 6 // Base index for all subsequent functions
#else
#define BASE_IDX 0
#endif

DYNALIB_FN(BASE_IDX + 0, hal_usart, HAL_USART_Init, void(HAL_USART_Serial, Ring_Buffer*, Ring_Buffer*))
   d41b0:	b508      	push	{r3, lr}
   d41b2:	4b02      	ldr	r3, [pc, #8]	; (d41bc <HAL_USART_Init+0xc>)
   d41b4:	681b      	ldr	r3, [r3, #0]
   d41b6:	681b      	ldr	r3, [r3, #0]
   d41b8:	9301      	str	r3, [sp, #4]
   d41ba:	bd08      	pop	{r3, pc}
   d41bc:	0003023c 	.word	0x0003023c

000d41c0 <HAL_USART_Write_Data>:
DYNALIB_FN(BASE_IDX + 1, hal_usart, HAL_USART_Begin, void(HAL_USART_Serial, uint32_t))
DYNALIB_FN(BASE_IDX + 2, hal_usart, HAL_USART_End, void(HAL_USART_Serial))
DYNALIB_FN(BASE_IDX + 3, hal_usart, HAL_USART_Write_Data, uint32_t(HAL_USART_Serial, uint8_t))
   d41c0:	b508      	push	{r3, lr}
   d41c2:	4b02      	ldr	r3, [pc, #8]	; (d41cc <HAL_USART_Write_Data+0xc>)
   d41c4:	681b      	ldr	r3, [r3, #0]
   d41c6:	68db      	ldr	r3, [r3, #12]
   d41c8:	9301      	str	r3, [sp, #4]
   d41ca:	bd08      	pop	{r3, pc}
   d41cc:	0003023c 	.word	0x0003023c

000d41d0 <HAL_USART_Available_Data>:
DYNALIB_FN(BASE_IDX + 4, hal_usart, HAL_USART_Available_Data, int32_t(HAL_USART_Serial))
   d41d0:	b508      	push	{r3, lr}
   d41d2:	4b02      	ldr	r3, [pc, #8]	; (d41dc <HAL_USART_Available_Data+0xc>)
   d41d4:	681b      	ldr	r3, [r3, #0]
   d41d6:	691b      	ldr	r3, [r3, #16]
   d41d8:	9301      	str	r3, [sp, #4]
   d41da:	bd08      	pop	{r3, pc}
   d41dc:	0003023c 	.word	0x0003023c

000d41e0 <HAL_USART_Read_Data>:
DYNALIB_FN(BASE_IDX + 5, hal_usart, HAL_USART_Read_Data, int32_t(HAL_USART_Serial))
   d41e0:	b508      	push	{r3, lr}
   d41e2:	4b02      	ldr	r3, [pc, #8]	; (d41ec <HAL_USART_Read_Data+0xc>)
   d41e4:	681b      	ldr	r3, [r3, #0]
   d41e6:	695b      	ldr	r3, [r3, #20]
   d41e8:	9301      	str	r3, [sp, #4]
   d41ea:	bd08      	pop	{r3, pc}
   d41ec:	0003023c 	.word	0x0003023c

000d41f0 <HAL_USART_Peek_Data>:
DYNALIB_FN(BASE_IDX + 6, hal_usart, HAL_USART_Peek_Data, int32_t(HAL_USART_Serial))
   d41f0:	b508      	push	{r3, lr}
   d41f2:	4b02      	ldr	r3, [pc, #8]	; (d41fc <HAL_USART_Peek_Data+0xc>)
   d41f4:	681b      	ldr	r3, [r3, #0]
   d41f6:	699b      	ldr	r3, [r3, #24]
   d41f8:	9301      	str	r3, [sp, #4]
   d41fa:	bd08      	pop	{r3, pc}
   d41fc:	0003023c 	.word	0x0003023c

000d4200 <HAL_USART_Flush_Data>:
DYNALIB_FN(BASE_IDX + 7, hal_usart, HAL_USART_Flush_Data, void(HAL_USART_Serial))
   d4200:	b508      	push	{r3, lr}
   d4202:	4b02      	ldr	r3, [pc, #8]	; (d420c <HAL_USART_Flush_Data+0xc>)
   d4204:	681b      	ldr	r3, [r3, #0]
   d4206:	69db      	ldr	r3, [r3, #28]
   d4208:	9301      	str	r3, [sp, #4]
   d420a:	bd08      	pop	{r3, pc}
   d420c:	0003023c 	.word	0x0003023c

000d4210 <HAL_USART_Available_Data_For_Write>:
DYNALIB_FN(BASE_IDX + 8, hal_usart, HAL_USART_Is_Enabled, bool(HAL_USART_Serial))
DYNALIB_FN(BASE_IDX + 9, hal_usart, HAL_USART_Half_Duplex, void(HAL_USART_Serial, bool))
DYNALIB_FN(BASE_IDX + 10, hal_usart, HAL_USART_Available_Data_For_Write, int32_t(HAL_USART_Serial))
   d4210:	b508      	push	{r3, lr}
   d4212:	4b02      	ldr	r3, [pc, #8]	; (d421c <HAL_USART_Available_Data_For_Write+0xc>)
   d4214:	681b      	ldr	r3, [r3, #0]
   d4216:	6a9b      	ldr	r3, [r3, #40]	; 0x28
   d4218:	9301      	str	r3, [sp, #4]
   d421a:	bd08      	pop	{r3, pc}
   d421c:	0003023c 	.word	0x0003023c

000d4220 <HAL_USART_BeginConfig>:
#define BASE_IDX2 (BASE_IDX+13)
#else
#define BASE_IDX2 (BASE_IDX+11)
#endif

DYNALIB_FN(BASE_IDX2 + 0, hal_usart, HAL_USART_BeginConfig, void(HAL_USART_Serial serial, uint32_t baud, uint32_t config, void *ptr))
   d4220:	b508      	push	{r3, lr}
   d4222:	4b02      	ldr	r3, [pc, #8]	; (d422c <HAL_USART_BeginConfig+0xc>)
   d4224:	681b      	ldr	r3, [r3, #0]
   d4226:	6adb      	ldr	r3, [r3, #44]	; 0x2c
   d4228:	9301      	str	r3, [sp, #4]
   d422a:	bd08      	pop	{r3, pc}
   d422c:	0003023c 	.word	0x0003023c

000d4230 <HAL_USB_USART_Init>:
#endif

DYNALIB_BEGIN(hal_usb)

#ifdef USB_CDC_ENABLE
DYNALIB_FN(0, hal_usb, HAL_USB_USART_Init, void(HAL_USB_USART_Serial, const HAL_USB_USART_Config*))
   d4230:	b508      	push	{r3, lr}
   d4232:	4b02      	ldr	r3, [pc, #8]	; (d423c <HAL_USB_USART_Init+0xc>)
   d4234:	681b      	ldr	r3, [r3, #0]
   d4236:	681b      	ldr	r3, [r3, #0]
   d4238:	9301      	str	r3, [sp, #4]
   d423a:	bd08      	pop	{r3, pc}
   d423c:	0003024c 	.word	0x0003024c

000d4240 <HAL_USB_USART_Available_Data>:
DYNALIB_FN(1, hal_usb, HAL_USB_USART_Begin, void(HAL_USB_USART_Serial, uint32_t, void *))
DYNALIB_FN(2, hal_usb, HAL_USB_USART_End, void(HAL_USB_USART_Serial))
DYNALIB_FN(3, hal_usb, HAL_USB_USART_Baud_Rate, unsigned int(HAL_USB_USART_Serial))
DYNALIB_FN(4, hal_usb, HAL_USB_USART_Available_Data, int32_t(HAL_USB_USART_Serial))
   d4240:	b508      	push	{r3, lr}
   d4242:	4b02      	ldr	r3, [pc, #8]	; (d424c <HAL_USB_USART_Available_Data+0xc>)
   d4244:	681b      	ldr	r3, [r3, #0]
   d4246:	691b      	ldr	r3, [r3, #16]
   d4248:	9301      	str	r3, [sp, #4]
   d424a:	bd08      	pop	{r3, pc}
   d424c:	0003024c 	.word	0x0003024c

000d4250 <HAL_USB_USART_Available_Data_For_Write>:
DYNALIB_FN(5, hal_usb, HAL_USB_USART_Available_Data_For_Write, int32_t(HAL_USB_USART_Serial))
   d4250:	b508      	push	{r3, lr}
   d4252:	4b02      	ldr	r3, [pc, #8]	; (d425c <HAL_USB_USART_Available_Data_For_Write+0xc>)
   d4254:	681b      	ldr	r3, [r3, #0]
   d4256:	695b      	ldr	r3, [r3, #20]
   d4258:	9301      	str	r3, [sp, #4]
   d425a:	bd08      	pop	{r3, pc}
   d425c:	0003024c 	.word	0x0003024c

000d4260 <HAL_USB_USART_Receive_Data>:
DYNALIB_FN(6, hal_usb, HAL_USB_USART_Receive_Data, int32_t(HAL_USB_USART_Serial, uint8_t))
   d4260:	b508      	push	{r3, lr}
   d4262:	4b02      	ldr	r3, [pc, #8]	; (d426c <HAL_USB_USART_Receive_Data+0xc>)
   d4264:	681b      	ldr	r3, [r3, #0]
   d4266:	699b      	ldr	r3, [r3, #24]
   d4268:	9301      	str	r3, [sp, #4]
   d426a:	bd08      	pop	{r3, pc}
   d426c:	0003024c 	.word	0x0003024c

000d4270 <HAL_USB_USART_Send_Data>:
DYNALIB_FN(7, hal_usb, HAL_USB_USART_Send_Data, int32_t(HAL_USB_USART_Serial, uint8_t))
   d4270:	b508      	push	{r3, lr}
   d4272:	4b02      	ldr	r3, [pc, #8]	; (d427c <HAL_USB_USART_Send_Data+0xc>)
   d4274:	681b      	ldr	r3, [r3, #0]
   d4276:	69db      	ldr	r3, [r3, #28]
   d4278:	9301      	str	r3, [sp, #4]
   d427a:	bd08      	pop	{r3, pc}
   d427c:	0003024c 	.word	0x0003024c

000d4280 <HAL_USB_USART_Flush_Data>:
DYNALIB_FN(8, hal_usb, HAL_USB_USART_Flush_Data, void(HAL_USB_USART_Serial))
   d4280:	b508      	push	{r3, lr}
   d4282:	4b02      	ldr	r3, [pc, #8]	; (d428c <HAL_USB_USART_Flush_Data+0xc>)
   d4284:	681b      	ldr	r3, [r3, #0]
   d4286:	6a1b      	ldr	r3, [r3, #32]
   d4288:	9301      	str	r3, [sp, #4]
   d428a:	bd08      	pop	{r3, pc}
   d428c:	0003024c 	.word	0x0003024c

000d4290 <set_system_mode>:
#endif

DYNALIB_BEGIN(system)

DYNALIB_FN(0, system, system_mode, System_Mode_TypeDef(void))
DYNALIB_FN(1, system, set_system_mode, void(System_Mode_TypeDef))
   d4290:	b508      	push	{r3, lr}
   d4292:	4b02      	ldr	r3, [pc, #8]	; (d429c <set_system_mode+0xc>)
   d4294:	681b      	ldr	r3, [r3, #0]
   d4296:	685b      	ldr	r3, [r3, #4]
   d4298:	9301      	str	r3, [sp, #4]
   d429a:	bd08      	pop	{r3, pc}
   d429c:	00030220 	.word	0x00030220

000d42a0 <system_delay_ms>:

DYNALIB_FN(2, system, set_ymodem_serial_flash_update_handler, void(ymodem_serial_flash_update_handler))
DYNALIB_FN(3, system, system_firmwareUpdate, bool(Stream*, void*))
DYNALIB_FN(4, system, system_fileTransfer, bool(system_file_transfer_t*, void*))

DYNALIB_FN(5, system, system_delay_ms, void(unsigned long, bool))
   d42a0:	b508      	push	{r3, lr}
   d42a2:	4b02      	ldr	r3, [pc, #8]	; (d42ac <system_delay_ms+0xc>)
   d42a4:	681b      	ldr	r3, [r3, #0]
   d42a6:	695b      	ldr	r3, [r3, #20]
   d42a8:	9301      	str	r3, [sp, #4]
   d42aa:	bd08      	pop	{r3, pc}
   d42ac:	00030220 	.word	0x00030220

000d42b0 <system_ctrl_set_app_request_handler>:
DYNALIB_FN(BASE_IDX + 6, system, led_pattern_period, uint16_t(int, int, void*))
DYNALIB_FN(BASE_IDX + 7, system, system_set_tester_handlers, int(system_tester_handlers_t*, void*))
DYNALIB_FN(BASE_IDX + 8, system, system_format_diag_data, int(const uint16_t*, size_t, unsigned, appender_fn, void*, void*))

// Control requests
DYNALIB_FN(BASE_IDX + 9, system, system_ctrl_set_app_request_handler, int(ctrl_request_handler_fn, void*))
   d42b0:	b508      	push	{r3, lr}
   d42b2:	4b03      	ldr	r3, [pc, #12]	; (d42c0 <system_ctrl_set_app_request_handler+0x10>)
   d42b4:	681b      	ldr	r3, [r3, #0]
   d42b6:	f8d3 3088 	ldr.w	r3, [r3, #136]	; 0x88
   d42ba:	9301      	str	r3, [sp, #4]
   d42bc:	bd08      	pop	{r3, pc}
   d42be:	0000      	.short	0x0000
   d42c0:	00030220 	.word	0x00030220

000d42c4 <system_ctrl_set_result>:
DYNALIB_FN(BASE_IDX + 10, system, system_ctrl_alloc_reply_data, int(ctrl_request*, size_t, void*))
DYNALIB_FN(BASE_IDX + 11, system, system_ctrl_free_request_data, void(ctrl_request*, void*))
DYNALIB_FN(BASE_IDX + 12, system, system_ctrl_set_result, void(ctrl_request*, int, ctrl_completion_handler_fn, void*, void*))
   d42c4:	b508      	push	{r3, lr}
   d42c6:	4b03      	ldr	r3, [pc, #12]	; (d42d4 <system_ctrl_set_result+0x10>)
   d42c8:	681b      	ldr	r3, [r3, #0]
   d42ca:	f8d3 3094 	ldr.w	r3, [r3, #148]	; 0x94
   d42ce:	9301      	str	r3, [sp, #4]
   d42d0:	bd08      	pop	{r3, pc}
   d42d2:	0000      	.short	0x0000
   d42d4:	00030220 	.word	0x00030220

000d42d8 <network_connect>:
#endif

DYNALIB_BEGIN(system_net)

DYNALIB_FN(0, system_net, network_config, const void*(network_handle_t, uint32_t, void*))
DYNALIB_FN(1, system_net, network_connect, void(network_handle_t, uint32_t, uint32_t, void*))
   d42d8:	b508      	push	{r3, lr}
   d42da:	4b02      	ldr	r3, [pc, #8]	; (d42e4 <network_connect+0xc>)
   d42dc:	681b      	ldr	r3, [r3, #0]
   d42de:	685b      	ldr	r3, [r3, #4]
   d42e0:	9301      	str	r3, [sp, #4]
   d42e2:	bd08      	pop	{r3, pc}
   d42e4:	00030240 	.word	0x00030240

000d42e8 <network_connecting>:
DYNALIB_FN(2, system_net, network_connecting, bool(network_handle_t, uint32_t, void*))
   d42e8:	b508      	push	{r3, lr}
   d42ea:	4b02      	ldr	r3, [pc, #8]	; (d42f4 <network_connecting+0xc>)
   d42ec:	681b      	ldr	r3, [r3, #0]
   d42ee:	689b      	ldr	r3, [r3, #8]
   d42f0:	9301      	str	r3, [sp, #4]
   d42f2:	bd08      	pop	{r3, pc}
   d42f4:	00030240 	.word	0x00030240

000d42f8 <network_disconnect>:
DYNALIB_FN(3, system_net, network_disconnect, void(network_handle_t, uint32_t, void*))
   d42f8:	b508      	push	{r3, lr}
   d42fa:	4b02      	ldr	r3, [pc, #8]	; (d4304 <network_disconnect+0xc>)
   d42fc:	681b      	ldr	r3, [r3, #0]
   d42fe:	68db      	ldr	r3, [r3, #12]
   d4300:	9301      	str	r3, [sp, #4]
   d4302:	bd08      	pop	{r3, pc}
   d4304:	00030240 	.word	0x00030240

000d4308 <network_ready>:
DYNALIB_FN(4, system_net, network_ready, bool(network_handle_t, uint32_t, void*))
   d4308:	b508      	push	{r3, lr}
   d430a:	4b02      	ldr	r3, [pc, #8]	; (d4314 <network_ready+0xc>)
   d430c:	681b      	ldr	r3, [r3, #0]
   d430e:	691b      	ldr	r3, [r3, #16]
   d4310:	9301      	str	r3, [sp, #4]
   d4312:	bd08      	pop	{r3, pc}
   d4314:	00030240 	.word	0x00030240

000d4318 <network_on>:
DYNALIB_FN(5, system_net, network_on, void(network_handle_t, uint32_t, uint32_t, void*))
   d4318:	b508      	push	{r3, lr}
   d431a:	4b02      	ldr	r3, [pc, #8]	; (d4324 <network_on+0xc>)
   d431c:	681b      	ldr	r3, [r3, #0]
   d431e:	695b      	ldr	r3, [r3, #20]
   d4320:	9301      	str	r3, [sp, #4]
   d4322:	bd08      	pop	{r3, pc}
   d4324:	00030240 	.word	0x00030240

000d4328 <network_off>:
DYNALIB_FN(6, system_net, network_off, void(network_handle_t, uint32_t, uint32_t, void*))
   d4328:	b508      	push	{r3, lr}
   d432a:	4b02      	ldr	r3, [pc, #8]	; (d4334 <network_off+0xc>)
   d432c:	681b      	ldr	r3, [r3, #0]
   d432e:	699b      	ldr	r3, [r3, #24]
   d4330:	9301      	str	r3, [sp, #4]
   d4332:	bd08      	pop	{r3, pc}
   d4334:	00030240 	.word	0x00030240

000d4338 <network_listen>:
DYNALIB_FN(7, system_net, network_listen, void(network_handle_t, uint32_t, void*))
   d4338:	b508      	push	{r3, lr}
   d433a:	4b02      	ldr	r3, [pc, #8]	; (d4344 <network_listen+0xc>)
   d433c:	681b      	ldr	r3, [r3, #0]
   d433e:	69db      	ldr	r3, [r3, #28]
   d4340:	9301      	str	r3, [sp, #4]
   d4342:	bd08      	pop	{r3, pc}
   d4344:	00030240 	.word	0x00030240

000d4348 <network_listening>:
DYNALIB_FN(8, system_net, network_listening, bool(network_handle_t, uint32_t, void*))
   d4348:	b508      	push	{r3, lr}
   d434a:	4b02      	ldr	r3, [pc, #8]	; (d4354 <network_listening+0xc>)
   d434c:	681b      	ldr	r3, [r3, #0]
   d434e:	6a1b      	ldr	r3, [r3, #32]
   d4350:	9301      	str	r3, [sp, #4]
   d4352:	bd08      	pop	{r3, pc}
   d4354:	00030240 	.word	0x00030240

000d4358 <network_set_listen_timeout>:
DYNALIB_FN(9, system_net, network_has_credentials, bool(network_handle_t, uint32_t, void*))
DYNALIB_FN(10, system_net, network_set_credentials, int(network_handle_t, uint32_t, NetworkCredentials*, void*))
DYNALIB_FN(11, system_net, network_clear_credentials, bool(network_handle_t, uint32_t, NetworkCredentials*, void*))
DYNALIB_FN(12, system_net, network_set_listen_timeout, void(network_handle_t, uint16_t, void*))
   d4358:	b508      	push	{r3, lr}
   d435a:	4b02      	ldr	r3, [pc, #8]	; (d4364 <network_set_listen_timeout+0xc>)
   d435c:	681b      	ldr	r3, [r3, #0]
   d435e:	6b1b      	ldr	r3, [r3, #48]	; 0x30
   d4360:	9301      	str	r3, [sp, #4]
   d4362:	bd08      	pop	{r3, pc}
   d4364:	00030240 	.word	0x00030240

000d4368 <network_get_listen_timeout>:
DYNALIB_FN(13, system_net, network_get_listen_timeout, uint16_t(network_handle_t, uint32_t, void*))
   d4368:	b508      	push	{r3, lr}
   d436a:	4b02      	ldr	r3, [pc, #8]	; (d4374 <network_get_listen_timeout+0xc>)
   d436c:	681b      	ldr	r3, [r3, #0]
   d436e:	6b5b      	ldr	r3, [r3, #52]	; 0x34
   d4370:	9301      	str	r3, [sp, #4]
   d4372:	bd08      	pop	{r3, pc}
   d4374:	00030240 	.word	0x00030240

000d4378 <spark_set_random_seed_from_cloud_handler>:
DYNALIB_FN(10, system_cloud, spark_unsubscribe, void(void*))
DYNALIB_FN(11, system_cloud, spark_sync_time, bool(void*))
DYNALIB_FN(12, system_cloud, spark_sync_time_pending, bool(void*))
DYNALIB_FN(13, system_cloud, spark_sync_time_last, system_tick_t(time_t*, void*))
DYNALIB_FN(14, system_cloud, spark_set_connection_property, int(unsigned, unsigned, particle::protocol::connection_properties_t*, void*))
DYNALIB_FN(15, system_cloud, spark_set_random_seed_from_cloud_handler, int(void (*handler)(unsigned int), void*))
   d4378:	b508      	push	{r3, lr}
   d437a:	4b02      	ldr	r3, [pc, #8]	; (d4384 <spark_set_random_seed_from_cloud_handler+0xc>)
   d437c:	681b      	ldr	r3, [r3, #0]
   d437e:	6bdb      	ldr	r3, [r3, #60]	; 0x3c
   d4380:	9301      	str	r3, [sp, #4]
   d4382:	bd08      	pop	{r3, pc}
   d4384:	00030244 	.word	0x00030244

000d4388 <malloc>:
#include <assert.h>
#endif

DYNALIB_BEGIN(rt)

DYNALIB_FN(0, rt, malloc, void*(size_t))
   d4388:	b508      	push	{r3, lr}
   d438a:	4b02      	ldr	r3, [pc, #8]	; (d4394 <malloc+0xc>)
   d438c:	681b      	ldr	r3, [r3, #0]
   d438e:	681b      	ldr	r3, [r3, #0]
   d4390:	9301      	str	r3, [sp, #4]
   d4392:	bd08      	pop	{r3, pc}
   d4394:	0003021c 	.word	0x0003021c

000d4398 <free>:
DYNALIB_FN(1, rt, free, void(void*))
   d4398:	b508      	push	{r3, lr}
   d439a:	4b02      	ldr	r3, [pc, #8]	; (d43a4 <free+0xc>)
   d439c:	681b      	ldr	r3, [r3, #0]
   d439e:	685b      	ldr	r3, [r3, #4]
   d43a0:	9301      	str	r3, [sp, #4]
   d43a2:	bd08      	pop	{r3, pc}
   d43a4:	0003021c 	.word	0x0003021c

000d43a8 <vsnprintf>:
DYNALIB_FN(4, rt, siprintf, int(char*, const char*, ...))
DYNALIB_FN(5, rt, sscanf, int(const char*, const char*, ...))
DYNALIB_FN(6, rt, siscanf, int(const char*, const char*, ...))
DYNALIB_FN(7, rt, snprintf, int(char*, size_t, const char*, ...))
DYNALIB_FN(8, rt, sniprintf, int(char*, size_t, const char*, ...))
DYNALIB_FN(9, rt, vsnprintf, int(char*, size_t, const char*, va_list))
   d43a8:	b508      	push	{r3, lr}
   d43aa:	4b02      	ldr	r3, [pc, #8]	; (d43b4 <vsnprintf+0xc>)
   d43ac:	681b      	ldr	r3, [r3, #0]
   d43ae:	6a5b      	ldr	r3, [r3, #36]	; 0x24
   d43b0:	9301      	str	r3, [sp, #4]
   d43b2:	bd08      	pop	{r3, pc}
   d43b4:	0003021c 	.word	0x0003021c

000d43b8 <_ZN5spark13EthernetClass9listeningEv>:
    uint16_t getListenTimeout(void) {
        return network_get_listen_timeout(*this, 0, NULL);
    }

    bool listening(void) {
        return network_listening(*this, 0, NULL);
   d43b8:	2200      	movs	r2, #0
   d43ba:	4611      	mov	r1, r2
   d43bc:	6840      	ldr	r0, [r0, #4]
   d43be:	f7ff bfc3 	b.w	d4348 <network_listening>

000d43c2 <_ZN5spark13EthernetClass16getListenTimeoutEv>:
    void setListenTimeout(uint16_t timeout) {
        network_set_listen_timeout(*this, timeout, NULL);
    }

    uint16_t getListenTimeout(void) {
        return network_get_listen_timeout(*this, 0, NULL);
   d43c2:	2200      	movs	r2, #0
   d43c4:	4611      	mov	r1, r2
   d43c6:	6840      	ldr	r0, [r0, #4]
   d43c8:	f7ff bfce 	b.w	d4368 <network_get_listen_timeout>

000d43cc <_ZN5spark13EthernetClass16setListenTimeoutEt>:
    void listen(bool begin=true) {
        network_listen(*this, begin ? 0 : 1, NULL);
    }

    void setListenTimeout(uint16_t timeout) {
        network_set_listen_timeout(*this, timeout, NULL);
   d43cc:	2200      	movs	r2, #0
   d43ce:	6840      	ldr	r0, [r0, #4]
   d43d0:	f7ff bfc2 	b.w	d4358 <network_set_listen_timeout>

000d43d4 <_ZN5spark13EthernetClass6listenEb>:
    void disconnect() {
        network_disconnect(*this, NETWORK_DISCONNECT_REASON_USER, NULL);
    }

    void listen(bool begin=true) {
        network_listen(*this, begin ? 0 : 1, NULL);
   d43d4:	2200      	movs	r2, #0
   d43d6:	f081 0101 	eor.w	r1, r1, #1
   d43da:	6840      	ldr	r0, [r0, #4]
   d43dc:	f7ff bfac 	b.w	d4338 <network_listen>

000d43e0 <_ZN5spark13EthernetClass3offEv>:
    void on() {
        network_on(*this, 0, 0, NULL);
    }

    void off() {
        network_off(*this, 0, 0, NULL);
   d43e0:	2300      	movs	r3, #0
   d43e2:	461a      	mov	r2, r3
   d43e4:	4619      	mov	r1, r3
   d43e6:	6840      	ldr	r0, [r0, #4]
   d43e8:	f7ff bf9e 	b.w	d4328 <network_off>

000d43ec <_ZN5spark13EthernetClass2onEv>:
    EthernetClass() :
            NetworkClass(NETWORK_INTERFACE_ETHERNET) {
    }

    void on() {
        network_on(*this, 0, 0, NULL);
   d43ec:	2300      	movs	r3, #0
   d43ee:	461a      	mov	r2, r3
   d43f0:	4619      	mov	r1, r3
   d43f2:	6840      	ldr	r0, [r0, #4]
   d43f4:	f7ff bf90 	b.w	d4318 <network_on>

000d43f8 <_ZN5spark13EthernetClass5readyEv>:
    bool listening(void) {
        return network_listening(*this, 0, NULL);
    }

    bool ready() {
        return network_ready(*this, 0,  NULL);
   d43f8:	2200      	movs	r2, #0
   d43fa:	4611      	mov	r1, r2
   d43fc:	6840      	ldr	r0, [r0, #4]
   d43fe:	f7ff bf83 	b.w	d4308 <network_ready>

000d4402 <_ZN5spark13EthernetClass10connectingEv>:
    void connect(unsigned flags=0) {
        network_connect(*this, flags, 0, NULL);
    }

    bool connecting(void) {
        return network_connecting(*this, 0, NULL);
   d4402:	2200      	movs	r2, #0
   d4404:	4611      	mov	r1, r2
   d4406:	6840      	ldr	r0, [r0, #4]
   d4408:	f7ff bf6e 	b.w	d42e8 <network_connecting>

000d440c <_ZN5spark13EthernetClass10disconnectEv>:
    }

    void disconnect() {
        network_disconnect(*this, NETWORK_DISCONNECT_REASON_USER, NULL);
   d440c:	2200      	movs	r2, #0
   d440e:	2102      	movs	r1, #2
   d4410:	6840      	ldr	r0, [r0, #4]
   d4412:	f7ff bf71 	b.w	d42f8 <network_disconnect>

000d4416 <_ZN5spark13EthernetClass7connectEj>:
    void off() {
        network_off(*this, 0, 0, NULL);
    }

    void connect(unsigned flags=0) {
        network_connect(*this, flags, 0, NULL);
   d4416:	2300      	movs	r3, #0
   d4418:	461a      	mov	r2, r3
   d441a:	6840      	ldr	r0, [r0, #4]
   d441c:	f7ff bf5c 	b.w	d42d8 <network_connect>

000d4420 <_GLOBAL__sub_I__ZN5spark8EthernetE>:
    static NetworkClass& from(network_interface_t nif);

    virtual IPAddress resolve(const char* name);

    explicit NetworkClass(network_interface_t iface)
            : iface_(iface) {
   d4420:	4b02      	ldr	r3, [pc, #8]	; (d442c <_GLOBAL__sub_I__ZN5spark8EthernetE+0xc>)
   d4422:	2203      	movs	r2, #3
   d4424:	605a      	str	r2, [r3, #4]
    }

class EthernetClass : public NetworkClass {
public:
    EthernetClass() :
            NetworkClass(NETWORK_INTERFACE_ETHERNET) {
   d4426:	4a02      	ldr	r2, [pc, #8]	; (d4430 <_GLOBAL__sub_I__ZN5spark8EthernetE+0x10>)
   d4428:	601a      	str	r2, [r3, #0]
   d442a:	4770      	bx	lr
   d442c:	2003e3b8 	.word	0x2003e3b8
   d4430:	000d510c 	.word	0x000d510c

000d4434 <_ZN8SPIClassD1Ev>:
  Mutex mutex_;
#endif

public:
  SPIClass(HAL_SPI_Interface spi);
  virtual ~SPIClass() {};
   d4434:	4770      	bx	lr

000d4436 <_ZN8SPIClassD0Ev>:
   d4436:	b510      	push	{r4, lr}
   d4438:	2110      	movs	r1, #16
   d443a:	4604      	mov	r4, r0
   d443c:	f000 fca9 	bl	d4d92 <_ZdlPvj>
   d4440:	4620      	mov	r0, r4
   d4442:	bd10      	pop	{r4, pc}

000d4444 <_ZN8SPIClassC1E17HAL_SPI_Interface>:
  if (!info->enabled || info->default_settings)
    return particle::__SPISettings();
  return particle::__SPISettings(info->clock, info->bit_order, info->data_mode);
}

SPIClass::SPIClass(HAL_SPI_Interface spi)
   d4444:	b570      	push	{r4, r5, r6, lr}
   d4446:	4b08      	ldr	r3, [pc, #32]	; (d4468 <_ZN8SPIClassC1E17HAL_SPI_Interface+0x24>)
   d4448:	6003      	str	r3, [r0, #0]
   d444a:	4604      	mov	r4, r0
    Mutex(os_mutex_t handle) : handle_(handle) {}

    /**
     * Creates a new mutex.
     */
    Mutex() : handle_(nullptr)
   d444c:	2500      	movs	r5, #0
   d444e:	460e      	mov	r6, r1
   d4450:	f840 5f0c 	str.w	r5, [r0, #12]!
    {
        os_mutex_create(&handle_);
   d4454:	f7ff fe94 	bl	d4180 <os_mutex_create>
{
  _spi = spi;
  HAL_SPI_Init(_spi);
   d4458:	4630      	mov	r0, r6
  return particle::__SPISettings(info->clock, info->bit_order, info->data_mode);
}

SPIClass::SPIClass(HAL_SPI_Interface spi)
{
  _spi = spi;
   d445a:	7126      	strb	r6, [r4, #4]
  HAL_SPI_Init(_spi);
   d445c:	f7ff fe60 	bl	d4120 <HAL_SPI_Init>
  dividerReference = SPI_CLK_SYSTEM;     // 0 indicates the system clock
   d4460:	60a5      	str	r5, [r4, #8]
}
   d4462:	4620      	mov	r0, r4
   d4464:	bd70      	pop	{r4, r5, r6, pc}
   d4466:	bf00      	nop
   d4468:	000d5140 	.word	0x000d5140

000d446c <_GLOBAL__sub_I_System>:
    WAKEUP_REASON_RTC = 2,
    WAKEUP_REASON_PIN_OR_RTC = 3
};

struct SleepResult {
    SleepResult() {}
   d446c:	4b04      	ldr	r3, [pc, #16]	; (d4480 <_GLOBAL__sub_I_System+0x14>)
   d446e:	2000      	movs	r0, #0
   d4470:	f64f 72ff 	movw	r2, #65535	; 0xffff
   d4474:	7018      	strb	r0, [r3, #0]
   d4476:	8058      	strh	r0, [r3, #2]
   d4478:	809a      	strh	r2, [r3, #4]

class SystemClass {
public:

    SystemClass(System_Mode_TypeDef mode = DEFAULT) {
        set_system_mode(mode);
   d447a:	f7ff bf09 	b.w	d4290 <set_system_mode>
   d447e:	bf00      	nop
   d4480:	2003e3c0 	.word	0x2003e3c0

000d4484 <_GLOBAL__sub_I__ZN8particle3ble13WiringBleLock6mutex_E>:
    /**
     * Creates a shared mutex.
     */
    RecursiveMutex(os_mutex_recursive_t handle) : handle_(handle) {}

    RecursiveMutex() : handle_(nullptr)
   d4484:	4802      	ldr	r0, [pc, #8]	; (d4490 <_GLOBAL__sub_I__ZN8particle3ble13WiringBleLock6mutex_E+0xc>)
   d4486:	2300      	movs	r3, #0
   d4488:	6003      	str	r3, [r0, #0]
    {
        os_mutex_recursive_create(&handle_);
   d448a:	f7ff be81 	b.w	d4190 <os_mutex_recursive_create>
   d448e:	bf00      	nop
   d4490:	2003e3c8 	.word	0x2003e3c8

000d4494 <_ZN5Print5writeEPKhj>:

// Public Methods //////////////////////////////////////////////////////////////

/* default implementation: may be overridden */
size_t Print::write(const uint8_t *buffer, size_t size)
{
   d4494:	b5f8      	push	{r3, r4, r5, r6, r7, lr}
   d4496:	4606      	mov	r6, r0
   d4498:	460d      	mov	r5, r1
   d449a:	188f      	adds	r7, r1, r2
  size_t n = 0;
   d449c:	2400      	movs	r4, #0
  while (size--) {
   d449e:	42bd      	cmp	r5, r7
   d44a0:	d00c      	beq.n	d44bc <_ZN5Print5writeEPKhj+0x28>
     int chunk = write(*buffer++);
   d44a2:	6833      	ldr	r3, [r6, #0]
   d44a4:	f815 1b01 	ldrb.w	r1, [r5], #1
   d44a8:	689b      	ldr	r3, [r3, #8]
   d44aa:	4630      	mov	r0, r6
   d44ac:	4798      	blx	r3
     if (chunk>=0)
   d44ae:	2800      	cmp	r0, #0
   d44b0:	db01      	blt.n	d44b6 <_ZN5Print5writeEPKhj+0x22>
         n += chunk;
   d44b2:	4404      	add	r4, r0

/* default implementation: may be overridden */
size_t Print::write(const uint8_t *buffer, size_t size)
{
  size_t n = 0;
  while (size--) {
   d44b4:	e7f3      	b.n	d449e <_ZN5Print5writeEPKhj+0xa>
     int chunk = write(*buffer++);
   d44b6:	2c00      	cmp	r4, #0
   d44b8:	bf08      	it	eq
   d44ba:	4604      	moveq	r4, r0
             n = chunk;
         break;
     }
  }
  return n;
}
   d44bc:	4620      	mov	r0, r4
   d44be:	bdf8      	pop	{r3, r4, r5, r6, r7, pc}

000d44c0 <_ZN5Print5writeEPKc>:

    int getWriteError() { return write_error; }
    void clearWriteError() { setWriteError(0); }

    virtual size_t write(uint8_t) = 0;
    size_t write(const char *str) {
   d44c0:	b570      	push	{r4, r5, r6, lr}
   d44c2:	4605      	mov	r5, r0
      if (str == NULL) return 0;
   d44c4:	460c      	mov	r4, r1
      return write((const uint8_t *)str, strlen(str));
    }
   d44c6:	4608      	mov	r0, r1
    int getWriteError() { return write_error; }
    void clearWriteError() { setWriteError(0); }

    virtual size_t write(uint8_t) = 0;
    size_t write(const char *str) {
      if (str == NULL) return 0;
   d44c8:	b149      	cbz	r1, d44de <_ZN5Print5writeEPKc+0x1e>
      return write((const uint8_t *)str, strlen(str));
   d44ca:	f000 fdf7 	bl	d50bc <strlen>
   d44ce:	682b      	ldr	r3, [r5, #0]
   d44d0:	4602      	mov	r2, r0
   d44d2:	4621      	mov	r1, r4
   d44d4:	4628      	mov	r0, r5
   d44d6:	68db      	ldr	r3, [r3, #12]
    }
   d44d8:	e8bd 4070 	ldmia.w	sp!, {r4, r5, r6, lr}
    void clearWriteError() { setWriteError(0); }

    virtual size_t write(uint8_t) = 0;
    size_t write(const char *str) {
      if (str == NULL) return 0;
      return write((const uint8_t *)str, strlen(str));
   d44dc:	4718      	bx	r3
    }
   d44de:	bd70      	pop	{r4, r5, r6, pc}

000d44e0 <_ZN5Print5printEc>:
  return write(str);
}

size_t Print::print(char c)
{
  return write(c);
   d44e0:	6803      	ldr	r3, [r0, #0]
   d44e2:	689b      	ldr	r3, [r3, #8]
   d44e4:	4718      	bx	r3

000d44e6 <_ZN5Print7printlnEv>:
{
  return print(reinterpret_cast<const char*>(str));
}

size_t Print::println(void)
{
   d44e6:	b538      	push	{r3, r4, r5, lr}
  size_t n = print('\r');
   d44e8:	210d      	movs	r1, #13
{
  return print(reinterpret_cast<const char*>(str));
}

size_t Print::println(void)
{
   d44ea:	4605      	mov	r5, r0
  size_t n = print('\r');
   d44ec:	f7ff fff8 	bl	d44e0 <_ZN5Print5printEc>
  n += print('\n');
   d44f0:	210a      	movs	r1, #10
  return print(reinterpret_cast<const char*>(str));
}

size_t Print::println(void)
{
  size_t n = print('\r');
   d44f2:	4604      	mov	r4, r0
  n += print('\n');
   d44f4:	4628      	mov	r0, r5
   d44f6:	f7ff fff3 	bl	d44e0 <_ZN5Print5printEc>
  return n;
}
   d44fa:	4420      	add	r0, r4
   d44fc:	bd38      	pop	{r3, r4, r5, pc}

000d44fe <_ZN5Print11printNumberEmh>:
  return println(reinterpret_cast<const char*>(str));
}

// Private Methods /////////////////////////////////////////////////////////////

size_t Print::printNumber(unsigned long n, uint8_t base) {
   d44fe:	b530      	push	{r4, r5, lr}
   d4500:	b08b      	sub	sp, #44	; 0x2c
   d4502:	460b      	mov	r3, r1
  char buf[8 * sizeof(long) + 1]; // Assumes 8-bit chars plus zero byte.
  char *str = &buf[sizeof(buf) - 1];

  *str = '\0';
   d4504:	2100      	movs	r1, #0
   d4506:	f88d 1024 	strb.w	r1, [sp, #36]	; 0x24

  // prevent crash if called with base == 1
  if (base < 2) base = 10;
   d450a:	2a01      	cmp	r2, #1
   d450c:	bf98      	it	ls
   d450e:	220a      	movls	r2, #10
   d4510:	f10d 0423 	add.w	r4, sp, #35	; 0x23

  do {
    unsigned long m = n;
    n /= base;
   d4514:	fbb3 f5f2 	udiv	r5, r3, r2
    char c = m - base * n;
   d4518:	fb05 3312 	mls	r3, r5, r2, r3
   d451c:	f003 03ff 	and.w	r3, r3, #255	; 0xff
    *--str = c < 10 ? c + '0' : c + 'A' - 10;
   d4520:	2b09      	cmp	r3, #9
   d4522:	bf94      	ite	ls
   d4524:	3330      	addls	r3, #48	; 0x30
   d4526:	3337      	addhi	r3, #55	; 0x37
   d4528:	b2db      	uxtb	r3, r3
   d452a:	4621      	mov	r1, r4
   d452c:	f804 3901 	strb.w	r3, [r4], #-1
   d4530:	462b      	mov	r3, r5
  *str = '\0';

  // prevent crash if called with base == 1
  if (base < 2) base = 10;

  do {
   d4532:	2d00      	cmp	r5, #0
   d4534:	d1ee      	bne.n	d4514 <_ZN5Print11printNumberEmh+0x16>
    n /= base;
    char c = m - base * n;
    *--str = c < 10 ? c + '0' : c + 'A' - 10;
  } while(n);

  return write(str);
   d4536:	f7ff ffc3 	bl	d44c0 <_ZN5Print5writeEPKc>
}
   d453a:	b00b      	add	sp, #44	; 0x2c
   d453c:	bd30      	pop	{r4, r5, pc}

000d453e <_ZN5Print5printEmi>:
    return printNumber(n, base);
  }
}

size_t Print::print(unsigned long n, int base)
{
   d453e:	b410      	push	{r4}
  if (base == 0) return write(n);
   d4540:	b92a      	cbnz	r2, d454e <_ZN5Print5printEmi+0x10>
   d4542:	6803      	ldr	r3, [r0, #0]
  else return printNumber(n, base);
}
   d4544:	f85d 4b04 	ldr.w	r4, [sp], #4
  }
}

size_t Print::print(unsigned long n, int base)
{
  if (base == 0) return write(n);
   d4548:	689b      	ldr	r3, [r3, #8]
   d454a:	b2c9      	uxtb	r1, r1
   d454c:	4718      	bx	r3
  else return printNumber(n, base);
   d454e:	b2d2      	uxtb	r2, r2
}
   d4550:	f85d 4b04 	ldr.w	r4, [sp], #4
}

size_t Print::print(unsigned long n, int base)
{
  if (base == 0) return write(n);
  else return printNumber(n, base);
   d4554:	f7ff bfd3 	b.w	d44fe <_ZN5Print11printNumberEmh>

000d4558 <_ZN5Print5printEhi>:
  return write(c);
}

size_t Print::print(unsigned char b, int base)
{
  return print((unsigned long) b, base);
   d4558:	f7ff bff1 	b.w	d453e <_ZN5Print5printEmi>

000d455c <_ZN5Print11printf_implEbPKcz>:

  return n;
}

size_t Print::printf_impl(bool newline, const char* format, ...)
{
   d455c:	b40c      	push	{r2, r3}
   d455e:	e92d 43f0 	stmdb	sp!, {r4, r5, r6, r7, r8, r9, lr}
   d4562:	b087      	sub	sp, #28
   d4564:	af00      	add	r7, sp, #0
   d4566:	f107 0438 	add.w	r4, r7, #56	; 0x38
   d456a:	4605      	mov	r5, r0
   d456c:	f854 9b04 	ldr.w	r9, [r4], #4
    const int bufsize = 20;
    char test[bufsize];
    va_list marker;
    va_start(marker, format);
   d4570:	603c      	str	r4, [r7, #0]

  return n;
}

size_t Print::printf_impl(bool newline, const char* format, ...)
{
   d4572:	460e      	mov	r6, r1
    const int bufsize = 20;
    char test[bufsize];
    va_list marker;
    va_start(marker, format);
    size_t n = vsnprintf(test, bufsize, format, marker);
   d4574:	4623      	mov	r3, r4
   d4576:	464a      	mov	r2, r9
   d4578:	2114      	movs	r1, #20
   d457a:	1d38      	adds	r0, r7, #4
   d457c:	f7ff ff14 	bl	d43a8 <vsnprintf>
    va_end(marker);

    if (n<bufsize)
   d4580:	2813      	cmp	r0, #19
   d4582:	d805      	bhi.n	d4590 <_ZN5Print11printf_implEbPKcz+0x34>
  return n;
}

size_t Print::print(const char str[])
{
  return write(str);
   d4584:	1d39      	adds	r1, r7, #4
   d4586:	4628      	mov	r0, r5
   d4588:	f7ff ff9a 	bl	d44c0 <_ZN5Print5writeEPKc>
   d458c:	4604      	mov	r4, r0
   d458e:	e013      	b.n	d45b8 <_ZN5Print11printf_implEbPKcz+0x5c>
    {
        n = print(test);
    }
    else
    {
        char bigger[n+1];
   d4590:	f100 0308 	add.w	r3, r0, #8
   d4594:	f023 0307 	bic.w	r3, r3, #7
        va_start(marker, format);
        n = vsnprintf(bigger, n+1, format, marker);
        va_end(marker);
        n = print(bigger);
   d4598:	46e8      	mov	r8, sp
    {
        n = print(test);
    }
    else
    {
        char bigger[n+1];
   d459a:	ebad 0d03 	sub.w	sp, sp, r3
        va_start(marker, format);
        n = vsnprintf(bigger, n+1, format, marker);
   d459e:	1c41      	adds	r1, r0, #1
   d45a0:	4623      	mov	r3, r4
   d45a2:	464a      	mov	r2, r9
   d45a4:	4668      	mov	r0, sp
        n = print(test);
    }
    else
    {
        char bigger[n+1];
        va_start(marker, format);
   d45a6:	603c      	str	r4, [r7, #0]
        n = vsnprintf(bigger, n+1, format, marker);
   d45a8:	f7ff fefe 	bl	d43a8 <vsnprintf>
  return n;
}

size_t Print::print(const char str[])
{
  return write(str);
   d45ac:	4669      	mov	r1, sp
   d45ae:	4628      	mov	r0, r5
   d45b0:	f7ff ff86 	bl	d44c0 <_ZN5Print5writeEPKc>
   d45b4:	4604      	mov	r4, r0
   d45b6:	46c5      	mov	sp, r8
        va_start(marker, format);
        n = vsnprintf(bigger, n+1, format, marker);
        va_end(marker);
        n = print(bigger);
    }
    if (newline)
   d45b8:	b11e      	cbz	r6, d45c2 <_ZN5Print11printf_implEbPKcz+0x66>
        n += println();
   d45ba:	4628      	mov	r0, r5
   d45bc:	f7ff ff93 	bl	d44e6 <_ZN5Print7printlnEv>
   d45c0:	4404      	add	r4, r0
    return n;
}
   d45c2:	4620      	mov	r0, r4
   d45c4:	371c      	adds	r7, #28
   d45c6:	46bd      	mov	sp, r7
   d45c8:	e8bd 43f0 	ldmia.w	sp!, {r4, r5, r6, r7, r8, r9, lr}
   d45cc:	b002      	add	sp, #8
   d45ce:	4770      	bx	lr

000d45d0 <_GLOBAL__sub_I__ZN5spark3LogE>:
    // This handler doesn't support direct logging
}

// spark::Logger
inline spark::Logger::Logger(const char *name) :
        name_(name) {
   d45d0:	4b01      	ldr	r3, [pc, #4]	; (d45d8 <_GLOBAL__sub_I__ZN5spark3LogE+0x8>)
   d45d2:	4a02      	ldr	r2, [pc, #8]	; (d45dc <_GLOBAL__sub_I__ZN5spark3LogE+0xc>)
   d45d4:	601a      	str	r2, [r3, #0]
   d45d6:	4770      	bx	lr
   d45d8:	2003e3cc 	.word	0x2003e3cc
   d45dc:	000d51bb 	.word	0x000d51bb

000d45e0 <_GLOBAL__sub_I_TIME_FORMAT_DEFAULT>:
            calendar_time_cache = Convert_UnixTime_To_CalendarTime(unix_time);
            unix_time_cache = unix_time;
    }
}

const char* TimeClass::format_spec = TIME_FORMAT_DEFAULT;
   d45e0:	4b02      	ldr	r3, [pc, #8]	; (d45ec <_GLOBAL__sub_I_TIME_FORMAT_DEFAULT+0xc>)
   d45e2:	681a      	ldr	r2, [r3, #0]
   d45e4:	4b02      	ldr	r3, [pc, #8]	; (d45f0 <_GLOBAL__sub_I_TIME_FORMAT_DEFAULT+0x10>)
   d45e6:	601a      	str	r2, [r3, #0]
   d45e8:	4770      	bx	lr
   d45ea:	bf00      	nop
   d45ec:	2003e348 	.word	0x2003e348
   d45f0:	2003e3d0 	.word	0x2003e3d0

000d45f4 <delay>:
    return (value - fromStart) * (toEnd - toStart) / (fromEnd - fromStart) + toStart;
}

void delay(unsigned long ms)
{
    system_delay_ms(ms, false);
   d45f4:	2100      	movs	r1, #0
   d45f6:	f7ff be53 	b.w	d42a0 <system_delay_ms>

000d45fa <_ZNSt14_Function_baseD1Ev>:
	}
      };

    _Function_base() : _M_manager(nullptr) { }

    ~_Function_base()
   d45fa:	b510      	push	{r4, lr}
    {
      if (_M_manager)
   d45fc:	6883      	ldr	r3, [r0, #8]
	}
      };

    _Function_base() : _M_manager(nullptr) { }

    ~_Function_base()
   d45fe:	4604      	mov	r4, r0
    {
      if (_M_manager)
   d4600:	b113      	cbz	r3, d4608 <_ZNSt14_Function_baseD1Ev+0xe>
	_M_manager(_M_functor, _M_functor, __destroy_functor);
   d4602:	2203      	movs	r2, #3
   d4604:	4601      	mov	r1, r0
   d4606:	4798      	blx	r3
    }
   d4608:	4620      	mov	r0, r4
   d460a:	bd10      	pop	{r4, pc}

000d460c <_ZN8RGBClassD1Ev>:
#include "rgbled.h"

typedef void (raw_rgb_change_handler_t)(uint8_t, uint8_t, uint8_t);
typedef std::function<raw_rgb_change_handler_t> wiring_rgb_change_handler_t;

class RGBClass {
   d460c:	b510      	push	{r4, lr}
   d460e:	4604      	mov	r4, r0
   *  @ingroup functors
   *
   *  Polymorphic function wrapper.
   */
  template<typename _Res, typename... _ArgTypes>
    class function<_Res(_ArgTypes...)>
   d4610:	f7ff fff3 	bl	d45fa <_ZNSt14_Function_baseD1Ev>
   d4614:	4620      	mov	r0, r4
   d4616:	bd10      	pop	{r4, pc}

000d4618 <_GLOBAL__sub_I_RGB>:
	{
	  _Base::_M_init_functor(__functor, std::__addressof(__f.get()));
	}
      };

    _Function_base() : _M_manager(nullptr) { }
   d4618:	4803      	ldr	r0, [pc, #12]	; (d4628 <_GLOBAL__sub_I_RGB+0x10>)
#include "spark_wiring_rgb.h"
#include "spark_wiring_interrupts.h"

#include "core_hal.h"

RGBClass RGB;
   d461a:	4a04      	ldr	r2, [pc, #16]	; (d462c <_GLOBAL__sub_I_RGB+0x14>)
   d461c:	4904      	ldr	r1, [pc, #16]	; (d4630 <_GLOBAL__sub_I_RGB+0x18>)
   d461e:	2300      	movs	r3, #0
   d4620:	6083      	str	r3, [r0, #8]
   d4622:	f000 bbb1 	b.w	d4d88 <__aeabi_atexit>
   d4626:	bf00      	nop
   d4628:	2003e3d4 	.word	0x2003e3d4
   d462c:	2003e3b0 	.word	0x2003e3b0
   d4630:	000d460d 	.word	0x000d460d

000d4634 <serialEventRun>:

/**
 * Provides background processing of serial data.
 */
void serialEventRun()
{
   d4634:	b508      	push	{r3, lr}
    if (serialEvent && Serial.available()>0)
   d4636:	4b0c      	ldr	r3, [pc, #48]	; (d4668 <serialEventRun+0x34>)
   d4638:	b133      	cbz	r3, d4648 <serialEventRun+0x14>
   d463a:	f000 f935 	bl	d48a8 <_Z16_fetch_usbserialv>
   d463e:	6803      	ldr	r3, [r0, #0]
   d4640:	691b      	ldr	r3, [r3, #16]
   d4642:	4798      	blx	r3
   d4644:	2800      	cmp	r0, #0
   d4646:	dc09      	bgt.n	d465c <serialEventRun+0x28>
        serialEvent();

    if (serialEvent1 && Serial1.available()>0)
   d4648:	4b08      	ldr	r3, [pc, #32]	; (d466c <serialEventRun+0x38>)
   d464a:	b163      	cbz	r3, d4666 <serialEventRun+0x32>
   d464c:	f000 f9fe 	bl	d4a4c <_Z22__fetch_global_Serial1v>
   d4650:	6803      	ldr	r3, [r0, #0]
   d4652:	691b      	ldr	r3, [r3, #16]
   d4654:	4798      	blx	r3
   d4656:	2800      	cmp	r0, #0
   d4658:	dc03      	bgt.n	d4662 <serialEventRun+0x2e>
   d465a:	bd08      	pop	{r3, pc}
 * Provides background processing of serial data.
 */
void serialEventRun()
{
    if (serialEvent && Serial.available()>0)
        serialEvent();
   d465c:	f3af 8000 	nop.w
   d4660:	e7f2      	b.n	d4648 <serialEventRun+0x14>

    if (serialEvent1 && Serial1.available()>0)
        serialEvent1();
   d4662:	f3af 8000 	nop.w
   d4666:	bd08      	pop	{r3, pc}
	...

000d4670 <_post_loop>:
#if Wiring_Serial5
void serialEvent5() __attribute__((weak));
#endif

void _post_loop()
{
   d4670:	b508      	push	{r3, lr}
	serialEventRun();
   d4672:	f7ff ffdf 	bl	d4634 <serialEventRun>
		return !timeout_fn;
	}

	static inline system_tick_t current_time()
	{
		return HAL_Timer_Get_Milli_Seconds();
   d4676:	f7ff fd63 	bl	d4140 <HAL_Timer_Get_Milli_Seconds>
	/**
	 * Lifesign that the application is still working normally.
	 */
	static void checkin()
	{
		last_checkin = current_time();
   d467a:	4b01      	ldr	r3, [pc, #4]	; (d4680 <_post_loop+0x10>)
   d467c:	6018      	str	r0, [r3, #0]
   d467e:	bd08      	pop	{r3, pc}
   d4680:	2003e74c 	.word	0x2003e74c

000d4684 <_Z27ctrl_request_custom_handlerP12ctrl_request>:
bool __backup_ram_was_valid() { return false; }

#endif

// Default handler for CTRL_REQUEST_APP_CUSTOM requests
void __attribute((weak)) ctrl_request_custom_handler(ctrl_request* req) {
   d4684:	b507      	push	{r0, r1, r2, lr}
    system_ctrl_set_result(req, SYSTEM_ERROR_NOT_SUPPORTED, nullptr, nullptr, nullptr);
   d4686:	2300      	movs	r3, #0
   d4688:	9300      	str	r3, [sp, #0]
   d468a:	461a      	mov	r2, r3
   d468c:	f06f 0177 	mvn.w	r1, #119	; 0x77
   d4690:	f7ff fe18 	bl	d42c4 <system_ctrl_set_result>
}
   d4694:	b003      	add	sp, #12
   d4696:	f85d fb04 	ldr.w	pc, [sp], #4
	...

000d469c <_ZL20ctrl_request_handlerP12ctrl_request>:
// Callback invoked to process a logging configuration request
void(*log_process_ctrl_request_callback)(ctrl_request* req) = nullptr;
#endif

// Application handler for control requests
static void ctrl_request_handler(ctrl_request* req) {
   d469c:	b507      	push	{r0, r1, r2, lr}
    switch (req->type) {
   d469e:	8843      	ldrh	r3, [r0, #2]
   d46a0:	2b0a      	cmp	r3, #10
   d46a2:	d008      	beq.n	d46b6 <_ZL20ctrl_request_handlerP12ctrl_request+0x1a>
   d46a4:	2b50      	cmp	r3, #80	; 0x50
   d46a6:	d109      	bne.n	d46bc <_ZL20ctrl_request_handlerP12ctrl_request+0x20>
#if Wiring_LogConfig
    case CTRL_REQUEST_LOG_CONFIG: {
        if (log_process_ctrl_request_callback) {
   d46a8:	4b09      	ldr	r3, [pc, #36]	; (d46d0 <_ZL20ctrl_request_handlerP12ctrl_request+0x34>)
   d46aa:	681b      	ldr	r3, [r3, #0]
   d46ac:	b13b      	cbz	r3, d46be <_ZL20ctrl_request_handlerP12ctrl_request+0x22>
    }
    default:
        system_ctrl_set_result(req, SYSTEM_ERROR_NOT_SUPPORTED, nullptr, nullptr, nullptr);
        break;
    }
}
   d46ae:	b003      	add	sp, #12
   d46b0:	f85d eb04 	ldr.w	lr, [sp], #4
static void ctrl_request_handler(ctrl_request* req) {
    switch (req->type) {
#if Wiring_LogConfig
    case CTRL_REQUEST_LOG_CONFIG: {
        if (log_process_ctrl_request_callback) {
            log_process_ctrl_request_callback(req);
   d46b4:	4718      	bx	r3
        }
        break;
    }
#endif
    case CTRL_REQUEST_APP_CUSTOM: {
        ctrl_request_custom_handler(req);
   d46b6:	f7ff ffe5 	bl	d4684 <_Z27ctrl_request_custom_handlerP12ctrl_request>
        break;
   d46ba:	e006      	b.n	d46ca <_ZL20ctrl_request_handlerP12ctrl_request+0x2e>
    }
    default:
        system_ctrl_set_result(req, SYSTEM_ERROR_NOT_SUPPORTED, nullptr, nullptr, nullptr);
   d46bc:	2300      	movs	r3, #0
   d46be:	9300      	str	r3, [sp, #0]
   d46c0:	461a      	mov	r2, r3
   d46c2:	f06f 0177 	mvn.w	r1, #119	; 0x77
   d46c6:	f7ff fdfd 	bl	d42c4 <system_ctrl_set_result>
        break;
    }
}
   d46ca:	b003      	add	sp, #12
   d46cc:	f85d fb04 	ldr.w	pc, [sp], #4
   d46d0:	2003e3e4 	.word	0x2003e3e4

000d46d4 <module_user_init_hook>:

void module_user_init_hook()
{
   d46d4:	b510      	push	{r4, lr}
    }
#endif

#if HAL_PLATFORM_RNG
    // Initialize the default stdlib PRNG using hardware RNG as a seed
    const uint32_t seed = HAL_RNG_GetRandomNumber();
   d46d6:	f7ff fd2b 	bl	d4130 <HAL_RNG_GetRandomNumber>
   d46da:	4604      	mov	r4, r0
    srand(seed);
   d46dc:	f000 fcc6 	bl	d506c <srand>

    // If the user defines random_seed_from_cloud, call it with a seed value
    // generated by a hardware RNG as well.
    if (random_seed_from_cloud) {
   d46e0:	4b07      	ldr	r3, [pc, #28]	; (d4700 <module_user_init_hook+0x2c>)
   d46e2:	b113      	cbz	r3, d46ea <module_user_init_hook+0x16>
        random_seed_from_cloud(seed);
   d46e4:	4620      	mov	r0, r4
   d46e6:	f3af 8000 	nop.w
    }
#endif
    // Register the random_seed_from_cloud handler
    spark_set_random_seed_from_cloud_handler(&random_seed_from_cloud, nullptr);
   d46ea:	2100      	movs	r1, #0
   d46ec:	4804      	ldr	r0, [pc, #16]	; (d4700 <module_user_init_hook+0x2c>)
   d46ee:	f7ff fe43 	bl	d4378 <spark_set_random_seed_from_cloud_handler>

    // Register application handler for the control requests
    system_ctrl_set_app_request_handler(ctrl_request_handler, nullptr);
   d46f2:	2100      	movs	r1, #0
   d46f4:	4803      	ldr	r0, [pc, #12]	; (d4704 <module_user_init_hook+0x30>)
}
   d46f6:	e8bd 4010 	ldmia.w	sp!, {r4, lr}
#endif
    // Register the random_seed_from_cloud handler
    spark_set_random_seed_from_cloud_handler(&random_seed_from_cloud, nullptr);

    // Register application handler for the control requests
    system_ctrl_set_app_request_handler(ctrl_request_handler, nullptr);
   d46fa:	f7ff bdd9 	b.w	d42b0 <system_ctrl_set_app_request_handler>
   d46fe:	bf00      	nop
   d4700:	00000000 	.word	0x00000000
   d4704:	000d469d 	.word	0x000d469d

000d4708 <_ZN9IPAddressD1Ev>:
    IPAddress(uint8_t first_octet, uint8_t second_octet, uint8_t third_octet, uint8_t fourth_octet);
    IPAddress(uint32_t address);
    IPAddress(const uint8_t* address);
    IPAddress(const HAL_IPAddress& address);

    virtual ~IPAddress() {}
   d4708:	4770      	bx	lr

000d470a <_ZN9IPAddressD0Ev>:
   d470a:	b510      	push	{r4, lr}
   d470c:	2118      	movs	r1, #24
   d470e:	4604      	mov	r4, r0
   d4710:	f000 fb3f 	bl	d4d92 <_ZdlPvj>
   d4714:	4620      	mov	r0, r4
   d4716:	bd10      	pop	{r4, pc}

000d4718 <_ZNK9IPAddress7printToER5Print>:
#endif // Wiring_IPv6
	return address.ipv4==that.address.ipv4;
}

size_t IPAddress::printTo(Print& p) const
{
   d4718:	b5f0      	push	{r4, r5, r6, r7, lr}
#if Wiring_IPv6
#if HAL_USE_INET_HAL_POSIX
	if (address.v==6) {
   d471a:	7d03      	ldrb	r3, [r0, #20]
   d471c:	2b06      	cmp	r3, #6
#endif // Wiring_IPv6
	return address.ipv4==that.address.ipv4;
}

size_t IPAddress::printTo(Print& p) const
{
   d471e:	b08d      	sub	sp, #52	; 0x34
   d4720:	460e      	mov	r6, r1
   d4722:	f100 0704 	add.w	r7, r0, #4
   d4726:	f04f 0400 	mov.w	r4, #0
#if Wiring_IPv6
#if HAL_USE_INET_HAL_POSIX
	if (address.v==6) {
   d472a:	d002      	beq.n	d4732 <_ZNK9IPAddress7printToER5Print+0x1a>
   d472c:	f100 0508 	add.w	r5, r0, #8
   d4730:	e018      	b.n	d4764 <_ZNK9IPAddress7printToER5Print+0x4c>
		char buf[INET6_ADDRSTRLEN+1];
		buf[0] = 0;
   d4732:	ad0c      	add	r5, sp, #48	; 0x30
		inet_inet_ntop(AF_INET6, address.ipv6, buf, sizeof(buf));
   d4734:	4639      	mov	r1, r7
{
#if Wiring_IPv6
#if HAL_USE_INET_HAL_POSIX
	if (address.v==6) {
		char buf[INET6_ADDRSTRLEN+1];
		buf[0] = 0;
   d4736:	f805 4d30 	strb.w	r4, [r5, #-48]!
		inet_inet_ntop(AF_INET6, address.ipv6, buf, sizeof(buf));
   d473a:	232f      	movs	r3, #47	; 0x2f
   d473c:	462a      	mov	r2, r5
   d473e:	200a      	movs	r0, #10
   d4740:	f7ff fd2e 	bl	d41a0 <inet_inet_ntop>
    void clearWriteError() { setWriteError(0); }

    virtual size_t write(uint8_t) = 0;
    size_t write(const char *str) {
      if (str == NULL) return 0;
      return write((const uint8_t *)str, strlen(str));
   d4744:	4628      	mov	r0, r5
   d4746:	f000 fcb9 	bl	d50bc <strlen>
   d474a:	6833      	ldr	r3, [r6, #0]
   d474c:	4602      	mov	r2, r0
   d474e:	68db      	ldr	r3, [r3, #12]
   d4750:	4629      	mov	r1, r5
   d4752:	4630      	mov	r0, r6
   d4754:	4798      	blx	r3
   d4756:	e00f      	b.n	d4778 <_ZNK9IPAddress7printToER5Print+0x60>
#endif // HAL_USE_INET_HAL_POSIX
#endif // Wiring_IPv6
    size_t n = 0;
    for (int i = 0; i < 4; i++)
    {
        if (n)
   d4758:	b124      	cbz	r4, d4764 <_ZNK9IPAddress7printToER5Print+0x4c>
            n += p.print('.');
   d475a:	212e      	movs	r1, #46	; 0x2e
   d475c:	4630      	mov	r0, r6
   d475e:	f7ff febf 	bl	d44e0 <_ZN5Print5printEc>
   d4762:	4404      	add	r4, r0
        n += p.print((*this)[i], DEC);
   d4764:	f815 1d01 	ldrb.w	r1, [r5, #-1]!
   d4768:	220a      	movs	r2, #10
   d476a:	4630      	mov	r0, r6
   d476c:	f7ff fef4 	bl	d4558 <_ZN5Print5printEhi>
#else
#pragma message "HAL_USE_INET_HAL_POSIX is required for IPv6 support in IPAddress::printTo()"
#endif // HAL_USE_INET_HAL_POSIX
#endif // Wiring_IPv6
    size_t n = 0;
    for (int i = 0; i < 4; i++)
   d4770:	42bd      	cmp	r5, r7
    {
        if (n)
            n += p.print('.');
        n += p.print((*this)[i], DEC);
   d4772:	4404      	add	r4, r0
#else
#pragma message "HAL_USE_INET_HAL_POSIX is required for IPv6 support in IPAddress::printTo()"
#endif // HAL_USE_INET_HAL_POSIX
#endif // Wiring_IPv6
    size_t n = 0;
    for (int i = 0; i < 4; i++)
   d4774:	d1f0      	bne.n	d4758 <_ZNK9IPAddress7printToER5Print+0x40>
    {
        if (n)
            n += p.print('.');
        n += p.print((*this)[i], DEC);
   d4776:	4620      	mov	r0, r4
    }
    return n;
}
   d4778:	b00d      	add	sp, #52	; 0x34
   d477a:	bdf0      	pop	{r4, r5, r6, r7, pc}

000d477c <_ZN9IPAddressC1Ev>:

#if HAL_USE_INET_HAL_POSIX
#include <arpa/inet.h>
#endif // HAL_USE_INET_HAL_POSIX

IPAddress::IPAddress()
   d477c:	b510      	push	{r4, lr}
   d477e:	4b05      	ldr	r3, [pc, #20]	; (d4794 <_ZN9IPAddressC1Ev+0x18>)
   d4780:	4604      	mov	r4, r0
        return address;
    }

    virtual size_t printTo(Print& p) const;

    void clear() { memset(&address, 0, sizeof (address)); }
   d4782:	2211      	movs	r2, #17
   d4784:	f840 3b04 	str.w	r3, [r0], #4
   d4788:	2100      	movs	r1, #0
   d478a:	f000 fc66 	bl	d505a <memset>
{
    clear();
}
   d478e:	4620      	mov	r0, r4
   d4790:	bd10      	pop	{r4, pc}
   d4792:	bf00      	nop
   d4794:	000d5258 	.word	0x000d5258

000d4798 <_ZN9IPAddressC1ERK16_HAL_IPAddress_t>:

IPAddress::IPAddress(const HAL_IPAddress& address)
   d4798:	4603      	mov	r3, r0
   d479a:	4a07      	ldr	r2, [pc, #28]	; (d47b8 <_ZN9IPAddressC1ERK16_HAL_IPAddress_t+0x20>)
   d479c:	b510      	push	{r4, lr}
   d479e:	f843 2b04 	str.w	r2, [r3], #4
{
    memcpy(&this->address, &address, sizeof(address));
   d47a2:	f101 0210 	add.w	r2, r1, #16
   d47a6:	f851 4b04 	ldr.w	r4, [r1], #4
   d47aa:	f843 4b04 	str.w	r4, [r3], #4
   d47ae:	4291      	cmp	r1, r2
   d47b0:	d1f9      	bne.n	d47a6 <_ZN9IPAddressC1ERK16_HAL_IPAddress_t+0xe>
   d47b2:	780a      	ldrb	r2, [r1, #0]
   d47b4:	701a      	strb	r2, [r3, #0]
}
   d47b6:	bd10      	pop	{r4, pc}
   d47b8:	000d5258 	.word	0x000d5258

000d47bc <_ZN9IPAddress8set_ipv4Ehhhh>:
    return address.ipv4!=0;
#endif
}

void IPAddress::set_ipv4(uint8_t b0, uint8_t b1, uint8_t b2, uint8_t b3)
{
   d47bc:	b510      	push	{r4, lr}
    address.ipv4 = b0<<24 | b1 << 16 | b2 << 8 | b3;
   d47be:	f89d 4008 	ldrb.w	r4, [sp, #8]
   d47c2:	ea44 2303 	orr.w	r3, r4, r3, lsl #8
   d47c6:	ea43 4202 	orr.w	r2, r3, r2, lsl #16
   d47ca:	ea42 6101 	orr.w	r1, r2, r1, lsl #24
        return &address;
    }

    inline void setVersion(uint8_t version) {
#if HAL_IPv6
        address.v = version;
   d47ce:	2304      	movs	r3, #4
   d47d0:	6041      	str	r1, [r0, #4]
   d47d2:	7503      	strb	r3, [r0, #20]
   d47d4:	bd10      	pop	{r4, pc}

000d47d6 <_ZN9IPAddressaSEPKh>:
    setVersion(4);
}

IPAddress& IPAddress::operator=(const uint8_t* address)
{
   d47d6:	b537      	push	{r0, r1, r2, r4, r5, lr}
    set_ipv4(address[0], address[1], address[2], address[3]);
   d47d8:	780d      	ldrb	r5, [r1, #0]
   d47da:	788b      	ldrb	r3, [r1, #2]
   d47dc:	784a      	ldrb	r2, [r1, #1]
   d47de:	78c9      	ldrb	r1, [r1, #3]
   d47e0:	9100      	str	r1, [sp, #0]
   d47e2:	4629      	mov	r1, r5
   d47e4:	f7ff ffea 	bl	d47bc <_ZN9IPAddress8set_ipv4Ehhhh>
    return *this;
}
   d47e8:	b003      	add	sp, #12
   d47ea:	bd30      	pop	{r4, r5, pc}

000d47ec <_ZN9USBSerial14blockOnOverrunEb>:
  HAL_USB_USART_Flush_Data(_serial);
}

void USBSerial::blockOnOverrun(bool block)
{
  _blocking = block;
   d47ec:	7441      	strb	r1, [r0, #17]
   d47ee:	4770      	bx	lr

000d47f0 <_ZN9USBSerialD1Ev>:
#include "usb_hal.h"
#include "system_task.h"
#include "spark_wiring_startup.h"
#include "concurrent_hal.h"

class USBSerial : public Stream
   d47f0:	4770      	bx	lr

000d47f2 <_ZN9USBSerial4readEv>:
}


// Read data from buffer
int USBSerial::read()
{
   d47f2:	b508      	push	{r3, lr}
	return std::max(-1, (int)HAL_USB_USART_Receive_Data(_serial, false));
   d47f4:	2100      	movs	r1, #0
   d47f6:	7c00      	ldrb	r0, [r0, #16]
   d47f8:	f7ff fd32 	bl	d4260 <HAL_USB_USART_Receive_Data>
}
   d47fc:	ea30 0020 	bics.w	r0, r0, r0, asr #32
   d4800:	bf28      	it	cs
   d4802:	f04f 30ff 	movcs.w	r0, #4294967295
   d4806:	bd08      	pop	{r3, pc}

000d4808 <_ZN9USBSerial4peekEv>:
{
  _blocking = block;
}

int USBSerial::peek()
{
   d4808:	b508      	push	{r3, lr}
	return std::max(-1, (int)HAL_USB_USART_Receive_Data(_serial, true));
   d480a:	2101      	movs	r1, #1
   d480c:	7c00      	ldrb	r0, [r0, #16]
   d480e:	f7ff fd27 	bl	d4260 <HAL_USB_USART_Receive_Data>
}
   d4812:	ea30 0020 	bics.w	r0, r0, r0, asr #32
   d4816:	bf28      	it	cs
   d4818:	f04f 30ff 	movcs.w	r0, #4294967295
   d481c:	bd08      	pop	{r3, pc}

000d481e <_ZN9USBSerial17availableForWriteEv>:
{
	return std::max(-1, (int)HAL_USB_USART_Receive_Data(_serial, false));
}

int USBSerial::availableForWrite()
{
   d481e:	b508      	push	{r3, lr}
  return std::max(0, (int)HAL_USB_USART_Available_Data_For_Write(_serial));
   d4820:	7c00      	ldrb	r0, [r0, #16]
   d4822:	f7ff fd15 	bl	d4250 <HAL_USB_USART_Available_Data_For_Write>
}
   d4826:	ea20 70e0 	bic.w	r0, r0, r0, asr #31
   d482a:	bd08      	pop	{r3, pc}

000d482c <_ZN9USBSerial9availableEv>:

int USBSerial::available()
{
   d482c:	b508      	push	{r3, lr}
	return std::max(0, (int)HAL_USB_USART_Available_Data(_serial));
   d482e:	7c00      	ldrb	r0, [r0, #16]
   d4830:	f7ff fd06 	bl	d4240 <HAL_USB_USART_Available_Data>
}
   d4834:	ea20 70e0 	bic.w	r0, r0, r0, asr #31
   d4838:	bd08      	pop	{r3, pc}

000d483a <_ZN9USBSerial5flushEv>:
  return 0;
}

void USBSerial::flush()
{
  HAL_USB_USART_Flush_Data(_serial);
   d483a:	7c00      	ldrb	r0, [r0, #16]
   d483c:	f7ff bd20 	b.w	d4280 <HAL_USB_USART_Flush_Data>

000d4840 <_ZN9USBSerialD0Ev>:
   d4840:	b510      	push	{r4, lr}
   d4842:	2114      	movs	r1, #20
   d4844:	4604      	mov	r4, r0
   d4846:	f000 faa4 	bl	d4d92 <_ZdlPvj>
   d484a:	4620      	mov	r0, r4
   d484c:	bd10      	pop	{r4, pc}

000d484e <_ZN9USBSerial5writeEh>:
{
	return std::max(0, (int)HAL_USB_USART_Available_Data(_serial));
}

size_t USBSerial::write(uint8_t byte)
{
   d484e:	b538      	push	{r3, r4, r5, lr}
   d4850:	4604      	mov	r4, r0
  if (HAL_USB_USART_Available_Data_For_Write(_serial) > 0 || _blocking) {
   d4852:	7c00      	ldrb	r0, [r0, #16]
{
	return std::max(0, (int)HAL_USB_USART_Available_Data(_serial));
}

size_t USBSerial::write(uint8_t byte)
{
   d4854:	460d      	mov	r5, r1
  if (HAL_USB_USART_Available_Data_For_Write(_serial) > 0 || _blocking) {
   d4856:	f7ff fcfb 	bl	d4250 <HAL_USB_USART_Available_Data_For_Write>
   d485a:	2800      	cmp	r0, #0
   d485c:	dc01      	bgt.n	d4862 <_ZN9USBSerial5writeEh+0x14>
   d485e:	7c60      	ldrb	r0, [r4, #17]
   d4860:	b128      	cbz	r0, d486e <_ZN9USBSerial5writeEh+0x20>
    return std::max(0, (int)HAL_USB_USART_Send_Data(_serial, byte));
   d4862:	4629      	mov	r1, r5
   d4864:	7c20      	ldrb	r0, [r4, #16]
   d4866:	f7ff fd03 	bl	d4270 <HAL_USB_USART_Send_Data>
   d486a:	ea20 70e0 	bic.w	r0, r0, r0, asr #31
  }
  return 0;
}
   d486e:	bd38      	pop	{r3, r4, r5, pc}

000d4870 <_ZN9USBSerialC1E20HAL_USB_USART_SerialRK20HAL_USB_USART_Config>:

  HAL_USB_USART_Config conf = acquireSerialBuffer();
  HAL_USB_USART_Init(_serial, &conf);
}

USBSerial::USBSerial(HAL_USB_USART_Serial serial, const HAL_USB_USART_Config& conf)
   d4870:	b510      	push	{r4, lr}
   d4872:	4604      	mov	r4, r0
  protected:
    void setWriteError(int err = 1) { write_error = err; }
    size_t printf_impl(bool newline, const char* format, ...);

  public:
    Print() : write_error(0) {}
   d4874:	2300      	movs	r3, #0
   d4876:	6063      	str	r3, [r4, #4]
    virtual int available() = 0;
    virtual int read() = 0;
    virtual int peek() = 0;
    virtual void flush() = 0;

    Stream() {_timeout=1000;}
   d4878:	f44f 737a 	mov.w	r3, #1000	; 0x3e8
   d487c:	60a3      	str	r3, [r4, #8]
   d487e:	4b05      	ldr	r3, [pc, #20]	; (d4894 <_ZN9USBSerialC1E20HAL_USB_USART_SerialRK20HAL_USB_USART_Config+0x24>)
   d4880:	6023      	str	r3, [r4, #0]
{
  _serial = serial;
  _blocking = true;
   d4882:	2301      	movs	r3, #1

  HAL_USB_USART_Config conf = acquireSerialBuffer();
  HAL_USB_USART_Init(_serial, &conf);
}

USBSerial::USBSerial(HAL_USB_USART_Serial serial, const HAL_USB_USART_Config& conf)
   d4884:	4608      	mov	r0, r1
{
  _serial = serial;
   d4886:	7421      	strb	r1, [r4, #16]
  _blocking = true;
   d4888:	7463      	strb	r3, [r4, #17]

  HAL_USB_USART_Init(_serial, &conf);
   d488a:	4611      	mov	r1, r2
   d488c:	f7ff fcd0 	bl	d4230 <HAL_USB_USART_Init>
}
   d4890:	4620      	mov	r0, r4
   d4892:	bd10      	pop	{r4, pc}
   d4894:	000d526c 	.word	0x000d526c

000d4898 <_Z19acquireSerialBufferv>:

// Preinstantiate Objects //////////////////////////////////////////////////////
#ifdef SPARK_USB_SERIAL

HAL_USB_USART_Config __attribute__((weak)) acquireSerialBuffer()
{
   d4898:	b510      	push	{r4, lr}
  HAL_USB_USART_Config conf = {0};
   d489a:	2214      	movs	r2, #20

// Preinstantiate Objects //////////////////////////////////////////////////////
#ifdef SPARK_USB_SERIAL

HAL_USB_USART_Config __attribute__((weak)) acquireSerialBuffer()
{
   d489c:	4604      	mov	r4, r0
  HAL_USB_USART_Config conf = {0};
   d489e:	2100      	movs	r1, #0
   d48a0:	f000 fbdb 	bl	d505a <memset>
  conf.rx_buffer_size = USB_RX_BUFFER_SIZE;
  conf.tx_buffer_size = USB_TX_BUFFER_SIZE;
#endif

  return conf;
}
   d48a4:	4620      	mov	r0, r4
   d48a6:	bd10      	pop	{r4, pc}

000d48a8 <_Z16_fetch_usbserialv>:

USBSerial& _fetch_usbserial()
{
   d48a8:	b530      	push	{r4, r5, lr}
  HAL_USB_USART_Config conf = acquireSerialBuffer();
	static USBSerial _usbserial(HAL_USB_USART_SERIAL, conf);
   d48aa:	4d0e      	ldr	r5, [pc, #56]	; (d48e4 <_Z16_fetch_usbserialv+0x3c>)

  return conf;
}

USBSerial& _fetch_usbserial()
{
   d48ac:	b087      	sub	sp, #28
  HAL_USB_USART_Config conf = acquireSerialBuffer();
   d48ae:	a801      	add	r0, sp, #4
   d48b0:	f7ff fff2 	bl	d4898 <_Z19acquireSerialBufferv>
	static USBSerial _usbserial(HAL_USB_USART_SERIAL, conf);
   d48b4:	6829      	ldr	r1, [r5, #0]
   d48b6:	f011 0401 	ands.w	r4, r1, #1
   d48ba:	d110      	bne.n	d48de <_Z16_fetch_usbserialv+0x36>
   d48bc:	4628      	mov	r0, r5
   d48be:	f7ff fbee 	bl	d409e <__cxa_guard_acquire>
   d48c2:	b160      	cbz	r0, d48de <_Z16_fetch_usbserialv+0x36>
   d48c4:	aa01      	add	r2, sp, #4
   d48c6:	4621      	mov	r1, r4
   d48c8:	4807      	ldr	r0, [pc, #28]	; (d48e8 <_Z16_fetch_usbserialv+0x40>)
   d48ca:	f7ff ffd1 	bl	d4870 <_ZN9USBSerialC1E20HAL_USB_USART_SerialRK20HAL_USB_USART_Config>
   d48ce:	4628      	mov	r0, r5
   d48d0:	f7ff fbea 	bl	d40a8 <__cxa_guard_release>
   d48d4:	4a05      	ldr	r2, [pc, #20]	; (d48ec <_Z16_fetch_usbserialv+0x44>)
   d48d6:	4906      	ldr	r1, [pc, #24]	; (d48f0 <_Z16_fetch_usbserialv+0x48>)
   d48d8:	4803      	ldr	r0, [pc, #12]	; (d48e8 <_Z16_fetch_usbserialv+0x40>)
   d48da:	f000 fa55 	bl	d4d88 <__aeabi_atexit>
	return _usbserial;
}
   d48de:	4802      	ldr	r0, [pc, #8]	; (d48e8 <_Z16_fetch_usbserialv+0x40>)
   d48e0:	b007      	add	sp, #28
   d48e2:	bd30      	pop	{r4, r5, pc}
   d48e4:	2003e3e8 	.word	0x2003e3e8
   d48e8:	2003e3ec 	.word	0x2003e3ec
   d48ec:	2003e3b0 	.word	0x2003e3b0
   d48f0:	000d47f1 	.word	0x000d47f1

000d48f4 <_ZN5spark13CellularClass5readyEv>:
        return network_listening(*this, 0, NULL);
    }

    bool ready()
    {
        return network_ready(*this, 0,  NULL);
   d48f4:	2200      	movs	r2, #0
   d48f6:	4611      	mov	r1, r2
   d48f8:	6840      	ldr	r0, [r0, #4]
   d48fa:	f7ff bd05 	b.w	d4308 <network_ready>

000d48fe <_ZN5spark13CellularClass9listeningEv>:
    uint16_t getListenTimeout(void) {
        return network_get_listen_timeout(*this, 0, NULL);
    }

    bool listening(void) {
        return network_listening(*this, 0, NULL);
   d48fe:	2200      	movs	r2, #0
   d4900:	4611      	mov	r1, r2
   d4902:	6840      	ldr	r0, [r0, #4]
   d4904:	f7ff bd20 	b.w	d4348 <network_listening>

000d4908 <_ZN5spark13CellularClass16getListenTimeoutEv>:
    void setListenTimeout(uint16_t timeout) {
        network_set_listen_timeout(*this, timeout, NULL);
    }

    uint16_t getListenTimeout(void) {
        return network_get_listen_timeout(*this, 0, NULL);
   d4908:	2200      	movs	r2, #0
   d490a:	4611      	mov	r1, r2
   d490c:	6840      	ldr	r0, [r0, #4]
   d490e:	f7ff bd2b 	b.w	d4368 <network_get_listen_timeout>

000d4912 <_ZN5spark13CellularClass16setListenTimeoutEt>:
    void listen(bool begin=true) {
        network_listen(*this, begin ? 0 : 1, NULL);
    }

    void setListenTimeout(uint16_t timeout) {
        network_set_listen_timeout(*this, timeout, NULL);
   d4912:	2200      	movs	r2, #0
   d4914:	6840      	ldr	r0, [r0, #4]
   d4916:	f7ff bd1f 	b.w	d4358 <network_set_listen_timeout>

000d491a <_ZN5spark13CellularClass6listenEb>:
        cellular_credentials_clear(nullptr);
    }
#endif // HAL_PLATFORM_MESH

    void listen(bool begin=true) {
        network_listen(*this, begin ? 0 : 1, NULL);
   d491a:	2200      	movs	r2, #0
   d491c:	f081 0101 	eor.w	r1, r1, #1
   d4920:	6840      	ldr	r0, [r0, #4]
   d4922:	f7ff bd09 	b.w	d4338 <network_listen>

000d4926 <_ZN5spark13CellularClass3offEv>:
    }
    void on() {
        network_on(*this, 0, 0, NULL);
    }
    void off() {
        network_off(*this, 0, 0, NULL);
   d4926:	2300      	movs	r3, #0
   d4928:	461a      	mov	r2, r3
   d492a:	4619      	mov	r1, r3
   d492c:	6840      	ldr	r0, [r0, #4]
   d492e:	f7ff bcfb 	b.w	d4328 <network_off>

000d4932 <_ZN5spark13CellularClass2onEv>:

    IPAddress localIP() {
        return IPAddress(((CellularConfig*)network_config(*this, 0, NULL))->nw.aucIP);
    }
    void on() {
        network_on(*this, 0, 0, NULL);
   d4932:	2300      	movs	r3, #0
   d4934:	461a      	mov	r2, r3
   d4936:	4619      	mov	r1, r3
   d4938:	6840      	ldr	r0, [r0, #4]
   d493a:	f7ff bced 	b.w	d4318 <network_on>

000d493e <_ZN5spark13CellularClass10connectingEv>:
    }
    void connect(unsigned flags=0) {
        network_connect(*this, flags, 0, NULL);
    }
    bool connecting(void) {
        return network_connecting(*this, 0, NULL);
   d493e:	2200      	movs	r2, #0
   d4940:	4611      	mov	r1, r2
   d4942:	6840      	ldr	r0, [r0, #4]
   d4944:	f7ff bcd0 	b.w	d42e8 <network_connecting>

000d4948 <_ZN5spark13CellularClass10disconnectEv>:
    }

    void disconnect() {
        network_disconnect(*this, NETWORK_DISCONNECT_REASON_USER, NULL);
   d4948:	2200      	movs	r2, #0
   d494a:	2102      	movs	r1, #2
   d494c:	6840      	ldr	r0, [r0, #4]
   d494e:	f7ff bcd3 	b.w	d42f8 <network_disconnect>

000d4952 <_ZN5spark13CellularClass7connectEj>:
    }
    void off() {
        network_off(*this, 0, 0, NULL);
    }
    void connect(unsigned flags=0) {
        network_connect(*this, flags, 0, NULL);
   d4952:	2300      	movs	r3, #0
   d4954:	461a      	mov	r2, r3
   d4956:	6840      	ldr	r0, [r0, #4]
   d4958:	f7ff bcbe 	b.w	d42d8 <network_connect>

000d495c <_GLOBAL__sub_I__ZN5spark13CellularClass4RSSIEv>:
        return (band_get.ok = true);
    }

    CellularClass Cellular;
    // NetworkClass& Network = Cellular;
}
   d495c:	b538      	push	{r3, r4, r5, lr}
    int tx_total;
    int rx_total;

    CellularDataHal()
    {
        memset(this, 0, sizeof(*this));
   d495e:	4c08      	ldr	r4, [pc, #32]	; (d4980 <_GLOBAL__sub_I__ZN5spark13CellularClass4RSSIEv+0x24>)
   d4960:	2528      	movs	r5, #40	; 0x28
   d4962:	462a      	mov	r2, r5
   d4964:	2100      	movs	r1, #0
   d4966:	4620      	mov	r0, r4
   d4968:	f000 fb77 	bl	d505a <memset>
        cid = -1;
   d496c:	f04f 33ff 	mov.w	r3, #4294967295
   d4970:	6063      	str	r3, [r4, #4]
   d4972:	4b04      	ldr	r3, [pc, #16]	; (d4984 <_GLOBAL__sub_I__ZN5spark13CellularClass4RSSIEv+0x28>)
        size = sizeof(*this);
   d4974:	8025      	strh	r5, [r4, #0]
   d4976:	2204      	movs	r2, #4
   d4978:	605a      	str	r2, [r3, #4]

class CellularClass : public NetworkClass
{
public:
    CellularClass() :
            NetworkClass(NETWORK_INTERFACE_CELLULAR) {
   d497a:	4a03      	ldr	r2, [pc, #12]	; (d4988 <_GLOBAL__sub_I__ZN5spark13CellularClass4RSSIEv+0x2c>)
   d497c:	601a      	str	r2, [r3, #0]
   d497e:	bd38      	pop	{r3, r4, r5, pc}
   d4980:	2003e408 	.word	0x2003e408
   d4984:	2003e400 	.word	0x2003e400
   d4988:	000d529c 	.word	0x000d529c

000d498c <_ZN11USARTSerialD1Ev>:
private:
  HAL_USART_Serial _serial;
  bool _blocking;
public:
  USARTSerial(HAL_USART_Serial serial, Ring_Buffer *rx_buffer, Ring_Buffer *tx_buffer);
  virtual ~USARTSerial() {};
   d498c:	4770      	bx	lr

000d498e <_ZN11USARTSerial14blockOnOverrunEb>:
    HAL_USART_Half_Duplex(_serial, Enable);
}

void USARTSerial::blockOnOverrun(bool block)
{
  _blocking = block;
   d498e:	7441      	strb	r1, [r0, #17]
   d4990:	4770      	bx	lr

000d4992 <_ZN11USARTSerial17availableForWriteEv>:
}


int USARTSerial::availableForWrite(void)
{
   d4992:	b508      	push	{r3, lr}
  return std::max(0, (int)HAL_USART_Available_Data_For_Write(_serial));
   d4994:	7c00      	ldrb	r0, [r0, #16]
   d4996:	f7ff fc3b 	bl	d4210 <HAL_USART_Available_Data_For_Write>
}
   d499a:	ea20 70e0 	bic.w	r0, r0, r0, asr #31
   d499e:	bd08      	pop	{r3, pc}

000d49a0 <_ZN11USARTSerial9availableEv>:

int USARTSerial::available(void)
{
   d49a0:	b508      	push	{r3, lr}
  return std::max(0, (int)HAL_USART_Available_Data(_serial));
   d49a2:	7c00      	ldrb	r0, [r0, #16]
   d49a4:	f7ff fc14 	bl	d41d0 <HAL_USART_Available_Data>
}
   d49a8:	ea20 70e0 	bic.w	r0, r0, r0, asr #31
   d49ac:	bd08      	pop	{r3, pc}

000d49ae <_ZN11USARTSerial4peekEv>:

int USARTSerial::peek(void)
{
   d49ae:	b508      	push	{r3, lr}
  return std::max(-1, (int)HAL_USART_Peek_Data(_serial));
   d49b0:	7c00      	ldrb	r0, [r0, #16]
   d49b2:	f7ff fc1d 	bl	d41f0 <HAL_USART_Peek_Data>
}
   d49b6:	ea30 0020 	bics.w	r0, r0, r0, asr #32
   d49ba:	bf28      	it	cs
   d49bc:	f04f 30ff 	movcs.w	r0, #4294967295
   d49c0:	bd08      	pop	{r3, pc}

000d49c2 <_ZN11USARTSerial4readEv>:

int USARTSerial::read(void)
{
   d49c2:	b508      	push	{r3, lr}
  return std::max(-1, (int)HAL_USART_Read_Data(_serial));
   d49c4:	7c00      	ldrb	r0, [r0, #16]
   d49c6:	f7ff fc0b 	bl	d41e0 <HAL_USART_Read_Data>
}
   d49ca:	ea30 0020 	bics.w	r0, r0, r0, asr #32
   d49ce:	bf28      	it	cs
   d49d0:	f04f 30ff 	movcs.w	r0, #4294967295
   d49d4:	bd08      	pop	{r3, pc}

000d49d6 <_ZN11USARTSerial5flushEv>:

void USARTSerial::flush()
{
  HAL_USART_Flush_Data(_serial);
   d49d6:	7c00      	ldrb	r0, [r0, #16]
   d49d8:	f7ff bc12 	b.w	d4200 <HAL_USART_Flush_Data>

000d49dc <_ZN11USARTSerialD0Ev>:
   d49dc:	b510      	push	{r4, lr}
   d49de:	2114      	movs	r1, #20
   d49e0:	4604      	mov	r4, r0
   d49e2:	f000 f9d6 	bl	d4d92 <_ZdlPvj>
   d49e6:	4620      	mov	r0, r4
   d49e8:	bd10      	pop	{r4, pc}

000d49ea <_ZN11USARTSerial5writeEh>:
}

size_t USARTSerial::write(uint8_t c)
{
   d49ea:	b570      	push	{r4, r5, r6, lr}
  // attempt a write if blocking, or for non-blocking if there is room.
  if (_blocking || HAL_USART_Available_Data_For_Write(_serial) > 0) {
   d49ec:	7c45      	ldrb	r5, [r0, #17]
{
  HAL_USART_Flush_Data(_serial);
}

size_t USARTSerial::write(uint8_t c)
{
   d49ee:	4604      	mov	r4, r0
   d49f0:	460e      	mov	r6, r1
  // attempt a write if blocking, or for non-blocking if there is room.
  if (_blocking || HAL_USART_Available_Data_For_Write(_serial) > 0) {
   d49f2:	b925      	cbnz	r5, d49fe <_ZN11USARTSerial5writeEh+0x14>
   d49f4:	7c00      	ldrb	r0, [r0, #16]
   d49f6:	f7ff fc0b 	bl	d4210 <HAL_USART_Available_Data_For_Write>
   d49fa:	2800      	cmp	r0, #0
   d49fc:	dd05      	ble.n	d4a0a <_ZN11USARTSerial5writeEh+0x20>
    // the HAL always blocks.
	  return HAL_USART_Write_Data(_serial, c);
   d49fe:	4631      	mov	r1, r6
   d4a00:	7c20      	ldrb	r0, [r4, #16]
  }
  return 0;
}
   d4a02:	e8bd 4070 	ldmia.w	sp!, {r4, r5, r6, lr}
size_t USARTSerial::write(uint8_t c)
{
  // attempt a write if blocking, or for non-blocking if there is room.
  if (_blocking || HAL_USART_Available_Data_For_Write(_serial) > 0) {
    // the HAL always blocks.
	  return HAL_USART_Write_Data(_serial, c);
   d4a06:	f7ff bbdb 	b.w	d41c0 <HAL_USART_Write_Data>
  }
  return 0;
}
   d4a0a:	4628      	mov	r0, r5
   d4a0c:	bd70      	pop	{r4, r5, r6, pc}
	...

000d4a10 <_ZN11USARTSerialC1E16HAL_USART_SerialP11Ring_BufferS2_>:
#include "spark_wiring_constants.h"
#include "module_info.h"

// Constructors ////////////////////////////////////////////////////////////////

USARTSerial::USARTSerial(HAL_USART_Serial serial, Ring_Buffer *rx_buffer, Ring_Buffer *tx_buffer)
   d4a10:	b510      	push	{r4, lr}
   d4a12:	4604      	mov	r4, r0
   d4a14:	4608      	mov	r0, r1
   d4a16:	4611      	mov	r1, r2
   d4a18:	2200      	movs	r2, #0
   d4a1a:	6062      	str	r2, [r4, #4]
   d4a1c:	f44f 727a 	mov.w	r2, #1000	; 0x3e8
   d4a20:	60a2      	str	r2, [r4, #8]
   d4a22:	4a05      	ldr	r2, [pc, #20]	; (d4a38 <_ZN11USARTSerialC1E16HAL_USART_SerialP11Ring_BufferS2_+0x28>)
   d4a24:	6022      	str	r2, [r4, #0]
{
  _serial = serial;
  // Default is blocking mode
  _blocking = true;
   d4a26:	2201      	movs	r2, #1

// Constructors ////////////////////////////////////////////////////////////////

USARTSerial::USARTSerial(HAL_USART_Serial serial, Ring_Buffer *rx_buffer, Ring_Buffer *tx_buffer)
{
  _serial = serial;
   d4a28:	7420      	strb	r0, [r4, #16]
  // Default is blocking mode
  _blocking = true;
   d4a2a:	7462      	strb	r2, [r4, #17]
  HAL_USART_Init(serial, rx_buffer, tx_buffer);
   d4a2c:	461a      	mov	r2, r3
   d4a2e:	f7ff fbbf 	bl	d41b0 <HAL_USART_Init>
}
   d4a32:	4620      	mov	r0, r4
   d4a34:	bd10      	pop	{r4, pc}
   d4a36:	bf00      	nop
   d4a38:	000d52d0 	.word	0x000d52d0

000d4a3c <_ZN11USARTSerial5beginEmm>:
  begin(baud, SERIAL_8N1);
}

void USARTSerial::begin(unsigned long baud, uint32_t config)
{
  HAL_USART_BeginConfig(_serial, baud, config, 0);
   d4a3c:	2300      	movs	r3, #0
   d4a3e:	7c00      	ldrb	r0, [r0, #16]
   d4a40:	f7ff bbee 	b.w	d4220 <HAL_USART_BeginConfig>

000d4a44 <_ZN11USARTSerial5beginEm>:
}
// Public Methods //////////////////////////////////////////////////////////////

void USARTSerial::begin(unsigned long baud)
{
  begin(baud, SERIAL_8N1);
   d4a44:	2200      	movs	r2, #0
   d4a46:	f7ff bff9 	b.w	d4a3c <_ZN11USARTSerial5beginEmm>
	...

000d4a4c <_Z22__fetch_global_Serial1v>:
static Ring_Buffer* serial1_rx_buffer = NULL;
static Ring_Buffer* serial1_tx_buffer = NULL;
#endif

USARTSerial& __fetch_global_Serial1()
{
   d4a4c:	b538      	push	{r3, r4, r5, lr}
#if ((MODULE_FUNCTION == MOD_FUNC_USER_PART) || (MODULE_FUNCTION == MOD_FUNC_MONO_FIRMWARE))
	static USARTSerial serial1(HAL_USART_SERIAL1, &serial1_rx_buffer, &serial1_tx_buffer);
   d4a4e:	4d0c      	ldr	r5, [pc, #48]	; (d4a80 <_Z22__fetch_global_Serial1v+0x34>)
   d4a50:	6829      	ldr	r1, [r5, #0]
   d4a52:	f011 0401 	ands.w	r4, r1, #1
   d4a56:	d111      	bne.n	d4a7c <_Z22__fetch_global_Serial1v+0x30>
   d4a58:	4628      	mov	r0, r5
   d4a5a:	f7ff fb20 	bl	d409e <__cxa_guard_acquire>
   d4a5e:	b168      	cbz	r0, d4a7c <_Z22__fetch_global_Serial1v+0x30>
   d4a60:	4a08      	ldr	r2, [pc, #32]	; (d4a84 <_Z22__fetch_global_Serial1v+0x38>)
   d4a62:	4b09      	ldr	r3, [pc, #36]	; (d4a88 <_Z22__fetch_global_Serial1v+0x3c>)
   d4a64:	4809      	ldr	r0, [pc, #36]	; (d4a8c <_Z22__fetch_global_Serial1v+0x40>)
   d4a66:	4621      	mov	r1, r4
   d4a68:	f7ff ffd2 	bl	d4a10 <_ZN11USARTSerialC1E16HAL_USART_SerialP11Ring_BufferS2_>
   d4a6c:	4628      	mov	r0, r5
   d4a6e:	f7ff fb1b 	bl	d40a8 <__cxa_guard_release>
   d4a72:	4a07      	ldr	r2, [pc, #28]	; (d4a90 <_Z22__fetch_global_Serial1v+0x44>)
   d4a74:	4907      	ldr	r1, [pc, #28]	; (d4a94 <_Z22__fetch_global_Serial1v+0x48>)
   d4a76:	4805      	ldr	r0, [pc, #20]	; (d4a8c <_Z22__fetch_global_Serial1v+0x40>)
   d4a78:	f000 f986 	bl	d4d88 <__aeabi_atexit>
    serial1_tx_buffer = new Ring_Buffer();
  }
  static USARTSerial serial1(HAL_USART_SERIAL1, serial1_rx_buffer, serial1_tx_buffer);
#endif
	return serial1;
}
   d4a7c:	4803      	ldr	r0, [pc, #12]	; (d4a8c <_Z22__fetch_global_Serial1v+0x40>)
   d4a7e:	bd38      	pop	{r3, r4, r5, pc}
   d4a80:	2003e4c8 	.word	0x2003e4c8
   d4a84:	2003e4cc 	.word	0x2003e4cc
   d4a88:	2003e444 	.word	0x2003e444
   d4a8c:	2003e430 	.word	0x2003e430
   d4a90:	2003e3b0 	.word	0x2003e3b0
   d4a94:	000d498d 	.word	0x000d498d

000d4a98 <_ZN5spark9MeshClass9listeningEv>:
    uint16_t getListenTimeout(void) {
        return network_get_listen_timeout(*this, 0, NULL);
    }

    bool listening(void) {
        return network_listening(*this, 0, NULL);
   d4a98:	2200      	movs	r2, #0
   d4a9a:	4611      	mov	r1, r2
   d4a9c:	6840      	ldr	r0, [r0, #4]
   d4a9e:	f7ff bc53 	b.w	d4348 <network_listening>

000d4aa2 <_ZN5spark9MeshClass16getListenTimeoutEv>:
    void setListenTimeout(uint16_t timeout) {
        network_set_listen_timeout(*this, timeout, NULL);
    }

    uint16_t getListenTimeout(void) {
        return network_get_listen_timeout(*this, 0, NULL);
   d4aa2:	2200      	movs	r2, #0
   d4aa4:	4611      	mov	r1, r2
   d4aa6:	6840      	ldr	r0, [r0, #4]
   d4aa8:	f7ff bc5e 	b.w	d4368 <network_get_listen_timeout>

000d4aac <_ZN5spark9MeshClass16setListenTimeoutEt>:
    void listen(bool begin=true) {
        network_listen(*this, begin ? 0 : 1, NULL);
    }

    void setListenTimeout(uint16_t timeout) {
        network_set_listen_timeout(*this, timeout, NULL);
   d4aac:	2200      	movs	r2, #0
   d4aae:	6840      	ldr	r0, [r0, #4]
   d4ab0:	f7ff bc52 	b.w	d4358 <network_set_listen_timeout>

000d4ab4 <_ZN5spark9MeshClass6listenEb>:
    void disconnect() {
        network_disconnect(*this, NETWORK_DISCONNECT_REASON_USER, NULL);
    }

    void listen(bool begin=true) {
        network_listen(*this, begin ? 0 : 1, NULL);
   d4ab4:	2200      	movs	r2, #0
   d4ab6:	f081 0101 	eor.w	r1, r1, #1
   d4aba:	6840      	ldr	r0, [r0, #4]
   d4abc:	f7ff bc3c 	b.w	d4338 <network_listen>

000d4ac0 <_ZN5spark9MeshClass3offEv>:
    void on() {
        network_on(*this, 0, 0, NULL);
    }

    void off() {
        network_off(*this, 1, 0, NULL);
   d4ac0:	2300      	movs	r3, #0
   d4ac2:	461a      	mov	r2, r3
   d4ac4:	2101      	movs	r1, #1
   d4ac6:	6840      	ldr	r0, [r0, #4]
   d4ac8:	f7ff bc2e 	b.w	d4328 <network_off>

000d4acc <_ZN5spark9MeshClass2onEv>:
    MeshClass() :
            NetworkClass(NETWORK_INTERFACE_MESH) {
    }

    void on() {
        network_on(*this, 0, 0, NULL);
   d4acc:	2300      	movs	r3, #0
   d4ace:	461a      	mov	r2, r3
   d4ad0:	4619      	mov	r1, r3
   d4ad2:	6840      	ldr	r0, [r0, #4]
   d4ad4:	f7ff bc20 	b.w	d4318 <network_on>

000d4ad8 <_ZN5spark9MeshClass5readyEv>:
    bool listening(void) {
        return network_listening(*this, 0, NULL);
    }

    bool ready() {
        return network_ready(*this, 0,  NULL);
   d4ad8:	2200      	movs	r2, #0
   d4ada:	4611      	mov	r1, r2
   d4adc:	6840      	ldr	r0, [r0, #4]
   d4ade:	f7ff bc13 	b.w	d4308 <network_ready>

000d4ae2 <_ZN5spark9MeshClass10connectingEv>:
    void connect(unsigned flags=0) {
        network_connect(*this, flags, 0, NULL);
    }

    bool connecting(void) {
        return network_connecting(*this, 0, NULL);
   d4ae2:	2200      	movs	r2, #0
   d4ae4:	4611      	mov	r1, r2
   d4ae6:	6840      	ldr	r0, [r0, #4]
   d4ae8:	f7ff bbfe 	b.w	d42e8 <network_connecting>

000d4aec <_ZN5spark9MeshClass10disconnectEv>:
    }

    void disconnect() {
        network_disconnect(*this, NETWORK_DISCONNECT_REASON_USER, NULL);
   d4aec:	2200      	movs	r2, #0
   d4aee:	2102      	movs	r1, #2
   d4af0:	6840      	ldr	r0, [r0, #4]
   d4af2:	f7ff bc01 	b.w	d42f8 <network_disconnect>

000d4af6 <_ZN5spark9MeshClass7connectEj>:
    void off() {
        network_off(*this, 1, 0, NULL);
    }

    void connect(unsigned flags=0) {
        network_connect(*this, flags, 0, NULL);
   d4af6:	2300      	movs	r3, #0
   d4af8:	461a      	mov	r2, r3
   d4afa:	6840      	ldr	r0, [r0, #4]
   d4afc:	f7ff bbec 	b.w	d42d8 <network_connect>

000d4b00 <_ZNKSt14default_deleteIN6Thread4DataEEclEPS1_.isra.6>:
	       enable_if<is_convertible<_Up*, _Tp*>::value>::type>
        default_delete(const default_delete<_Up>&) noexcept { }

      /// Calls @c delete @p __ptr
      void
      operator()(_Tp* __ptr) const
   d4b00:	b538      	push	{r3, r4, r5, lr}
      {
	static_assert(!is_void<_Tp>::value,
		      "can't delete pointer to incomplete type");
	static_assert(sizeof(_Tp)>0,
		      "can't delete pointer to incomplete type");
	delete __ptr;
   d4b02:	4605      	mov	r5, r0
   d4b04:	b188      	cbz	r0, d4b2a <_ZNKSt14default_deleteIN6Thread4DataEEclEPS1_.isra.6+0x2a>

      /// Destructor, invokes the deleter if the stored pointer is not null.
      ~unique_ptr() noexcept
      {
	auto& __ptr = std::get<0>(_M_t);
	if (__ptr != nullptr)
   d4b06:	6804      	ldr	r4, [r0, #0]
   d4b08:	b14c      	cbz	r4, d4b1e <_ZNKSt14default_deleteIN6Thread4DataEEclEPS1_.isra.6+0x1e>

    ~_Function_base()
    {
      if (_M_manager)
   d4b0a:	68a3      	ldr	r3, [r4, #8]
   d4b0c:	b11b      	cbz	r3, d4b16 <_ZNKSt14default_deleteIN6Thread4DataEEclEPS1_.isra.6+0x16>
	_M_manager(_M_functor, _M_functor, __destroy_functor);
   d4b0e:	2203      	movs	r2, #3
   d4b10:	4621      	mov	r1, r4
   d4b12:	4620      	mov	r0, r4
   d4b14:	4798      	blx	r3
      {
	static_assert(!is_void<_Tp>::value,
		      "can't delete pointer to incomplete type");
	static_assert(sizeof(_Tp)>0,
		      "can't delete pointer to incomplete type");
	delete __ptr;
   d4b16:	2110      	movs	r1, #16
   d4b18:	4620      	mov	r0, r4
   d4b1a:	f000 f93a 	bl	d4d92 <_ZdlPvj>
   d4b1e:	4628      	mov	r0, r5
   d4b20:	2114      	movs	r1, #20
      }
   d4b22:	e8bd 4038 	ldmia.w	sp!, {r3, r4, r5, lr}
      {
	static_assert(!is_void<_Tp>::value,
		      "can't delete pointer to incomplete type");
	static_assert(sizeof(_Tp)>0,
		      "can't delete pointer to incomplete type");
	delete __ptr;
   d4b26:	f000 b934 	b.w	d4d92 <_ZdlPvj>
   d4b2a:	bd38      	pop	{r3, r4, r5, pc}

000d4b2c <_ZNKSt14default_deleteI3UDPEclEPS0_.isra.8.constprop.13>:
   d4b2c:	b110      	cbz	r0, d4b34 <_ZNKSt14default_deleteI3UDPEclEPS0_.isra.8.constprop.13+0x8>
   d4b2e:	6803      	ldr	r3, [r0, #0]
   d4b30:	685b      	ldr	r3, [r3, #4]
   d4b32:	4718      	bx	r3
   d4b34:	4770      	bx	lr

000d4b36 <_ZN6ThreadD1Ev>:
    Thread(Thread&& thread)
        : d_(std::move(thread.d_))
    {
    }

    ~Thread()
   d4b36:	b510      	push	{r4, lr}
      }

      /// Return the stored pointer.
      pointer
      get() const noexcept
      { return std::get<0>(_M_t); }
   d4b38:	6803      	ldr	r3, [r0, #0]
   d4b3a:	4604      	mov	r4, r0
        dispose();
    }

    void dispose()
    {
        if (!isValid())
   d4b3c:	b1bb      	cbz	r3, d4b6e <_ZN6ThreadD1Ev+0x38>
        return isCurrent();
    }

    bool isCurrent() const
    {
        return isValid() && os_thread_is_current(d_->handle);
   d4b3e:	6858      	ldr	r0, [r3, #4]
   d4b40:	f7ff fb06 	bl	d4150 <os_thread_is_current>
   d4b44:	b978      	cbnz	r0, d4b66 <_ZN6ThreadD1Ev+0x30>
   d4b46:	6823      	ldr	r3, [r4, #0]

        // We shouldn't dispose of current thread
        if (isCurrent())
            return;

        if (!d_->exited) {
   d4b48:	7c5a      	ldrb	r2, [r3, #17]
   d4b4a:	b912      	cbnz	r2, d4b52 <_ZN6ThreadD1Ev+0x1c>
        d_.reset();
    }

    bool join()
    {
        return isValid() && os_thread_join(d_->handle)==0;
   d4b4c:	6858      	ldr	r0, [r3, #4]
   d4b4e:	f7ff fb07 	bl	d4160 <os_thread_join>

        if (!d_->exited) {
            join();
        }

        os_thread_cleanup(d_->handle);
   d4b52:	6823      	ldr	r3, [r4, #0]
   d4b54:	6858      	ldr	r0, [r3, #4]
   d4b56:	f7ff fb0b 	bl	d4170 <os_thread_cleanup>
#endif
    {
      // concept requirements
      __glibcxx_function_requires(_SGIAssignableConcept<_Tp>)

      _Tp __tmp = _GLIBCXX_MOVE(__a);
   d4b5a:	6820      	ldr	r0, [r4, #0]
      __a = _GLIBCXX_MOVE(__b);
   d4b5c:	2300      	movs	r3, #0
   d4b5e:	6023      	str	r3, [r4, #0]
      void
      reset(pointer __p = pointer()) noexcept
      {
	using std::swap;
	swap(std::get<0>(_M_t), __p);
	if (__p != pointer())
   d4b60:	b128      	cbz	r0, d4b6e <_ZN6ThreadD1Ev+0x38>
	  get_deleter()(__p);
   d4b62:	f7ff ffcd 	bl	d4b00 <_ZNKSt14default_deleteIN6Thread4DataEEclEPS1_.isra.6>

      /// Destructor, invokes the deleter if the stored pointer is not null.
      ~unique_ptr() noexcept
      {
	auto& __ptr = std::get<0>(_M_t);
	if (__ptr != nullptr)
   d4b66:	6820      	ldr	r0, [r4, #0]
   d4b68:	b108      	cbz	r0, d4b6e <_ZN6ThreadD1Ev+0x38>
	  get_deleter()(__ptr);
   d4b6a:	f7ff ffc9 	bl	d4b00 <_ZNKSt14default_deleteIN6Thread4DataEEclEPS1_.isra.6>
    }

    ~Thread()
    {
        dispose();
    }
   d4b6e:	4620      	mov	r0, r4
   d4b70:	bd10      	pop	{r4, pc}
	...

000d4b74 <_ZN5spark9MeshClassD1Ev>:
    RecursiveMutex mutex_;
    std::unique_ptr<uint8_t[]> buffer_;
    std::atomic_bool exit_;
};

class MeshClass : public NetworkClass, public MeshPublish {
   d4b74:	b538      	push	{r3, r4, r5, lr}
   d4b76:	4b0c      	ldr	r3, [pc, #48]	; (d4ba8 <_ZN5spark9MeshClassD1Ev+0x34>)
   d4b78:	6003      	str	r3, [r0, #0]
   d4b7a:	4604      	mov	r4, r0

      /// Destructor, invokes the deleter if the stored pointer is not null.
      ~unique_ptr()
      {
	auto& __ptr = std::get<0>(_M_t);
	if (__ptr != nullptr)
   d4b7c:	f8d0 01cc 	ldr.w	r0, [r0, #460]	; 0x1cc
   d4b80:	b108      	cbz	r0, d4b86 <_ZN5spark9MeshClassD1Ev+0x12>
      void
      operator()(_Tp* __ptr) const
      {
	static_assert(sizeof(_Tp)>0,
		      "can't delete pointer to incomplete type");
	delete [] __ptr;
   d4b82:	f7ff fa8a 	bl	d409a <_ZdaPv>

      /// Destructor, invokes the deleter if the stored pointer is not null.
      ~unique_ptr() noexcept
      {
	auto& __ptr = std::get<0>(_M_t);
	if (__ptr != nullptr)
   d4b86:	f8d4 51c4 	ldr.w	r5, [r4, #452]	; 0x1c4
   d4b8a:	b135      	cbz	r5, d4b9a <_ZN5spark9MeshClassD1Ev+0x26>
      {
	static_assert(!is_void<_Tp>::value,
		      "can't delete pointer to incomplete type");
	static_assert(sizeof(_Tp)>0,
		      "can't delete pointer to incomplete type");
	delete __ptr;
   d4b8c:	4628      	mov	r0, r5
   d4b8e:	f7ff ffd2 	bl	d4b36 <_ZN6ThreadD1Ev>
   d4b92:	2104      	movs	r1, #4
   d4b94:	4628      	mov	r0, r5
   d4b96:	f000 f8fc 	bl	d4d92 <_ZdlPvj>

      /// Destructor, invokes the deleter if the stored pointer is not null.
      ~unique_ptr() noexcept
      {
	auto& __ptr = std::get<0>(_M_t);
	if (__ptr != nullptr)
   d4b9a:	68a0      	ldr	r0, [r4, #8]
   d4b9c:	b108      	cbz	r0, d4ba2 <_ZN5spark9MeshClassD1Ev+0x2e>
	  get_deleter()(__ptr);
   d4b9e:	f7ff ffc5 	bl	d4b2c <_ZNKSt14default_deleteI3UDPEclEPS0_.isra.8.constprop.13>
   d4ba2:	4620      	mov	r0, r4
   d4ba4:	bd38      	pop	{r3, r4, r5, pc}
   d4ba6:	bf00      	nop
   d4ba8:	000d5300 	.word	0x000d5300

000d4bac <_GLOBAL__sub_I__ZN5spark11MeshPublish13Subscriptions20event_handler_existsEPKcPFvS3_S3_EPvN17SubscriptionScope4EnumES3_>:

    return addr;
}

MeshClass Mesh;
} // namespace spark
   d4bac:	b538      	push	{r3, r4, r5, lr}
   d4bae:	4c0e      	ldr	r4, [pc, #56]	; (d4be8 <_GLOBAL__sub_I__ZN5spark11MeshPublish13Subscriptions20event_handler_existsEPKcPFvS3_S3_EPvN17SubscriptionScope4EnumES3_+0x3c>)
   d4bb0:	4b0e      	ldr	r3, [pc, #56]	; (d4bec <_GLOBAL__sub_I__ZN5spark11MeshPublish13Subscriptions20event_handler_existsEPKcPFvS3_S3_EPvN17SubscriptionScope4EnumES3_+0x40>)
   d4bb2:	6023      	str	r3, [r4, #0]

  template<std::size_t _Idx, typename _Head>
    struct _Head_base<_Idx, _Head, false>
    {
      constexpr _Head_base()
      : _M_head_impl() { }
   d4bb4:	2500      	movs	r5, #0
   d4bb6:	2302      	movs	r3, #2
     */
    RecursiveMutex(os_mutex_recursive_t handle) : handle_(handle) {}

    RecursiveMutex() : handle_(nullptr)
    {
        os_mutex_recursive_create(&handle_);
   d4bb8:	f504 70e4 	add.w	r0, r4, #456	; 0x1c8
   d4bbc:	6063      	str	r3, [r4, #4]
   d4bbe:	60a5      	str	r5, [r4, #8]
   d4bc0:	f8c4 51c4 	str.w	r5, [r4, #452]	; 0x1c4
    /**
     * Creates a shared mutex.
     */
    RecursiveMutex(os_mutex_recursive_t handle) : handle_(handle) {}

    RecursiveMutex() : handle_(nullptr)
   d4bc4:	f8c4 51c8 	str.w	r5, [r4, #456]	; 0x1c8
    {
        os_mutex_recursive_create(&handle_);
   d4bc8:	f7ff fae2 	bl	d4190 <os_mutex_recursive_create>
public:
    MeshClass() :
            NetworkClass(NETWORK_INTERFACE_MESH) {
   d4bcc:	4b08      	ldr	r3, [pc, #32]	; (d4bf0 <_GLOBAL__sub_I__ZN5spark11MeshPublish13Subscriptions20event_handler_existsEPKcPFvS3_S3_EPvN17SubscriptionScope4EnumES3_+0x44>)
   d4bce:	f8c4 51cc 	str.w	r5, [r4, #460]	; 0x1cc
      __atomic_base(const __atomic_base&) = delete;
      __atomic_base& operator=(const __atomic_base&) = delete;
      __atomic_base& operator=(const __atomic_base&) volatile = delete;

      // Requires __int_type convertible to _M_i.
      constexpr __atomic_base(__int_type __i) noexcept : _M_i (__i) { }
   d4bd2:	f884 51d0 	strb.w	r5, [r4, #464]	; 0x1d0
   d4bd6:	6023      	str	r3, [r4, #0]
    }

    return addr;
}

MeshClass Mesh;
   d4bd8:	4620      	mov	r0, r4
   d4bda:	4a06      	ldr	r2, [pc, #24]	; (d4bf4 <_GLOBAL__sub_I__ZN5spark11MeshPublish13Subscriptions20event_handler_existsEPKcPFvS3_S3_EPvN17SubscriptionScope4EnumES3_+0x48>)
   d4bdc:	4906      	ldr	r1, [pc, #24]	; (d4bf8 <_GLOBAL__sub_I__ZN5spark11MeshPublish13Subscriptions20event_handler_existsEPKcPFvS3_S3_EPvN17SubscriptionScope4EnumES3_+0x4c>)
} // namespace spark
   d4bde:	e8bd 4038 	ldmia.w	sp!, {r3, r4, r5, lr}
    }

    return addr;
}

MeshClass Mesh;
   d4be2:	f000 b8d1 	b.w	d4d88 <__aeabi_atexit>
   d4be6:	bf00      	nop
   d4be8:	2003e550 	.word	0x2003e550
   d4bec:	000d5334 	.word	0x000d5334
   d4bf0:	000d5300 	.word	0x000d5300
   d4bf4:	2003e3b0 	.word	0x2003e3b0
   d4bf8:	000d4b75 	.word	0x000d4b75

000d4bfc <_ZN5spark12NetworkClass7connectEj>:
        return Network;
    }
}

void NetworkClass::connect(unsigned flags) {
    network_connect(*this, flags, 0, nullptr);
   d4bfc:	2300      	movs	r3, #0
   d4bfe:	461a      	mov	r2, r3
   d4c00:	6840      	ldr	r0, [r0, #4]
   d4c02:	f7ff bb69 	b.w	d42d8 <network_connect>

000d4c06 <_ZN5spark12NetworkClass10disconnectEv>:
}

void NetworkClass::disconnect() {
    network_disconnect(*this, NETWORK_DISCONNECT_REASON_USER, nullptr);
   d4c06:	2200      	movs	r2, #0
   d4c08:	2102      	movs	r1, #2
   d4c0a:	6840      	ldr	r0, [r0, #4]
   d4c0c:	f7ff bb74 	b.w	d42f8 <network_disconnect>

000d4c10 <_ZN5spark12NetworkClass10connectingEv>:
}

bool NetworkClass::connecting() {
    return network_connecting(*this, 0, nullptr);
   d4c10:	2200      	movs	r2, #0
   d4c12:	4611      	mov	r1, r2
   d4c14:	6840      	ldr	r0, [r0, #4]
   d4c16:	f7ff bb67 	b.w	d42e8 <network_connecting>

000d4c1a <_ZN5spark12NetworkClass5readyEv>:
}

bool NetworkClass::ready() {
    return network_ready(*this, 0, nullptr);
   d4c1a:	2200      	movs	r2, #0
   d4c1c:	4611      	mov	r1, r2
   d4c1e:	6840      	ldr	r0, [r0, #4]
   d4c20:	f7ff bb72 	b.w	d4308 <network_ready>

000d4c24 <_ZN5spark12NetworkClass2onEv>:
}

void NetworkClass::on() {
    network_on(*this, 0, 0, nullptr);
   d4c24:	2300      	movs	r3, #0
   d4c26:	461a      	mov	r2, r3
   d4c28:	4619      	mov	r1, r3
   d4c2a:	6840      	ldr	r0, [r0, #4]
   d4c2c:	f7ff bb74 	b.w	d4318 <network_on>

000d4c30 <_ZN5spark12NetworkClass3offEv>:
}

void NetworkClass::off() {
    network_off(*this, 0, 0, nullptr);
   d4c30:	2300      	movs	r3, #0
   d4c32:	461a      	mov	r2, r3
   d4c34:	4619      	mov	r1, r3
   d4c36:	6840      	ldr	r0, [r0, #4]
   d4c38:	f7ff bb76 	b.w	d4328 <network_off>

000d4c3c <_ZN5spark12NetworkClass6listenEb>:
}

void NetworkClass::listen(bool begin) {
    network_listen(*this, begin ? 0 : 1, nullptr);
   d4c3c:	2200      	movs	r2, #0
   d4c3e:	f081 0101 	eor.w	r1, r1, #1
   d4c42:	6840      	ldr	r0, [r0, #4]
   d4c44:	f7ff bb78 	b.w	d4338 <network_listen>

000d4c48 <_ZN5spark12NetworkClass16setListenTimeoutEt>:
}

void NetworkClass::setListenTimeout(uint16_t timeout) {
    network_set_listen_timeout(*this, timeout, nullptr);
   d4c48:	2200      	movs	r2, #0
   d4c4a:	6840      	ldr	r0, [r0, #4]
   d4c4c:	f7ff bb84 	b.w	d4358 <network_set_listen_timeout>

000d4c50 <_ZN5spark12NetworkClass16getListenTimeoutEv>:
}

uint16_t NetworkClass::getListenTimeout() {
    return network_get_listen_timeout(*this, 0, nullptr);
   d4c50:	2200      	movs	r2, #0
   d4c52:	4611      	mov	r1, r2
   d4c54:	6840      	ldr	r0, [r0, #4]
   d4c56:	f7ff bb87 	b.w	d4368 <network_get_listen_timeout>

000d4c5a <_ZN5spark12NetworkClass9listeningEv>:
}

bool NetworkClass::listening() {
    return network_listening(*this, 0, nullptr);
   d4c5a:	2200      	movs	r2, #0
   d4c5c:	4611      	mov	r1, r2
   d4c5e:	6840      	ldr	r0, [r0, #4]
   d4c60:	f7ff bb72 	b.w	d4348 <network_listening>

000d4c64 <_ZN5spark12NetworkClass7resolveEPKc>:
}

IPAddress NetworkClass::resolve(const char* name) {
   d4c64:	e92d 43f0 	stmdb	sp!, {r4, r5, r6, r7, r8, r9, lr}
    IPAddress addr;
#if HAL_USE_INET_HAL_POSIX
    struct addrinfo *ai = nullptr;
   d4c68:	2400      	movs	r4, #0

bool NetworkClass::listening() {
    return network_listening(*this, 0, nullptr);
}

IPAddress NetworkClass::resolve(const char* name) {
   d4c6a:	b095      	sub	sp, #84	; 0x54
   d4c6c:	4616      	mov	r6, r2
   d4c6e:	460d      	mov	r5, r1
   d4c70:	4607      	mov	r7, r0
    IPAddress addr;
   d4c72:	f7ff fd83 	bl	d477c <_ZN9IPAddressC1Ev>
#if HAL_USE_INET_HAL_POSIX
    struct addrinfo *ai = nullptr;
    struct addrinfo hints = {};
   d4c76:	4621      	mov	r1, r4
   d4c78:	2220      	movs	r2, #32
   d4c7a:	a80c      	add	r0, sp, #48	; 0x30
}

IPAddress NetworkClass::resolve(const char* name) {
    IPAddress addr;
#if HAL_USE_INET_HAL_POSIX
    struct addrinfo *ai = nullptr;
   d4c7c:	9400      	str	r4, [sp, #0]
    struct addrinfo hints = {};
   d4c7e:	f000 f9ec 	bl	d505a <memset>
    hints.ai_flags = AI_ADDRCONFIG;
   d4c82:	2340      	movs	r3, #64	; 0x40
   d4c84:	930c      	str	r3, [sp, #48]	; 0x30
    hints.ai_family = AF_UNSPEC;
    const int r = getaddrinfo(name, nullptr, &hints, &ai);
   d4c86:	4621      	mov	r1, r4
   d4c88:	466b      	mov	r3, sp
   d4c8a:	aa0c      	add	r2, sp, #48	; 0x30
   d4c8c:	4630      	mov	r0, r6
   d4c8e:	f7ff fa37 	bl	d4100 <netdb_getaddrinfo>
    if (!r) {
   d4c92:	4604      	mov	r4, r0
   d4c94:	2800      	cmp	r0, #0
   d4c96:	d144      	bne.n	d4d22 <_ZN5spark12NetworkClass7resolveEPKc+0xbe>
        bool ok = false;
        // This is not really needed if AI_ADDRCONFIG is properly supported
        bool ipv4 = network_ready(*this, NETWORK_READY_TYPE_IPV4, nullptr);
   d4c98:	4602      	mov	r2, r0
   d4c9a:	2101      	movs	r1, #1
   d4c9c:	6868      	ldr	r0, [r5, #4]
   d4c9e:	f7ff fb33 	bl	d4308 <network_ready>
        bool ipv6 = network_ready(*this, NETWORK_READY_TYPE_IPV6, nullptr);
   d4ca2:	2102      	movs	r1, #2
    hints.ai_family = AF_UNSPEC;
    const int r = getaddrinfo(name, nullptr, &hints, &ai);
    if (!r) {
        bool ok = false;
        // This is not really needed if AI_ADDRCONFIG is properly supported
        bool ipv4 = network_ready(*this, NETWORK_READY_TYPE_IPV4, nullptr);
   d4ca4:	4680      	mov	r8, r0
        bool ipv6 = network_ready(*this, NETWORK_READY_TYPE_IPV6, nullptr);
   d4ca6:	4622      	mov	r2, r4
   d4ca8:	6868      	ldr	r0, [r5, #4]
   d4caa:	f7ff fb2d 	bl	d4308 <network_ready>
        for (auto cur = ai; cur != nullptr && !ok; cur = cur->ai_next) {
   d4cae:	9e00      	ldr	r6, [sp, #0]
    const int r = getaddrinfo(name, nullptr, &hints, &ai);
    if (!r) {
        bool ok = false;
        // This is not really needed if AI_ADDRCONFIG is properly supported
        bool ipv4 = network_ready(*this, NETWORK_READY_TYPE_IPV4, nullptr);
        bool ipv6 = network_ready(*this, NETWORK_READY_TYPE_IPV6, nullptr);
   d4cb0:	4681      	mov	r9, r0
    struct addrinfo hints = {};
    hints.ai_flags = AI_ADDRCONFIG;
    hints.ai_family = AF_UNSPEC;
    const int r = getaddrinfo(name, nullptr, &hints, &ai);
    if (!r) {
        bool ok = false;
   d4cb2:	4621      	mov	r1, r4
        // This is not really needed if AI_ADDRCONFIG is properly supported
        bool ipv4 = network_ready(*this, NETWORK_READY_TYPE_IPV4, nullptr);
        bool ipv6 = network_ready(*this, NETWORK_READY_TYPE_IPV6, nullptr);
        for (auto cur = ai; cur != nullptr && !ok; cur = cur->ai_next) {
   d4cb4:	2e00      	cmp	r6, #0
   d4cb6:	d034      	beq.n	d4d22 <_ZN5spark12NetworkClass7resolveEPKc+0xbe>
   d4cb8:	2900      	cmp	r1, #0
   d4cba:	d132      	bne.n	d4d22 <_ZN5spark12NetworkClass7resolveEPKc+0xbe>
            // NOTE: using only the first entry that matches the current state of IPv4/IPv6 connectivity
            switch (cur->ai_family) {
   d4cbc:	6873      	ldr	r3, [r6, #4]
   d4cbe:	2b02      	cmp	r3, #2
   d4cc0:	d002      	beq.n	d4cc8 <_ZN5spark12NetworkClass7resolveEPKc+0x64>
   d4cc2:	2b0a      	cmp	r3, #10
   d4cc4:	d009      	beq.n	d4cda <_ZN5spark12NetworkClass7resolveEPKc+0x76>
   d4cc6:	e02a      	b.n	d4d1e <_ZN5spark12NetworkClass7resolveEPKc+0xba>
                case AF_INET: {
                    if (!ipv4) {
   d4cc8:	f1b8 0f00 	cmp.w	r8, #0
   d4ccc:	d027      	beq.n	d4d1e <_ZN5spark12NetworkClass7resolveEPKc+0xba>
                        continue;
                    }
                    // NOTE: HAL_IPAddress is little-endian
                    auto in = (struct sockaddr_in*)cur->ai_addr;
                    addr = (const uint8_t*)(&in->sin_addr.s_addr);
   d4cce:	6971      	ldr	r1, [r6, #20]
   d4cd0:	4638      	mov	r0, r7
   d4cd2:	3104      	adds	r1, #4
   d4cd4:	f7ff fd7f 	bl	d47d6 <_ZN9IPAddressaSEPKh>
   d4cd8:	e020      	b.n	d4d1c <_ZN5spark12NetworkClass7resolveEPKc+0xb8>
                    ok = true;
                    break;
                }
                case AF_INET6: {
                    if (!ipv6) {
   d4cda:	f1b9 0f00 	cmp.w	r9, #0
   d4cde:	d01e      	beq.n	d4d1e <_ZN5spark12NetworkClass7resolveEPKc+0xba>
                        continue;
                    }
                    auto in6 = (struct sockaddr_in6*)cur->ai_addr;
   d4ce0:	6974      	ldr	r4, [r6, #20]
                    HAL_IPAddress a = {};
   d4ce2:	2211      	movs	r2, #17
   d4ce4:	a801      	add	r0, sp, #4
   d4ce6:	f000 f9b8 	bl	d505a <memset>
                    a.v = 6;
   d4cea:	2306      	movs	r3, #6
   d4cec:	f88d 3014 	strb.w	r3, [sp, #20]
                    memcpy(a.ipv6, in6->sin6_addr.s6_addr, sizeof(a.ipv6));
   d4cf0:	ad01      	add	r5, sp, #4
   d4cf2:	f104 0308 	add.w	r3, r4, #8
   d4cf6:	3418      	adds	r4, #24
   d4cf8:	6818      	ldr	r0, [r3, #0]
   d4cfa:	6859      	ldr	r1, [r3, #4]
   d4cfc:	462a      	mov	r2, r5
   d4cfe:	c203      	stmia	r2!, {r0, r1}
   d4d00:	3308      	adds	r3, #8
   d4d02:	42a3      	cmp	r3, r4
   d4d04:	4615      	mov	r5, r2
   d4d06:	d1f7      	bne.n	d4cf8 <_ZN5spark12NetworkClass7resolveEPKc+0x94>
                    addr = IPAddress(a);
   d4d08:	a901      	add	r1, sp, #4
   d4d0a:	a806      	add	r0, sp, #24

/**
 * The IP address stored in host order.
 *
 */
class IPAddress : public Printable {
   d4d0c:	ad07      	add	r5, sp, #28
   d4d0e:	f7ff fd43 	bl	d4798 <_ZN9IPAddressC1ERK16_HAL_IPAddress_t>
   d4d12:	cd0f      	ldmia	r5!, {r0, r1, r2, r3}
   d4d14:	1d3c      	adds	r4, r7, #4
   d4d16:	c40f      	stmia	r4!, {r0, r1, r2, r3}
   d4d18:	682b      	ldr	r3, [r5, #0]
   d4d1a:	7023      	strb	r3, [r4, #0]
                    ok = true;
   d4d1c:	2101      	movs	r1, #1
    if (!r) {
        bool ok = false;
        // This is not really needed if AI_ADDRCONFIG is properly supported
        bool ipv4 = network_ready(*this, NETWORK_READY_TYPE_IPV4, nullptr);
        bool ipv6 = network_ready(*this, NETWORK_READY_TYPE_IPV6, nullptr);
        for (auto cur = ai; cur != nullptr && !ok; cur = cur->ai_next) {
   d4d1e:	69f6      	ldr	r6, [r6, #28]
   d4d20:	e7c8      	b.n	d4cb4 <_ZN5spark12NetworkClass7resolveEPKc+0x50>
                    break;
                }
            }
        }
    }
    freeaddrinfo(ai);
   d4d22:	9800      	ldr	r0, [sp, #0]
   d4d24:	f7ff f9e4 	bl	d40f0 <netdb_freeaddrinfo>
    return Cellular.resolve(name);
#endif // Wiring_Cellular

#endif // HAL_USE_INET_HAL_POSIX
    return addr;
}
   d4d28:	4638      	mov	r0, r7
   d4d2a:	b015      	add	sp, #84	; 0x54
   d4d2c:	e8bd 83f0 	ldmia.w	sp!, {r4, r5, r6, r7, r8, r9, pc}

000d4d30 <_GLOBAL__sub_I__ZN5spark7NetworkE>:
   d4d30:	4b02      	ldr	r3, [pc, #8]	; (d4d3c <_GLOBAL__sub_I__ZN5spark7NetworkE+0xc>)
   d4d32:	4a03      	ldr	r2, [pc, #12]	; (d4d40 <_GLOBAL__sub_I__ZN5spark7NetworkE+0x10>)
   d4d34:	601a      	str	r2, [r3, #0]
   d4d36:	2200      	movs	r2, #0
   d4d38:	605a      	str	r2, [r3, #4]
   d4d3a:	4770      	bx	lr
   d4d3c:	2003e724 	.word	0x2003e724
   d4d40:	000d5334 	.word	0x000d5334

000d4d44 <_GLOBAL__sub_I_SPI>:
#ifndef SPARK_WIRING_NO_SPI

SPIClass SPI(HAL_SPI_INTERFACE1);

#if Wiring_SPI1
SPIClass SPI1(HAL_SPI_INTERFACE2);
   d4d44:	b570      	push	{r4, r5, r6, lr}
#include "core_hal.h"
#include "spark_macros.h"

#ifndef SPARK_WIRING_NO_SPI

SPIClass SPI(HAL_SPI_INTERFACE1);
   d4d46:	4c0c      	ldr	r4, [pc, #48]	; (d4d78 <_GLOBAL__sub_I_SPI+0x34>)
   d4d48:	4e0c      	ldr	r6, [pc, #48]	; (d4d7c <_GLOBAL__sub_I_SPI+0x38>)
   d4d4a:	4d0d      	ldr	r5, [pc, #52]	; (d4d80 <_GLOBAL__sub_I_SPI+0x3c>)
   d4d4c:	2100      	movs	r1, #0
   d4d4e:	4620      	mov	r0, r4
   d4d50:	f7ff fb78 	bl	d4444 <_ZN8SPIClassC1E17HAL_SPI_Interface>
   d4d54:	4620      	mov	r0, r4

#if Wiring_SPI1
SPIClass SPI1(HAL_SPI_INTERFACE2);
   d4d56:	4c0b      	ldr	r4, [pc, #44]	; (d4d84 <_GLOBAL__sub_I_SPI+0x40>)
#include "core_hal.h"
#include "spark_macros.h"

#ifndef SPARK_WIRING_NO_SPI

SPIClass SPI(HAL_SPI_INTERFACE1);
   d4d58:	4632      	mov	r2, r6
   d4d5a:	4629      	mov	r1, r5
   d4d5c:	f000 f814 	bl	d4d88 <__aeabi_atexit>

#if Wiring_SPI1
SPIClass SPI1(HAL_SPI_INTERFACE2);
   d4d60:	2101      	movs	r1, #1
   d4d62:	4620      	mov	r0, r4
   d4d64:	f7ff fb6e 	bl	d4444 <_ZN8SPIClassC1E17HAL_SPI_Interface>
   d4d68:	4632      	mov	r2, r6
   d4d6a:	4629      	mov	r1, r5
   d4d6c:	4620      	mov	r0, r4
   d4d6e:	e8bd 4070 	ldmia.w	sp!, {r4, r5, r6, lr}
   d4d72:	f000 b809 	b.w	d4d88 <__aeabi_atexit>
   d4d76:	bf00      	nop
   d4d78:	2003e72c 	.word	0x2003e72c
   d4d7c:	2003e3b0 	.word	0x2003e3b0
   d4d80:	000d4435 	.word	0x000d4435
   d4d84:	2003e73c 	.word	0x2003e73c

000d4d88 <__aeabi_atexit>:
   d4d88:	460b      	mov	r3, r1
   d4d8a:	4601      	mov	r1, r0
   d4d8c:	4618      	mov	r0, r3
   d4d8e:	f000 b94b 	b.w	d5028 <__cxa_atexit>

000d4d92 <_ZdlPvj>:
   d4d92:	f7ff b980 	b.w	d4096 <_ZdlPv>
	...

000d4d98 <_GLOBAL__sub_I__ZNSt12ctype_bynameIcEC2ERKNSt7__cxx1112basic_stringIcSt11char_traitsIcESaIcEEEj>:
   d4d98:	4b18      	ldr	r3, [pc, #96]	; (d4dfc <_GLOBAL__sub_I__ZNSt12ctype_bynameIcEC2ERKNSt7__cxx1112basic_stringIcSt11char_traitsIcESaIcEEEj+0x64>)
   d4d9a:	681a      	ldr	r2, [r3, #0]
   d4d9c:	07d1      	lsls	r1, r2, #31
   d4d9e:	bf5c      	itt	pl
   d4da0:	2201      	movpl	r2, #1
   d4da2:	601a      	strpl	r2, [r3, #0]
   d4da4:	4b16      	ldr	r3, [pc, #88]	; (d4e00 <_GLOBAL__sub_I__ZNSt12ctype_bynameIcEC2ERKNSt7__cxx1112basic_stringIcSt11char_traitsIcESaIcEEEj+0x68>)
   d4da6:	681a      	ldr	r2, [r3, #0]
   d4da8:	07d2      	lsls	r2, r2, #31
   d4daa:	bf5c      	itt	pl
   d4dac:	2201      	movpl	r2, #1
   d4dae:	601a      	strpl	r2, [r3, #0]
   d4db0:	4b14      	ldr	r3, [pc, #80]	; (d4e04 <_GLOBAL__sub_I__ZNSt12ctype_bynameIcEC2ERKNSt7__cxx1112basic_stringIcSt11char_traitsIcESaIcEEEj+0x6c>)
   d4db2:	681a      	ldr	r2, [r3, #0]
   d4db4:	07d0      	lsls	r0, r2, #31
   d4db6:	bf5c      	itt	pl
   d4db8:	2201      	movpl	r2, #1
   d4dba:	601a      	strpl	r2, [r3, #0]
   d4dbc:	4b12      	ldr	r3, [pc, #72]	; (d4e08 <_GLOBAL__sub_I__ZNSt12ctype_bynameIcEC2ERKNSt7__cxx1112basic_stringIcSt11char_traitsIcESaIcEEEj+0x70>)
   d4dbe:	681a      	ldr	r2, [r3, #0]
   d4dc0:	07d1      	lsls	r1, r2, #31
   d4dc2:	bf5c      	itt	pl
   d4dc4:	2201      	movpl	r2, #1
   d4dc6:	601a      	strpl	r2, [r3, #0]
   d4dc8:	4b10      	ldr	r3, [pc, #64]	; (d4e0c <_GLOBAL__sub_I__ZNSt12ctype_bynameIcEC2ERKNSt7__cxx1112basic_stringIcSt11char_traitsIcESaIcEEEj+0x74>)
   d4dca:	681a      	ldr	r2, [r3, #0]
   d4dcc:	07d2      	lsls	r2, r2, #31
   d4dce:	bf5c      	itt	pl
   d4dd0:	2201      	movpl	r2, #1
   d4dd2:	601a      	strpl	r2, [r3, #0]
   d4dd4:	4b0e      	ldr	r3, [pc, #56]	; (d4e10 <_GLOBAL__sub_I__ZNSt12ctype_bynameIcEC2ERKNSt7__cxx1112basic_stringIcSt11char_traitsIcESaIcEEEj+0x78>)
   d4dd6:	681a      	ldr	r2, [r3, #0]
   d4dd8:	07d0      	lsls	r0, r2, #31
   d4dda:	bf5c      	itt	pl
   d4ddc:	2201      	movpl	r2, #1
   d4dde:	601a      	strpl	r2, [r3, #0]
   d4de0:	4b0c      	ldr	r3, [pc, #48]	; (d4e14 <_GLOBAL__sub_I__ZNSt12ctype_bynameIcEC2ERKNSt7__cxx1112basic_stringIcSt11char_traitsIcESaIcEEEj+0x7c>)
   d4de2:	681a      	ldr	r2, [r3, #0]
   d4de4:	07d1      	lsls	r1, r2, #31
   d4de6:	bf5c      	itt	pl
   d4de8:	2201      	movpl	r2, #1
   d4dea:	601a      	strpl	r2, [r3, #0]
   d4dec:	4b0a      	ldr	r3, [pc, #40]	; (d4e18 <_GLOBAL__sub_I__ZNSt12ctype_bynameIcEC2ERKNSt7__cxx1112basic_stringIcSt11char_traitsIcESaIcEEEj+0x80>)
   d4dee:	681a      	ldr	r2, [r3, #0]
   d4df0:	07d2      	lsls	r2, r2, #31
   d4df2:	bf5c      	itt	pl
   d4df4:	2201      	movpl	r2, #1
   d4df6:	601a      	strpl	r2, [r3, #0]
   d4df8:	4770      	bx	lr
   d4dfa:	bf00      	nop
   d4dfc:	2003e76c 	.word	0x2003e76c
   d4e00:	2003e768 	.word	0x2003e768
   d4e04:	2003e764 	.word	0x2003e764
   d4e08:	2003e760 	.word	0x2003e760
   d4e0c:	2003e75c 	.word	0x2003e75c
   d4e10:	2003e758 	.word	0x2003e758
   d4e14:	2003e754 	.word	0x2003e754
   d4e18:	2003e750 	.word	0x2003e750

000d4e1c <_GLOBAL__sub_I__ZNSt12ctype_bynameIwEC2ERKSsj>:
   d4e1c:	4b24      	ldr	r3, [pc, #144]	; (d4eb0 <_GLOBAL__sub_I__ZNSt12ctype_bynameIwEC2ERKSsj+0x94>)
   d4e1e:	681a      	ldr	r2, [r3, #0]
   d4e20:	07d0      	lsls	r0, r2, #31
   d4e22:	bf5c      	itt	pl
   d4e24:	2201      	movpl	r2, #1
   d4e26:	601a      	strpl	r2, [r3, #0]
   d4e28:	4b22      	ldr	r3, [pc, #136]	; (d4eb4 <_GLOBAL__sub_I__ZNSt12ctype_bynameIwEC2ERKSsj+0x98>)
   d4e2a:	681a      	ldr	r2, [r3, #0]
   d4e2c:	07d1      	lsls	r1, r2, #31
   d4e2e:	bf5c      	itt	pl
   d4e30:	2201      	movpl	r2, #1
   d4e32:	601a      	strpl	r2, [r3, #0]
   d4e34:	4b20      	ldr	r3, [pc, #128]	; (d4eb8 <_GLOBAL__sub_I__ZNSt12ctype_bynameIwEC2ERKSsj+0x9c>)
   d4e36:	681a      	ldr	r2, [r3, #0]
   d4e38:	07d2      	lsls	r2, r2, #31
   d4e3a:	bf5c      	itt	pl
   d4e3c:	2201      	movpl	r2, #1
   d4e3e:	601a      	strpl	r2, [r3, #0]
   d4e40:	4b1e      	ldr	r3, [pc, #120]	; (d4ebc <_GLOBAL__sub_I__ZNSt12ctype_bynameIwEC2ERKSsj+0xa0>)
   d4e42:	681a      	ldr	r2, [r3, #0]
   d4e44:	07d0      	lsls	r0, r2, #31
   d4e46:	bf5c      	itt	pl
   d4e48:	2201      	movpl	r2, #1
   d4e4a:	601a      	strpl	r2, [r3, #0]
   d4e4c:	4b1c      	ldr	r3, [pc, #112]	; (d4ec0 <_GLOBAL__sub_I__ZNSt12ctype_bynameIwEC2ERKSsj+0xa4>)
   d4e4e:	681a      	ldr	r2, [r3, #0]
   d4e50:	07d1      	lsls	r1, r2, #31
   d4e52:	bf5c      	itt	pl
   d4e54:	2201      	movpl	r2, #1
   d4e56:	601a      	strpl	r2, [r3, #0]
   d4e58:	4b1a      	ldr	r3, [pc, #104]	; (d4ec4 <_GLOBAL__sub_I__ZNSt12ctype_bynameIwEC2ERKSsj+0xa8>)
   d4e5a:	681a      	ldr	r2, [r3, #0]
   d4e5c:	07d2      	lsls	r2, r2, #31
   d4e5e:	bf5c      	itt	pl
   d4e60:	2201      	movpl	r2, #1
   d4e62:	601a      	strpl	r2, [r3, #0]
   d4e64:	4b18      	ldr	r3, [pc, #96]	; (d4ec8 <_GLOBAL__sub_I__ZNSt12ctype_bynameIwEC2ERKSsj+0xac>)
   d4e66:	681a      	ldr	r2, [r3, #0]
   d4e68:	07d0      	lsls	r0, r2, #31
   d4e6a:	bf5c      	itt	pl
   d4e6c:	2201      	movpl	r2, #1
   d4e6e:	601a      	strpl	r2, [r3, #0]
   d4e70:	4b16      	ldr	r3, [pc, #88]	; (d4ecc <_GLOBAL__sub_I__ZNSt12ctype_bynameIwEC2ERKSsj+0xb0>)
   d4e72:	681a      	ldr	r2, [r3, #0]
   d4e74:	07d1      	lsls	r1, r2, #31
   d4e76:	bf5c      	itt	pl
   d4e78:	2201      	movpl	r2, #1
   d4e7a:	601a      	strpl	r2, [r3, #0]
   d4e7c:	4b14      	ldr	r3, [pc, #80]	; (d4ed0 <_GLOBAL__sub_I__ZNSt12ctype_bynameIwEC2ERKSsj+0xb4>)
   d4e7e:	681a      	ldr	r2, [r3, #0]
   d4e80:	07d2      	lsls	r2, r2, #31
   d4e82:	bf5c      	itt	pl
   d4e84:	2201      	movpl	r2, #1
   d4e86:	601a      	strpl	r2, [r3, #0]
   d4e88:	4b12      	ldr	r3, [pc, #72]	; (d4ed4 <_GLOBAL__sub_I__ZNSt12ctype_bynameIwEC2ERKSsj+0xb8>)
   d4e8a:	681a      	ldr	r2, [r3, #0]
   d4e8c:	07d0      	lsls	r0, r2, #31
   d4e8e:	bf5c      	itt	pl
   d4e90:	2201      	movpl	r2, #1
   d4e92:	601a      	strpl	r2, [r3, #0]
   d4e94:	4b10      	ldr	r3, [pc, #64]	; (d4ed8 <_GLOBAL__sub_I__ZNSt12ctype_bynameIwEC2ERKSsj+0xbc>)
   d4e96:	681a      	ldr	r2, [r3, #0]
   d4e98:	07d1      	lsls	r1, r2, #31
   d4e9a:	bf5c      	itt	pl
   d4e9c:	2201      	movpl	r2, #1
   d4e9e:	601a      	strpl	r2, [r3, #0]
   d4ea0:	4b0e      	ldr	r3, [pc, #56]	; (d4edc <_GLOBAL__sub_I__ZNSt12ctype_bynameIwEC2ERKSsj+0xc0>)
   d4ea2:	681a      	ldr	r2, [r3, #0]
   d4ea4:	07d2      	lsls	r2, r2, #31
   d4ea6:	bf5c      	itt	pl
   d4ea8:	2201      	movpl	r2, #1
   d4eaa:	601a      	strpl	r2, [r3, #0]
   d4eac:	4770      	bx	lr
   d4eae:	bf00      	nop
   d4eb0:	2003e79c 	.word	0x2003e79c
   d4eb4:	2003e798 	.word	0x2003e798
   d4eb8:	2003e794 	.word	0x2003e794
   d4ebc:	2003e790 	.word	0x2003e790
   d4ec0:	2003e78c 	.word	0x2003e78c
   d4ec4:	2003e788 	.word	0x2003e788
   d4ec8:	2003e784 	.word	0x2003e784
   d4ecc:	2003e780 	.word	0x2003e780
   d4ed0:	2003e77c 	.word	0x2003e77c
   d4ed4:	2003e778 	.word	0x2003e778
   d4ed8:	2003e774 	.word	0x2003e774
   d4edc:	2003e770 	.word	0x2003e770

000d4ee0 <_GLOBAL__sub_I__ZNSt12ctype_bynameIcEC2ERKSsj>:
   d4ee0:	4b24      	ldr	r3, [pc, #144]	; (d4f74 <_GLOBAL__sub_I__ZNSt12ctype_bynameIcEC2ERKSsj+0x94>)
   d4ee2:	681a      	ldr	r2, [r3, #0]
   d4ee4:	07d0      	lsls	r0, r2, #31
   d4ee6:	bf5c      	itt	pl
   d4ee8:	2201      	movpl	r2, #1
   d4eea:	601a      	strpl	r2, [r3, #0]
   d4eec:	4b22      	ldr	r3, [pc, #136]	; (d4f78 <_GLOBAL__sub_I__ZNSt12ctype_bynameIcEC2ERKSsj+0x98>)
   d4eee:	681a      	ldr	r2, [r3, #0]
   d4ef0:	07d1      	lsls	r1, r2, #31
   d4ef2:	bf5c      	itt	pl
   d4ef4:	2201      	movpl	r2, #1
   d4ef6:	601a      	strpl	r2, [r3, #0]
   d4ef8:	4b20      	ldr	r3, [pc, #128]	; (d4f7c <_GLOBAL__sub_I__ZNSt12ctype_bynameIcEC2ERKSsj+0x9c>)
   d4efa:	681a      	ldr	r2, [r3, #0]
   d4efc:	07d2      	lsls	r2, r2, #31
   d4efe:	bf5c      	itt	pl
   d4f00:	2201      	movpl	r2, #1
   d4f02:	601a      	strpl	r2, [r3, #0]
   d4f04:	4b1e      	ldr	r3, [pc, #120]	; (d4f80 <_GLOBAL__sub_I__ZNSt12ctype_bynameIcEC2ERKSsj+0xa0>)
   d4f06:	681a      	ldr	r2, [r3, #0]
   d4f08:	07d0      	lsls	r0, r2, #31
   d4f0a:	bf5c      	itt	pl
   d4f0c:	2201      	movpl	r2, #1
   d4f0e:	601a      	strpl	r2, [r3, #0]
   d4f10:	4b1c      	ldr	r3, [pc, #112]	; (d4f84 <_GLOBAL__sub_I__ZNSt12ctype_bynameIcEC2ERKSsj+0xa4>)
   d4f12:	681a      	ldr	r2, [r3, #0]
   d4f14:	07d1      	lsls	r1, r2, #31
   d4f16:	bf5c      	itt	pl
   d4f18:	2201      	movpl	r2, #1
   d4f1a:	601a      	strpl	r2, [r3, #0]
   d4f1c:	4b1a      	ldr	r3, [pc, #104]	; (d4f88 <_GLOBAL__sub_I__ZNSt12ctype_bynameIcEC2ERKSsj+0xa8>)
   d4f1e:	681a      	ldr	r2, [r3, #0]
   d4f20:	07d2      	lsls	r2, r2, #31
   d4f22:	bf5c      	itt	pl
   d4f24:	2201      	movpl	r2, #1
   d4f26:	601a      	strpl	r2, [r3, #0]
   d4f28:	4b18      	ldr	r3, [pc, #96]	; (d4f8c <_GLOBAL__sub_I__ZNSt12ctype_bynameIcEC2ERKSsj+0xac>)
   d4f2a:	681a      	ldr	r2, [r3, #0]
   d4f2c:	07d0      	lsls	r0, r2, #31
   d4f2e:	bf5c      	itt	pl
   d4f30:	2201      	movpl	r2, #1
   d4f32:	601a      	strpl	r2, [r3, #0]
   d4f34:	4b16      	ldr	r3, [pc, #88]	; (d4f90 <_GLOBAL__sub_I__ZNSt12ctype_bynameIcEC2ERKSsj+0xb0>)
   d4f36:	681a      	ldr	r2, [r3, #0]
   d4f38:	07d1      	lsls	r1, r2, #31
   d4f3a:	bf5c      	itt	pl
   d4f3c:	2201      	movpl	r2, #1
   d4f3e:	601a      	strpl	r2, [r3, #0]
   d4f40:	4b14      	ldr	r3, [pc, #80]	; (d4f94 <_GLOBAL__sub_I__ZNSt12ctype_bynameIcEC2ERKSsj+0xb4>)
   d4f42:	681a      	ldr	r2, [r3, #0]
   d4f44:	07d2      	lsls	r2, r2, #31
   d4f46:	bf5c      	itt	pl
   d4f48:	2201      	movpl	r2, #1
   d4f4a:	601a      	strpl	r2, [r3, #0]
   d4f4c:	4b12      	ldr	r3, [pc, #72]	; (d4f98 <_GLOBAL__sub_I__ZNSt12ctype_bynameIcEC2ERKSsj+0xb8>)
   d4f4e:	681a      	ldr	r2, [r3, #0]
   d4f50:	07d0      	lsls	r0, r2, #31
   d4f52:	bf5c      	itt	pl
   d4f54:	2201      	movpl	r2, #1
   d4f56:	601a      	strpl	r2, [r3, #0]
   d4f58:	4b10      	ldr	r3, [pc, #64]	; (d4f9c <_GLOBAL__sub_I__ZNSt12ctype_bynameIcEC2ERKSsj+0xbc>)
   d4f5a:	681a      	ldr	r2, [r3, #0]
   d4f5c:	07d1      	lsls	r1, r2, #31
   d4f5e:	bf5c      	itt	pl
   d4f60:	2201      	movpl	r2, #1
   d4f62:	601a      	strpl	r2, [r3, #0]
   d4f64:	4b0e      	ldr	r3, [pc, #56]	; (d4fa0 <_GLOBAL__sub_I__ZNSt12ctype_bynameIcEC2ERKSsj+0xc0>)
   d4f66:	681a      	ldr	r2, [r3, #0]
   d4f68:	07d2      	lsls	r2, r2, #31
   d4f6a:	bf5c      	itt	pl
   d4f6c:	2201      	movpl	r2, #1
   d4f6e:	601a      	strpl	r2, [r3, #0]
   d4f70:	4770      	bx	lr
   d4f72:	bf00      	nop
   d4f74:	2003e7cc 	.word	0x2003e7cc
   d4f78:	2003e7c8 	.word	0x2003e7c8
   d4f7c:	2003e7c4 	.word	0x2003e7c4
   d4f80:	2003e7c0 	.word	0x2003e7c0
   d4f84:	2003e7bc 	.word	0x2003e7bc
   d4f88:	2003e7b8 	.word	0x2003e7b8
   d4f8c:	2003e7b4 	.word	0x2003e7b4
   d4f90:	2003e7b0 	.word	0x2003e7b0
   d4f94:	2003e7ac 	.word	0x2003e7ac
   d4f98:	2003e7a8 	.word	0x2003e7a8
   d4f9c:	2003e7a4 	.word	0x2003e7a4
   d4fa0:	2003e7a0 	.word	0x2003e7a0

000d4fa4 <_GLOBAL__sub_I__ZNSt12ctype_bynameIwEC2ERKNSt7__cxx1112basic_stringIcSt11char_traitsIcESaIcEEEj>:
   d4fa4:	4b18      	ldr	r3, [pc, #96]	; (d5008 <_GLOBAL__sub_I__ZNSt12ctype_bynameIwEC2ERKNSt7__cxx1112basic_stringIcSt11char_traitsIcESaIcEEEj+0x64>)
   d4fa6:	681a      	ldr	r2, [r3, #0]
   d4fa8:	07d1      	lsls	r1, r2, #31
   d4faa:	bf5c      	itt	pl
   d4fac:	2201      	movpl	r2, #1
   d4fae:	601a      	strpl	r2, [r3, #0]
   d4fb0:	4b16      	ldr	r3, [pc, #88]	; (d500c <_GLOBAL__sub_I__ZNSt12ctype_bynameIwEC2ERKNSt7__cxx1112basic_stringIcSt11char_traitsIcESaIcEEEj+0x68>)
   d4fb2:	681a      	ldr	r2, [r3, #0]
   d4fb4:	07d2      	lsls	r2, r2, #31
   d4fb6:	bf5c      	itt	pl
   d4fb8:	2201      	movpl	r2, #1
   d4fba:	601a      	strpl	r2, [r3, #0]
   d4fbc:	4b14      	ldr	r3, [pc, #80]	; (d5010 <_GLOBAL__sub_I__ZNSt12ctype_bynameIwEC2ERKNSt7__cxx1112basic_stringIcSt11char_traitsIcESaIcEEEj+0x6c>)
   d4fbe:	681a      	ldr	r2, [r3, #0]
   d4fc0:	07d0      	lsls	r0, r2, #31
   d4fc2:	bf5c      	itt	pl
   d4fc4:	2201      	movpl	r2, #1
   d4fc6:	601a      	strpl	r2, [r3, #0]
   d4fc8:	4b12      	ldr	r3, [pc, #72]	; (d5014 <_GLOBAL__sub_I__ZNSt12ctype_bynameIwEC2ERKNSt7__cxx1112basic_stringIcSt11char_traitsIcESaIcEEEj+0x70>)
   d4fca:	681a      	ldr	r2, [r3, #0]
   d4fcc:	07d1      	lsls	r1, r2, #31
   d4fce:	bf5c      	itt	pl
   d4fd0:	2201      	movpl	r2, #1
   d4fd2:	601a      	strpl	r2, [r3, #0]
   d4fd4:	4b10      	ldr	r3, [pc, #64]	; (d5018 <_GLOBAL__sub_I__ZNSt12ctype_bynameIwEC2ERKNSt7__cxx1112basic_stringIcSt11char_traitsIcESaIcEEEj+0x74>)
   d4fd6:	681a      	ldr	r2, [r3, #0]
   d4fd8:	07d2      	lsls	r2, r2, #31
   d4fda:	bf5c      	itt	pl
   d4fdc:	2201      	movpl	r2, #1
   d4fde:	601a      	strpl	r2, [r3, #0]
   d4fe0:	4b0e      	ldr	r3, [pc, #56]	; (d501c <_GLOBAL__sub_I__ZNSt12ctype_bynameIwEC2ERKNSt7__cxx1112basic_stringIcSt11char_traitsIcESaIcEEEj+0x78>)
   d4fe2:	681a      	ldr	r2, [r3, #0]
   d4fe4:	07d0      	lsls	r0, r2, #31
   d4fe6:	bf5c      	itt	pl
   d4fe8:	2201      	movpl	r2, #1
   d4fea:	601a      	strpl	r2, [r3, #0]
   d4fec:	4b0c      	ldr	r3, [pc, #48]	; (d5020 <_GLOBAL__sub_I__ZNSt12ctype_bynameIwEC2ERKNSt7__cxx1112basic_stringIcSt11char_traitsIcESaIcEEEj+0x7c>)
   d4fee:	681a      	ldr	r2, [r3, #0]
   d4ff0:	07d1      	lsls	r1, r2, #31
   d4ff2:	bf5c      	itt	pl
   d4ff4:	2201      	movpl	r2, #1
   d4ff6:	601a      	strpl	r2, [r3, #0]
   d4ff8:	4b0a      	ldr	r3, [pc, #40]	; (d5024 <_GLOBAL__sub_I__ZNSt12ctype_bynameIwEC2ERKNSt7__cxx1112basic_stringIcSt11char_traitsIcESaIcEEEj+0x80>)
   d4ffa:	681a      	ldr	r2, [r3, #0]
   d4ffc:	07d2      	lsls	r2, r2, #31
   d4ffe:	bf5c      	itt	pl
   d5000:	2201      	movpl	r2, #1
   d5002:	601a      	strpl	r2, [r3, #0]
   d5004:	4770      	bx	lr
   d5006:	bf00      	nop
   d5008:	2003e7ec 	.word	0x2003e7ec
   d500c:	2003e7e8 	.word	0x2003e7e8
   d5010:	2003e7e4 	.word	0x2003e7e4
   d5014:	2003e7e0 	.word	0x2003e7e0
   d5018:	2003e7dc 	.word	0x2003e7dc
   d501c:	2003e7d8 	.word	0x2003e7d8
   d5020:	2003e7d4 	.word	0x2003e7d4
   d5024:	2003e7d0 	.word	0x2003e7d0

000d5028 <__cxa_atexit>:
   d5028:	b510      	push	{r4, lr}
   d502a:	4c05      	ldr	r4, [pc, #20]	; (d5040 <__cxa_atexit+0x18>)
   d502c:	4613      	mov	r3, r2
   d502e:	b12c      	cbz	r4, d503c <__cxa_atexit+0x14>
   d5030:	460a      	mov	r2, r1
   d5032:	4601      	mov	r1, r0
   d5034:	2002      	movs	r0, #2
   d5036:	f3af 8000 	nop.w
   d503a:	bd10      	pop	{r4, pc}
   d503c:	4620      	mov	r0, r4
   d503e:	bd10      	pop	{r4, pc}
   d5040:	00000000 	.word	0x00000000

000d5044 <memcpy>:
   d5044:	b510      	push	{r4, lr}
   d5046:	1e43      	subs	r3, r0, #1
   d5048:	440a      	add	r2, r1
   d504a:	4291      	cmp	r1, r2
   d504c:	d004      	beq.n	d5058 <memcpy+0x14>
   d504e:	f811 4b01 	ldrb.w	r4, [r1], #1
   d5052:	f803 4f01 	strb.w	r4, [r3, #1]!
   d5056:	e7f8      	b.n	d504a <memcpy+0x6>
   d5058:	bd10      	pop	{r4, pc}

000d505a <memset>:
   d505a:	4402      	add	r2, r0
   d505c:	4603      	mov	r3, r0
   d505e:	4293      	cmp	r3, r2
   d5060:	d002      	beq.n	d5068 <memset+0xe>
   d5062:	f803 1b01 	strb.w	r1, [r3], #1
   d5066:	e7fa      	b.n	d505e <memset+0x4>
   d5068:	4770      	bx	lr
	...

000d506c <srand>:
   d506c:	b538      	push	{r3, r4, r5, lr}
   d506e:	4b12      	ldr	r3, [pc, #72]	; (d50b8 <srand+0x4c>)
   d5070:	681c      	ldr	r4, [r3, #0]
   d5072:	6ba3      	ldr	r3, [r4, #56]	; 0x38
   d5074:	4605      	mov	r5, r0
   d5076:	b9d3      	cbnz	r3, d50ae <srand+0x42>
   d5078:	2018      	movs	r0, #24
   d507a:	f7ff f985 	bl	d4388 <malloc>
   d507e:	f243 330e 	movw	r3, #13070	; 0x330e
   d5082:	63a0      	str	r0, [r4, #56]	; 0x38
   d5084:	8003      	strh	r3, [r0, #0]
   d5086:	f64a 33cd 	movw	r3, #43981	; 0xabcd
   d508a:	8043      	strh	r3, [r0, #2]
   d508c:	f241 2334 	movw	r3, #4660	; 0x1234
   d5090:	8083      	strh	r3, [r0, #4]
   d5092:	f24e 636d 	movw	r3, #58989	; 0xe66d
   d5096:	80c3      	strh	r3, [r0, #6]
   d5098:	f64d 63ec 	movw	r3, #57068	; 0xdeec
   d509c:	8103      	strh	r3, [r0, #8]
   d509e:	2305      	movs	r3, #5
   d50a0:	8143      	strh	r3, [r0, #10]
   d50a2:	230b      	movs	r3, #11
   d50a4:	8183      	strh	r3, [r0, #12]
   d50a6:	2201      	movs	r2, #1
   d50a8:	2300      	movs	r3, #0
   d50aa:	e9c0 2304 	strd	r2, r3, [r0, #16]
   d50ae:	6ba3      	ldr	r3, [r4, #56]	; 0x38
   d50b0:	2200      	movs	r2, #0
   d50b2:	611d      	str	r5, [r3, #16]
   d50b4:	615a      	str	r2, [r3, #20]
   d50b6:	bd38      	pop	{r3, r4, r5, pc}
   d50b8:	2003e3ac 	.word	0x2003e3ac

000d50bc <strlen>:
   d50bc:	4603      	mov	r3, r0
   d50be:	f813 2b01 	ldrb.w	r2, [r3], #1
   d50c2:	2a00      	cmp	r2, #0
   d50c4:	d1fb      	bne.n	d50be <strlen+0x2>
   d50c6:	1a18      	subs	r0, r3, r0
   d50c8:	3801      	subs	r0, #1
   d50ca:	4770      	bx	lr

000d50cc <dynalib_user>:
   d50cc:	401d 000d 4059 000d 4085 000d 4089 000d     .@..Y@...@...@..
   d50dc:	0000 0000 6548 6c6c 206f 7266 6d6f 4220     ....Hello from B
   d50ec:	726f 6e6f 2021 656d 7373 6761 2065 6f6e     oron! message no
   d50fc:	202e 6425 0000 0000                         . %d....

000d5104 <_ZTVN5spark13EthernetClassE>:
	...
   d510c:	4417 000d 440d 000d 4403 000d 43f9 000d     .D...D...D...C..
   d511c:	43ed 000d 43e1 000d 43d5 000d 43cd 000d     .C...C...C...C..
   d512c:	43c3 000d 43b9 000d 4c65 000d               .C...C..eL..

000d5138 <_ZTV8SPIClass>:
	...
   d5140:	4435 000d 4437 000d 6162 6475 5300 7265     5D..7D..baud.Ser
   d5150:	6169 006c 6553 6972 6c61 0031 7974 6570     ial.Serial1.type
   d5160:	7000 7261 6d61 6300 646d 6900 0064 6e68     .param.cmd.id.hn
   d5170:	0064 7473 6d72 6600 6c69 0074 766c 006c     d.strm.filt.lvl.
   d5180:	6461 4864 6e61 6c64 7265 7200 6d65 766f     addHandler.remov
   d5190:	4865 6e61 6c64 7265 6500 756e 486d 6e61     eHandler.enumHan
   d51a0:	6c64 7265 0073 534a 4e4f 7453 6572 6d61     dlers.JSONStream
   d51b0:	6f4c 4867 6e61 6c64 7265 6100 7070 2500     LogHandler.app.%
   d51c0:	3130 7530 0020 205d 2c00 0020 2928 203a     010u .] ., .(): 
   d51d0:	2000 005b 6f63 6564 3d20 0020 6925 6400     . [.code = .%i.d
   d51e0:	7465 6961 736c 3d20 0020 0a0d 6600 6c00     etails = ....f.l
   d51f0:	006e 6e66 6300 646f 0065 6564 6174 6c69     n.fn.code.detail
   d5200:	6e00 6e6f 0065 7274 6361 0065 6e69 6f66     .none.trace.info
   d5210:	7700 7261 006e 7265 6f72 0072 6170 696e     .warn.error.pani
   d5220:	0063 6c61 006c 005a 2b25 3330 3a64 3025     c.all.Z.%+03d:%0
   d5230:	7532 2500 2d59 6d25 252d 5464 4825 253a     2u.%Y-%m-%dT%H:%
   d5240:	3a4d 5325 7a25 6100 6373 6974 656d 0000     M:%S%z.asctime..

000d5250 <_ZTV9IPAddress>:
	...
   d5258:	4719 000d 4709 000d 470b 000d               .G...G...G..

000d5264 <_ZTV9USBSerial>:
	...
   d526c:	47f1 000d 4841 000d 484f 000d 4495 000d     .G..AH..OH...D..
   d527c:	482d 000d 47f3 000d 4809 000d 483b 000d     -H...G...H..;H..
   d528c:	481f 000d 47ed 000d                         .H...G..

000d5294 <_ZTVN5spark13CellularClassE>:
	...
   d529c:	4953 000d 4949 000d 493f 000d 48f5 000d     SI..II..?I...H..
   d52ac:	4933 000d 4927 000d 491b 000d 4913 000d     3I..'I...I...I..
   d52bc:	4909 000d 48ff 000d 4c65 000d               .I...H..eL..

000d52c8 <_ZTV11USARTSerial>:
	...
   d52d0:	498d 000d 49dd 000d 49eb 000d 4495 000d     .I...I...I...D..
   d52e0:	49a1 000d 49c3 000d 49af 000d 49d7 000d     .I...I...I...I..
   d52f0:	498f 000d 4993 000d                         .I...I..

000d52f8 <_ZTVN5spark9MeshClassE>:
	...
   d5300:	4af7 000d 4aed 000d 4ae3 000d 4ad9 000d     .J...J...J...J..
   d5310:	4acd 000d 4ac1 000d 4ab5 000d 4aad 000d     .J...J...J...J..
   d5320:	4aa3 000d 4a99 000d 4c65 000d               .J...J..eL..

000d532c <_ZTVN5spark12NetworkClassE>:
	...
   d5334:	4bfd 000d 4c07 000d 4c11 000d 4c1b 000d     .K...L...L...L..
   d5344:	4c25 000d 4c31 000d 4c3d 000d 4c49 000d     %L..1L..=L..IL..
   d5354:	4c51 000d 4c5b 000d 4c65 000d               QL..[L..eL..

000d5360 <__sf_fake_stdin>:
	...

000d5380 <__sf_fake_stdout>:
	...

000d53a0 <__sf_fake_stderr>:
	...
   d53c0:	0043                                        C.

000d53c2 <link_const_variable_data_end>:
	...

000d53c4 <link_constructors_location>:
   d53c4:	000d40ed 	.word	0x000d40ed
   d53c8:	000d4421 	.word	0x000d4421
   d53cc:	000d446d 	.word	0x000d446d
   d53d0:	000d4485 	.word	0x000d4485
   d53d4:	000d45d1 	.word	0x000d45d1
   d53d8:	000d45e1 	.word	0x000d45e1
   d53dc:	000d4619 	.word	0x000d4619
   d53e0:	000d495d 	.word	0x000d495d
   d53e4:	000d4bad 	.word	0x000d4bad
   d53e8:	000d4d31 	.word	0x000d4d31
   d53ec:	000d4d45 	.word	0x000d4d45
   d53f0:	000d4d99 	.word	0x000d4d99
   d53f4:	000d4e1d 	.word	0x000d4e1d
   d53f8:	000d4ee1 	.word	0x000d4ee1
   d53fc:	000d4fa5 	.word	0x000d4fa5
