
c:/Users/localadmin/Documents/EAL-ITT/20s-itt2-project/particle_programs/serial_2way/target/1.4.4/boron/serial_2way.elf:     file format elf32-littlearm

Sections:
Idx Name          Size      VMA       LMA       File off  Algn
  0 .module_info  00000018  000d4000  000d4000  00004000  2**2
                  CONTENTS, ALLOC, LOAD, READONLY, DATA
  1 .dynalib      00000004  000d4018  000d4018  00004018  2**2
                  CONTENTS, ALLOC, LOAD, READONLY, DATA
  2 .text         000015d4  000d401c  000d401c  0000401c  2**2
                  CONTENTS, ALLOC, LOAD, READONLY, CODE
  3 .backup       00000000  2003f400  2003f400  00015684  2**0
                  CONTENTS
  4 .data         00000068  2003e344  000d55f0  0000e344  2**2
                  CONTENTS, ALLOC, LOAD, DATA
  5 .bss          00000444  2003e3ac  2003e3ac  0001e3ac  2**2
                  ALLOC
  6 .module_info_suffix 00000028  000d5658  000d5658  00015658  2**0
                  CONTENTS, ALLOC, LOAD, READONLY, DATA
  7 .module_info_crc 00000004  000d5680  000d5680  00015680  2**0
                  CONTENTS, ALLOC, LOAD, READONLY, DATA
  8 .debug_info   000af063  00000000  00000000  00015684  2**0
                  CONTENTS, READONLY, DEBUGGING
  9 .debug_abbrev 0000de4a  00000000  00000000  000c46e7  2**0
                  CONTENTS, READONLY, DEBUGGING
 10 .debug_loc    0001b92c  00000000  00000000  000d2531  2**0
                  CONTENTS, READONLY, DEBUGGING
 11 .debug_aranges 00002170  00000000  00000000  000ede5d  2**0
                  CONTENTS, READONLY, DEBUGGING
 12 .debug_ranges 00003fb8  00000000  00000000  000effcd  2**0
                  CONTENTS, READONLY, DEBUGGING
 13 .debug_macro  00030655  00000000  00000000  000f3f85  2**0
                  CONTENTS, READONLY, DEBUGGING
 14 .debug_line   00021d87  00000000  00000000  001245da  2**0
                  CONTENTS, READONLY, DEBUGGING
 15 .debug_str    000fb97f  00000000  00000000  00146361  2**0
                  CONTENTS, READONLY, DEBUGGING
 16 .debug_frame  0000c344  00000000  00000000  00241ce0  2**2
                  CONTENTS, READONLY, DEBUGGING

Disassembly of section .text:

000d401c <module_user_pre_init>:
/**
 * Initializes this user module. Returns the start of the heap.
 */
void* module_user_pre_init() {

    if ( (&link_global_data_start!=&link_global_data_initial_values) && (link_global_data_size != 0))
   d401c:	4809      	ldr	r0, [pc, #36]	; (d4044 <link_dynalib_end+0x28>)
   d401e:	490a      	ldr	r1, [pc, #40]	; (d4048 <link_dynalib_end+0x2c>)
   d4020:	4288      	cmp	r0, r1
extern constructor_ptr_t link_constructors_end;

/**
 * Initializes this user module. Returns the start of the heap.
 */
void* module_user_pre_init() {
   d4022:	b508      	push	{r3, lr}

    if ( (&link_global_data_start!=&link_global_data_initial_values) && (link_global_data_size != 0))
   d4024:	d005      	beq.n	d4032 <module_user_pre_init+0x16>
   d4026:	4a09      	ldr	r2, [pc, #36]	; (d404c <link_dynalib_end+0x30>)
   d4028:	4282      	cmp	r2, r0
   d402a:	d002      	beq.n	d4032 <module_user_pre_init+0x16>
    {
        memcpy(&link_global_data_start, &link_global_data_initial_values, link_global_data_size);
   d402c:	1a12      	subs	r2, r2, r0
   d402e:	f001 f8ef 	bl	d5210 <memcpy>
    }

    memset(&link_bss_location, 0, link_bss_size );
   d4032:	4807      	ldr	r0, [pc, #28]	; (d4050 <link_dynalib_end+0x34>)
   d4034:	4a07      	ldr	r2, [pc, #28]	; (d4054 <link_dynalib_end+0x38>)
   d4036:	2100      	movs	r1, #0
   d4038:	1a12      	subs	r2, r2, r0
   d403a:	f001 f8f4 	bl	d5226 <memset>
    return &link_global_data_start;
}
   d403e:	4801      	ldr	r0, [pc, #4]	; (d4044 <link_dynalib_end+0x28>)
   d4040:	bd08      	pop	{r3, pc}
   d4042:	bf00      	nop
   d4044:	2003e344 	.word	0x2003e344
   d4048:	000d55f0 	.word	0x000d55f0
   d404c:	2003e3ac 	.word	0x2003e3ac
   d4050:	2003e3ac 	.word	0x2003e3ac
   d4054:	2003e7f0 	.word	0x2003e7f0

000d4058 <module_user_init>:
extern constructor_ptr_t link_constructors_location[];
extern constructor_ptr_t link_constructors_end;
#define link_constructors_size   ((unsigned long)&link_constructors_end  -  (unsigned long)&link_constructors_location )

void module_user_init()
{
   d4058:	b570      	push	{r4, r5, r6, lr}
    module_user_init_hook();
   d405a:	f000 fc21 	bl	d48a0 <module_user_init_hook>
   d405e:	4c07      	ldr	r4, [pc, #28]	; (d407c <module_user_init+0x24>)
   d4060:	4b07      	ldr	r3, [pc, #28]	; (d4080 <module_user_init+0x28>)
   d4062:	1ae4      	subs	r4, r4, r3
   d4064:	08a4      	lsrs	r4, r4, #2

    // invoke constructors
    int ctor_num;
    for (ctor_num=0; ctor_num < link_constructors_size/sizeof(constructor_ptr_t); ctor_num++ )
   d4066:	2500      	movs	r5, #0
   d4068:	461e      	mov	r6, r3
   d406a:	42a5      	cmp	r5, r4
   d406c:	d004      	beq.n	d4078 <module_user_init+0x20>
    {
        link_constructors_location[ctor_num]();
   d406e:	f856 3025 	ldr.w	r3, [r6, r5, lsl #2]
   d4072:	4798      	blx	r3
{
    module_user_init_hook();

    // invoke constructors
    int ctor_num;
    for (ctor_num=0; ctor_num < link_constructors_size/sizeof(constructor_ptr_t); ctor_num++ )
   d4074:	3501      	adds	r5, #1
   d4076:	e7f8      	b.n	d406a <module_user_init+0x12>
    {
        link_constructors_location[ctor_num]();
    }
}
   d4078:	bd70      	pop	{r4, r5, r6, pc}
   d407a:	bf00      	nop
   d407c:	000d55e8 	.word	0x000d55e8
   d4080:	000d55ac 	.word	0x000d55ac

000d4084 <module_user_setup>:

/**
 * Export these functions with a fuller name so they don't clash with the setup/loop wrappers in the system module.
 */
void module_user_setup() {
    setup();
   d4084:	f000 b813 	b.w	d40ae <setup>

000d4088 <module_user_loop>:
}

void module_user_loop() {
   d4088:	b508      	push	{r3, lr}
    loop();
   d408a:	f000 f819 	bl	d40c0 <loop>
    _post_loop();
}
   d408e:	e8bd 4008 	ldmia.w	sp!, {r3, lr}
    setup();
}

void module_user_loop() {
    loop();
    _post_loop();
   d4092:	f000 bbd3 	b.w	d483c <_post_loop>

000d4096 <_ZdlPv>:
   d4096:	f000 b9a7 	b.w	d43e8 <free>

000d409a <_ZdaPv>:
	free(p);
}

void operator delete[](void *p)
{
	free(p);
   d409a:	f000 b9a5 	b.w	d43e8 <free>

000d409e <__cxa_guard_acquire>:

/* Provide default implemenation for __cxa_guard_acquire() and
 * __cxa_guard_release(). Note: these must be revisited if a multitasking
 * OS is ported to this platform. */
__extension__ typedef int __guard __attribute__((mode (__DI__)));
int __cxa_guard_acquire(__guard *g) {return !*(char *)(g);};
   d409e:	7800      	ldrb	r0, [r0, #0]
   d40a0:	fab0 f080 	clz	r0, r0
   d40a4:	0940      	lsrs	r0, r0, #5
   d40a6:	4770      	bx	lr

000d40a8 <__cxa_guard_release>:
void __cxa_guard_release (__guard *g) {*(char *)g = 1;};
   d40a8:	2301      	movs	r3, #1
   d40aa:	7003      	strb	r3, [r0, #0]
   d40ac:	4770      	bx	lr

000d40ae <setup>:
const unsigned long UPDATE_PERIOD_MS_1 = 1000; //1mS period
unsigned long lastUpdate;
unsigned long counter; 

// setup() runs once, when the device is first turned on.
void setup() {
   d40ae:	b508      	push	{r3, lr}
  // Put initialization like pinMode and begin functions here.
  Serial1.begin(9600);
   d40b0:	f000 fdb2 	bl	d4c18 <_Z22__fetch_global_Serial1v>
   d40b4:	f44f 5116 	mov.w	r1, #9600	; 0x2580
}
   d40b8:	e8bd 4008 	ldmia.w	sp!, {r3, lr}
unsigned long counter; 

// setup() runs once, when the device is first turned on.
void setup() {
  // Put initialization like pinMode and begin functions here.
  Serial1.begin(9600);
   d40bc:	f000 bda8 	b.w	d4c10 <_ZN11USARTSerial5beginEm>

000d40c0 <loop>:
}

// loop() runs over and over again, as quickly as it can execute.
void loop() {
   d40c0:	b510      	push	{r4, lr}
  // Send data in intervals
  if (millis() - lastUpdate >= UPDATE_PERIOD_MS_1) {
   d40c2:	4c1e      	ldr	r4, [pc, #120]	; (d413c <loop+0x7c>)
  // Put initialization like pinMode and begin functions here.
  Serial1.begin(9600);
}

// loop() runs over and over again, as quickly as it can execute.
void loop() {
   d40c4:	b088      	sub	sp, #32
#endif

#include "timer_hal.h"
#include "delay_hal.h"

inline system_tick_t millis(void) { return HAL_Timer_Get_Milli_Seconds(); }
   d40c6:	f000 f86b 	bl	d41a0 <HAL_Timer_Get_Milli_Seconds>
  // Send data in intervals
  if (millis() - lastUpdate >= UPDATE_PERIOD_MS_1) {
   d40ca:	6823      	ldr	r3, [r4, #0]
   d40cc:	1ac0      	subs	r0, r0, r3
   d40ce:	f5b0 7f7a 	cmp.w	r0, #1000	; 0x3e8
   d40d2:	d30c      	bcc.n	d40ee <loop+0x2e>
   d40d4:	f000 f864 	bl	d41a0 <HAL_Timer_Get_Milli_Seconds>
		lastUpdate = millis();
   d40d8:	6020      	str	r0, [r4, #0]
    Serial1.printlnf("sending test data %d", ++counter);
   d40da:	f000 fd9d 	bl	d4c18 <_Z22__fetch_global_Serial1v>
   d40de:	4a18      	ldr	r2, [pc, #96]	; (d4140 <loop+0x80>)
   d40e0:	6813      	ldr	r3, [r2, #0]
   d40e2:	3301      	adds	r3, #1
   d40e4:	6013      	str	r3, [r2, #0]
    }

    template <typename... Args>
    inline size_t printlnf(const char* format, Args... args)
    {
        return this->printf_impl(true, format, args...);
   d40e6:	2101      	movs	r1, #1
   d40e8:	4a16      	ldr	r2, [pc, #88]	; (d4144 <loop+0x84>)
   d40ea:	f000 faf1 	bl	d46d0 <_ZN5Print11printf_implEbPKcz>
  }

  // if serial data received on Boron rx pin,  print to serial (USB)
  while (Serial1.available() > 0) {
   d40ee:	f000 fd93 	bl	d4c18 <_Z22__fetch_global_Serial1v>
   d40f2:	6803      	ldr	r3, [r0, #0]
   d40f4:	691b      	ldr	r3, [r3, #16]
   d40f6:	4798      	blx	r3
   d40f8:	2800      	cmp	r0, #0
   d40fa:	dd1d      	ble.n	d4138 <loop+0x78>
      String incoming = Serial1.readStringUntil('\n');
   d40fc:	f000 fd8c 	bl	d4c18 <_Z22__fetch_global_Serial1v>
   d4100:	220a      	movs	r2, #10
   d4102:	4601      	mov	r1, r0
   d4104:	4668      	mov	r0, sp
   d4106:	f000 fb33 	bl	d4770 <_ZN6Stream15readStringUntilEc>
      Serial.printlnf("received from node-red: " + incoming);  
   d410a:	f000 fcb3 	bl	d4a74 <_Z16_fetch_usbserialv>

class StringSumHelper : public String
{
public:
	StringSumHelper(const String &s) : String(s) {}
	StringSumHelper(const char *p) : String(p) {}
   d410e:	490e      	ldr	r1, [pc, #56]	; (d4148 <loop+0x88>)
   d4110:	4604      	mov	r4, r0
   d4112:	a804      	add	r0, sp, #16
   d4114:	f000 fa2d 	bl	d4572 <_ZN6StringC1EPK19__FlashStringHelper>
   d4118:	4669      	mov	r1, sp
   d411a:	a804      	add	r0, sp, #16
   d411c:	f000 fa60 	bl	d45e0 <_ZplRK15StringSumHelperRK6String>
   d4120:	2101      	movs	r1, #1
   d4122:	6802      	ldr	r2, [r0, #0]
   d4124:	4620      	mov	r0, r4
   d4126:	f000 fad3 	bl	d46d0 <_ZN5Print11printf_implEbPKcz>

        friend class StringPrintableHelper;

};

class StringSumHelper : public String
   d412a:	a804      	add	r0, sp, #16
   d412c:	f000 f9da 	bl	d44e4 <_ZN6StringD1Ev>
    Serial1.printlnf("sending test data %d", ++counter);
  }

  // if serial data received on Boron rx pin,  print to serial (USB)
  while (Serial1.available() > 0) {
      String incoming = Serial1.readStringUntil('\n');
   d4130:	4668      	mov	r0, sp
   d4132:	f000 f9d7 	bl	d44e4 <_ZN6StringD1Ev>
		lastUpdate = millis();
    Serial1.printlnf("sending test data %d", ++counter);
  }

  // if serial data received on Boron rx pin,  print to serial (USB)
  while (Serial1.available() > 0) {
   d4136:	e7da      	b.n	d40ee <loop+0x2e>
      String incoming = Serial1.readStringUntil('\n');
      Serial.printlnf("received from node-red: " + incoming);  
  }
   d4138:	b008      	add	sp, #32
   d413a:	bd10      	pop	{r4, pc}
   d413c:	2003e3b0 	.word	0x2003e3b0
   d4140:	2003e3b4 	.word	0x2003e3b4
   d4144:	000d52bc 	.word	0x000d52bc
   d4148:	000d52d1 	.word	0x000d52d1

000d414c <_GLOBAL__sub_I_lastUpdate>:

inline void pinSetFast(pin_t _pin) __attribute__((always_inline));
inline void pinResetFast(pin_t _pin) __attribute__((always_inline));
inline int32_t pinReadFast(pin_t _pin) __attribute__((always_inline));

static Hal_Pin_Info* PIN_MAP = HAL_Pin_Map();
   d414c:	f000 b810 	b.w	d4170 <HAL_Pin_Map>

000d4150 <netdb_freeaddrinfo>:

DYNALIB_BEGIN(hal_netdb)

DYNALIB_FN(0, hal_netdb, netdb_gethostbyname, struct hostent*(const char*))
DYNALIB_FN(1, hal_netdb, netdb_gethostbyname_r, int(const char*, struct hostent*, char*, size_t, struct hostent**, int*))
DYNALIB_FN(2, hal_netdb, netdb_freeaddrinfo, void(struct addrinfo*))
   d4150:	b508      	push	{r3, lr}
   d4152:	4b02      	ldr	r3, [pc, #8]	; (d415c <netdb_freeaddrinfo+0xc>)
   d4154:	681b      	ldr	r3, [r3, #0]
   d4156:	689b      	ldr	r3, [r3, #8]
   d4158:	9301      	str	r3, [sp, #4]
   d415a:	bd08      	pop	{r3, pc}
   d415c:	00030268 	.word	0x00030268

000d4160 <netdb_getaddrinfo>:
DYNALIB_FN(3, hal_netdb, netdb_getaddrinfo, int(const char*, const char*, const struct addrinfo*, struct addrinfo**))
   d4160:	b508      	push	{r3, lr}
   d4162:	4b02      	ldr	r3, [pc, #8]	; (d416c <netdb_getaddrinfo+0xc>)
   d4164:	681b      	ldr	r3, [r3, #0]
   d4166:	68db      	ldr	r3, [r3, #12]
   d4168:	9301      	str	r3, [sp, #4]
   d416a:	bd08      	pop	{r3, pc}
   d416c:	00030268 	.word	0x00030268

000d4170 <HAL_Pin_Map>:
// New HAL functions must be added to the end of this list.
// GNINRAW

DYNALIB_BEGIN(hal_gpio)

DYNALIB_FN(0, hal_gpio, HAL_Pin_Map, Hal_Pin_Info*(void))
   d4170:	b508      	push	{r3, lr}
   d4172:	4b02      	ldr	r3, [pc, #8]	; (d417c <HAL_Pin_Map+0xc>)
   d4174:	681b      	ldr	r3, [r3, #0]
   d4176:	681b      	ldr	r3, [r3, #0]
   d4178:	9301      	str	r3, [sp, #4]
   d417a:	bd08      	pop	{r3, pc}
   d417c:	0003022c 	.word	0x0003022c

000d4180 <HAL_SPI_Init>:
DYNALIB_FN(2, hal_spi, HAL_SPI_Set_Bit_Order, void(HAL_SPI_Interface, uint8_t))
DYNALIB_FN(3, hal_spi, HAL_SPI_Set_Data_Mode, void(HAL_SPI_Interface, uint8_t))
DYNALIB_FN(4, hal_spi, HAL_SPI_Set_Clock_Divider, void(HAL_SPI_Interface, uint8_t))
DYNALIB_FN(5, hal_spi, HAL_SPI_Send_Receive_Data, uint16_t(HAL_SPI_Interface, uint16_t))
DYNALIB_FN(6, hal_spi, HAL_SPI_Is_Enabled_Old, bool(void))
DYNALIB_FN(7, hal_spi, HAL_SPI_Init, void(HAL_SPI_Interface))
   d4180:	b508      	push	{r3, lr}
   d4182:	4b02      	ldr	r3, [pc, #8]	; (d418c <HAL_SPI_Init+0xc>)
   d4184:	681b      	ldr	r3, [r3, #0]
   d4186:	69db      	ldr	r3, [r3, #28]
   d4188:	9301      	str	r3, [sp, #4]
   d418a:	bd08      	pop	{r3, pc}
   d418c:	00030230 	.word	0x00030230

000d4190 <HAL_RNG_GetRandomNumber>:

DYNALIB_BEGIN(hal)

#if PLATFORM_ID > 3
DYNALIB_FN(0, hal, HAL_RNG_Configuration, void(void))
DYNALIB_FN(1, hal, HAL_RNG_GetRandomNumber, uint32_t(void))
   d4190:	b508      	push	{r3, lr}
   d4192:	4b02      	ldr	r3, [pc, #8]	; (d419c <HAL_RNG_GetRandomNumber+0xc>)
   d4194:	681b      	ldr	r3, [r3, #0]
   d4196:	685b      	ldr	r3, [r3, #4]
   d4198:	9301      	str	r3, [sp, #4]
   d419a:	bd08      	pop	{r3, pc}
   d419c:	00030218 	.word	0x00030218

000d41a0 <HAL_Timer_Get_Milli_Seconds>:
#endif

DYNALIB_FN(BASE_IDX + 0, hal, HAL_Delay_Milliseconds, void(uint32_t))
DYNALIB_FN(BASE_IDX + 1, hal, HAL_Delay_Microseconds, void(uint32_t))
DYNALIB_FN(BASE_IDX + 2, hal, HAL_Timer_Get_Micro_Seconds, system_tick_t(void))
DYNALIB_FN(BASE_IDX + 3, hal, HAL_Timer_Get_Milli_Seconds, system_tick_t(void))
   d41a0:	b508      	push	{r3, lr}
   d41a2:	4b02      	ldr	r3, [pc, #8]	; (d41ac <HAL_Timer_Get_Milli_Seconds+0xc>)
   d41a4:	681b      	ldr	r3, [r3, #0]
   d41a6:	695b      	ldr	r3, [r3, #20]
   d41a8:	9301      	str	r3, [sp, #4]
   d41aa:	bd08      	pop	{r3, pc}
   d41ac:	00030218 	.word	0x00030218

000d41b0 <os_thread_is_current>:
DYNALIB_BEGIN(hal_concurrent)

#if PLATFORM_THREADING
DYNALIB_FN(0, hal_concurrent, __gthread_equal, bool(__gthread_t, __gthread_t))
DYNALIB_FN(1, hal_concurrent, os_thread_create, os_result_t(os_thread_t*, const char*, os_thread_prio_t, os_thread_fn_t, void*, size_t))
DYNALIB_FN(2, hal_concurrent, os_thread_is_current, bool(os_thread_t))
   d41b0:	b508      	push	{r3, lr}
   d41b2:	4b02      	ldr	r3, [pc, #8]	; (d41bc <os_thread_is_current+0xc>)
   d41b4:	681b      	ldr	r3, [r3, #0]
   d41b6:	689b      	ldr	r3, [r3, #8]
   d41b8:	9301      	str	r3, [sp, #4]
   d41ba:	bd08      	pop	{r3, pc}
   d41bc:	00030248 	.word	0x00030248

000d41c0 <os_thread_join>:
DYNALIB_FN(3, hal_concurrent, os_thread_yield, os_result_t(void))
DYNALIB_FN(4, hal_concurrent, os_thread_join, os_result_t(os_thread_t))
   d41c0:	b508      	push	{r3, lr}
   d41c2:	4b02      	ldr	r3, [pc, #8]	; (d41cc <os_thread_join+0xc>)
   d41c4:	681b      	ldr	r3, [r3, #0]
   d41c6:	691b      	ldr	r3, [r3, #16]
   d41c8:	9301      	str	r3, [sp, #4]
   d41ca:	bd08      	pop	{r3, pc}
   d41cc:	00030248 	.word	0x00030248

000d41d0 <os_thread_cleanup>:
DYNALIB_FN(5, hal_concurrent, os_thread_cleanup, os_result_t(os_thread_t))
   d41d0:	b508      	push	{r3, lr}
   d41d2:	4b02      	ldr	r3, [pc, #8]	; (d41dc <os_thread_cleanup+0xc>)
   d41d4:	681b      	ldr	r3, [r3, #0]
   d41d6:	695b      	ldr	r3, [r3, #20]
   d41d8:	9301      	str	r3, [sp, #4]
   d41da:	bd08      	pop	{r3, pc}
   d41dc:	00030248 	.word	0x00030248

000d41e0 <os_mutex_create>:
DYNALIB_FN(8, hal_concurrent, os_timer_create, int(os_timer_t*, unsigned, void(*)(os_timer_t), void*, bool, void*))
DYNALIB_FN(9, hal_concurrent, os_timer_destroy, int(os_timer_t, void*))
DYNALIB_FN(10, hal_concurrent, os_timer_get_id, int(os_timer_t, void**))
DYNALIB_FN(11, hal_concurrent, os_timer_change, int(os_timer_t, os_timer_change_t, bool, unsigned, unsigned, void*))

DYNALIB_FN(12, hal_concurrent, os_mutex_create, int(os_mutex_t*))
   d41e0:	b508      	push	{r3, lr}
   d41e2:	4b02      	ldr	r3, [pc, #8]	; (d41ec <os_mutex_create+0xc>)
   d41e4:	681b      	ldr	r3, [r3, #0]
   d41e6:	6b1b      	ldr	r3, [r3, #48]	; 0x30
   d41e8:	9301      	str	r3, [sp, #4]
   d41ea:	bd08      	pop	{r3, pc}
   d41ec:	00030248 	.word	0x00030248

000d41f0 <os_mutex_recursive_create>:
DYNALIB_FN(13, hal_concurrent, os_mutex_destroy, int(os_mutex_t))
DYNALIB_FN(14, hal_concurrent, os_mutex_lock, int(os_mutex_t))
DYNALIB_FN(15, hal_concurrent, os_mutex_trylock, int(os_mutex_t))
DYNALIB_FN(16, hal_concurrent, os_mutex_unlock, int(os_mutex_t))

DYNALIB_FN(17, hal_concurrent, os_mutex_recursive_create, int(os_mutex_recursive_t*))
   d41f0:	b508      	push	{r3, lr}
   d41f2:	4b02      	ldr	r3, [pc, #8]	; (d41fc <os_mutex_recursive_create+0xc>)
   d41f4:	681b      	ldr	r3, [r3, #0]
   d41f6:	6c5b      	ldr	r3, [r3, #68]	; 0x44
   d41f8:	9301      	str	r3, [sp, #4]
   d41fa:	bd08      	pop	{r3, pc}
   d41fc:	00030248 	.word	0x00030248

000d4200 <inet_inet_ntop>:
DYNALIB_FN(0, hal_inet, inet_inet_addr, in_addr_t(const char*))
DYNALIB_FN(1, hal_inet, inet_inet_aton, int(const char*, struct in_addr*))
DYNALIB_FN(2, hal_inet, inet_inet_network, in_addr_t(const char*))
DYNALIB_FN(3, hal_inet, inet_inet_ntoa, char*(struct in_addr))
DYNALIB_FN(4, hal_inet, inet_inet_ntoa_r, char*(struct in_addr, char*, socklen_t))
DYNALIB_FN(5, hal_inet, inet_inet_ntop, const char*(int, const void*, char*, socklen_t))
   d4200:	b508      	push	{r3, lr}
   d4202:	4b02      	ldr	r3, [pc, #8]	; (d420c <inet_inet_ntop+0xc>)
   d4204:	681b      	ldr	r3, [r3, #0]
   d4206:	695b      	ldr	r3, [r3, #20]
   d4208:	9301      	str	r3, [sp, #4]
   d420a:	bd08      	pop	{r3, pc}
   d420c:	00030264 	.word	0x00030264

000d4210 <HAL_USART_Init>:
#define BASE_IDX 6 // Base index for all subsequent functions
#else
#define BASE_IDX 0
#endif

DYNALIB_FN(BASE_IDX + 0, hal_usart, HAL_USART_Init, void(HAL_USART_Serial, Ring_Buffer*, Ring_Buffer*))
   d4210:	b508      	push	{r3, lr}
   d4212:	4b02      	ldr	r3, [pc, #8]	; (d421c <HAL_USART_Init+0xc>)
   d4214:	681b      	ldr	r3, [r3, #0]
   d4216:	681b      	ldr	r3, [r3, #0]
   d4218:	9301      	str	r3, [sp, #4]
   d421a:	bd08      	pop	{r3, pc}
   d421c:	0003023c 	.word	0x0003023c

000d4220 <HAL_USART_Write_Data>:
DYNALIB_FN(BASE_IDX + 1, hal_usart, HAL_USART_Begin, void(HAL_USART_Serial, uint32_t))
DYNALIB_FN(BASE_IDX + 2, hal_usart, HAL_USART_End, void(HAL_USART_Serial))
DYNALIB_FN(BASE_IDX + 3, hal_usart, HAL_USART_Write_Data, uint32_t(HAL_USART_Serial, uint8_t))
   d4220:	b508      	push	{r3, lr}
   d4222:	4b02      	ldr	r3, [pc, #8]	; (d422c <HAL_USART_Write_Data+0xc>)
   d4224:	681b      	ldr	r3, [r3, #0]
   d4226:	68db      	ldr	r3, [r3, #12]
   d4228:	9301      	str	r3, [sp, #4]
   d422a:	bd08      	pop	{r3, pc}
   d422c:	0003023c 	.word	0x0003023c

000d4230 <HAL_USART_Available_Data>:
DYNALIB_FN(BASE_IDX + 4, hal_usart, HAL_USART_Available_Data, int32_t(HAL_USART_Serial))
   d4230:	b508      	push	{r3, lr}
   d4232:	4b02      	ldr	r3, [pc, #8]	; (d423c <HAL_USART_Available_Data+0xc>)
   d4234:	681b      	ldr	r3, [r3, #0]
   d4236:	691b      	ldr	r3, [r3, #16]
   d4238:	9301      	str	r3, [sp, #4]
   d423a:	bd08      	pop	{r3, pc}
   d423c:	0003023c 	.word	0x0003023c

000d4240 <HAL_USART_Read_Data>:
DYNALIB_FN(BASE_IDX + 5, hal_usart, HAL_USART_Read_Data, int32_t(HAL_USART_Serial))
   d4240:	b508      	push	{r3, lr}
   d4242:	4b02      	ldr	r3, [pc, #8]	; (d424c <HAL_USART_Read_Data+0xc>)
   d4244:	681b      	ldr	r3, [r3, #0]
   d4246:	695b      	ldr	r3, [r3, #20]
   d4248:	9301      	str	r3, [sp, #4]
   d424a:	bd08      	pop	{r3, pc}
   d424c:	0003023c 	.word	0x0003023c

000d4250 <HAL_USART_Peek_Data>:
DYNALIB_FN(BASE_IDX + 6, hal_usart, HAL_USART_Peek_Data, int32_t(HAL_USART_Serial))
   d4250:	b508      	push	{r3, lr}
   d4252:	4b02      	ldr	r3, [pc, #8]	; (d425c <HAL_USART_Peek_Data+0xc>)
   d4254:	681b      	ldr	r3, [r3, #0]
   d4256:	699b      	ldr	r3, [r3, #24]
   d4258:	9301      	str	r3, [sp, #4]
   d425a:	bd08      	pop	{r3, pc}
   d425c:	0003023c 	.word	0x0003023c

000d4260 <HAL_USART_Flush_Data>:
DYNALIB_FN(BASE_IDX + 7, hal_usart, HAL_USART_Flush_Data, void(HAL_USART_Serial))
   d4260:	b508      	push	{r3, lr}
   d4262:	4b02      	ldr	r3, [pc, #8]	; (d426c <HAL_USART_Flush_Data+0xc>)
   d4264:	681b      	ldr	r3, [r3, #0]
   d4266:	69db      	ldr	r3, [r3, #28]
   d4268:	9301      	str	r3, [sp, #4]
   d426a:	bd08      	pop	{r3, pc}
   d426c:	0003023c 	.word	0x0003023c

000d4270 <HAL_USART_Available_Data_For_Write>:
DYNALIB_FN(BASE_IDX + 8, hal_usart, HAL_USART_Is_Enabled, bool(HAL_USART_Serial))
DYNALIB_FN(BASE_IDX + 9, hal_usart, HAL_USART_Half_Duplex, void(HAL_USART_Serial, bool))
DYNALIB_FN(BASE_IDX + 10, hal_usart, HAL_USART_Available_Data_For_Write, int32_t(HAL_USART_Serial))
   d4270:	b508      	push	{r3, lr}
   d4272:	4b02      	ldr	r3, [pc, #8]	; (d427c <HAL_USART_Available_Data_For_Write+0xc>)
   d4274:	681b      	ldr	r3, [r3, #0]
   d4276:	6a9b      	ldr	r3, [r3, #40]	; 0x28
   d4278:	9301      	str	r3, [sp, #4]
   d427a:	bd08      	pop	{r3, pc}
   d427c:	0003023c 	.word	0x0003023c

000d4280 <HAL_USART_BeginConfig>:
#define BASE_IDX2 (BASE_IDX+13)
#else
#define BASE_IDX2 (BASE_IDX+11)
#endif

DYNALIB_FN(BASE_IDX2 + 0, hal_usart, HAL_USART_BeginConfig, void(HAL_USART_Serial serial, uint32_t baud, uint32_t config, void *ptr))
   d4280:	b508      	push	{r3, lr}
   d4282:	4b02      	ldr	r3, [pc, #8]	; (d428c <HAL_USART_BeginConfig+0xc>)
   d4284:	681b      	ldr	r3, [r3, #0]
   d4286:	6adb      	ldr	r3, [r3, #44]	; 0x2c
   d4288:	9301      	str	r3, [sp, #4]
   d428a:	bd08      	pop	{r3, pc}
   d428c:	0003023c 	.word	0x0003023c

000d4290 <HAL_USB_USART_Init>:
#endif

DYNALIB_BEGIN(hal_usb)

#ifdef USB_CDC_ENABLE
DYNALIB_FN(0, hal_usb, HAL_USB_USART_Init, void(HAL_USB_USART_Serial, const HAL_USB_USART_Config*))
   d4290:	b508      	push	{r3, lr}
   d4292:	4b02      	ldr	r3, [pc, #8]	; (d429c <HAL_USB_USART_Init+0xc>)
   d4294:	681b      	ldr	r3, [r3, #0]
   d4296:	681b      	ldr	r3, [r3, #0]
   d4298:	9301      	str	r3, [sp, #4]
   d429a:	bd08      	pop	{r3, pc}
   d429c:	0003024c 	.word	0x0003024c

000d42a0 <HAL_USB_USART_Available_Data>:
DYNALIB_FN(1, hal_usb, HAL_USB_USART_Begin, void(HAL_USB_USART_Serial, uint32_t, void *))
DYNALIB_FN(2, hal_usb, HAL_USB_USART_End, void(HAL_USB_USART_Serial))
DYNALIB_FN(3, hal_usb, HAL_USB_USART_Baud_Rate, unsigned int(HAL_USB_USART_Serial))
DYNALIB_FN(4, hal_usb, HAL_USB_USART_Available_Data, int32_t(HAL_USB_USART_Serial))
   d42a0:	b508      	push	{r3, lr}
   d42a2:	4b02      	ldr	r3, [pc, #8]	; (d42ac <HAL_USB_USART_Available_Data+0xc>)
   d42a4:	681b      	ldr	r3, [r3, #0]
   d42a6:	691b      	ldr	r3, [r3, #16]
   d42a8:	9301      	str	r3, [sp, #4]
   d42aa:	bd08      	pop	{r3, pc}
   d42ac:	0003024c 	.word	0x0003024c

000d42b0 <HAL_USB_USART_Available_Data_For_Write>:
DYNALIB_FN(5, hal_usb, HAL_USB_USART_Available_Data_For_Write, int32_t(HAL_USB_USART_Serial))
   d42b0:	b508      	push	{r3, lr}
   d42b2:	4b02      	ldr	r3, [pc, #8]	; (d42bc <HAL_USB_USART_Available_Data_For_Write+0xc>)
   d42b4:	681b      	ldr	r3, [r3, #0]
   d42b6:	695b      	ldr	r3, [r3, #20]
   d42b8:	9301      	str	r3, [sp, #4]
   d42ba:	bd08      	pop	{r3, pc}
   d42bc:	0003024c 	.word	0x0003024c

000d42c0 <HAL_USB_USART_Receive_Data>:
DYNALIB_FN(6, hal_usb, HAL_USB_USART_Receive_Data, int32_t(HAL_USB_USART_Serial, uint8_t))
   d42c0:	b508      	push	{r3, lr}
   d42c2:	4b02      	ldr	r3, [pc, #8]	; (d42cc <HAL_USB_USART_Receive_Data+0xc>)
   d42c4:	681b      	ldr	r3, [r3, #0]
   d42c6:	699b      	ldr	r3, [r3, #24]
   d42c8:	9301      	str	r3, [sp, #4]
   d42ca:	bd08      	pop	{r3, pc}
   d42cc:	0003024c 	.word	0x0003024c

000d42d0 <HAL_USB_USART_Send_Data>:
DYNALIB_FN(7, hal_usb, HAL_USB_USART_Send_Data, int32_t(HAL_USB_USART_Serial, uint8_t))
   d42d0:	b508      	push	{r3, lr}
   d42d2:	4b02      	ldr	r3, [pc, #8]	; (d42dc <HAL_USB_USART_Send_Data+0xc>)
   d42d4:	681b      	ldr	r3, [r3, #0]
   d42d6:	69db      	ldr	r3, [r3, #28]
   d42d8:	9301      	str	r3, [sp, #4]
   d42da:	bd08      	pop	{r3, pc}
   d42dc:	0003024c 	.word	0x0003024c

000d42e0 <HAL_USB_USART_Flush_Data>:
DYNALIB_FN(8, hal_usb, HAL_USB_USART_Flush_Data, void(HAL_USB_USART_Serial))
   d42e0:	b508      	push	{r3, lr}
   d42e2:	4b02      	ldr	r3, [pc, #8]	; (d42ec <HAL_USB_USART_Flush_Data+0xc>)
   d42e4:	681b      	ldr	r3, [r3, #0]
   d42e6:	6a1b      	ldr	r3, [r3, #32]
   d42e8:	9301      	str	r3, [sp, #4]
   d42ea:	bd08      	pop	{r3, pc}
   d42ec:	0003024c 	.word	0x0003024c

000d42f0 <set_system_mode>:
#endif

DYNALIB_BEGIN(system)

DYNALIB_FN(0, system, system_mode, System_Mode_TypeDef(void))
DYNALIB_FN(1, system, set_system_mode, void(System_Mode_TypeDef))
   d42f0:	b508      	push	{r3, lr}
   d42f2:	4b02      	ldr	r3, [pc, #8]	; (d42fc <set_system_mode+0xc>)
   d42f4:	681b      	ldr	r3, [r3, #0]
   d42f6:	685b      	ldr	r3, [r3, #4]
   d42f8:	9301      	str	r3, [sp, #4]
   d42fa:	bd08      	pop	{r3, pc}
   d42fc:	00030220 	.word	0x00030220

000d4300 <system_ctrl_set_app_request_handler>:
DYNALIB_FN(BASE_IDX + 6, system, led_pattern_period, uint16_t(int, int, void*))
DYNALIB_FN(BASE_IDX + 7, system, system_set_tester_handlers, int(system_tester_handlers_t*, void*))
DYNALIB_FN(BASE_IDX + 8, system, system_format_diag_data, int(const uint16_t*, size_t, unsigned, appender_fn, void*, void*))

// Control requests
DYNALIB_FN(BASE_IDX + 9, system, system_ctrl_set_app_request_handler, int(ctrl_request_handler_fn, void*))
   d4300:	b508      	push	{r3, lr}
   d4302:	4b03      	ldr	r3, [pc, #12]	; (d4310 <system_ctrl_set_app_request_handler+0x10>)
   d4304:	681b      	ldr	r3, [r3, #0]
   d4306:	f8d3 3088 	ldr.w	r3, [r3, #136]	; 0x88
   d430a:	9301      	str	r3, [sp, #4]
   d430c:	bd08      	pop	{r3, pc}
   d430e:	0000      	.short	0x0000
   d4310:	00030220 	.word	0x00030220

000d4314 <system_ctrl_set_result>:
DYNALIB_FN(BASE_IDX + 10, system, system_ctrl_alloc_reply_data, int(ctrl_request*, size_t, void*))
DYNALIB_FN(BASE_IDX + 11, system, system_ctrl_free_request_data, void(ctrl_request*, void*))
DYNALIB_FN(BASE_IDX + 12, system, system_ctrl_set_result, void(ctrl_request*, int, ctrl_completion_handler_fn, void*, void*))
   d4314:	b508      	push	{r3, lr}
   d4316:	4b03      	ldr	r3, [pc, #12]	; (d4324 <system_ctrl_set_result+0x10>)
   d4318:	681b      	ldr	r3, [r3, #0]
   d431a:	f8d3 3094 	ldr.w	r3, [r3, #148]	; 0x94
   d431e:	9301      	str	r3, [sp, #4]
   d4320:	bd08      	pop	{r3, pc}
   d4322:	0000      	.short	0x0000
   d4324:	00030220 	.word	0x00030220

000d4328 <network_connect>:
#endif

DYNALIB_BEGIN(system_net)

DYNALIB_FN(0, system_net, network_config, const void*(network_handle_t, uint32_t, void*))
DYNALIB_FN(1, system_net, network_connect, void(network_handle_t, uint32_t, uint32_t, void*))
   d4328:	b508      	push	{r3, lr}
   d432a:	4b02      	ldr	r3, [pc, #8]	; (d4334 <network_connect+0xc>)
   d432c:	681b      	ldr	r3, [r3, #0]
   d432e:	685b      	ldr	r3, [r3, #4]
   d4330:	9301      	str	r3, [sp, #4]
   d4332:	bd08      	pop	{r3, pc}
   d4334:	00030240 	.word	0x00030240

000d4338 <network_connecting>:
DYNALIB_FN(2, system_net, network_connecting, bool(network_handle_t, uint32_t, void*))
   d4338:	b508      	push	{r3, lr}
   d433a:	4b02      	ldr	r3, [pc, #8]	; (d4344 <network_connecting+0xc>)
   d433c:	681b      	ldr	r3, [r3, #0]
   d433e:	689b      	ldr	r3, [r3, #8]
   d4340:	9301      	str	r3, [sp, #4]
   d4342:	bd08      	pop	{r3, pc}
   d4344:	00030240 	.word	0x00030240

000d4348 <network_disconnect>:
DYNALIB_FN(3, system_net, network_disconnect, void(network_handle_t, uint32_t, void*))
   d4348:	b508      	push	{r3, lr}
   d434a:	4b02      	ldr	r3, [pc, #8]	; (d4354 <network_disconnect+0xc>)
   d434c:	681b      	ldr	r3, [r3, #0]
   d434e:	68db      	ldr	r3, [r3, #12]
   d4350:	9301      	str	r3, [sp, #4]
   d4352:	bd08      	pop	{r3, pc}
   d4354:	00030240 	.word	0x00030240

000d4358 <network_ready>:
DYNALIB_FN(4, system_net, network_ready, bool(network_handle_t, uint32_t, void*))
   d4358:	b508      	push	{r3, lr}
   d435a:	4b02      	ldr	r3, [pc, #8]	; (d4364 <network_ready+0xc>)
   d435c:	681b      	ldr	r3, [r3, #0]
   d435e:	691b      	ldr	r3, [r3, #16]
   d4360:	9301      	str	r3, [sp, #4]
   d4362:	bd08      	pop	{r3, pc}
   d4364:	00030240 	.word	0x00030240

000d4368 <network_on>:
DYNALIB_FN(5, system_net, network_on, void(network_handle_t, uint32_t, uint32_t, void*))
   d4368:	b508      	push	{r3, lr}
   d436a:	4b02      	ldr	r3, [pc, #8]	; (d4374 <network_on+0xc>)
   d436c:	681b      	ldr	r3, [r3, #0]
   d436e:	695b      	ldr	r3, [r3, #20]
   d4370:	9301      	str	r3, [sp, #4]
   d4372:	bd08      	pop	{r3, pc}
   d4374:	00030240 	.word	0x00030240

000d4378 <network_off>:
DYNALIB_FN(6, system_net, network_off, void(network_handle_t, uint32_t, uint32_t, void*))
   d4378:	b508      	push	{r3, lr}
   d437a:	4b02      	ldr	r3, [pc, #8]	; (d4384 <network_off+0xc>)
   d437c:	681b      	ldr	r3, [r3, #0]
   d437e:	699b      	ldr	r3, [r3, #24]
   d4380:	9301      	str	r3, [sp, #4]
   d4382:	bd08      	pop	{r3, pc}
   d4384:	00030240 	.word	0x00030240

000d4388 <network_listen>:
DYNALIB_FN(7, system_net, network_listen, void(network_handle_t, uint32_t, void*))
   d4388:	b508      	push	{r3, lr}
   d438a:	4b02      	ldr	r3, [pc, #8]	; (d4394 <network_listen+0xc>)
   d438c:	681b      	ldr	r3, [r3, #0]
   d438e:	69db      	ldr	r3, [r3, #28]
   d4390:	9301      	str	r3, [sp, #4]
   d4392:	bd08      	pop	{r3, pc}
   d4394:	00030240 	.word	0x00030240

000d4398 <network_listening>:
DYNALIB_FN(8, system_net, network_listening, bool(network_handle_t, uint32_t, void*))
   d4398:	b508      	push	{r3, lr}
   d439a:	4b02      	ldr	r3, [pc, #8]	; (d43a4 <network_listening+0xc>)
   d439c:	681b      	ldr	r3, [r3, #0]
   d439e:	6a1b      	ldr	r3, [r3, #32]
   d43a0:	9301      	str	r3, [sp, #4]
   d43a2:	bd08      	pop	{r3, pc}
   d43a4:	00030240 	.word	0x00030240

000d43a8 <network_set_listen_timeout>:
DYNALIB_FN(9, system_net, network_has_credentials, bool(network_handle_t, uint32_t, void*))
DYNALIB_FN(10, system_net, network_set_credentials, int(network_handle_t, uint32_t, NetworkCredentials*, void*))
DYNALIB_FN(11, system_net, network_clear_credentials, bool(network_handle_t, uint32_t, NetworkCredentials*, void*))
DYNALIB_FN(12, system_net, network_set_listen_timeout, void(network_handle_t, uint16_t, void*))
   d43a8:	b508      	push	{r3, lr}
   d43aa:	4b02      	ldr	r3, [pc, #8]	; (d43b4 <network_set_listen_timeout+0xc>)
   d43ac:	681b      	ldr	r3, [r3, #0]
   d43ae:	6b1b      	ldr	r3, [r3, #48]	; 0x30
   d43b0:	9301      	str	r3, [sp, #4]
   d43b2:	bd08      	pop	{r3, pc}
   d43b4:	00030240 	.word	0x00030240

000d43b8 <network_get_listen_timeout>:
DYNALIB_FN(13, system_net, network_get_listen_timeout, uint16_t(network_handle_t, uint32_t, void*))
   d43b8:	b508      	push	{r3, lr}
   d43ba:	4b02      	ldr	r3, [pc, #8]	; (d43c4 <network_get_listen_timeout+0xc>)
   d43bc:	681b      	ldr	r3, [r3, #0]
   d43be:	6b5b      	ldr	r3, [r3, #52]	; 0x34
   d43c0:	9301      	str	r3, [sp, #4]
   d43c2:	bd08      	pop	{r3, pc}
   d43c4:	00030240 	.word	0x00030240

000d43c8 <spark_set_random_seed_from_cloud_handler>:
DYNALIB_FN(10, system_cloud, spark_unsubscribe, void(void*))
DYNALIB_FN(11, system_cloud, spark_sync_time, bool(void*))
DYNALIB_FN(12, system_cloud, spark_sync_time_pending, bool(void*))
DYNALIB_FN(13, system_cloud, spark_sync_time_last, system_tick_t(time_t*, void*))
DYNALIB_FN(14, system_cloud, spark_set_connection_property, int(unsigned, unsigned, particle::protocol::connection_properties_t*, void*))
DYNALIB_FN(15, system_cloud, spark_set_random_seed_from_cloud_handler, int(void (*handler)(unsigned int), void*))
   d43c8:	b508      	push	{r3, lr}
   d43ca:	4b02      	ldr	r3, [pc, #8]	; (d43d4 <spark_set_random_seed_from_cloud_handler+0xc>)
   d43cc:	681b      	ldr	r3, [r3, #0]
   d43ce:	6bdb      	ldr	r3, [r3, #60]	; 0x3c
   d43d0:	9301      	str	r3, [sp, #4]
   d43d2:	bd08      	pop	{r3, pc}
   d43d4:	00030244 	.word	0x00030244

000d43d8 <malloc>:
#include <assert.h>
#endif

DYNALIB_BEGIN(rt)

DYNALIB_FN(0, rt, malloc, void*(size_t))
   d43d8:	b508      	push	{r3, lr}
   d43da:	4b02      	ldr	r3, [pc, #8]	; (d43e4 <malloc+0xc>)
   d43dc:	681b      	ldr	r3, [r3, #0]
   d43de:	681b      	ldr	r3, [r3, #0]
   d43e0:	9301      	str	r3, [sp, #4]
   d43e2:	bd08      	pop	{r3, pc}
   d43e4:	0003021c 	.word	0x0003021c

000d43e8 <free>:
DYNALIB_FN(1, rt, free, void(void*))
   d43e8:	b508      	push	{r3, lr}
   d43ea:	4b02      	ldr	r3, [pc, #8]	; (d43f4 <free+0xc>)
   d43ec:	681b      	ldr	r3, [r3, #0]
   d43ee:	685b      	ldr	r3, [r3, #4]
   d43f0:	9301      	str	r3, [sp, #4]
   d43f2:	bd08      	pop	{r3, pc}
   d43f4:	0003021c 	.word	0x0003021c

000d43f8 <realloc>:
DYNALIB_FN(2, rt, realloc, void*(void*, size_t))
   d43f8:	b508      	push	{r3, lr}
   d43fa:	4b02      	ldr	r3, [pc, #8]	; (d4404 <realloc+0xc>)
   d43fc:	681b      	ldr	r3, [r3, #0]
   d43fe:	689b      	ldr	r3, [r3, #8]
   d4400:	9301      	str	r3, [sp, #4]
   d4402:	bd08      	pop	{r3, pc}
   d4404:	0003021c 	.word	0x0003021c

000d4408 <vsnprintf>:
DYNALIB_FN(4, rt, siprintf, int(char*, const char*, ...))
DYNALIB_FN(5, rt, sscanf, int(const char*, const char*, ...))
DYNALIB_FN(6, rt, siscanf, int(const char*, const char*, ...))
DYNALIB_FN(7, rt, snprintf, int(char*, size_t, const char*, ...))
DYNALIB_FN(8, rt, sniprintf, int(char*, size_t, const char*, ...))
DYNALIB_FN(9, rt, vsnprintf, int(char*, size_t, const char*, va_list))
   d4408:	b508      	push	{r3, lr}
   d440a:	4b02      	ldr	r3, [pc, #8]	; (d4414 <vsnprintf+0xc>)
   d440c:	681b      	ldr	r3, [r3, #0]
   d440e:	6a5b      	ldr	r3, [r3, #36]	; 0x24
   d4410:	9301      	str	r3, [sp, #4]
   d4412:	bd08      	pop	{r3, pc}
   d4414:	0003021c 	.word	0x0003021c

000d4418 <_ZN5spark13EthernetClass9listeningEv>:
    uint16_t getListenTimeout(void) {
        return network_get_listen_timeout(*this, 0, NULL);
    }

    bool listening(void) {
        return network_listening(*this, 0, NULL);
   d4418:	2200      	movs	r2, #0
   d441a:	4611      	mov	r1, r2
   d441c:	6840      	ldr	r0, [r0, #4]
   d441e:	f7ff bfbb 	b.w	d4398 <network_listening>

000d4422 <_ZN5spark13EthernetClass16getListenTimeoutEv>:
    void setListenTimeout(uint16_t timeout) {
        network_set_listen_timeout(*this, timeout, NULL);
    }

    uint16_t getListenTimeout(void) {
        return network_get_listen_timeout(*this, 0, NULL);
   d4422:	2200      	movs	r2, #0
   d4424:	4611      	mov	r1, r2
   d4426:	6840      	ldr	r0, [r0, #4]
   d4428:	f7ff bfc6 	b.w	d43b8 <network_get_listen_timeout>

000d442c <_ZN5spark13EthernetClass16setListenTimeoutEt>:
    void listen(bool begin=true) {
        network_listen(*this, begin ? 0 : 1, NULL);
    }

    void setListenTimeout(uint16_t timeout) {
        network_set_listen_timeout(*this, timeout, NULL);
   d442c:	2200      	movs	r2, #0
   d442e:	6840      	ldr	r0, [r0, #4]
   d4430:	f7ff bfba 	b.w	d43a8 <network_set_listen_timeout>

000d4434 <_ZN5spark13EthernetClass6listenEb>:
    void disconnect() {
        network_disconnect(*this, NETWORK_DISCONNECT_REASON_USER, NULL);
    }

    void listen(bool begin=true) {
        network_listen(*this, begin ? 0 : 1, NULL);
   d4434:	2200      	movs	r2, #0
   d4436:	f081 0101 	eor.w	r1, r1, #1
   d443a:	6840      	ldr	r0, [r0, #4]
   d443c:	f7ff bfa4 	b.w	d4388 <network_listen>

000d4440 <_ZN5spark13EthernetClass3offEv>:
    void on() {
        network_on(*this, 0, 0, NULL);
    }

    void off() {
        network_off(*this, 0, 0, NULL);
   d4440:	2300      	movs	r3, #0
   d4442:	461a      	mov	r2, r3
   d4444:	4619      	mov	r1, r3
   d4446:	6840      	ldr	r0, [r0, #4]
   d4448:	f7ff bf96 	b.w	d4378 <network_off>

000d444c <_ZN5spark13EthernetClass2onEv>:
    EthernetClass() :
            NetworkClass(NETWORK_INTERFACE_ETHERNET) {
    }

    void on() {
        network_on(*this, 0, 0, NULL);
   d444c:	2300      	movs	r3, #0
   d444e:	461a      	mov	r2, r3
   d4450:	4619      	mov	r1, r3
   d4452:	6840      	ldr	r0, [r0, #4]
   d4454:	f7ff bf88 	b.w	d4368 <network_on>

000d4458 <_ZN5spark13EthernetClass5readyEv>:
    bool listening(void) {
        return network_listening(*this, 0, NULL);
    }

    bool ready() {
        return network_ready(*this, 0,  NULL);
   d4458:	2200      	movs	r2, #0
   d445a:	4611      	mov	r1, r2
   d445c:	6840      	ldr	r0, [r0, #4]
   d445e:	f7ff bf7b 	b.w	d4358 <network_ready>

000d4462 <_ZN5spark13EthernetClass10connectingEv>:
    void connect(unsigned flags=0) {
        network_connect(*this, flags, 0, NULL);
    }

    bool connecting(void) {
        return network_connecting(*this, 0, NULL);
   d4462:	2200      	movs	r2, #0
   d4464:	4611      	mov	r1, r2
   d4466:	6840      	ldr	r0, [r0, #4]
   d4468:	f7ff bf66 	b.w	d4338 <network_connecting>

000d446c <_ZN5spark13EthernetClass10disconnectEv>:
    }

    void disconnect() {
        network_disconnect(*this, NETWORK_DISCONNECT_REASON_USER, NULL);
   d446c:	2200      	movs	r2, #0
   d446e:	2102      	movs	r1, #2
   d4470:	6840      	ldr	r0, [r0, #4]
   d4472:	f7ff bf69 	b.w	d4348 <network_disconnect>

000d4476 <_ZN5spark13EthernetClass7connectEj>:
    void off() {
        network_off(*this, 0, 0, NULL);
    }

    void connect(unsigned flags=0) {
        network_connect(*this, flags, 0, NULL);
   d4476:	2300      	movs	r3, #0
   d4478:	461a      	mov	r2, r3
   d447a:	6840      	ldr	r0, [r0, #4]
   d447c:	f7ff bf54 	b.w	d4328 <network_connect>

000d4480 <_GLOBAL__sub_I__ZN5spark8EthernetE>:
    static NetworkClass& from(network_interface_t nif);

    virtual IPAddress resolve(const char* name);

    explicit NetworkClass(network_interface_t iface)
            : iface_(iface) {
   d4480:	4b02      	ldr	r3, [pc, #8]	; (d448c <_GLOBAL__sub_I__ZN5spark8EthernetE+0xc>)
   d4482:	2203      	movs	r2, #3
   d4484:	605a      	str	r2, [r3, #4]
    }

class EthernetClass : public NetworkClass {
public:
    EthernetClass() :
            NetworkClass(NETWORK_INTERFACE_ETHERNET) {
   d4486:	4a02      	ldr	r2, [pc, #8]	; (d4490 <_GLOBAL__sub_I__ZN5spark8EthernetE+0x10>)
   d4488:	601a      	str	r2, [r3, #0]
   d448a:	4770      	bx	lr
   d448c:	2003e3b8 	.word	0x2003e3b8
   d4490:	000d52f4 	.word	0x000d52f4

000d4494 <_ZN8SPIClassD1Ev>:
  Mutex mutex_;
#endif

public:
  SPIClass(HAL_SPI_Interface spi);
  virtual ~SPIClass() {};
   d4494:	4770      	bx	lr

000d4496 <_ZN8SPIClassD0Ev>:
   d4496:	b510      	push	{r4, lr}
   d4498:	2110      	movs	r1, #16
   d449a:	4604      	mov	r4, r0
   d449c:	f000 fd5f 	bl	d4f5e <_ZdlPvj>
   d44a0:	4620      	mov	r0, r4
   d44a2:	bd10      	pop	{r4, pc}

000d44a4 <_ZN8SPIClassC1E17HAL_SPI_Interface>:
  if (!info->enabled || info->default_settings)
    return particle::__SPISettings();
  return particle::__SPISettings(info->clock, info->bit_order, info->data_mode);
}

SPIClass::SPIClass(HAL_SPI_Interface spi)
   d44a4:	b570      	push	{r4, r5, r6, lr}
   d44a6:	4b08      	ldr	r3, [pc, #32]	; (d44c8 <_ZN8SPIClassC1E17HAL_SPI_Interface+0x24>)
   d44a8:	6003      	str	r3, [r0, #0]
   d44aa:	4604      	mov	r4, r0
    Mutex(os_mutex_t handle) : handle_(handle) {}

    /**
     * Creates a new mutex.
     */
    Mutex() : handle_(nullptr)
   d44ac:	2500      	movs	r5, #0
   d44ae:	460e      	mov	r6, r1
   d44b0:	f840 5f0c 	str.w	r5, [r0, #12]!
    {
        os_mutex_create(&handle_);
   d44b4:	f7ff fe94 	bl	d41e0 <os_mutex_create>
{
  _spi = spi;
  HAL_SPI_Init(_spi);
   d44b8:	4630      	mov	r0, r6
  return particle::__SPISettings(info->clock, info->bit_order, info->data_mode);
}

SPIClass::SPIClass(HAL_SPI_Interface spi)
{
  _spi = spi;
   d44ba:	7126      	strb	r6, [r4, #4]
  HAL_SPI_Init(_spi);
   d44bc:	f7ff fe60 	bl	d4180 <HAL_SPI_Init>
  dividerReference = SPI_CLK_SYSTEM;     // 0 indicates the system clock
   d44c0:	60a5      	str	r5, [r4, #8]
}
   d44c2:	4620      	mov	r0, r4
   d44c4:	bd70      	pop	{r4, r5, r6, pc}
   d44c6:	bf00      	nop
   d44c8:	000d5328 	.word	0x000d5328

000d44cc <_GLOBAL__sub_I_System>:
    WAKEUP_REASON_RTC = 2,
    WAKEUP_REASON_PIN_OR_RTC = 3
};

struct SleepResult {
    SleepResult() {}
   d44cc:	4b04      	ldr	r3, [pc, #16]	; (d44e0 <_GLOBAL__sub_I_System+0x14>)
   d44ce:	2000      	movs	r0, #0
   d44d0:	f64f 72ff 	movw	r2, #65535	; 0xffff
   d44d4:	7018      	strb	r0, [r3, #0]
   d44d6:	8058      	strh	r0, [r3, #2]
   d44d8:	809a      	strh	r2, [r3, #4]

class SystemClass {
public:

    SystemClass(System_Mode_TypeDef mode = DEFAULT) {
        set_system_mode(mode);
   d44da:	f7ff bf09 	b.w	d42f0 <set_system_mode>
   d44de:	bf00      	nop
   d44e0:	2003e3c0 	.word	0x2003e3c0

000d44e4 <_ZN6StringD1Ev>:
	init();
	char buf[33];
	dtoa(value, decimalPlaces, buf);
        *this = buf;
}
String::~String()
   d44e4:	b510      	push	{r4, lr}
   d44e6:	4604      	mov	r4, r0
{
	free(buffer);
   d44e8:	6800      	ldr	r0, [r0, #0]
   d44ea:	f7ff ff7d 	bl	d43e8 <free>
}
   d44ee:	4620      	mov	r0, r4
   d44f0:	bd10      	pop	{r4, pc}

000d44f2 <_ZN6String10invalidateEv>:
	len = 0;
	flags = 0;
}

void String::invalidate(void)
{
   d44f2:	b510      	push	{r4, lr}
   d44f4:	4604      	mov	r4, r0
	if (buffer) free(buffer);
   d44f6:	6800      	ldr	r0, [r0, #0]
   d44f8:	b108      	cbz	r0, d44fe <_ZN6String10invalidateEv+0xc>
   d44fa:	f7ff ff75 	bl	d43e8 <free>
	buffer = NULL;
   d44fe:	2300      	movs	r3, #0
   d4500:	6023      	str	r3, [r4, #0]
	capacity = len = 0;
   d4502:	60a3      	str	r3, [r4, #8]
   d4504:	6063      	str	r3, [r4, #4]
   d4506:	bd10      	pop	{r4, pc}

000d4508 <_ZN6String12changeBufferEj>:
	}
	return 0;
}

unsigned char String::changeBuffer(unsigned int maxStrLen)
{
   d4508:	b538      	push	{r3, r4, r5, lr}
   d450a:	4604      	mov	r4, r0
   d450c:	460d      	mov	r5, r1
	char *newbuffer = (char *)realloc(buffer, maxStrLen + 1);
   d450e:	6800      	ldr	r0, [r0, #0]
   d4510:	3101      	adds	r1, #1
   d4512:	f7ff ff71 	bl	d43f8 <realloc>
	if (newbuffer) {
   d4516:	b110      	cbz	r0, d451e <_ZN6String12changeBufferEj+0x16>
		buffer = newbuffer;
		capacity = maxStrLen;
   d4518:	e884 0021 	stmia.w	r4, {r0, r5}
		return 1;
   d451c:	2001      	movs	r0, #1
	}
	return 0;
}
   d451e:	bd38      	pop	{r3, r4, r5, pc}

000d4520 <_ZN6String7reserveEj>:
	buffer = NULL;
	capacity = len = 0;
}

unsigned char String::reserve(unsigned int size)
{
   d4520:	b510      	push	{r4, lr}
	if (buffer && capacity >= size) return 1;
   d4522:	6803      	ldr	r3, [r0, #0]
	buffer = NULL;
	capacity = len = 0;
}

unsigned char String::reserve(unsigned int size)
{
   d4524:	4604      	mov	r4, r0
	if (buffer && capacity >= size) return 1;
   d4526:	b113      	cbz	r3, d452e <_ZN6String7reserveEj+0xe>
   d4528:	6843      	ldr	r3, [r0, #4]
   d452a:	428b      	cmp	r3, r1
   d452c:	d207      	bcs.n	d453e <_ZN6String7reserveEj+0x1e>
	if (changeBuffer(size)) {
   d452e:	4620      	mov	r0, r4
   d4530:	f7ff ffea 	bl	d4508 <_ZN6String12changeBufferEj>
   d4534:	b120      	cbz	r0, d4540 <_ZN6String7reserveEj+0x20>
		if (len == 0) buffer[0] = 0;
   d4536:	68a3      	ldr	r3, [r4, #8]
   d4538:	b90b      	cbnz	r3, d453e <_ZN6String7reserveEj+0x1e>
   d453a:	6822      	ldr	r2, [r4, #0]
   d453c:	7013      	strb	r3, [r2, #0]
   d453e:	2001      	movs	r0, #1
		return 1;
	}
	return 0;
}
   d4540:	bd10      	pop	{r4, pc}

000d4542 <_ZN6String4copyEPKcj>:
/*********************************************/
/*  Copy and Move                            */
/*********************************************/

String & String::copy(const char *cstr, unsigned int length)
{
   d4542:	b570      	push	{r4, r5, r6, lr}
   d4544:	460e      	mov	r6, r1
	if (!reserve(length)) {
   d4546:	4611      	mov	r1, r2
/*********************************************/
/*  Copy and Move                            */
/*********************************************/

String & String::copy(const char *cstr, unsigned int length)
{
   d4548:	4604      	mov	r4, r0
   d454a:	4615      	mov	r5, r2
	if (!reserve(length)) {
   d454c:	f7ff ffe8 	bl	d4520 <_ZN6String7reserveEj>
   d4550:	b918      	cbnz	r0, d455a <_ZN6String4copyEPKcj+0x18>
		invalidate();
   d4552:	4620      	mov	r0, r4
   d4554:	f7ff ffcd 	bl	d44f2 <_ZN6String10invalidateEv>
		return *this;
   d4558:	e009      	b.n	d456e <_ZN6String4copyEPKcj+0x2c>
	}
	len = length;
	memcpy(buffer, cstr, length);
   d455a:	462a      	mov	r2, r5
   d455c:	4631      	mov	r1, r6
{
	if (!reserve(length)) {
		invalidate();
		return *this;
	}
	len = length;
   d455e:	60a5      	str	r5, [r4, #8]
	memcpy(buffer, cstr, length);
   d4560:	6820      	ldr	r0, [r4, #0]
   d4562:	f000 fe55 	bl	d5210 <memcpy>
	buffer[len] = 0;
   d4566:	6822      	ldr	r2, [r4, #0]
   d4568:	68a3      	ldr	r3, [r4, #8]
   d456a:	2100      	movs	r1, #0
   d456c:	54d1      	strb	r1, [r2, r3]
	return *this;
}
   d456e:	4620      	mov	r0, r4
   d4570:	bd70      	pop	{r4, r5, r6, pc}

000d4572 <_ZN6StringC1EPK19__FlashStringHelper>:
{
	init();
	*this = value;
}

String::String(const __FlashStringHelper *pstr)
   d4572:	b538      	push	{r3, r4, r5, lr}
/*  Memory Management                        */
/*********************************************/

inline void String::init(void)
{
	buffer = NULL;
   d4574:	2300      	movs	r3, #0
{
	init();
	*this = value;
}

String::String(const __FlashStringHelper *pstr)
   d4576:	4604      	mov	r4, r0
/*  Memory Management                        */
/*********************************************/

inline void String::init(void)
{
	buffer = NULL;
   d4578:	6003      	str	r3, [r0, #0]
	capacity = 0;
   d457a:	6043      	str	r3, [r0, #4]
	len = 0;
   d457c:	6083      	str	r3, [r0, #8]
	flags = 0;
   d457e:	7303      	strb	r3, [r0, #12]

String::String(const __FlashStringHelper *pstr)
{
	init();
	const char* cstr = reinterpret_cast<const char*>(pstr);
	if (cstr) copy(cstr, strlen(cstr));
   d4580:	460d      	mov	r5, r1
   d4582:	b139      	cbz	r1, d4594 <_ZN6StringC1EPK19__FlashStringHelper+0x22>
   d4584:	4608      	mov	r0, r1
   d4586:	f000 fe87 	bl	d5298 <strlen>
   d458a:	4629      	mov	r1, r5
   d458c:	4602      	mov	r2, r0
   d458e:	4620      	mov	r0, r4
   d4590:	f7ff ffd7 	bl	d4542 <_ZN6String4copyEPKcj>
}
   d4594:	4620      	mov	r0, r4
   d4596:	bd38      	pop	{r3, r4, r5, pc}

000d4598 <_ZN6String6concatEPKcj>:
{
	return concat(s.buffer, s.len);
}

unsigned char String::concat(const char *cstr, unsigned int length)
{
   d4598:	b570      	push	{r4, r5, r6, lr}
   d459a:	4604      	mov	r4, r0
	unsigned int newlen = len + length;
	if (!cstr) return 0;
   d459c:	460e      	mov	r6, r1
   d459e:	b909      	cbnz	r1, d45a4 <_ZN6String6concatEPKcj+0xc>
   d45a0:	2000      	movs	r0, #0
   d45a2:	bd70      	pop	{r4, r5, r6, pc}
	if (length == 0) return 1;
   d45a4:	b16a      	cbz	r2, d45c2 <_ZN6String6concatEPKcj+0x2a>
	return concat(s.buffer, s.len);
}

unsigned char String::concat(const char *cstr, unsigned int length)
{
	unsigned int newlen = len + length;
   d45a6:	6883      	ldr	r3, [r0, #8]
   d45a8:	18d5      	adds	r5, r2, r3
	if (!cstr) return 0;
	if (length == 0) return 1;
	if (!reserve(newlen)) return 0;
   d45aa:	4629      	mov	r1, r5
   d45ac:	f7ff ffb8 	bl	d4520 <_ZN6String7reserveEj>
   d45b0:	2800      	cmp	r0, #0
   d45b2:	d0f5      	beq.n	d45a0 <_ZN6String6concatEPKcj+0x8>
	strcpy(buffer + len, cstr);
   d45b4:	6820      	ldr	r0, [r4, #0]
   d45b6:	68a3      	ldr	r3, [r4, #8]
   d45b8:	4631      	mov	r1, r6
   d45ba:	4418      	add	r0, r3
   d45bc:	f000 fe64 	bl	d5288 <strcpy>
	len = newlen;
   d45c0:	60a5      	str	r5, [r4, #8]

unsigned char String::concat(const char *cstr, unsigned int length)
{
	unsigned int newlen = len + length;
	if (!cstr) return 0;
	if (length == 0) return 1;
   d45c2:	2001      	movs	r0, #1
	if (!reserve(newlen)) return 0;
	strcpy(buffer + len, cstr);
	len = newlen;
	return 1;
}
   d45c4:	bd70      	pop	{r4, r5, r6, pc}

000d45c6 <_ZN6String6concatEc>:
unsigned char String::concat(const __FlashStringHelper * str) {
	return concat(reinterpret_cast<const char*>(str));
}

unsigned char String::concat(char c)
{
   d45c6:	b507      	push	{r0, r1, r2, lr}
	char buf[2];
	buf[0] = c;
	buf[1] = 0;
   d45c8:	2300      	movs	r3, #0
}

unsigned char String::concat(char c)
{
	char buf[2];
	buf[0] = c;
   d45ca:	f88d 1004 	strb.w	r1, [sp, #4]
	buf[1] = 0;
	return concat(buf, 1);
   d45ce:	2201      	movs	r2, #1
   d45d0:	a901      	add	r1, sp, #4

unsigned char String::concat(char c)
{
	char buf[2];
	buf[0] = c;
	buf[1] = 0;
   d45d2:	f88d 3005 	strb.w	r3, [sp, #5]
	return concat(buf, 1);
   d45d6:	f7ff ffdf 	bl	d4598 <_ZN6String6concatEPKcj>
}
   d45da:	b003      	add	sp, #12
   d45dc:	f85d fb04 	ldr.w	pc, [sp], #4

000d45e0 <_ZplRK15StringSumHelperRK6String>:
/*********************************************/
/*  Concatenate                              */
/*********************************************/

StringSumHelper & operator + (const StringSumHelper &lhs, const String &rhs)
{
   d45e0:	b510      	push	{r4, lr}
	StringSumHelper &a = const_cast<StringSumHelper&>(lhs);
	if (!a.concat(rhs.buffer, rhs.len)) a.invalidate();
   d45e2:	688a      	ldr	r2, [r1, #8]
   d45e4:	6809      	ldr	r1, [r1, #0]
/*********************************************/
/*  Concatenate                              */
/*********************************************/

StringSumHelper & operator + (const StringSumHelper &lhs, const String &rhs)
{
   d45e6:	4604      	mov	r4, r0
	StringSumHelper &a = const_cast<StringSumHelper&>(lhs);
	if (!a.concat(rhs.buffer, rhs.len)) a.invalidate();
   d45e8:	f7ff ffd6 	bl	d4598 <_ZN6String6concatEPKcj>
   d45ec:	b910      	cbnz	r0, d45f4 <_ZplRK15StringSumHelperRK6String+0x14>
   d45ee:	4620      	mov	r0, r4
   d45f0:	f7ff ff7f 	bl	d44f2 <_ZN6String10invalidateEv>
	return a;
}
   d45f4:	4620      	mov	r0, r4
   d45f6:	bd10      	pop	{r4, pc}

000d45f8 <_GLOBAL__sub_I__ZN8particle3ble13WiringBleLock6mutex_E>:
    /**
     * Creates a shared mutex.
     */
    RecursiveMutex(os_mutex_recursive_t handle) : handle_(handle) {}

    RecursiveMutex() : handle_(nullptr)
   d45f8:	4802      	ldr	r0, [pc, #8]	; (d4604 <_GLOBAL__sub_I__ZN8particle3ble13WiringBleLock6mutex_E+0xc>)
   d45fa:	2300      	movs	r3, #0
   d45fc:	6003      	str	r3, [r0, #0]
    {
        os_mutex_recursive_create(&handle_);
   d45fe:	f7ff bdf7 	b.w	d41f0 <os_mutex_recursive_create>
   d4602:	bf00      	nop
   d4604:	2003e3c8 	.word	0x2003e3c8

000d4608 <_ZN5Print5writeEPKhj>:

// Public Methods //////////////////////////////////////////////////////////////

/* default implementation: may be overridden */
size_t Print::write(const uint8_t *buffer, size_t size)
{
   d4608:	b5f8      	push	{r3, r4, r5, r6, r7, lr}
   d460a:	4606      	mov	r6, r0
   d460c:	460d      	mov	r5, r1
   d460e:	188f      	adds	r7, r1, r2
  size_t n = 0;
   d4610:	2400      	movs	r4, #0
  while (size--) {
   d4612:	42bd      	cmp	r5, r7
   d4614:	d00c      	beq.n	d4630 <_ZN5Print5writeEPKhj+0x28>
     int chunk = write(*buffer++);
   d4616:	6833      	ldr	r3, [r6, #0]
   d4618:	f815 1b01 	ldrb.w	r1, [r5], #1
   d461c:	689b      	ldr	r3, [r3, #8]
   d461e:	4630      	mov	r0, r6
   d4620:	4798      	blx	r3
     if (chunk>=0)
   d4622:	2800      	cmp	r0, #0
   d4624:	db01      	blt.n	d462a <_ZN5Print5writeEPKhj+0x22>
         n += chunk;
   d4626:	4404      	add	r4, r0

/* default implementation: may be overridden */
size_t Print::write(const uint8_t *buffer, size_t size)
{
  size_t n = 0;
  while (size--) {
   d4628:	e7f3      	b.n	d4612 <_ZN5Print5writeEPKhj+0xa>
     int chunk = write(*buffer++);
   d462a:	2c00      	cmp	r4, #0
   d462c:	bf08      	it	eq
   d462e:	4604      	moveq	r4, r0
             n = chunk;
         break;
     }
  }
  return n;
}
   d4630:	4620      	mov	r0, r4
   d4632:	bdf8      	pop	{r3, r4, r5, r6, r7, pc}

000d4634 <_ZN5Print5writeEPKc>:

    int getWriteError() { return write_error; }
    void clearWriteError() { setWriteError(0); }

    virtual size_t write(uint8_t) = 0;
    size_t write(const char *str) {
   d4634:	b570      	push	{r4, r5, r6, lr}
   d4636:	4605      	mov	r5, r0
      if (str == NULL) return 0;
   d4638:	460c      	mov	r4, r1
      return write((const uint8_t *)str, strlen(str));
    }
   d463a:	4608      	mov	r0, r1
    int getWriteError() { return write_error; }
    void clearWriteError() { setWriteError(0); }

    virtual size_t write(uint8_t) = 0;
    size_t write(const char *str) {
      if (str == NULL) return 0;
   d463c:	b149      	cbz	r1, d4652 <_ZN5Print5writeEPKc+0x1e>
      return write((const uint8_t *)str, strlen(str));
   d463e:	f000 fe2b 	bl	d5298 <strlen>
   d4642:	682b      	ldr	r3, [r5, #0]
   d4644:	4602      	mov	r2, r0
   d4646:	4621      	mov	r1, r4
   d4648:	4628      	mov	r0, r5
   d464a:	68db      	ldr	r3, [r3, #12]
    }
   d464c:	e8bd 4070 	ldmia.w	sp!, {r4, r5, r6, lr}
    void clearWriteError() { setWriteError(0); }

    virtual size_t write(uint8_t) = 0;
    size_t write(const char *str) {
      if (str == NULL) return 0;
      return write((const uint8_t *)str, strlen(str));
   d4650:	4718      	bx	r3
    }
   d4652:	bd70      	pop	{r4, r5, r6, pc}

000d4654 <_ZN5Print5printEc>:
  return write(str);
}

size_t Print::print(char c)
{
  return write(c);
   d4654:	6803      	ldr	r3, [r0, #0]
   d4656:	689b      	ldr	r3, [r3, #8]
   d4658:	4718      	bx	r3

000d465a <_ZN5Print7printlnEv>:
{
  return print(reinterpret_cast<const char*>(str));
}

size_t Print::println(void)
{
   d465a:	b538      	push	{r3, r4, r5, lr}
  size_t n = print('\r');
   d465c:	210d      	movs	r1, #13
{
  return print(reinterpret_cast<const char*>(str));
}

size_t Print::println(void)
{
   d465e:	4605      	mov	r5, r0
  size_t n = print('\r');
   d4660:	f7ff fff8 	bl	d4654 <_ZN5Print5printEc>
  n += print('\n');
   d4664:	210a      	movs	r1, #10
  return print(reinterpret_cast<const char*>(str));
}

size_t Print::println(void)
{
  size_t n = print('\r');
   d4666:	4604      	mov	r4, r0
  n += print('\n');
   d4668:	4628      	mov	r0, r5
   d466a:	f7ff fff3 	bl	d4654 <_ZN5Print5printEc>
  return n;
}
   d466e:	4420      	add	r0, r4
   d4670:	bd38      	pop	{r3, r4, r5, pc}

000d4672 <_ZN5Print11printNumberEmh>:
  return println(reinterpret_cast<const char*>(str));
}

// Private Methods /////////////////////////////////////////////////////////////

size_t Print::printNumber(unsigned long n, uint8_t base) {
   d4672:	b530      	push	{r4, r5, lr}
   d4674:	b08b      	sub	sp, #44	; 0x2c
   d4676:	460b      	mov	r3, r1
  char buf[8 * sizeof(long) + 1]; // Assumes 8-bit chars plus zero byte.
  char *str = &buf[sizeof(buf) - 1];

  *str = '\0';
   d4678:	2100      	movs	r1, #0
   d467a:	f88d 1024 	strb.w	r1, [sp, #36]	; 0x24

  // prevent crash if called with base == 1
  if (base < 2) base = 10;
   d467e:	2a01      	cmp	r2, #1
   d4680:	bf98      	it	ls
   d4682:	220a      	movls	r2, #10
   d4684:	f10d 0423 	add.w	r4, sp, #35	; 0x23

  do {
    unsigned long m = n;
    n /= base;
   d4688:	fbb3 f5f2 	udiv	r5, r3, r2
    char c = m - base * n;
   d468c:	fb05 3312 	mls	r3, r5, r2, r3
   d4690:	f003 03ff 	and.w	r3, r3, #255	; 0xff
    *--str = c < 10 ? c + '0' : c + 'A' - 10;
   d4694:	2b09      	cmp	r3, #9
   d4696:	bf94      	ite	ls
   d4698:	3330      	addls	r3, #48	; 0x30
   d469a:	3337      	addhi	r3, #55	; 0x37
   d469c:	b2db      	uxtb	r3, r3
   d469e:	4621      	mov	r1, r4
   d46a0:	f804 3901 	strb.w	r3, [r4], #-1
   d46a4:	462b      	mov	r3, r5
  *str = '\0';

  // prevent crash if called with base == 1
  if (base < 2) base = 10;

  do {
   d46a6:	2d00      	cmp	r5, #0
   d46a8:	d1ee      	bne.n	d4688 <_ZN5Print11printNumberEmh+0x16>
    n /= base;
    char c = m - base * n;
    *--str = c < 10 ? c + '0' : c + 'A' - 10;
  } while(n);

  return write(str);
   d46aa:	f7ff ffc3 	bl	d4634 <_ZN5Print5writeEPKc>
}
   d46ae:	b00b      	add	sp, #44	; 0x2c
   d46b0:	bd30      	pop	{r4, r5, pc}

000d46b2 <_ZN5Print5printEmi>:
    return printNumber(n, base);
  }
}

size_t Print::print(unsigned long n, int base)
{
   d46b2:	b410      	push	{r4}
  if (base == 0) return write(n);
   d46b4:	b92a      	cbnz	r2, d46c2 <_ZN5Print5printEmi+0x10>
   d46b6:	6803      	ldr	r3, [r0, #0]
  else return printNumber(n, base);
}
   d46b8:	f85d 4b04 	ldr.w	r4, [sp], #4
  }
}

size_t Print::print(unsigned long n, int base)
{
  if (base == 0) return write(n);
   d46bc:	689b      	ldr	r3, [r3, #8]
   d46be:	b2c9      	uxtb	r1, r1
   d46c0:	4718      	bx	r3
  else return printNumber(n, base);
   d46c2:	b2d2      	uxtb	r2, r2
}
   d46c4:	f85d 4b04 	ldr.w	r4, [sp], #4
}

size_t Print::print(unsigned long n, int base)
{
  if (base == 0) return write(n);
  else return printNumber(n, base);
   d46c8:	f7ff bfd3 	b.w	d4672 <_ZN5Print11printNumberEmh>

000d46cc <_ZN5Print5printEhi>:
  return write(c);
}

size_t Print::print(unsigned char b, int base)
{
  return print((unsigned long) b, base);
   d46cc:	f7ff bff1 	b.w	d46b2 <_ZN5Print5printEmi>

000d46d0 <_ZN5Print11printf_implEbPKcz>:

  return n;
}

size_t Print::printf_impl(bool newline, const char* format, ...)
{
   d46d0:	b40c      	push	{r2, r3}
   d46d2:	e92d 43f0 	stmdb	sp!, {r4, r5, r6, r7, r8, r9, lr}
   d46d6:	b087      	sub	sp, #28
   d46d8:	af00      	add	r7, sp, #0
   d46da:	f107 0438 	add.w	r4, r7, #56	; 0x38
   d46de:	4605      	mov	r5, r0
   d46e0:	f854 9b04 	ldr.w	r9, [r4], #4
    const int bufsize = 20;
    char test[bufsize];
    va_list marker;
    va_start(marker, format);
   d46e4:	603c      	str	r4, [r7, #0]

  return n;
}

size_t Print::printf_impl(bool newline, const char* format, ...)
{
   d46e6:	460e      	mov	r6, r1
    const int bufsize = 20;
    char test[bufsize];
    va_list marker;
    va_start(marker, format);
    size_t n = vsnprintf(test, bufsize, format, marker);
   d46e8:	4623      	mov	r3, r4
   d46ea:	464a      	mov	r2, r9
   d46ec:	2114      	movs	r1, #20
   d46ee:	1d38      	adds	r0, r7, #4
   d46f0:	f7ff fe8a 	bl	d4408 <vsnprintf>
    va_end(marker);

    if (n<bufsize)
   d46f4:	2813      	cmp	r0, #19
   d46f6:	d805      	bhi.n	d4704 <_ZN5Print11printf_implEbPKcz+0x34>
  return n;
}

size_t Print::print(const char str[])
{
  return write(str);
   d46f8:	1d39      	adds	r1, r7, #4
   d46fa:	4628      	mov	r0, r5
   d46fc:	f7ff ff9a 	bl	d4634 <_ZN5Print5writeEPKc>
   d4700:	4604      	mov	r4, r0
   d4702:	e013      	b.n	d472c <_ZN5Print11printf_implEbPKcz+0x5c>
    {
        n = print(test);
    }
    else
    {
        char bigger[n+1];
   d4704:	f100 0308 	add.w	r3, r0, #8
   d4708:	f023 0307 	bic.w	r3, r3, #7
        va_start(marker, format);
        n = vsnprintf(bigger, n+1, format, marker);
        va_end(marker);
        n = print(bigger);
   d470c:	46e8      	mov	r8, sp
    {
        n = print(test);
    }
    else
    {
        char bigger[n+1];
   d470e:	ebad 0d03 	sub.w	sp, sp, r3
        va_start(marker, format);
        n = vsnprintf(bigger, n+1, format, marker);
   d4712:	1c41      	adds	r1, r0, #1
   d4714:	4623      	mov	r3, r4
   d4716:	464a      	mov	r2, r9
   d4718:	4668      	mov	r0, sp
        n = print(test);
    }
    else
    {
        char bigger[n+1];
        va_start(marker, format);
   d471a:	603c      	str	r4, [r7, #0]
        n = vsnprintf(bigger, n+1, format, marker);
   d471c:	f7ff fe74 	bl	d4408 <vsnprintf>
  return n;
}

size_t Print::print(const char str[])
{
  return write(str);
   d4720:	4669      	mov	r1, sp
   d4722:	4628      	mov	r0, r5
   d4724:	f7ff ff86 	bl	d4634 <_ZN5Print5writeEPKc>
   d4728:	4604      	mov	r4, r0
   d472a:	46c5      	mov	sp, r8
        va_start(marker, format);
        n = vsnprintf(bigger, n+1, format, marker);
        va_end(marker);
        n = print(bigger);
    }
    if (newline)
   d472c:	b11e      	cbz	r6, d4736 <_ZN5Print11printf_implEbPKcz+0x66>
        n += println();
   d472e:	4628      	mov	r0, r5
   d4730:	f7ff ff93 	bl	d465a <_ZN5Print7printlnEv>
   d4734:	4404      	add	r4, r0
    return n;
}
   d4736:	4620      	mov	r0, r4
   d4738:	371c      	adds	r7, #28
   d473a:	46bd      	mov	sp, r7
   d473c:	e8bd 43f0 	ldmia.w	sp!, {r4, r5, r6, r7, r8, r9, lr}
   d4740:	b002      	add	sp, #8
   d4742:	4770      	bx	lr

000d4744 <_ZN6Stream9timedReadEv>:
#define PARSE_TIMEOUT 1000  // default number of milli-seconds to wait
#define NO_SKIP_CHAR  1  // a magic char not found in a valid ASCII numeric field

// private method to read stream with timeout
int Stream::timedRead()
{
   d4744:	b510      	push	{r4, lr}
   d4746:	4604      	mov	r4, r0
#endif

#include "timer_hal.h"
#include "delay_hal.h"

inline system_tick_t millis(void) { return HAL_Timer_Get_Milli_Seconds(); }
   d4748:	f7ff fd2a 	bl	d41a0 <HAL_Timer_Get_Milli_Seconds>
  int c;
  _startMillis = millis();
   d474c:	60e0      	str	r0, [r4, #12]
  do {
    c = read();
   d474e:	6823      	ldr	r3, [r4, #0]
   d4750:	4620      	mov	r0, r4
   d4752:	695b      	ldr	r3, [r3, #20]
   d4754:	4798      	blx	r3
    if (c >= 0) return c;
   d4756:	2800      	cmp	r0, #0
   d4758:	da08      	bge.n	d476c <_ZN6Stream9timedReadEv+0x28>
   d475a:	f7ff fd21 	bl	d41a0 <HAL_Timer_Get_Milli_Seconds>
// private method to read stream with timeout
int Stream::timedRead()
{
  int c;
  _startMillis = millis();
  do {
   d475e:	68e3      	ldr	r3, [r4, #12]
   d4760:	1ac0      	subs	r0, r0, r3
   d4762:	68a3      	ldr	r3, [r4, #8]
   d4764:	4298      	cmp	r0, r3
   d4766:	d3f2      	bcc.n	d474e <_ZN6Stream9timedReadEv+0xa>
    c = read();
    if (c >= 0) return c;
  } while(millis() - _startMillis < _timeout);
  return -1;     // -1 indicates timeout
   d4768:	f04f 30ff 	mov.w	r0, #4294967295
}
   d476c:	bd10      	pop	{r4, pc}
	...

000d4770 <_ZN6Stream15readStringUntilEc>:
  }
  return ret;
}

String Stream::readStringUntil(char terminator)
{
   d4770:	b570      	push	{r4, r5, r6, lr}
   d4772:	460d      	mov	r5, r1
  String ret;
   d4774:	4909      	ldr	r1, [pc, #36]	; (d479c <_ZN6Stream15readStringUntilEc+0x2c>)
  }
  return ret;
}

String Stream::readStringUntil(char terminator)
{
   d4776:	4604      	mov	r4, r0
   d4778:	4616      	mov	r6, r2
  String ret;
   d477a:	f7ff fefa 	bl	d4572 <_ZN6StringC1EPK19__FlashStringHelper>
  int c = timedRead();
   d477e:	4628      	mov	r0, r5
   d4780:	f7ff ffe0 	bl	d4744 <_ZN6Stream9timedReadEv>
  while (c >= 0 && c != terminator)
   d4784:	2800      	cmp	r0, #0
   d4786:	db06      	blt.n	d4796 <_ZN6Stream15readStringUntilEc+0x26>
   d4788:	42b0      	cmp	r0, r6
   d478a:	d004      	beq.n	d4796 <_ZN6Stream15readStringUntilEc+0x26>

	// if there's not enough memory for the concatenated value, the string
	// will be left unchanged (but this isn't signalled in any way)
	String & operator += (const String &rhs)	{concat(rhs); return (*this);}
	String & operator += (const char *cstr)		{concat(cstr); return (*this);}
	String & operator += (char c)			{concat(c); return (*this);}
   d478c:	b2c1      	uxtb	r1, r0
   d478e:	4620      	mov	r0, r4
   d4790:	f7ff ff19 	bl	d45c6 <_ZN6String6concatEc>
   d4794:	e7f3      	b.n	d477e <_ZN6Stream15readStringUntilEc+0xe>
  {
    ret += (char)c;
    c = timedRead();
  }
  return ret;
}
   d4796:	4620      	mov	r0, r4
   d4798:	bd70      	pop	{r4, r5, r6, pc}
   d479a:	bf00      	nop
   d479c:	000d53d4 	.word	0x000d53d4

000d47a0 <_GLOBAL__sub_I__ZN5spark3LogE>:
    // This handler doesn't support direct logging
}

// spark::Logger
inline spark::Logger::Logger(const char *name) :
        name_(name) {
   d47a0:	4b01      	ldr	r3, [pc, #4]	; (d47a8 <_GLOBAL__sub_I__ZN5spark3LogE+0x8>)
   d47a2:	4a02      	ldr	r2, [pc, #8]	; (d47ac <_GLOBAL__sub_I__ZN5spark3LogE+0xc>)
   d47a4:	601a      	str	r2, [r3, #0]
   d47a6:	4770      	bx	lr
   d47a8:	2003e3cc 	.word	0x2003e3cc
   d47ac:	000d53a3 	.word	0x000d53a3

000d47b0 <_GLOBAL__sub_I_TIME_FORMAT_DEFAULT>:
            calendar_time_cache = Convert_UnixTime_To_CalendarTime(unix_time);
            unix_time_cache = unix_time;
    }
}

const char* TimeClass::format_spec = TIME_FORMAT_DEFAULT;
   d47b0:	4b02      	ldr	r3, [pc, #8]	; (d47bc <_GLOBAL__sub_I_TIME_FORMAT_DEFAULT+0xc>)
   d47b2:	681a      	ldr	r2, [r3, #0]
   d47b4:	4b02      	ldr	r3, [pc, #8]	; (d47c0 <_GLOBAL__sub_I_TIME_FORMAT_DEFAULT+0x10>)
   d47b6:	601a      	str	r2, [r3, #0]
   d47b8:	4770      	bx	lr
   d47ba:	bf00      	nop
   d47bc:	2003e344 	.word	0x2003e344
   d47c0:	2003e3d0 	.word	0x2003e3d0

000d47c4 <_ZNSt14_Function_baseD1Ev>:
	}
      };

    _Function_base() : _M_manager(nullptr) { }

    ~_Function_base()
   d47c4:	b510      	push	{r4, lr}
    {
      if (_M_manager)
   d47c6:	6883      	ldr	r3, [r0, #8]
	}
      };

    _Function_base() : _M_manager(nullptr) { }

    ~_Function_base()
   d47c8:	4604      	mov	r4, r0
    {
      if (_M_manager)
   d47ca:	b113      	cbz	r3, d47d2 <_ZNSt14_Function_baseD1Ev+0xe>
	_M_manager(_M_functor, _M_functor, __destroy_functor);
   d47cc:	2203      	movs	r2, #3
   d47ce:	4601      	mov	r1, r0
   d47d0:	4798      	blx	r3
    }
   d47d2:	4620      	mov	r0, r4
   d47d4:	bd10      	pop	{r4, pc}

000d47d6 <_ZN8RGBClassD1Ev>:
#include "rgbled.h"

typedef void (raw_rgb_change_handler_t)(uint8_t, uint8_t, uint8_t);
typedef std::function<raw_rgb_change_handler_t> wiring_rgb_change_handler_t;

class RGBClass {
   d47d6:	b510      	push	{r4, lr}
   d47d8:	4604      	mov	r4, r0
   *  @ingroup functors
   *
   *  Polymorphic function wrapper.
   */
  template<typename _Res, typename... _ArgTypes>
    class function<_Res(_ArgTypes...)>
   d47da:	f7ff fff3 	bl	d47c4 <_ZNSt14_Function_baseD1Ev>
   d47de:	4620      	mov	r0, r4
   d47e0:	bd10      	pop	{r4, pc}
	...

000d47e4 <_GLOBAL__sub_I_RGB>:
	{
	  _Base::_M_init_functor(__functor, std::__addressof(__f.get()));
	}
      };

    _Function_base() : _M_manager(nullptr) { }
   d47e4:	4803      	ldr	r0, [pc, #12]	; (d47f4 <_GLOBAL__sub_I_RGB+0x10>)
#include "spark_wiring_rgb.h"
#include "spark_wiring_interrupts.h"

#include "core_hal.h"

RGBClass RGB;
   d47e6:	4a04      	ldr	r2, [pc, #16]	; (d47f8 <_GLOBAL__sub_I_RGB+0x14>)
   d47e8:	4904      	ldr	r1, [pc, #16]	; (d47fc <_GLOBAL__sub_I_RGB+0x18>)
   d47ea:	2300      	movs	r3, #0
   d47ec:	6083      	str	r3, [r0, #8]
   d47ee:	f000 bbb1 	b.w	d4f54 <__aeabi_atexit>
   d47f2:	bf00      	nop
   d47f4:	2003e3d4 	.word	0x2003e3d4
   d47f8:	2003e3ac 	.word	0x2003e3ac
   d47fc:	000d47d7 	.word	0x000d47d7

000d4800 <serialEventRun>:

/**
 * Provides background processing of serial data.
 */
void serialEventRun()
{
   d4800:	b508      	push	{r3, lr}
    if (serialEvent && Serial.available()>0)
   d4802:	4b0c      	ldr	r3, [pc, #48]	; (d4834 <serialEventRun+0x34>)
   d4804:	b133      	cbz	r3, d4814 <serialEventRun+0x14>
   d4806:	f000 f935 	bl	d4a74 <_Z16_fetch_usbserialv>
   d480a:	6803      	ldr	r3, [r0, #0]
   d480c:	691b      	ldr	r3, [r3, #16]
   d480e:	4798      	blx	r3
   d4810:	2800      	cmp	r0, #0
   d4812:	dc09      	bgt.n	d4828 <serialEventRun+0x28>
        serialEvent();

    if (serialEvent1 && Serial1.available()>0)
   d4814:	4b08      	ldr	r3, [pc, #32]	; (d4838 <serialEventRun+0x38>)
   d4816:	b163      	cbz	r3, d4832 <serialEventRun+0x32>
   d4818:	f000 f9fe 	bl	d4c18 <_Z22__fetch_global_Serial1v>
   d481c:	6803      	ldr	r3, [r0, #0]
   d481e:	691b      	ldr	r3, [r3, #16]
   d4820:	4798      	blx	r3
   d4822:	2800      	cmp	r0, #0
   d4824:	dc03      	bgt.n	d482e <serialEventRun+0x2e>
   d4826:	bd08      	pop	{r3, pc}
 * Provides background processing of serial data.
 */
void serialEventRun()
{
    if (serialEvent && Serial.available()>0)
        serialEvent();
   d4828:	f3af 8000 	nop.w
   d482c:	e7f2      	b.n	d4814 <serialEventRun+0x14>

    if (serialEvent1 && Serial1.available()>0)
        serialEvent1();
   d482e:	f3af 8000 	nop.w
   d4832:	bd08      	pop	{r3, pc}
	...

000d483c <_post_loop>:
#if Wiring_Serial5
void serialEvent5() __attribute__((weak));
#endif

void _post_loop()
{
   d483c:	b508      	push	{r3, lr}
	serialEventRun();
   d483e:	f7ff ffdf 	bl	d4800 <serialEventRun>
		return !timeout_fn;
	}

	static inline system_tick_t current_time()
	{
		return HAL_Timer_Get_Milli_Seconds();
   d4842:	f7ff fcad 	bl	d41a0 <HAL_Timer_Get_Milli_Seconds>
	/**
	 * Lifesign that the application is still working normally.
	 */
	static void checkin()
	{
		last_checkin = current_time();
   d4846:	4b01      	ldr	r3, [pc, #4]	; (d484c <_post_loop+0x10>)
   d4848:	6018      	str	r0, [r3, #0]
   d484a:	bd08      	pop	{r3, pc}
   d484c:	2003e74c 	.word	0x2003e74c

000d4850 <_Z27ctrl_request_custom_handlerP12ctrl_request>:
bool __backup_ram_was_valid() { return false; }

#endif

// Default handler for CTRL_REQUEST_APP_CUSTOM requests
void __attribute((weak)) ctrl_request_custom_handler(ctrl_request* req) {
   d4850:	b507      	push	{r0, r1, r2, lr}
    system_ctrl_set_result(req, SYSTEM_ERROR_NOT_SUPPORTED, nullptr, nullptr, nullptr);
   d4852:	2300      	movs	r3, #0
   d4854:	9300      	str	r3, [sp, #0]
   d4856:	461a      	mov	r2, r3
   d4858:	f06f 0177 	mvn.w	r1, #119	; 0x77
   d485c:	f7ff fd5a 	bl	d4314 <system_ctrl_set_result>
}
   d4860:	b003      	add	sp, #12
   d4862:	f85d fb04 	ldr.w	pc, [sp], #4
	...

000d4868 <_ZL20ctrl_request_handlerP12ctrl_request>:
// Callback invoked to process a logging configuration request
void(*log_process_ctrl_request_callback)(ctrl_request* req) = nullptr;
#endif

// Application handler for control requests
static void ctrl_request_handler(ctrl_request* req) {
   d4868:	b507      	push	{r0, r1, r2, lr}
    switch (req->type) {
   d486a:	8843      	ldrh	r3, [r0, #2]
   d486c:	2b0a      	cmp	r3, #10
   d486e:	d008      	beq.n	d4882 <_ZL20ctrl_request_handlerP12ctrl_request+0x1a>
   d4870:	2b50      	cmp	r3, #80	; 0x50
   d4872:	d109      	bne.n	d4888 <_ZL20ctrl_request_handlerP12ctrl_request+0x20>
#if Wiring_LogConfig
    case CTRL_REQUEST_LOG_CONFIG: {
        if (log_process_ctrl_request_callback) {
   d4874:	4b09      	ldr	r3, [pc, #36]	; (d489c <_ZL20ctrl_request_handlerP12ctrl_request+0x34>)
   d4876:	681b      	ldr	r3, [r3, #0]
   d4878:	b13b      	cbz	r3, d488a <_ZL20ctrl_request_handlerP12ctrl_request+0x22>
    }
    default:
        system_ctrl_set_result(req, SYSTEM_ERROR_NOT_SUPPORTED, nullptr, nullptr, nullptr);
        break;
    }
}
   d487a:	b003      	add	sp, #12
   d487c:	f85d eb04 	ldr.w	lr, [sp], #4
static void ctrl_request_handler(ctrl_request* req) {
    switch (req->type) {
#if Wiring_LogConfig
    case CTRL_REQUEST_LOG_CONFIG: {
        if (log_process_ctrl_request_callback) {
            log_process_ctrl_request_callback(req);
   d4880:	4718      	bx	r3
        }
        break;
    }
#endif
    case CTRL_REQUEST_APP_CUSTOM: {
        ctrl_request_custom_handler(req);
   d4882:	f7ff ffe5 	bl	d4850 <_Z27ctrl_request_custom_handlerP12ctrl_request>
        break;
   d4886:	e006      	b.n	d4896 <_ZL20ctrl_request_handlerP12ctrl_request+0x2e>
    }
    default:
        system_ctrl_set_result(req, SYSTEM_ERROR_NOT_SUPPORTED, nullptr, nullptr, nullptr);
   d4888:	2300      	movs	r3, #0
   d488a:	9300      	str	r3, [sp, #0]
   d488c:	461a      	mov	r2, r3
   d488e:	f06f 0177 	mvn.w	r1, #119	; 0x77
   d4892:	f7ff fd3f 	bl	d4314 <system_ctrl_set_result>
        break;
    }
}
   d4896:	b003      	add	sp, #12
   d4898:	f85d fb04 	ldr.w	pc, [sp], #4
   d489c:	2003e3e4 	.word	0x2003e3e4

000d48a0 <module_user_init_hook>:

void module_user_init_hook()
{
   d48a0:	b510      	push	{r4, lr}
    }
#endif

#if HAL_PLATFORM_RNG
    // Initialize the default stdlib PRNG using hardware RNG as a seed
    const uint32_t seed = HAL_RNG_GetRandomNumber();
   d48a2:	f7ff fc75 	bl	d4190 <HAL_RNG_GetRandomNumber>
   d48a6:	4604      	mov	r4, r0
    srand(seed);
   d48a8:	f000 fcc6 	bl	d5238 <srand>

    // If the user defines random_seed_from_cloud, call it with a seed value
    // generated by a hardware RNG as well.
    if (random_seed_from_cloud) {
   d48ac:	4b07      	ldr	r3, [pc, #28]	; (d48cc <module_user_init_hook+0x2c>)
   d48ae:	b113      	cbz	r3, d48b6 <module_user_init_hook+0x16>
        random_seed_from_cloud(seed);
   d48b0:	4620      	mov	r0, r4
   d48b2:	f3af 8000 	nop.w
    }
#endif
    // Register the random_seed_from_cloud handler
    spark_set_random_seed_from_cloud_handler(&random_seed_from_cloud, nullptr);
   d48b6:	2100      	movs	r1, #0
   d48b8:	4804      	ldr	r0, [pc, #16]	; (d48cc <module_user_init_hook+0x2c>)
   d48ba:	f7ff fd85 	bl	d43c8 <spark_set_random_seed_from_cloud_handler>

    // Register application handler for the control requests
    system_ctrl_set_app_request_handler(ctrl_request_handler, nullptr);
   d48be:	2100      	movs	r1, #0
   d48c0:	4803      	ldr	r0, [pc, #12]	; (d48d0 <module_user_init_hook+0x30>)
}
   d48c2:	e8bd 4010 	ldmia.w	sp!, {r4, lr}
#endif
    // Register the random_seed_from_cloud handler
    spark_set_random_seed_from_cloud_handler(&random_seed_from_cloud, nullptr);

    // Register application handler for the control requests
    system_ctrl_set_app_request_handler(ctrl_request_handler, nullptr);
   d48c6:	f7ff bd1b 	b.w	d4300 <system_ctrl_set_app_request_handler>
   d48ca:	bf00      	nop
   d48cc:	00000000 	.word	0x00000000
   d48d0:	000d4869 	.word	0x000d4869

000d48d4 <_ZN9IPAddressD1Ev>:
    IPAddress(uint8_t first_octet, uint8_t second_octet, uint8_t third_octet, uint8_t fourth_octet);
    IPAddress(uint32_t address);
    IPAddress(const uint8_t* address);
    IPAddress(const HAL_IPAddress& address);

    virtual ~IPAddress() {}
   d48d4:	4770      	bx	lr

000d48d6 <_ZN9IPAddressD0Ev>:
   d48d6:	b510      	push	{r4, lr}
   d48d8:	2118      	movs	r1, #24
   d48da:	4604      	mov	r4, r0
   d48dc:	f000 fb3f 	bl	d4f5e <_ZdlPvj>
   d48e0:	4620      	mov	r0, r4
   d48e2:	bd10      	pop	{r4, pc}

000d48e4 <_ZNK9IPAddress7printToER5Print>:
#endif // Wiring_IPv6
	return address.ipv4==that.address.ipv4;
}

size_t IPAddress::printTo(Print& p) const
{
   d48e4:	b5f0      	push	{r4, r5, r6, r7, lr}
#if Wiring_IPv6
#if HAL_USE_INET_HAL_POSIX
	if (address.v==6) {
   d48e6:	7d03      	ldrb	r3, [r0, #20]
   d48e8:	2b06      	cmp	r3, #6
#endif // Wiring_IPv6
	return address.ipv4==that.address.ipv4;
}

size_t IPAddress::printTo(Print& p) const
{
   d48ea:	b08d      	sub	sp, #52	; 0x34
   d48ec:	460e      	mov	r6, r1
   d48ee:	f100 0704 	add.w	r7, r0, #4
   d48f2:	f04f 0400 	mov.w	r4, #0
#if Wiring_IPv6
#if HAL_USE_INET_HAL_POSIX
	if (address.v==6) {
   d48f6:	d002      	beq.n	d48fe <_ZNK9IPAddress7printToER5Print+0x1a>
   d48f8:	f100 0508 	add.w	r5, r0, #8
   d48fc:	e018      	b.n	d4930 <_ZNK9IPAddress7printToER5Print+0x4c>
		char buf[INET6_ADDRSTRLEN+1];
		buf[0] = 0;
   d48fe:	ad0c      	add	r5, sp, #48	; 0x30
		inet_inet_ntop(AF_INET6, address.ipv6, buf, sizeof(buf));
   d4900:	4639      	mov	r1, r7
{
#if Wiring_IPv6
#if HAL_USE_INET_HAL_POSIX
	if (address.v==6) {
		char buf[INET6_ADDRSTRLEN+1];
		buf[0] = 0;
   d4902:	f805 4d30 	strb.w	r4, [r5, #-48]!
		inet_inet_ntop(AF_INET6, address.ipv6, buf, sizeof(buf));
   d4906:	232f      	movs	r3, #47	; 0x2f
   d4908:	462a      	mov	r2, r5
   d490a:	200a      	movs	r0, #10
   d490c:	f7ff fc78 	bl	d4200 <inet_inet_ntop>
    void clearWriteError() { setWriteError(0); }

    virtual size_t write(uint8_t) = 0;
    size_t write(const char *str) {
      if (str == NULL) return 0;
      return write((const uint8_t *)str, strlen(str));
   d4910:	4628      	mov	r0, r5
   d4912:	f000 fcc1 	bl	d5298 <strlen>
   d4916:	6833      	ldr	r3, [r6, #0]
   d4918:	4602      	mov	r2, r0
   d491a:	68db      	ldr	r3, [r3, #12]
   d491c:	4629      	mov	r1, r5
   d491e:	4630      	mov	r0, r6
   d4920:	4798      	blx	r3
   d4922:	e00f      	b.n	d4944 <_ZNK9IPAddress7printToER5Print+0x60>
#endif // HAL_USE_INET_HAL_POSIX
#endif // Wiring_IPv6
    size_t n = 0;
    for (int i = 0; i < 4; i++)
    {
        if (n)
   d4924:	b124      	cbz	r4, d4930 <_ZNK9IPAddress7printToER5Print+0x4c>
            n += p.print('.');
   d4926:	212e      	movs	r1, #46	; 0x2e
   d4928:	4630      	mov	r0, r6
   d492a:	f7ff fe93 	bl	d4654 <_ZN5Print5printEc>
   d492e:	4404      	add	r4, r0
        n += p.print((*this)[i], DEC);
   d4930:	f815 1d01 	ldrb.w	r1, [r5, #-1]!
   d4934:	220a      	movs	r2, #10
   d4936:	4630      	mov	r0, r6
   d4938:	f7ff fec8 	bl	d46cc <_ZN5Print5printEhi>
#else
#pragma message "HAL_USE_INET_HAL_POSIX is required for IPv6 support in IPAddress::printTo()"
#endif // HAL_USE_INET_HAL_POSIX
#endif // Wiring_IPv6
    size_t n = 0;
    for (int i = 0; i < 4; i++)
   d493c:	42bd      	cmp	r5, r7
    {
        if (n)
            n += p.print('.');
        n += p.print((*this)[i], DEC);
   d493e:	4404      	add	r4, r0
#else
#pragma message "HAL_USE_INET_HAL_POSIX is required for IPv6 support in IPAddress::printTo()"
#endif // HAL_USE_INET_HAL_POSIX
#endif // Wiring_IPv6
    size_t n = 0;
    for (int i = 0; i < 4; i++)
   d4940:	d1f0      	bne.n	d4924 <_ZNK9IPAddress7printToER5Print+0x40>
    {
        if (n)
            n += p.print('.');
        n += p.print((*this)[i], DEC);
   d4942:	4620      	mov	r0, r4
    }
    return n;
}
   d4944:	b00d      	add	sp, #52	; 0x34
   d4946:	bdf0      	pop	{r4, r5, r6, r7, pc}

000d4948 <_ZN9IPAddressC1Ev>:

#if HAL_USE_INET_HAL_POSIX
#include <arpa/inet.h>
#endif // HAL_USE_INET_HAL_POSIX

IPAddress::IPAddress()
   d4948:	b510      	push	{r4, lr}
   d494a:	4b05      	ldr	r3, [pc, #20]	; (d4960 <_ZN9IPAddressC1Ev+0x18>)
   d494c:	4604      	mov	r4, r0
        return address;
    }

    virtual size_t printTo(Print& p) const;

    void clear() { memset(&address, 0, sizeof (address)); }
   d494e:	2211      	movs	r2, #17
   d4950:	f840 3b04 	str.w	r3, [r0], #4
   d4954:	2100      	movs	r1, #0
   d4956:	f000 fc66 	bl	d5226 <memset>
{
    clear();
}
   d495a:	4620      	mov	r0, r4
   d495c:	bd10      	pop	{r4, pc}
   d495e:	bf00      	nop
   d4960:	000d5440 	.word	0x000d5440

000d4964 <_ZN9IPAddressC1ERK16_HAL_IPAddress_t>:

IPAddress::IPAddress(const HAL_IPAddress& address)
   d4964:	4603      	mov	r3, r0
   d4966:	4a07      	ldr	r2, [pc, #28]	; (d4984 <_ZN9IPAddressC1ERK16_HAL_IPAddress_t+0x20>)
   d4968:	b510      	push	{r4, lr}
   d496a:	f843 2b04 	str.w	r2, [r3], #4
{
    memcpy(&this->address, &address, sizeof(address));
   d496e:	f101 0210 	add.w	r2, r1, #16
   d4972:	f851 4b04 	ldr.w	r4, [r1], #4
   d4976:	f843 4b04 	str.w	r4, [r3], #4
   d497a:	4291      	cmp	r1, r2
   d497c:	d1f9      	bne.n	d4972 <_ZN9IPAddressC1ERK16_HAL_IPAddress_t+0xe>
   d497e:	780a      	ldrb	r2, [r1, #0]
   d4980:	701a      	strb	r2, [r3, #0]
}
   d4982:	bd10      	pop	{r4, pc}
   d4984:	000d5440 	.word	0x000d5440

000d4988 <_ZN9IPAddress8set_ipv4Ehhhh>:
    return address.ipv4!=0;
#endif
}

void IPAddress::set_ipv4(uint8_t b0, uint8_t b1, uint8_t b2, uint8_t b3)
{
   d4988:	b510      	push	{r4, lr}
    address.ipv4 = b0<<24 | b1 << 16 | b2 << 8 | b3;
   d498a:	f89d 4008 	ldrb.w	r4, [sp, #8]
   d498e:	ea44 2303 	orr.w	r3, r4, r3, lsl #8
   d4992:	ea43 4202 	orr.w	r2, r3, r2, lsl #16
   d4996:	ea42 6101 	orr.w	r1, r2, r1, lsl #24
        return &address;
    }

    inline void setVersion(uint8_t version) {
#if HAL_IPv6
        address.v = version;
   d499a:	2304      	movs	r3, #4
   d499c:	6041      	str	r1, [r0, #4]
   d499e:	7503      	strb	r3, [r0, #20]
   d49a0:	bd10      	pop	{r4, pc}

000d49a2 <_ZN9IPAddressaSEPKh>:
    setVersion(4);
}

IPAddress& IPAddress::operator=(const uint8_t* address)
{
   d49a2:	b537      	push	{r0, r1, r2, r4, r5, lr}
    set_ipv4(address[0], address[1], address[2], address[3]);
   d49a4:	780d      	ldrb	r5, [r1, #0]
   d49a6:	788b      	ldrb	r3, [r1, #2]
   d49a8:	784a      	ldrb	r2, [r1, #1]
   d49aa:	78c9      	ldrb	r1, [r1, #3]
   d49ac:	9100      	str	r1, [sp, #0]
   d49ae:	4629      	mov	r1, r5
   d49b0:	f7ff ffea 	bl	d4988 <_ZN9IPAddress8set_ipv4Ehhhh>
    return *this;
}
   d49b4:	b003      	add	sp, #12
   d49b6:	bd30      	pop	{r4, r5, pc}

000d49b8 <_ZN9USBSerial14blockOnOverrunEb>:
  HAL_USB_USART_Flush_Data(_serial);
}

void USBSerial::blockOnOverrun(bool block)
{
  _blocking = block;
   d49b8:	7441      	strb	r1, [r0, #17]
   d49ba:	4770      	bx	lr

000d49bc <_ZN9USBSerialD1Ev>:
#include "usb_hal.h"
#include "system_task.h"
#include "spark_wiring_startup.h"
#include "concurrent_hal.h"

class USBSerial : public Stream
   d49bc:	4770      	bx	lr

000d49be <_ZN9USBSerial4readEv>:
}


// Read data from buffer
int USBSerial::read()
{
   d49be:	b508      	push	{r3, lr}
	return std::max(-1, (int)HAL_USB_USART_Receive_Data(_serial, false));
   d49c0:	2100      	movs	r1, #0
   d49c2:	7c00      	ldrb	r0, [r0, #16]
   d49c4:	f7ff fc7c 	bl	d42c0 <HAL_USB_USART_Receive_Data>
}
   d49c8:	ea30 0020 	bics.w	r0, r0, r0, asr #32
   d49cc:	bf28      	it	cs
   d49ce:	f04f 30ff 	movcs.w	r0, #4294967295
   d49d2:	bd08      	pop	{r3, pc}

000d49d4 <_ZN9USBSerial4peekEv>:
{
  _blocking = block;
}

int USBSerial::peek()
{
   d49d4:	b508      	push	{r3, lr}
	return std::max(-1, (int)HAL_USB_USART_Receive_Data(_serial, true));
   d49d6:	2101      	movs	r1, #1
   d49d8:	7c00      	ldrb	r0, [r0, #16]
   d49da:	f7ff fc71 	bl	d42c0 <HAL_USB_USART_Receive_Data>
}
   d49de:	ea30 0020 	bics.w	r0, r0, r0, asr #32
   d49e2:	bf28      	it	cs
   d49e4:	f04f 30ff 	movcs.w	r0, #4294967295
   d49e8:	bd08      	pop	{r3, pc}

000d49ea <_ZN9USBSerial17availableForWriteEv>:
{
	return std::max(-1, (int)HAL_USB_USART_Receive_Data(_serial, false));
}

int USBSerial::availableForWrite()
{
   d49ea:	b508      	push	{r3, lr}
  return std::max(0, (int)HAL_USB_USART_Available_Data_For_Write(_serial));
   d49ec:	7c00      	ldrb	r0, [r0, #16]
   d49ee:	f7ff fc5f 	bl	d42b0 <HAL_USB_USART_Available_Data_For_Write>
}
   d49f2:	ea20 70e0 	bic.w	r0, r0, r0, asr #31
   d49f6:	bd08      	pop	{r3, pc}

000d49f8 <_ZN9USBSerial9availableEv>:

int USBSerial::available()
{
   d49f8:	b508      	push	{r3, lr}
	return std::max(0, (int)HAL_USB_USART_Available_Data(_serial));
   d49fa:	7c00      	ldrb	r0, [r0, #16]
   d49fc:	f7ff fc50 	bl	d42a0 <HAL_USB_USART_Available_Data>
}
   d4a00:	ea20 70e0 	bic.w	r0, r0, r0, asr #31
   d4a04:	bd08      	pop	{r3, pc}

000d4a06 <_ZN9USBSerial5flushEv>:
  return 0;
}

void USBSerial::flush()
{
  HAL_USB_USART_Flush_Data(_serial);
   d4a06:	7c00      	ldrb	r0, [r0, #16]
   d4a08:	f7ff bc6a 	b.w	d42e0 <HAL_USB_USART_Flush_Data>

000d4a0c <_ZN9USBSerialD0Ev>:
   d4a0c:	b510      	push	{r4, lr}
   d4a0e:	2114      	movs	r1, #20
   d4a10:	4604      	mov	r4, r0
   d4a12:	f000 faa4 	bl	d4f5e <_ZdlPvj>
   d4a16:	4620      	mov	r0, r4
   d4a18:	bd10      	pop	{r4, pc}

000d4a1a <_ZN9USBSerial5writeEh>:
{
	return std::max(0, (int)HAL_USB_USART_Available_Data(_serial));
}

size_t USBSerial::write(uint8_t byte)
{
   d4a1a:	b538      	push	{r3, r4, r5, lr}
   d4a1c:	4604      	mov	r4, r0
  if (HAL_USB_USART_Available_Data_For_Write(_serial) > 0 || _blocking) {
   d4a1e:	7c00      	ldrb	r0, [r0, #16]
{
	return std::max(0, (int)HAL_USB_USART_Available_Data(_serial));
}

size_t USBSerial::write(uint8_t byte)
{
   d4a20:	460d      	mov	r5, r1
  if (HAL_USB_USART_Available_Data_For_Write(_serial) > 0 || _blocking) {
   d4a22:	f7ff fc45 	bl	d42b0 <HAL_USB_USART_Available_Data_For_Write>
   d4a26:	2800      	cmp	r0, #0
   d4a28:	dc01      	bgt.n	d4a2e <_ZN9USBSerial5writeEh+0x14>
   d4a2a:	7c60      	ldrb	r0, [r4, #17]
   d4a2c:	b128      	cbz	r0, d4a3a <_ZN9USBSerial5writeEh+0x20>
    return std::max(0, (int)HAL_USB_USART_Send_Data(_serial, byte));
   d4a2e:	4629      	mov	r1, r5
   d4a30:	7c20      	ldrb	r0, [r4, #16]
   d4a32:	f7ff fc4d 	bl	d42d0 <HAL_USB_USART_Send_Data>
   d4a36:	ea20 70e0 	bic.w	r0, r0, r0, asr #31
  }
  return 0;
}
   d4a3a:	bd38      	pop	{r3, r4, r5, pc}

000d4a3c <_ZN9USBSerialC1E20HAL_USB_USART_SerialRK20HAL_USB_USART_Config>:

  HAL_USB_USART_Config conf = acquireSerialBuffer();
  HAL_USB_USART_Init(_serial, &conf);
}

USBSerial::USBSerial(HAL_USB_USART_Serial serial, const HAL_USB_USART_Config& conf)
   d4a3c:	b510      	push	{r4, lr}
   d4a3e:	4604      	mov	r4, r0
  protected:
    void setWriteError(int err = 1) { write_error = err; }
    size_t printf_impl(bool newline, const char* format, ...);

  public:
    Print() : write_error(0) {}
   d4a40:	2300      	movs	r3, #0
   d4a42:	6063      	str	r3, [r4, #4]
    virtual int available() = 0;
    virtual int read() = 0;
    virtual int peek() = 0;
    virtual void flush() = 0;

    Stream() {_timeout=1000;}
   d4a44:	f44f 737a 	mov.w	r3, #1000	; 0x3e8
   d4a48:	60a3      	str	r3, [r4, #8]
   d4a4a:	4b05      	ldr	r3, [pc, #20]	; (d4a60 <_ZN9USBSerialC1E20HAL_USB_USART_SerialRK20HAL_USB_USART_Config+0x24>)
   d4a4c:	6023      	str	r3, [r4, #0]
{
  _serial = serial;
  _blocking = true;
   d4a4e:	2301      	movs	r3, #1

  HAL_USB_USART_Config conf = acquireSerialBuffer();
  HAL_USB_USART_Init(_serial, &conf);
}

USBSerial::USBSerial(HAL_USB_USART_Serial serial, const HAL_USB_USART_Config& conf)
   d4a50:	4608      	mov	r0, r1
{
  _serial = serial;
   d4a52:	7421      	strb	r1, [r4, #16]
  _blocking = true;
   d4a54:	7463      	strb	r3, [r4, #17]

  HAL_USB_USART_Init(_serial, &conf);
   d4a56:	4611      	mov	r1, r2
   d4a58:	f7ff fc1a 	bl	d4290 <HAL_USB_USART_Init>
}
   d4a5c:	4620      	mov	r0, r4
   d4a5e:	bd10      	pop	{r4, pc}
   d4a60:	000d5454 	.word	0x000d5454

000d4a64 <_Z19acquireSerialBufferv>:

// Preinstantiate Objects //////////////////////////////////////////////////////
#ifdef SPARK_USB_SERIAL

HAL_USB_USART_Config __attribute__((weak)) acquireSerialBuffer()
{
   d4a64:	b510      	push	{r4, lr}
  HAL_USB_USART_Config conf = {0};
   d4a66:	2214      	movs	r2, #20

// Preinstantiate Objects //////////////////////////////////////////////////////
#ifdef SPARK_USB_SERIAL

HAL_USB_USART_Config __attribute__((weak)) acquireSerialBuffer()
{
   d4a68:	4604      	mov	r4, r0
  HAL_USB_USART_Config conf = {0};
   d4a6a:	2100      	movs	r1, #0
   d4a6c:	f000 fbdb 	bl	d5226 <memset>
  conf.rx_buffer_size = USB_RX_BUFFER_SIZE;
  conf.tx_buffer_size = USB_TX_BUFFER_SIZE;
#endif

  return conf;
}
   d4a70:	4620      	mov	r0, r4
   d4a72:	bd10      	pop	{r4, pc}

000d4a74 <_Z16_fetch_usbserialv>:

USBSerial& _fetch_usbserial()
{
   d4a74:	b530      	push	{r4, r5, lr}
  HAL_USB_USART_Config conf = acquireSerialBuffer();
	static USBSerial _usbserial(HAL_USB_USART_SERIAL, conf);
   d4a76:	4d0e      	ldr	r5, [pc, #56]	; (d4ab0 <_Z16_fetch_usbserialv+0x3c>)

  return conf;
}

USBSerial& _fetch_usbserial()
{
   d4a78:	b087      	sub	sp, #28
  HAL_USB_USART_Config conf = acquireSerialBuffer();
   d4a7a:	a801      	add	r0, sp, #4
   d4a7c:	f7ff fff2 	bl	d4a64 <_Z19acquireSerialBufferv>
	static USBSerial _usbserial(HAL_USB_USART_SERIAL, conf);
   d4a80:	6829      	ldr	r1, [r5, #0]
   d4a82:	f011 0401 	ands.w	r4, r1, #1
   d4a86:	d110      	bne.n	d4aaa <_Z16_fetch_usbserialv+0x36>
   d4a88:	4628      	mov	r0, r5
   d4a8a:	f7ff fb08 	bl	d409e <__cxa_guard_acquire>
   d4a8e:	b160      	cbz	r0, d4aaa <_Z16_fetch_usbserialv+0x36>
   d4a90:	aa01      	add	r2, sp, #4
   d4a92:	4621      	mov	r1, r4
   d4a94:	4807      	ldr	r0, [pc, #28]	; (d4ab4 <_Z16_fetch_usbserialv+0x40>)
   d4a96:	f7ff ffd1 	bl	d4a3c <_ZN9USBSerialC1E20HAL_USB_USART_SerialRK20HAL_USB_USART_Config>
   d4a9a:	4628      	mov	r0, r5
   d4a9c:	f7ff fb04 	bl	d40a8 <__cxa_guard_release>
   d4aa0:	4a05      	ldr	r2, [pc, #20]	; (d4ab8 <_Z16_fetch_usbserialv+0x44>)
   d4aa2:	4906      	ldr	r1, [pc, #24]	; (d4abc <_Z16_fetch_usbserialv+0x48>)
   d4aa4:	4803      	ldr	r0, [pc, #12]	; (d4ab4 <_Z16_fetch_usbserialv+0x40>)
   d4aa6:	f000 fa55 	bl	d4f54 <__aeabi_atexit>
	return _usbserial;
}
   d4aaa:	4802      	ldr	r0, [pc, #8]	; (d4ab4 <_Z16_fetch_usbserialv+0x40>)
   d4aac:	b007      	add	sp, #28
   d4aae:	bd30      	pop	{r4, r5, pc}
   d4ab0:	2003e3e8 	.word	0x2003e3e8
   d4ab4:	2003e3ec 	.word	0x2003e3ec
   d4ab8:	2003e3ac 	.word	0x2003e3ac
   d4abc:	000d49bd 	.word	0x000d49bd

000d4ac0 <_ZN5spark13CellularClass5readyEv>:
        return network_listening(*this, 0, NULL);
    }

    bool ready()
    {
        return network_ready(*this, 0,  NULL);
   d4ac0:	2200      	movs	r2, #0
   d4ac2:	4611      	mov	r1, r2
   d4ac4:	6840      	ldr	r0, [r0, #4]
   d4ac6:	f7ff bc47 	b.w	d4358 <network_ready>

000d4aca <_ZN5spark13CellularClass9listeningEv>:
    uint16_t getListenTimeout(void) {
        return network_get_listen_timeout(*this, 0, NULL);
    }

    bool listening(void) {
        return network_listening(*this, 0, NULL);
   d4aca:	2200      	movs	r2, #0
   d4acc:	4611      	mov	r1, r2
   d4ace:	6840      	ldr	r0, [r0, #4]
   d4ad0:	f7ff bc62 	b.w	d4398 <network_listening>

000d4ad4 <_ZN5spark13CellularClass16getListenTimeoutEv>:
    void setListenTimeout(uint16_t timeout) {
        network_set_listen_timeout(*this, timeout, NULL);
    }

    uint16_t getListenTimeout(void) {
        return network_get_listen_timeout(*this, 0, NULL);
   d4ad4:	2200      	movs	r2, #0
   d4ad6:	4611      	mov	r1, r2
   d4ad8:	6840      	ldr	r0, [r0, #4]
   d4ada:	f7ff bc6d 	b.w	d43b8 <network_get_listen_timeout>

000d4ade <_ZN5spark13CellularClass16setListenTimeoutEt>:
    void listen(bool begin=true) {
        network_listen(*this, begin ? 0 : 1, NULL);
    }

    void setListenTimeout(uint16_t timeout) {
        network_set_listen_timeout(*this, timeout, NULL);
   d4ade:	2200      	movs	r2, #0
   d4ae0:	6840      	ldr	r0, [r0, #4]
   d4ae2:	f7ff bc61 	b.w	d43a8 <network_set_listen_timeout>

000d4ae6 <_ZN5spark13CellularClass6listenEb>:
        cellular_credentials_clear(nullptr);
    }
#endif // HAL_PLATFORM_MESH

    void listen(bool begin=true) {
        network_listen(*this, begin ? 0 : 1, NULL);
   d4ae6:	2200      	movs	r2, #0
   d4ae8:	f081 0101 	eor.w	r1, r1, #1
   d4aec:	6840      	ldr	r0, [r0, #4]
   d4aee:	f7ff bc4b 	b.w	d4388 <network_listen>

000d4af2 <_ZN5spark13CellularClass3offEv>:
    }
    void on() {
        network_on(*this, 0, 0, NULL);
    }
    void off() {
        network_off(*this, 0, 0, NULL);
   d4af2:	2300      	movs	r3, #0
   d4af4:	461a      	mov	r2, r3
   d4af6:	4619      	mov	r1, r3
   d4af8:	6840      	ldr	r0, [r0, #4]
   d4afa:	f7ff bc3d 	b.w	d4378 <network_off>

000d4afe <_ZN5spark13CellularClass2onEv>:

    IPAddress localIP() {
        return IPAddress(((CellularConfig*)network_config(*this, 0, NULL))->nw.aucIP);
    }
    void on() {
        network_on(*this, 0, 0, NULL);
   d4afe:	2300      	movs	r3, #0
   d4b00:	461a      	mov	r2, r3
   d4b02:	4619      	mov	r1, r3
   d4b04:	6840      	ldr	r0, [r0, #4]
   d4b06:	f7ff bc2f 	b.w	d4368 <network_on>

000d4b0a <_ZN5spark13CellularClass10connectingEv>:
    }
    void connect(unsigned flags=0) {
        network_connect(*this, flags, 0, NULL);
    }
    bool connecting(void) {
        return network_connecting(*this, 0, NULL);
   d4b0a:	2200      	movs	r2, #0
   d4b0c:	4611      	mov	r1, r2
   d4b0e:	6840      	ldr	r0, [r0, #4]
   d4b10:	f7ff bc12 	b.w	d4338 <network_connecting>

000d4b14 <_ZN5spark13CellularClass10disconnectEv>:
    }

    void disconnect() {
        network_disconnect(*this, NETWORK_DISCONNECT_REASON_USER, NULL);
   d4b14:	2200      	movs	r2, #0
   d4b16:	2102      	movs	r1, #2
   d4b18:	6840      	ldr	r0, [r0, #4]
   d4b1a:	f7ff bc15 	b.w	d4348 <network_disconnect>

000d4b1e <_ZN5spark13CellularClass7connectEj>:
    }
    void off() {
        network_off(*this, 0, 0, NULL);
    }
    void connect(unsigned flags=0) {
        network_connect(*this, flags, 0, NULL);
   d4b1e:	2300      	movs	r3, #0
   d4b20:	461a      	mov	r2, r3
   d4b22:	6840      	ldr	r0, [r0, #4]
   d4b24:	f7ff bc00 	b.w	d4328 <network_connect>

000d4b28 <_GLOBAL__sub_I__ZN5spark13CellularClass4RSSIEv>:
        return (band_get.ok = true);
    }

    CellularClass Cellular;
    // NetworkClass& Network = Cellular;
}
   d4b28:	b538      	push	{r3, r4, r5, lr}
    int tx_total;
    int rx_total;

    CellularDataHal()
    {
        memset(this, 0, sizeof(*this));
   d4b2a:	4c08      	ldr	r4, [pc, #32]	; (d4b4c <_GLOBAL__sub_I__ZN5spark13CellularClass4RSSIEv+0x24>)
   d4b2c:	2528      	movs	r5, #40	; 0x28
   d4b2e:	462a      	mov	r2, r5
   d4b30:	2100      	movs	r1, #0
   d4b32:	4620      	mov	r0, r4
   d4b34:	f000 fb77 	bl	d5226 <memset>
        cid = -1;
   d4b38:	f04f 33ff 	mov.w	r3, #4294967295
   d4b3c:	6063      	str	r3, [r4, #4]
   d4b3e:	4b04      	ldr	r3, [pc, #16]	; (d4b50 <_GLOBAL__sub_I__ZN5spark13CellularClass4RSSIEv+0x28>)
        size = sizeof(*this);
   d4b40:	8025      	strh	r5, [r4, #0]
   d4b42:	2204      	movs	r2, #4
   d4b44:	605a      	str	r2, [r3, #4]

class CellularClass : public NetworkClass
{
public:
    CellularClass() :
            NetworkClass(NETWORK_INTERFACE_CELLULAR) {
   d4b46:	4a03      	ldr	r2, [pc, #12]	; (d4b54 <_GLOBAL__sub_I__ZN5spark13CellularClass4RSSIEv+0x2c>)
   d4b48:	601a      	str	r2, [r3, #0]
   d4b4a:	bd38      	pop	{r3, r4, r5, pc}
   d4b4c:	2003e408 	.word	0x2003e408
   d4b50:	2003e400 	.word	0x2003e400
   d4b54:	000d5484 	.word	0x000d5484

000d4b58 <_ZN11USARTSerialD1Ev>:
private:
  HAL_USART_Serial _serial;
  bool _blocking;
public:
  USARTSerial(HAL_USART_Serial serial, Ring_Buffer *rx_buffer, Ring_Buffer *tx_buffer);
  virtual ~USARTSerial() {};
   d4b58:	4770      	bx	lr

000d4b5a <_ZN11USARTSerial14blockOnOverrunEb>:
    HAL_USART_Half_Duplex(_serial, Enable);
}

void USARTSerial::blockOnOverrun(bool block)
{
  _blocking = block;
   d4b5a:	7441      	strb	r1, [r0, #17]
   d4b5c:	4770      	bx	lr

000d4b5e <_ZN11USARTSerial17availableForWriteEv>:
}


int USARTSerial::availableForWrite(void)
{
   d4b5e:	b508      	push	{r3, lr}
  return std::max(0, (int)HAL_USART_Available_Data_For_Write(_serial));
   d4b60:	7c00      	ldrb	r0, [r0, #16]
   d4b62:	f7ff fb85 	bl	d4270 <HAL_USART_Available_Data_For_Write>
}
   d4b66:	ea20 70e0 	bic.w	r0, r0, r0, asr #31
   d4b6a:	bd08      	pop	{r3, pc}

000d4b6c <_ZN11USARTSerial9availableEv>:

int USARTSerial::available(void)
{
   d4b6c:	b508      	push	{r3, lr}
  return std::max(0, (int)HAL_USART_Available_Data(_serial));
   d4b6e:	7c00      	ldrb	r0, [r0, #16]
   d4b70:	f7ff fb5e 	bl	d4230 <HAL_USART_Available_Data>
}
   d4b74:	ea20 70e0 	bic.w	r0, r0, r0, asr #31
   d4b78:	bd08      	pop	{r3, pc}

000d4b7a <_ZN11USARTSerial4peekEv>:

int USARTSerial::peek(void)
{
   d4b7a:	b508      	push	{r3, lr}
  return std::max(-1, (int)HAL_USART_Peek_Data(_serial));
   d4b7c:	7c00      	ldrb	r0, [r0, #16]
   d4b7e:	f7ff fb67 	bl	d4250 <HAL_USART_Peek_Data>
}
   d4b82:	ea30 0020 	bics.w	r0, r0, r0, asr #32
   d4b86:	bf28      	it	cs
   d4b88:	f04f 30ff 	movcs.w	r0, #4294967295
   d4b8c:	bd08      	pop	{r3, pc}

000d4b8e <_ZN11USARTSerial4readEv>:

int USARTSerial::read(void)
{
   d4b8e:	b508      	push	{r3, lr}
  return std::max(-1, (int)HAL_USART_Read_Data(_serial));
   d4b90:	7c00      	ldrb	r0, [r0, #16]
   d4b92:	f7ff fb55 	bl	d4240 <HAL_USART_Read_Data>
}
   d4b96:	ea30 0020 	bics.w	r0, r0, r0, asr #32
   d4b9a:	bf28      	it	cs
   d4b9c:	f04f 30ff 	movcs.w	r0, #4294967295
   d4ba0:	bd08      	pop	{r3, pc}

000d4ba2 <_ZN11USARTSerial5flushEv>:

void USARTSerial::flush()
{
  HAL_USART_Flush_Data(_serial);
   d4ba2:	7c00      	ldrb	r0, [r0, #16]
   d4ba4:	f7ff bb5c 	b.w	d4260 <HAL_USART_Flush_Data>

000d4ba8 <_ZN11USARTSerialD0Ev>:
   d4ba8:	b510      	push	{r4, lr}
   d4baa:	2114      	movs	r1, #20
   d4bac:	4604      	mov	r4, r0
   d4bae:	f000 f9d6 	bl	d4f5e <_ZdlPvj>
   d4bb2:	4620      	mov	r0, r4
   d4bb4:	bd10      	pop	{r4, pc}

000d4bb6 <_ZN11USARTSerial5writeEh>:
}

size_t USARTSerial::write(uint8_t c)
{
   d4bb6:	b570      	push	{r4, r5, r6, lr}
  // attempt a write if blocking, or for non-blocking if there is room.
  if (_blocking || HAL_USART_Available_Data_For_Write(_serial) > 0) {
   d4bb8:	7c45      	ldrb	r5, [r0, #17]
{
  HAL_USART_Flush_Data(_serial);
}

size_t USARTSerial::write(uint8_t c)
{
   d4bba:	4604      	mov	r4, r0
   d4bbc:	460e      	mov	r6, r1
  // attempt a write if blocking, or for non-blocking if there is room.
  if (_blocking || HAL_USART_Available_Data_For_Write(_serial) > 0) {
   d4bbe:	b925      	cbnz	r5, d4bca <_ZN11USARTSerial5writeEh+0x14>
   d4bc0:	7c00      	ldrb	r0, [r0, #16]
   d4bc2:	f7ff fb55 	bl	d4270 <HAL_USART_Available_Data_For_Write>
   d4bc6:	2800      	cmp	r0, #0
   d4bc8:	dd05      	ble.n	d4bd6 <_ZN11USARTSerial5writeEh+0x20>
    // the HAL always blocks.
	  return HAL_USART_Write_Data(_serial, c);
   d4bca:	4631      	mov	r1, r6
   d4bcc:	7c20      	ldrb	r0, [r4, #16]
  }
  return 0;
}
   d4bce:	e8bd 4070 	ldmia.w	sp!, {r4, r5, r6, lr}
size_t USARTSerial::write(uint8_t c)
{
  // attempt a write if blocking, or for non-blocking if there is room.
  if (_blocking || HAL_USART_Available_Data_For_Write(_serial) > 0) {
    // the HAL always blocks.
	  return HAL_USART_Write_Data(_serial, c);
   d4bd2:	f7ff bb25 	b.w	d4220 <HAL_USART_Write_Data>
  }
  return 0;
}
   d4bd6:	4628      	mov	r0, r5
   d4bd8:	bd70      	pop	{r4, r5, r6, pc}
	...

000d4bdc <_ZN11USARTSerialC1E16HAL_USART_SerialP11Ring_BufferS2_>:
#include "spark_wiring_constants.h"
#include "module_info.h"

// Constructors ////////////////////////////////////////////////////////////////

USARTSerial::USARTSerial(HAL_USART_Serial serial, Ring_Buffer *rx_buffer, Ring_Buffer *tx_buffer)
   d4bdc:	b510      	push	{r4, lr}
   d4bde:	4604      	mov	r4, r0
   d4be0:	4608      	mov	r0, r1
   d4be2:	4611      	mov	r1, r2
   d4be4:	2200      	movs	r2, #0
   d4be6:	6062      	str	r2, [r4, #4]
   d4be8:	f44f 727a 	mov.w	r2, #1000	; 0x3e8
   d4bec:	60a2      	str	r2, [r4, #8]
   d4bee:	4a05      	ldr	r2, [pc, #20]	; (d4c04 <_ZN11USARTSerialC1E16HAL_USART_SerialP11Ring_BufferS2_+0x28>)
   d4bf0:	6022      	str	r2, [r4, #0]
{
  _serial = serial;
  // Default is blocking mode
  _blocking = true;
   d4bf2:	2201      	movs	r2, #1

// Constructors ////////////////////////////////////////////////////////////////

USARTSerial::USARTSerial(HAL_USART_Serial serial, Ring_Buffer *rx_buffer, Ring_Buffer *tx_buffer)
{
  _serial = serial;
   d4bf4:	7420      	strb	r0, [r4, #16]
  // Default is blocking mode
  _blocking = true;
   d4bf6:	7462      	strb	r2, [r4, #17]
  HAL_USART_Init(serial, rx_buffer, tx_buffer);
   d4bf8:	461a      	mov	r2, r3
   d4bfa:	f7ff fb09 	bl	d4210 <HAL_USART_Init>
}
   d4bfe:	4620      	mov	r0, r4
   d4c00:	bd10      	pop	{r4, pc}
   d4c02:	bf00      	nop
   d4c04:	000d54b8 	.word	0x000d54b8

000d4c08 <_ZN11USARTSerial5beginEmm>:
  begin(baud, SERIAL_8N1);
}

void USARTSerial::begin(unsigned long baud, uint32_t config)
{
  HAL_USART_BeginConfig(_serial, baud, config, 0);
   d4c08:	2300      	movs	r3, #0
   d4c0a:	7c00      	ldrb	r0, [r0, #16]
   d4c0c:	f7ff bb38 	b.w	d4280 <HAL_USART_BeginConfig>

000d4c10 <_ZN11USARTSerial5beginEm>:
}
// Public Methods //////////////////////////////////////////////////////////////

void USARTSerial::begin(unsigned long baud)
{
  begin(baud, SERIAL_8N1);
   d4c10:	2200      	movs	r2, #0
   d4c12:	f7ff bff9 	b.w	d4c08 <_ZN11USARTSerial5beginEmm>
	...

000d4c18 <_Z22__fetch_global_Serial1v>:
static Ring_Buffer* serial1_rx_buffer = NULL;
static Ring_Buffer* serial1_tx_buffer = NULL;
#endif

USARTSerial& __fetch_global_Serial1()
{
   d4c18:	b538      	push	{r3, r4, r5, lr}
#if ((MODULE_FUNCTION == MOD_FUNC_USER_PART) || (MODULE_FUNCTION == MOD_FUNC_MONO_FIRMWARE))
	static USARTSerial serial1(HAL_USART_SERIAL1, &serial1_rx_buffer, &serial1_tx_buffer);
   d4c1a:	4d0c      	ldr	r5, [pc, #48]	; (d4c4c <_Z22__fetch_global_Serial1v+0x34>)
   d4c1c:	6829      	ldr	r1, [r5, #0]
   d4c1e:	f011 0401 	ands.w	r4, r1, #1
   d4c22:	d111      	bne.n	d4c48 <_Z22__fetch_global_Serial1v+0x30>
   d4c24:	4628      	mov	r0, r5
   d4c26:	f7ff fa3a 	bl	d409e <__cxa_guard_acquire>
   d4c2a:	b168      	cbz	r0, d4c48 <_Z22__fetch_global_Serial1v+0x30>
   d4c2c:	4a08      	ldr	r2, [pc, #32]	; (d4c50 <_Z22__fetch_global_Serial1v+0x38>)
   d4c2e:	4b09      	ldr	r3, [pc, #36]	; (d4c54 <_Z22__fetch_global_Serial1v+0x3c>)
   d4c30:	4809      	ldr	r0, [pc, #36]	; (d4c58 <_Z22__fetch_global_Serial1v+0x40>)
   d4c32:	4621      	mov	r1, r4
   d4c34:	f7ff ffd2 	bl	d4bdc <_ZN11USARTSerialC1E16HAL_USART_SerialP11Ring_BufferS2_>
   d4c38:	4628      	mov	r0, r5
   d4c3a:	f7ff fa35 	bl	d40a8 <__cxa_guard_release>
   d4c3e:	4a07      	ldr	r2, [pc, #28]	; (d4c5c <_Z22__fetch_global_Serial1v+0x44>)
   d4c40:	4907      	ldr	r1, [pc, #28]	; (d4c60 <_Z22__fetch_global_Serial1v+0x48>)
   d4c42:	4805      	ldr	r0, [pc, #20]	; (d4c58 <_Z22__fetch_global_Serial1v+0x40>)
   d4c44:	f000 f986 	bl	d4f54 <__aeabi_atexit>
    serial1_tx_buffer = new Ring_Buffer();
  }
  static USARTSerial serial1(HAL_USART_SERIAL1, serial1_rx_buffer, serial1_tx_buffer);
#endif
	return serial1;
}
   d4c48:	4803      	ldr	r0, [pc, #12]	; (d4c58 <_Z22__fetch_global_Serial1v+0x40>)
   d4c4a:	bd38      	pop	{r3, r4, r5, pc}
   d4c4c:	2003e4c8 	.word	0x2003e4c8
   d4c50:	2003e4cc 	.word	0x2003e4cc
   d4c54:	2003e444 	.word	0x2003e444
   d4c58:	2003e430 	.word	0x2003e430
   d4c5c:	2003e3ac 	.word	0x2003e3ac
   d4c60:	000d4b59 	.word	0x000d4b59

000d4c64 <_ZN5spark9MeshClass9listeningEv>:
    uint16_t getListenTimeout(void) {
        return network_get_listen_timeout(*this, 0, NULL);
    }

    bool listening(void) {
        return network_listening(*this, 0, NULL);
   d4c64:	2200      	movs	r2, #0
   d4c66:	4611      	mov	r1, r2
   d4c68:	6840      	ldr	r0, [r0, #4]
   d4c6a:	f7ff bb95 	b.w	d4398 <network_listening>

000d4c6e <_ZN5spark9MeshClass16getListenTimeoutEv>:
    void setListenTimeout(uint16_t timeout) {
        network_set_listen_timeout(*this, timeout, NULL);
    }

    uint16_t getListenTimeout(void) {
        return network_get_listen_timeout(*this, 0, NULL);
   d4c6e:	2200      	movs	r2, #0
   d4c70:	4611      	mov	r1, r2
   d4c72:	6840      	ldr	r0, [r0, #4]
   d4c74:	f7ff bba0 	b.w	d43b8 <network_get_listen_timeout>

000d4c78 <_ZN5spark9MeshClass16setListenTimeoutEt>:
    void listen(bool begin=true) {
        network_listen(*this, begin ? 0 : 1, NULL);
    }

    void setListenTimeout(uint16_t timeout) {
        network_set_listen_timeout(*this, timeout, NULL);
   d4c78:	2200      	movs	r2, #0
   d4c7a:	6840      	ldr	r0, [r0, #4]
   d4c7c:	f7ff bb94 	b.w	d43a8 <network_set_listen_timeout>

000d4c80 <_ZN5spark9MeshClass6listenEb>:
    void disconnect() {
        network_disconnect(*this, NETWORK_DISCONNECT_REASON_USER, NULL);
    }

    void listen(bool begin=true) {
        network_listen(*this, begin ? 0 : 1, NULL);
   d4c80:	2200      	movs	r2, #0
   d4c82:	f081 0101 	eor.w	r1, r1, #1
   d4c86:	6840      	ldr	r0, [r0, #4]
   d4c88:	f7ff bb7e 	b.w	d4388 <network_listen>

000d4c8c <_ZN5spark9MeshClass3offEv>:
    void on() {
        network_on(*this, 0, 0, NULL);
    }

    void off() {
        network_off(*this, 1, 0, NULL);
   d4c8c:	2300      	movs	r3, #0
   d4c8e:	461a      	mov	r2, r3
   d4c90:	2101      	movs	r1, #1
   d4c92:	6840      	ldr	r0, [r0, #4]
   d4c94:	f7ff bb70 	b.w	d4378 <network_off>

000d4c98 <_ZN5spark9MeshClass2onEv>:
    MeshClass() :
            NetworkClass(NETWORK_INTERFACE_MESH) {
    }

    void on() {
        network_on(*this, 0, 0, NULL);
   d4c98:	2300      	movs	r3, #0
   d4c9a:	461a      	mov	r2, r3
   d4c9c:	4619      	mov	r1, r3
   d4c9e:	6840      	ldr	r0, [r0, #4]
   d4ca0:	f7ff bb62 	b.w	d4368 <network_on>

000d4ca4 <_ZN5spark9MeshClass5readyEv>:
    bool listening(void) {
        return network_listening(*this, 0, NULL);
    }

    bool ready() {
        return network_ready(*this, 0,  NULL);
   d4ca4:	2200      	movs	r2, #0
   d4ca6:	4611      	mov	r1, r2
   d4ca8:	6840      	ldr	r0, [r0, #4]
   d4caa:	f7ff bb55 	b.w	d4358 <network_ready>

000d4cae <_ZN5spark9MeshClass10connectingEv>:
    void connect(unsigned flags=0) {
        network_connect(*this, flags, 0, NULL);
    }

    bool connecting(void) {
        return network_connecting(*this, 0, NULL);
   d4cae:	2200      	movs	r2, #0
   d4cb0:	4611      	mov	r1, r2
   d4cb2:	6840      	ldr	r0, [r0, #4]
   d4cb4:	f7ff bb40 	b.w	d4338 <network_connecting>

000d4cb8 <_ZN5spark9MeshClass10disconnectEv>:
    }

    void disconnect() {
        network_disconnect(*this, NETWORK_DISCONNECT_REASON_USER, NULL);
   d4cb8:	2200      	movs	r2, #0
   d4cba:	2102      	movs	r1, #2
   d4cbc:	6840      	ldr	r0, [r0, #4]
   d4cbe:	f7ff bb43 	b.w	d4348 <network_disconnect>

000d4cc2 <_ZN5spark9MeshClass7connectEj>:
    void off() {
        network_off(*this, 1, 0, NULL);
    }

    void connect(unsigned flags=0) {
        network_connect(*this, flags, 0, NULL);
   d4cc2:	2300      	movs	r3, #0
   d4cc4:	461a      	mov	r2, r3
   d4cc6:	6840      	ldr	r0, [r0, #4]
   d4cc8:	f7ff bb2e 	b.w	d4328 <network_connect>

000d4ccc <_ZNKSt14default_deleteIN6Thread4DataEEclEPS1_.isra.6>:
	       enable_if<is_convertible<_Up*, _Tp*>::value>::type>
        default_delete(const default_delete<_Up>&) noexcept { }

      /// Calls @c delete @p __ptr
      void
      operator()(_Tp* __ptr) const
   d4ccc:	b538      	push	{r3, r4, r5, lr}
      {
	static_assert(!is_void<_Tp>::value,
		      "can't delete pointer to incomplete type");
	static_assert(sizeof(_Tp)>0,
		      "can't delete pointer to incomplete type");
	delete __ptr;
   d4cce:	4605      	mov	r5, r0
   d4cd0:	b188      	cbz	r0, d4cf6 <_ZNKSt14default_deleteIN6Thread4DataEEclEPS1_.isra.6+0x2a>

      /// Destructor, invokes the deleter if the stored pointer is not null.
      ~unique_ptr() noexcept
      {
	auto& __ptr = std::get<0>(_M_t);
	if (__ptr != nullptr)
   d4cd2:	6804      	ldr	r4, [r0, #0]
   d4cd4:	b14c      	cbz	r4, d4cea <_ZNKSt14default_deleteIN6Thread4DataEEclEPS1_.isra.6+0x1e>

    ~_Function_base()
    {
      if (_M_manager)
   d4cd6:	68a3      	ldr	r3, [r4, #8]
   d4cd8:	b11b      	cbz	r3, d4ce2 <_ZNKSt14default_deleteIN6Thread4DataEEclEPS1_.isra.6+0x16>
	_M_manager(_M_functor, _M_functor, __destroy_functor);
   d4cda:	2203      	movs	r2, #3
   d4cdc:	4621      	mov	r1, r4
   d4cde:	4620      	mov	r0, r4
   d4ce0:	4798      	blx	r3
      {
	static_assert(!is_void<_Tp>::value,
		      "can't delete pointer to incomplete type");
	static_assert(sizeof(_Tp)>0,
		      "can't delete pointer to incomplete type");
	delete __ptr;
   d4ce2:	2110      	movs	r1, #16
   d4ce4:	4620      	mov	r0, r4
   d4ce6:	f000 f93a 	bl	d4f5e <_ZdlPvj>
   d4cea:	4628      	mov	r0, r5
   d4cec:	2114      	movs	r1, #20
      }
   d4cee:	e8bd 4038 	ldmia.w	sp!, {r3, r4, r5, lr}
      {
	static_assert(!is_void<_Tp>::value,
		      "can't delete pointer to incomplete type");
	static_assert(sizeof(_Tp)>0,
		      "can't delete pointer to incomplete type");
	delete __ptr;
   d4cf2:	f000 b934 	b.w	d4f5e <_ZdlPvj>
   d4cf6:	bd38      	pop	{r3, r4, r5, pc}

000d4cf8 <_ZNKSt14default_deleteI3UDPEclEPS0_.isra.8.constprop.13>:
   d4cf8:	b110      	cbz	r0, d4d00 <_ZNKSt14default_deleteI3UDPEclEPS0_.isra.8.constprop.13+0x8>
   d4cfa:	6803      	ldr	r3, [r0, #0]
   d4cfc:	685b      	ldr	r3, [r3, #4]
   d4cfe:	4718      	bx	r3
   d4d00:	4770      	bx	lr

000d4d02 <_ZN6ThreadD1Ev>:
    Thread(Thread&& thread)
        : d_(std::move(thread.d_))
    {
    }

    ~Thread()
   d4d02:	b510      	push	{r4, lr}
      }

      /// Return the stored pointer.
      pointer
      get() const noexcept
      { return std::get<0>(_M_t); }
   d4d04:	6803      	ldr	r3, [r0, #0]
   d4d06:	4604      	mov	r4, r0
        dispose();
    }

    void dispose()
    {
        if (!isValid())
   d4d08:	b1bb      	cbz	r3, d4d3a <_ZN6ThreadD1Ev+0x38>
        return isCurrent();
    }

    bool isCurrent() const
    {
        return isValid() && os_thread_is_current(d_->handle);
   d4d0a:	6858      	ldr	r0, [r3, #4]
   d4d0c:	f7ff fa50 	bl	d41b0 <os_thread_is_current>
   d4d10:	b978      	cbnz	r0, d4d32 <_ZN6ThreadD1Ev+0x30>
   d4d12:	6823      	ldr	r3, [r4, #0]

        // We shouldn't dispose of current thread
        if (isCurrent())
            return;

        if (!d_->exited) {
   d4d14:	7c5a      	ldrb	r2, [r3, #17]
   d4d16:	b912      	cbnz	r2, d4d1e <_ZN6ThreadD1Ev+0x1c>
        d_.reset();
    }

    bool join()
    {
        return isValid() && os_thread_join(d_->handle)==0;
   d4d18:	6858      	ldr	r0, [r3, #4]
   d4d1a:	f7ff fa51 	bl	d41c0 <os_thread_join>

        if (!d_->exited) {
            join();
        }

        os_thread_cleanup(d_->handle);
   d4d1e:	6823      	ldr	r3, [r4, #0]
   d4d20:	6858      	ldr	r0, [r3, #4]
   d4d22:	f7ff fa55 	bl	d41d0 <os_thread_cleanup>
#endif
    {
      // concept requirements
      __glibcxx_function_requires(_SGIAssignableConcept<_Tp>)

      _Tp __tmp = _GLIBCXX_MOVE(__a);
   d4d26:	6820      	ldr	r0, [r4, #0]
      __a = _GLIBCXX_MOVE(__b);
   d4d28:	2300      	movs	r3, #0
   d4d2a:	6023      	str	r3, [r4, #0]
      void
      reset(pointer __p = pointer()) noexcept
      {
	using std::swap;
	swap(std::get<0>(_M_t), __p);
	if (__p != pointer())
   d4d2c:	b128      	cbz	r0, d4d3a <_ZN6ThreadD1Ev+0x38>
	  get_deleter()(__p);
   d4d2e:	f7ff ffcd 	bl	d4ccc <_ZNKSt14default_deleteIN6Thread4DataEEclEPS1_.isra.6>

      /// Destructor, invokes the deleter if the stored pointer is not null.
      ~unique_ptr() noexcept
      {
	auto& __ptr = std::get<0>(_M_t);
	if (__ptr != nullptr)
   d4d32:	6820      	ldr	r0, [r4, #0]
   d4d34:	b108      	cbz	r0, d4d3a <_ZN6ThreadD1Ev+0x38>
	  get_deleter()(__ptr);
   d4d36:	f7ff ffc9 	bl	d4ccc <_ZNKSt14default_deleteIN6Thread4DataEEclEPS1_.isra.6>
    }

    ~Thread()
    {
        dispose();
    }
   d4d3a:	4620      	mov	r0, r4
   d4d3c:	bd10      	pop	{r4, pc}
	...

000d4d40 <_ZN5spark9MeshClassD1Ev>:
    RecursiveMutex mutex_;
    std::unique_ptr<uint8_t[]> buffer_;
    std::atomic_bool exit_;
};

class MeshClass : public NetworkClass, public MeshPublish {
   d4d40:	b538      	push	{r3, r4, r5, lr}
   d4d42:	4b0c      	ldr	r3, [pc, #48]	; (d4d74 <_ZN5spark9MeshClassD1Ev+0x34>)
   d4d44:	6003      	str	r3, [r0, #0]
   d4d46:	4604      	mov	r4, r0

      /// Destructor, invokes the deleter if the stored pointer is not null.
      ~unique_ptr()
      {
	auto& __ptr = std::get<0>(_M_t);
	if (__ptr != nullptr)
   d4d48:	f8d0 01cc 	ldr.w	r0, [r0, #460]	; 0x1cc
   d4d4c:	b108      	cbz	r0, d4d52 <_ZN5spark9MeshClassD1Ev+0x12>
      void
      operator()(_Tp* __ptr) const
      {
	static_assert(sizeof(_Tp)>0,
		      "can't delete pointer to incomplete type");
	delete [] __ptr;
   d4d4e:	f7ff f9a4 	bl	d409a <_ZdaPv>

      /// Destructor, invokes the deleter if the stored pointer is not null.
      ~unique_ptr() noexcept
      {
	auto& __ptr = std::get<0>(_M_t);
	if (__ptr != nullptr)
   d4d52:	f8d4 51c4 	ldr.w	r5, [r4, #452]	; 0x1c4
   d4d56:	b135      	cbz	r5, d4d66 <_ZN5spark9MeshClassD1Ev+0x26>
      {
	static_assert(!is_void<_Tp>::value,
		      "can't delete pointer to incomplete type");
	static_assert(sizeof(_Tp)>0,
		      "can't delete pointer to incomplete type");
	delete __ptr;
   d4d58:	4628      	mov	r0, r5
   d4d5a:	f7ff ffd2 	bl	d4d02 <_ZN6ThreadD1Ev>
   d4d5e:	2104      	movs	r1, #4
   d4d60:	4628      	mov	r0, r5
   d4d62:	f000 f8fc 	bl	d4f5e <_ZdlPvj>

      /// Destructor, invokes the deleter if the stored pointer is not null.
      ~unique_ptr() noexcept
      {
	auto& __ptr = std::get<0>(_M_t);
	if (__ptr != nullptr)
   d4d66:	68a0      	ldr	r0, [r4, #8]
   d4d68:	b108      	cbz	r0, d4d6e <_ZN5spark9MeshClassD1Ev+0x2e>
	  get_deleter()(__ptr);
   d4d6a:	f7ff ffc5 	bl	d4cf8 <_ZNKSt14default_deleteI3UDPEclEPS0_.isra.8.constprop.13>
   d4d6e:	4620      	mov	r0, r4
   d4d70:	bd38      	pop	{r3, r4, r5, pc}
   d4d72:	bf00      	nop
   d4d74:	000d54e8 	.word	0x000d54e8

000d4d78 <_GLOBAL__sub_I__ZN5spark11MeshPublish13Subscriptions20event_handler_existsEPKcPFvS3_S3_EPvN17SubscriptionScope4EnumES3_>:

    return addr;
}

MeshClass Mesh;
} // namespace spark
   d4d78:	b538      	push	{r3, r4, r5, lr}
   d4d7a:	4c0e      	ldr	r4, [pc, #56]	; (d4db4 <_GLOBAL__sub_I__ZN5spark11MeshPublish13Subscriptions20event_handler_existsEPKcPFvS3_S3_EPvN17SubscriptionScope4EnumES3_+0x3c>)
   d4d7c:	4b0e      	ldr	r3, [pc, #56]	; (d4db8 <_GLOBAL__sub_I__ZN5spark11MeshPublish13Subscriptions20event_handler_existsEPKcPFvS3_S3_EPvN17SubscriptionScope4EnumES3_+0x40>)
   d4d7e:	6023      	str	r3, [r4, #0]

  template<std::size_t _Idx, typename _Head>
    struct _Head_base<_Idx, _Head, false>
    {
      constexpr _Head_base()
      : _M_head_impl() { }
   d4d80:	2500      	movs	r5, #0
   d4d82:	2302      	movs	r3, #2
     */
    RecursiveMutex(os_mutex_recursive_t handle) : handle_(handle) {}

    RecursiveMutex() : handle_(nullptr)
    {
        os_mutex_recursive_create(&handle_);
   d4d84:	f504 70e4 	add.w	r0, r4, #456	; 0x1c8
   d4d88:	6063      	str	r3, [r4, #4]
   d4d8a:	60a5      	str	r5, [r4, #8]
   d4d8c:	f8c4 51c4 	str.w	r5, [r4, #452]	; 0x1c4
    /**
     * Creates a shared mutex.
     */
    RecursiveMutex(os_mutex_recursive_t handle) : handle_(handle) {}

    RecursiveMutex() : handle_(nullptr)
   d4d90:	f8c4 51c8 	str.w	r5, [r4, #456]	; 0x1c8
    {
        os_mutex_recursive_create(&handle_);
   d4d94:	f7ff fa2c 	bl	d41f0 <os_mutex_recursive_create>
public:
    MeshClass() :
            NetworkClass(NETWORK_INTERFACE_MESH) {
   d4d98:	4b08      	ldr	r3, [pc, #32]	; (d4dbc <_GLOBAL__sub_I__ZN5spark11MeshPublish13Subscriptions20event_handler_existsEPKcPFvS3_S3_EPvN17SubscriptionScope4EnumES3_+0x44>)
   d4d9a:	f8c4 51cc 	str.w	r5, [r4, #460]	; 0x1cc
      __atomic_base(const __atomic_base&) = delete;
      __atomic_base& operator=(const __atomic_base&) = delete;
      __atomic_base& operator=(const __atomic_base&) volatile = delete;

      // Requires __int_type convertible to _M_i.
      constexpr __atomic_base(__int_type __i) noexcept : _M_i (__i) { }
   d4d9e:	f884 51d0 	strb.w	r5, [r4, #464]	; 0x1d0
   d4da2:	6023      	str	r3, [r4, #0]
    }

    return addr;
}

MeshClass Mesh;
   d4da4:	4620      	mov	r0, r4
   d4da6:	4a06      	ldr	r2, [pc, #24]	; (d4dc0 <_GLOBAL__sub_I__ZN5spark11MeshPublish13Subscriptions20event_handler_existsEPKcPFvS3_S3_EPvN17SubscriptionScope4EnumES3_+0x48>)
   d4da8:	4906      	ldr	r1, [pc, #24]	; (d4dc4 <_GLOBAL__sub_I__ZN5spark11MeshPublish13Subscriptions20event_handler_existsEPKcPFvS3_S3_EPvN17SubscriptionScope4EnumES3_+0x4c>)
} // namespace spark
   d4daa:	e8bd 4038 	ldmia.w	sp!, {r3, r4, r5, lr}
    }

    return addr;
}

MeshClass Mesh;
   d4dae:	f000 b8d1 	b.w	d4f54 <__aeabi_atexit>
   d4db2:	bf00      	nop
   d4db4:	2003e550 	.word	0x2003e550
   d4db8:	000d551c 	.word	0x000d551c
   d4dbc:	000d54e8 	.word	0x000d54e8
   d4dc0:	2003e3ac 	.word	0x2003e3ac
   d4dc4:	000d4d41 	.word	0x000d4d41

000d4dc8 <_ZN5spark12NetworkClass7connectEj>:
        return Network;
    }
}

void NetworkClass::connect(unsigned flags) {
    network_connect(*this, flags, 0, nullptr);
   d4dc8:	2300      	movs	r3, #0
   d4dca:	461a      	mov	r2, r3
   d4dcc:	6840      	ldr	r0, [r0, #4]
   d4dce:	f7ff baab 	b.w	d4328 <network_connect>

000d4dd2 <_ZN5spark12NetworkClass10disconnectEv>:
}

void NetworkClass::disconnect() {
    network_disconnect(*this, NETWORK_DISCONNECT_REASON_USER, nullptr);
   d4dd2:	2200      	movs	r2, #0
   d4dd4:	2102      	movs	r1, #2
   d4dd6:	6840      	ldr	r0, [r0, #4]
   d4dd8:	f7ff bab6 	b.w	d4348 <network_disconnect>

000d4ddc <_ZN5spark12NetworkClass10connectingEv>:
}

bool NetworkClass::connecting() {
    return network_connecting(*this, 0, nullptr);
   d4ddc:	2200      	movs	r2, #0
   d4dde:	4611      	mov	r1, r2
   d4de0:	6840      	ldr	r0, [r0, #4]
   d4de2:	f7ff baa9 	b.w	d4338 <network_connecting>

000d4de6 <_ZN5spark12NetworkClass5readyEv>:
}

bool NetworkClass::ready() {
    return network_ready(*this, 0, nullptr);
   d4de6:	2200      	movs	r2, #0
   d4de8:	4611      	mov	r1, r2
   d4dea:	6840      	ldr	r0, [r0, #4]
   d4dec:	f7ff bab4 	b.w	d4358 <network_ready>

000d4df0 <_ZN5spark12NetworkClass2onEv>:
}

void NetworkClass::on() {
    network_on(*this, 0, 0, nullptr);
   d4df0:	2300      	movs	r3, #0
   d4df2:	461a      	mov	r2, r3
   d4df4:	4619      	mov	r1, r3
   d4df6:	6840      	ldr	r0, [r0, #4]
   d4df8:	f7ff bab6 	b.w	d4368 <network_on>

000d4dfc <_ZN5spark12NetworkClass3offEv>:
}

void NetworkClass::off() {
    network_off(*this, 0, 0, nullptr);
   d4dfc:	2300      	movs	r3, #0
   d4dfe:	461a      	mov	r2, r3
   d4e00:	4619      	mov	r1, r3
   d4e02:	6840      	ldr	r0, [r0, #4]
   d4e04:	f7ff bab8 	b.w	d4378 <network_off>

000d4e08 <_ZN5spark12NetworkClass6listenEb>:
}

void NetworkClass::listen(bool begin) {
    network_listen(*this, begin ? 0 : 1, nullptr);
   d4e08:	2200      	movs	r2, #0
   d4e0a:	f081 0101 	eor.w	r1, r1, #1
   d4e0e:	6840      	ldr	r0, [r0, #4]
   d4e10:	f7ff baba 	b.w	d4388 <network_listen>

000d4e14 <_ZN5spark12NetworkClass16setListenTimeoutEt>:
}

void NetworkClass::setListenTimeout(uint16_t timeout) {
    network_set_listen_timeout(*this, timeout, nullptr);
   d4e14:	2200      	movs	r2, #0
   d4e16:	6840      	ldr	r0, [r0, #4]
   d4e18:	f7ff bac6 	b.w	d43a8 <network_set_listen_timeout>

000d4e1c <_ZN5spark12NetworkClass16getListenTimeoutEv>:
}

uint16_t NetworkClass::getListenTimeout() {
    return network_get_listen_timeout(*this, 0, nullptr);
   d4e1c:	2200      	movs	r2, #0
   d4e1e:	4611      	mov	r1, r2
   d4e20:	6840      	ldr	r0, [r0, #4]
   d4e22:	f7ff bac9 	b.w	d43b8 <network_get_listen_timeout>

000d4e26 <_ZN5spark12NetworkClass9listeningEv>:
}

bool NetworkClass::listening() {
    return network_listening(*this, 0, nullptr);
   d4e26:	2200      	movs	r2, #0
   d4e28:	4611      	mov	r1, r2
   d4e2a:	6840      	ldr	r0, [r0, #4]
   d4e2c:	f7ff bab4 	b.w	d4398 <network_listening>

000d4e30 <_ZN5spark12NetworkClass7resolveEPKc>:
}

IPAddress NetworkClass::resolve(const char* name) {
   d4e30:	e92d 43f0 	stmdb	sp!, {r4, r5, r6, r7, r8, r9, lr}
    IPAddress addr;
#if HAL_USE_INET_HAL_POSIX
    struct addrinfo *ai = nullptr;
   d4e34:	2400      	movs	r4, #0

bool NetworkClass::listening() {
    return network_listening(*this, 0, nullptr);
}

IPAddress NetworkClass::resolve(const char* name) {
   d4e36:	b095      	sub	sp, #84	; 0x54
   d4e38:	4616      	mov	r6, r2
   d4e3a:	460d      	mov	r5, r1
   d4e3c:	4607      	mov	r7, r0
    IPAddress addr;
   d4e3e:	f7ff fd83 	bl	d4948 <_ZN9IPAddressC1Ev>
#if HAL_USE_INET_HAL_POSIX
    struct addrinfo *ai = nullptr;
    struct addrinfo hints = {};
   d4e42:	4621      	mov	r1, r4
   d4e44:	2220      	movs	r2, #32
   d4e46:	a80c      	add	r0, sp, #48	; 0x30
}

IPAddress NetworkClass::resolve(const char* name) {
    IPAddress addr;
#if HAL_USE_INET_HAL_POSIX
    struct addrinfo *ai = nullptr;
   d4e48:	9400      	str	r4, [sp, #0]
    struct addrinfo hints = {};
   d4e4a:	f000 f9ec 	bl	d5226 <memset>
    hints.ai_flags = AI_ADDRCONFIG;
   d4e4e:	2340      	movs	r3, #64	; 0x40
   d4e50:	930c      	str	r3, [sp, #48]	; 0x30
    hints.ai_family = AF_UNSPEC;
    const int r = getaddrinfo(name, nullptr, &hints, &ai);
   d4e52:	4621      	mov	r1, r4
   d4e54:	466b      	mov	r3, sp
   d4e56:	aa0c      	add	r2, sp, #48	; 0x30
   d4e58:	4630      	mov	r0, r6
   d4e5a:	f7ff f981 	bl	d4160 <netdb_getaddrinfo>
    if (!r) {
   d4e5e:	4604      	mov	r4, r0
   d4e60:	2800      	cmp	r0, #0
   d4e62:	d144      	bne.n	d4eee <_ZN5spark12NetworkClass7resolveEPKc+0xbe>
        bool ok = false;
        // This is not really needed if AI_ADDRCONFIG is properly supported
        bool ipv4 = network_ready(*this, NETWORK_READY_TYPE_IPV4, nullptr);
   d4e64:	4602      	mov	r2, r0
   d4e66:	2101      	movs	r1, #1
   d4e68:	6868      	ldr	r0, [r5, #4]
   d4e6a:	f7ff fa75 	bl	d4358 <network_ready>
        bool ipv6 = network_ready(*this, NETWORK_READY_TYPE_IPV6, nullptr);
   d4e6e:	2102      	movs	r1, #2
    hints.ai_family = AF_UNSPEC;
    const int r = getaddrinfo(name, nullptr, &hints, &ai);
    if (!r) {
        bool ok = false;
        // This is not really needed if AI_ADDRCONFIG is properly supported
        bool ipv4 = network_ready(*this, NETWORK_READY_TYPE_IPV4, nullptr);
   d4e70:	4680      	mov	r8, r0
        bool ipv6 = network_ready(*this, NETWORK_READY_TYPE_IPV6, nullptr);
   d4e72:	4622      	mov	r2, r4
   d4e74:	6868      	ldr	r0, [r5, #4]
   d4e76:	f7ff fa6f 	bl	d4358 <network_ready>
        for (auto cur = ai; cur != nullptr && !ok; cur = cur->ai_next) {
   d4e7a:	9e00      	ldr	r6, [sp, #0]
    const int r = getaddrinfo(name, nullptr, &hints, &ai);
    if (!r) {
        bool ok = false;
        // This is not really needed if AI_ADDRCONFIG is properly supported
        bool ipv4 = network_ready(*this, NETWORK_READY_TYPE_IPV4, nullptr);
        bool ipv6 = network_ready(*this, NETWORK_READY_TYPE_IPV6, nullptr);
   d4e7c:	4681      	mov	r9, r0
    struct addrinfo hints = {};
    hints.ai_flags = AI_ADDRCONFIG;
    hints.ai_family = AF_UNSPEC;
    const int r = getaddrinfo(name, nullptr, &hints, &ai);
    if (!r) {
        bool ok = false;
   d4e7e:	4621      	mov	r1, r4
        // This is not really needed if AI_ADDRCONFIG is properly supported
        bool ipv4 = network_ready(*this, NETWORK_READY_TYPE_IPV4, nullptr);
        bool ipv6 = network_ready(*this, NETWORK_READY_TYPE_IPV6, nullptr);
        for (auto cur = ai; cur != nullptr && !ok; cur = cur->ai_next) {
   d4e80:	2e00      	cmp	r6, #0
   d4e82:	d034      	beq.n	d4eee <_ZN5spark12NetworkClass7resolveEPKc+0xbe>
   d4e84:	2900      	cmp	r1, #0
   d4e86:	d132      	bne.n	d4eee <_ZN5spark12NetworkClass7resolveEPKc+0xbe>
            // NOTE: using only the first entry that matches the current state of IPv4/IPv6 connectivity
            switch (cur->ai_family) {
   d4e88:	6873      	ldr	r3, [r6, #4]
   d4e8a:	2b02      	cmp	r3, #2
   d4e8c:	d002      	beq.n	d4e94 <_ZN5spark12NetworkClass7resolveEPKc+0x64>
   d4e8e:	2b0a      	cmp	r3, #10
   d4e90:	d009      	beq.n	d4ea6 <_ZN5spark12NetworkClass7resolveEPKc+0x76>
   d4e92:	e02a      	b.n	d4eea <_ZN5spark12NetworkClass7resolveEPKc+0xba>
                case AF_INET: {
                    if (!ipv4) {
   d4e94:	f1b8 0f00 	cmp.w	r8, #0
   d4e98:	d027      	beq.n	d4eea <_ZN5spark12NetworkClass7resolveEPKc+0xba>
                        continue;
                    }
                    // NOTE: HAL_IPAddress is little-endian
                    auto in = (struct sockaddr_in*)cur->ai_addr;
                    addr = (const uint8_t*)(&in->sin_addr.s_addr);
   d4e9a:	6971      	ldr	r1, [r6, #20]
   d4e9c:	4638      	mov	r0, r7
   d4e9e:	3104      	adds	r1, #4
   d4ea0:	f7ff fd7f 	bl	d49a2 <_ZN9IPAddressaSEPKh>
   d4ea4:	e020      	b.n	d4ee8 <_ZN5spark12NetworkClass7resolveEPKc+0xb8>
                    ok = true;
                    break;
                }
                case AF_INET6: {
                    if (!ipv6) {
   d4ea6:	f1b9 0f00 	cmp.w	r9, #0
   d4eaa:	d01e      	beq.n	d4eea <_ZN5spark12NetworkClass7resolveEPKc+0xba>
                        continue;
                    }
                    auto in6 = (struct sockaddr_in6*)cur->ai_addr;
   d4eac:	6974      	ldr	r4, [r6, #20]
                    HAL_IPAddress a = {};
   d4eae:	2211      	movs	r2, #17
   d4eb0:	a801      	add	r0, sp, #4
   d4eb2:	f000 f9b8 	bl	d5226 <memset>
                    a.v = 6;
   d4eb6:	2306      	movs	r3, #6
   d4eb8:	f88d 3014 	strb.w	r3, [sp, #20]
                    memcpy(a.ipv6, in6->sin6_addr.s6_addr, sizeof(a.ipv6));
   d4ebc:	ad01      	add	r5, sp, #4
   d4ebe:	f104 0308 	add.w	r3, r4, #8
   d4ec2:	3418      	adds	r4, #24
   d4ec4:	6818      	ldr	r0, [r3, #0]
   d4ec6:	6859      	ldr	r1, [r3, #4]
   d4ec8:	462a      	mov	r2, r5
   d4eca:	c203      	stmia	r2!, {r0, r1}
   d4ecc:	3308      	adds	r3, #8
   d4ece:	42a3      	cmp	r3, r4
   d4ed0:	4615      	mov	r5, r2
   d4ed2:	d1f7      	bne.n	d4ec4 <_ZN5spark12NetworkClass7resolveEPKc+0x94>
                    addr = IPAddress(a);
   d4ed4:	a901      	add	r1, sp, #4
   d4ed6:	a806      	add	r0, sp, #24

/**
 * The IP address stored in host order.
 *
 */
class IPAddress : public Printable {
   d4ed8:	ad07      	add	r5, sp, #28
   d4eda:	f7ff fd43 	bl	d4964 <_ZN9IPAddressC1ERK16_HAL_IPAddress_t>
   d4ede:	cd0f      	ldmia	r5!, {r0, r1, r2, r3}
   d4ee0:	1d3c      	adds	r4, r7, #4
   d4ee2:	c40f      	stmia	r4!, {r0, r1, r2, r3}
   d4ee4:	682b      	ldr	r3, [r5, #0]
   d4ee6:	7023      	strb	r3, [r4, #0]
                    ok = true;
   d4ee8:	2101      	movs	r1, #1
    if (!r) {
        bool ok = false;
        // This is not really needed if AI_ADDRCONFIG is properly supported
        bool ipv4 = network_ready(*this, NETWORK_READY_TYPE_IPV4, nullptr);
        bool ipv6 = network_ready(*this, NETWORK_READY_TYPE_IPV6, nullptr);
        for (auto cur = ai; cur != nullptr && !ok; cur = cur->ai_next) {
   d4eea:	69f6      	ldr	r6, [r6, #28]
   d4eec:	e7c8      	b.n	d4e80 <_ZN5spark12NetworkClass7resolveEPKc+0x50>
                    break;
                }
            }
        }
    }
    freeaddrinfo(ai);
   d4eee:	9800      	ldr	r0, [sp, #0]
   d4ef0:	f7ff f92e 	bl	d4150 <netdb_freeaddrinfo>
    return Cellular.resolve(name);
#endif // Wiring_Cellular

#endif // HAL_USE_INET_HAL_POSIX
    return addr;
}
   d4ef4:	4638      	mov	r0, r7
   d4ef6:	b015      	add	sp, #84	; 0x54
   d4ef8:	e8bd 83f0 	ldmia.w	sp!, {r4, r5, r6, r7, r8, r9, pc}

000d4efc <_GLOBAL__sub_I__ZN5spark7NetworkE>:
   d4efc:	4b02      	ldr	r3, [pc, #8]	; (d4f08 <_GLOBAL__sub_I__ZN5spark7NetworkE+0xc>)
   d4efe:	4a03      	ldr	r2, [pc, #12]	; (d4f0c <_GLOBAL__sub_I__ZN5spark7NetworkE+0x10>)
   d4f00:	601a      	str	r2, [r3, #0]
   d4f02:	2200      	movs	r2, #0
   d4f04:	605a      	str	r2, [r3, #4]
   d4f06:	4770      	bx	lr
   d4f08:	2003e724 	.word	0x2003e724
   d4f0c:	000d551c 	.word	0x000d551c

000d4f10 <_GLOBAL__sub_I_SPI>:
#ifndef SPARK_WIRING_NO_SPI

SPIClass SPI(HAL_SPI_INTERFACE1);

#if Wiring_SPI1
SPIClass SPI1(HAL_SPI_INTERFACE2);
   d4f10:	b570      	push	{r4, r5, r6, lr}
#include "core_hal.h"
#include "spark_macros.h"

#ifndef SPARK_WIRING_NO_SPI

SPIClass SPI(HAL_SPI_INTERFACE1);
   d4f12:	4c0c      	ldr	r4, [pc, #48]	; (d4f44 <_GLOBAL__sub_I_SPI+0x34>)
   d4f14:	4e0c      	ldr	r6, [pc, #48]	; (d4f48 <_GLOBAL__sub_I_SPI+0x38>)
   d4f16:	4d0d      	ldr	r5, [pc, #52]	; (d4f4c <_GLOBAL__sub_I_SPI+0x3c>)
   d4f18:	2100      	movs	r1, #0
   d4f1a:	4620      	mov	r0, r4
   d4f1c:	f7ff fac2 	bl	d44a4 <_ZN8SPIClassC1E17HAL_SPI_Interface>
   d4f20:	4620      	mov	r0, r4

#if Wiring_SPI1
SPIClass SPI1(HAL_SPI_INTERFACE2);
   d4f22:	4c0b      	ldr	r4, [pc, #44]	; (d4f50 <_GLOBAL__sub_I_SPI+0x40>)
#include "core_hal.h"
#include "spark_macros.h"

#ifndef SPARK_WIRING_NO_SPI

SPIClass SPI(HAL_SPI_INTERFACE1);
   d4f24:	4632      	mov	r2, r6
   d4f26:	4629      	mov	r1, r5
   d4f28:	f000 f814 	bl	d4f54 <__aeabi_atexit>

#if Wiring_SPI1
SPIClass SPI1(HAL_SPI_INTERFACE2);
   d4f2c:	2101      	movs	r1, #1
   d4f2e:	4620      	mov	r0, r4
   d4f30:	f7ff fab8 	bl	d44a4 <_ZN8SPIClassC1E17HAL_SPI_Interface>
   d4f34:	4632      	mov	r2, r6
   d4f36:	4629      	mov	r1, r5
   d4f38:	4620      	mov	r0, r4
   d4f3a:	e8bd 4070 	ldmia.w	sp!, {r4, r5, r6, lr}
   d4f3e:	f000 b809 	b.w	d4f54 <__aeabi_atexit>
   d4f42:	bf00      	nop
   d4f44:	2003e72c 	.word	0x2003e72c
   d4f48:	2003e3ac 	.word	0x2003e3ac
   d4f4c:	000d4495 	.word	0x000d4495
   d4f50:	2003e73c 	.word	0x2003e73c

000d4f54 <__aeabi_atexit>:
   d4f54:	460b      	mov	r3, r1
   d4f56:	4601      	mov	r1, r0
   d4f58:	4618      	mov	r0, r3
   d4f5a:	f000 b94b 	b.w	d51f4 <__cxa_atexit>

000d4f5e <_ZdlPvj>:
   d4f5e:	f7ff b89a 	b.w	d4096 <_ZdlPv>
	...

000d4f64 <_GLOBAL__sub_I__ZNSt12ctype_bynameIcEC2ERKNSt7__cxx1112basic_stringIcSt11char_traitsIcESaIcEEEj>:
   d4f64:	4b18      	ldr	r3, [pc, #96]	; (d4fc8 <_GLOBAL__sub_I__ZNSt12ctype_bynameIcEC2ERKNSt7__cxx1112basic_stringIcSt11char_traitsIcESaIcEEEj+0x64>)
   d4f66:	681a      	ldr	r2, [r3, #0]
   d4f68:	07d1      	lsls	r1, r2, #31
   d4f6a:	bf5c      	itt	pl
   d4f6c:	2201      	movpl	r2, #1
   d4f6e:	601a      	strpl	r2, [r3, #0]
   d4f70:	4b16      	ldr	r3, [pc, #88]	; (d4fcc <_GLOBAL__sub_I__ZNSt12ctype_bynameIcEC2ERKNSt7__cxx1112basic_stringIcSt11char_traitsIcESaIcEEEj+0x68>)
   d4f72:	681a      	ldr	r2, [r3, #0]
   d4f74:	07d2      	lsls	r2, r2, #31
   d4f76:	bf5c      	itt	pl
   d4f78:	2201      	movpl	r2, #1
   d4f7a:	601a      	strpl	r2, [r3, #0]
   d4f7c:	4b14      	ldr	r3, [pc, #80]	; (d4fd0 <_GLOBAL__sub_I__ZNSt12ctype_bynameIcEC2ERKNSt7__cxx1112basic_stringIcSt11char_traitsIcESaIcEEEj+0x6c>)
   d4f7e:	681a      	ldr	r2, [r3, #0]
   d4f80:	07d0      	lsls	r0, r2, #31
   d4f82:	bf5c      	itt	pl
   d4f84:	2201      	movpl	r2, #1
   d4f86:	601a      	strpl	r2, [r3, #0]
   d4f88:	4b12      	ldr	r3, [pc, #72]	; (d4fd4 <_GLOBAL__sub_I__ZNSt12ctype_bynameIcEC2ERKNSt7__cxx1112basic_stringIcSt11char_traitsIcESaIcEEEj+0x70>)
   d4f8a:	681a      	ldr	r2, [r3, #0]
   d4f8c:	07d1      	lsls	r1, r2, #31
   d4f8e:	bf5c      	itt	pl
   d4f90:	2201      	movpl	r2, #1
   d4f92:	601a      	strpl	r2, [r3, #0]
   d4f94:	4b10      	ldr	r3, [pc, #64]	; (d4fd8 <_GLOBAL__sub_I__ZNSt12ctype_bynameIcEC2ERKNSt7__cxx1112basic_stringIcSt11char_traitsIcESaIcEEEj+0x74>)
   d4f96:	681a      	ldr	r2, [r3, #0]
   d4f98:	07d2      	lsls	r2, r2, #31
   d4f9a:	bf5c      	itt	pl
   d4f9c:	2201      	movpl	r2, #1
   d4f9e:	601a      	strpl	r2, [r3, #0]
   d4fa0:	4b0e      	ldr	r3, [pc, #56]	; (d4fdc <_GLOBAL__sub_I__ZNSt12ctype_bynameIcEC2ERKNSt7__cxx1112basic_stringIcSt11char_traitsIcESaIcEEEj+0x78>)
   d4fa2:	681a      	ldr	r2, [r3, #0]
   d4fa4:	07d0      	lsls	r0, r2, #31
   d4fa6:	bf5c      	itt	pl
   d4fa8:	2201      	movpl	r2, #1
   d4faa:	601a      	strpl	r2, [r3, #0]
   d4fac:	4b0c      	ldr	r3, [pc, #48]	; (d4fe0 <_GLOBAL__sub_I__ZNSt12ctype_bynameIcEC2ERKNSt7__cxx1112basic_stringIcSt11char_traitsIcESaIcEEEj+0x7c>)
   d4fae:	681a      	ldr	r2, [r3, #0]
   d4fb0:	07d1      	lsls	r1, r2, #31
   d4fb2:	bf5c      	itt	pl
   d4fb4:	2201      	movpl	r2, #1
   d4fb6:	601a      	strpl	r2, [r3, #0]
   d4fb8:	4b0a      	ldr	r3, [pc, #40]	; (d4fe4 <_GLOBAL__sub_I__ZNSt12ctype_bynameIcEC2ERKNSt7__cxx1112basic_stringIcSt11char_traitsIcESaIcEEEj+0x80>)
   d4fba:	681a      	ldr	r2, [r3, #0]
   d4fbc:	07d2      	lsls	r2, r2, #31
   d4fbe:	bf5c      	itt	pl
   d4fc0:	2201      	movpl	r2, #1
   d4fc2:	601a      	strpl	r2, [r3, #0]
   d4fc4:	4770      	bx	lr
   d4fc6:	bf00      	nop
   d4fc8:	2003e76c 	.word	0x2003e76c
   d4fcc:	2003e768 	.word	0x2003e768
   d4fd0:	2003e764 	.word	0x2003e764
   d4fd4:	2003e760 	.word	0x2003e760
   d4fd8:	2003e75c 	.word	0x2003e75c
   d4fdc:	2003e758 	.word	0x2003e758
   d4fe0:	2003e754 	.word	0x2003e754
   d4fe4:	2003e750 	.word	0x2003e750

000d4fe8 <_GLOBAL__sub_I__ZNSt12ctype_bynameIwEC2ERKSsj>:
   d4fe8:	4b24      	ldr	r3, [pc, #144]	; (d507c <_GLOBAL__sub_I__ZNSt12ctype_bynameIwEC2ERKSsj+0x94>)
   d4fea:	681a      	ldr	r2, [r3, #0]
   d4fec:	07d0      	lsls	r0, r2, #31
   d4fee:	bf5c      	itt	pl
   d4ff0:	2201      	movpl	r2, #1
   d4ff2:	601a      	strpl	r2, [r3, #0]
   d4ff4:	4b22      	ldr	r3, [pc, #136]	; (d5080 <_GLOBAL__sub_I__ZNSt12ctype_bynameIwEC2ERKSsj+0x98>)
   d4ff6:	681a      	ldr	r2, [r3, #0]
   d4ff8:	07d1      	lsls	r1, r2, #31
   d4ffa:	bf5c      	itt	pl
   d4ffc:	2201      	movpl	r2, #1
   d4ffe:	601a      	strpl	r2, [r3, #0]
   d5000:	4b20      	ldr	r3, [pc, #128]	; (d5084 <_GLOBAL__sub_I__ZNSt12ctype_bynameIwEC2ERKSsj+0x9c>)
   d5002:	681a      	ldr	r2, [r3, #0]
   d5004:	07d2      	lsls	r2, r2, #31
   d5006:	bf5c      	itt	pl
   d5008:	2201      	movpl	r2, #1
   d500a:	601a      	strpl	r2, [r3, #0]
   d500c:	4b1e      	ldr	r3, [pc, #120]	; (d5088 <_GLOBAL__sub_I__ZNSt12ctype_bynameIwEC2ERKSsj+0xa0>)
   d500e:	681a      	ldr	r2, [r3, #0]
   d5010:	07d0      	lsls	r0, r2, #31
   d5012:	bf5c      	itt	pl
   d5014:	2201      	movpl	r2, #1
   d5016:	601a      	strpl	r2, [r3, #0]
   d5018:	4b1c      	ldr	r3, [pc, #112]	; (d508c <_GLOBAL__sub_I__ZNSt12ctype_bynameIwEC2ERKSsj+0xa4>)
   d501a:	681a      	ldr	r2, [r3, #0]
   d501c:	07d1      	lsls	r1, r2, #31
   d501e:	bf5c      	itt	pl
   d5020:	2201      	movpl	r2, #1
   d5022:	601a      	strpl	r2, [r3, #0]
   d5024:	4b1a      	ldr	r3, [pc, #104]	; (d5090 <_GLOBAL__sub_I__ZNSt12ctype_bynameIwEC2ERKSsj+0xa8>)
   d5026:	681a      	ldr	r2, [r3, #0]
   d5028:	07d2      	lsls	r2, r2, #31
   d502a:	bf5c      	itt	pl
   d502c:	2201      	movpl	r2, #1
   d502e:	601a      	strpl	r2, [r3, #0]
   d5030:	4b18      	ldr	r3, [pc, #96]	; (d5094 <_GLOBAL__sub_I__ZNSt12ctype_bynameIwEC2ERKSsj+0xac>)
   d5032:	681a      	ldr	r2, [r3, #0]
   d5034:	07d0      	lsls	r0, r2, #31
   d5036:	bf5c      	itt	pl
   d5038:	2201      	movpl	r2, #1
   d503a:	601a      	strpl	r2, [r3, #0]
   d503c:	4b16      	ldr	r3, [pc, #88]	; (d5098 <_GLOBAL__sub_I__ZNSt12ctype_bynameIwEC2ERKSsj+0xb0>)
   d503e:	681a      	ldr	r2, [r3, #0]
   d5040:	07d1      	lsls	r1, r2, #31
   d5042:	bf5c      	itt	pl
   d5044:	2201      	movpl	r2, #1
   d5046:	601a      	strpl	r2, [r3, #0]
   d5048:	4b14      	ldr	r3, [pc, #80]	; (d509c <_GLOBAL__sub_I__ZNSt12ctype_bynameIwEC2ERKSsj+0xb4>)
   d504a:	681a      	ldr	r2, [r3, #0]
   d504c:	07d2      	lsls	r2, r2, #31
   d504e:	bf5c      	itt	pl
   d5050:	2201      	movpl	r2, #1
   d5052:	601a      	strpl	r2, [r3, #0]
   d5054:	4b12      	ldr	r3, [pc, #72]	; (d50a0 <_GLOBAL__sub_I__ZNSt12ctype_bynameIwEC2ERKSsj+0xb8>)
   d5056:	681a      	ldr	r2, [r3, #0]
   d5058:	07d0      	lsls	r0, r2, #31
   d505a:	bf5c      	itt	pl
   d505c:	2201      	movpl	r2, #1
   d505e:	601a      	strpl	r2, [r3, #0]
   d5060:	4b10      	ldr	r3, [pc, #64]	; (d50a4 <_GLOBAL__sub_I__ZNSt12ctype_bynameIwEC2ERKSsj+0xbc>)
   d5062:	681a      	ldr	r2, [r3, #0]
   d5064:	07d1      	lsls	r1, r2, #31
   d5066:	bf5c      	itt	pl
   d5068:	2201      	movpl	r2, #1
   d506a:	601a      	strpl	r2, [r3, #0]
   d506c:	4b0e      	ldr	r3, [pc, #56]	; (d50a8 <_GLOBAL__sub_I__ZNSt12ctype_bynameIwEC2ERKSsj+0xc0>)
   d506e:	681a      	ldr	r2, [r3, #0]
   d5070:	07d2      	lsls	r2, r2, #31
   d5072:	bf5c      	itt	pl
   d5074:	2201      	movpl	r2, #1
   d5076:	601a      	strpl	r2, [r3, #0]
   d5078:	4770      	bx	lr
   d507a:	bf00      	nop
   d507c:	2003e79c 	.word	0x2003e79c
   d5080:	2003e798 	.word	0x2003e798
   d5084:	2003e794 	.word	0x2003e794
   d5088:	2003e790 	.word	0x2003e790
   d508c:	2003e78c 	.word	0x2003e78c
   d5090:	2003e788 	.word	0x2003e788
   d5094:	2003e784 	.word	0x2003e784
   d5098:	2003e780 	.word	0x2003e780
   d509c:	2003e77c 	.word	0x2003e77c
   d50a0:	2003e778 	.word	0x2003e778
   d50a4:	2003e774 	.word	0x2003e774
   d50a8:	2003e770 	.word	0x2003e770

000d50ac <_GLOBAL__sub_I__ZNSt12ctype_bynameIcEC2ERKSsj>:
   d50ac:	4b24      	ldr	r3, [pc, #144]	; (d5140 <_GLOBAL__sub_I__ZNSt12ctype_bynameIcEC2ERKSsj+0x94>)
   d50ae:	681a      	ldr	r2, [r3, #0]
   d50b0:	07d0      	lsls	r0, r2, #31
   d50b2:	bf5c      	itt	pl
   d50b4:	2201      	movpl	r2, #1
   d50b6:	601a      	strpl	r2, [r3, #0]
   d50b8:	4b22      	ldr	r3, [pc, #136]	; (d5144 <_GLOBAL__sub_I__ZNSt12ctype_bynameIcEC2ERKSsj+0x98>)
   d50ba:	681a      	ldr	r2, [r3, #0]
   d50bc:	07d1      	lsls	r1, r2, #31
   d50be:	bf5c      	itt	pl
   d50c0:	2201      	movpl	r2, #1
   d50c2:	601a      	strpl	r2, [r3, #0]
   d50c4:	4b20      	ldr	r3, [pc, #128]	; (d5148 <_GLOBAL__sub_I__ZNSt12ctype_bynameIcEC2ERKSsj+0x9c>)
   d50c6:	681a      	ldr	r2, [r3, #0]
   d50c8:	07d2      	lsls	r2, r2, #31
   d50ca:	bf5c      	itt	pl
   d50cc:	2201      	movpl	r2, #1
   d50ce:	601a      	strpl	r2, [r3, #0]
   d50d0:	4b1e      	ldr	r3, [pc, #120]	; (d514c <_GLOBAL__sub_I__ZNSt12ctype_bynameIcEC2ERKSsj+0xa0>)
   d50d2:	681a      	ldr	r2, [r3, #0]
   d50d4:	07d0      	lsls	r0, r2, #31
   d50d6:	bf5c      	itt	pl
   d50d8:	2201      	movpl	r2, #1
   d50da:	601a      	strpl	r2, [r3, #0]
   d50dc:	4b1c      	ldr	r3, [pc, #112]	; (d5150 <_GLOBAL__sub_I__ZNSt12ctype_bynameIcEC2ERKSsj+0xa4>)
   d50de:	681a      	ldr	r2, [r3, #0]
   d50e0:	07d1      	lsls	r1, r2, #31
   d50e2:	bf5c      	itt	pl
   d50e4:	2201      	movpl	r2, #1
   d50e6:	601a      	strpl	r2, [r3, #0]
   d50e8:	4b1a      	ldr	r3, [pc, #104]	; (d5154 <_GLOBAL__sub_I__ZNSt12ctype_bynameIcEC2ERKSsj+0xa8>)
   d50ea:	681a      	ldr	r2, [r3, #0]
   d50ec:	07d2      	lsls	r2, r2, #31
   d50ee:	bf5c      	itt	pl
   d50f0:	2201      	movpl	r2, #1
   d50f2:	601a      	strpl	r2, [r3, #0]
   d50f4:	4b18      	ldr	r3, [pc, #96]	; (d5158 <_GLOBAL__sub_I__ZNSt12ctype_bynameIcEC2ERKSsj+0xac>)
   d50f6:	681a      	ldr	r2, [r3, #0]
   d50f8:	07d0      	lsls	r0, r2, #31
   d50fa:	bf5c      	itt	pl
   d50fc:	2201      	movpl	r2, #1
   d50fe:	601a      	strpl	r2, [r3, #0]
   d5100:	4b16      	ldr	r3, [pc, #88]	; (d515c <_GLOBAL__sub_I__ZNSt12ctype_bynameIcEC2ERKSsj+0xb0>)
   d5102:	681a      	ldr	r2, [r3, #0]
   d5104:	07d1      	lsls	r1, r2, #31
   d5106:	bf5c      	itt	pl
   d5108:	2201      	movpl	r2, #1
   d510a:	601a      	strpl	r2, [r3, #0]
   d510c:	4b14      	ldr	r3, [pc, #80]	; (d5160 <_GLOBAL__sub_I__ZNSt12ctype_bynameIcEC2ERKSsj+0xb4>)
   d510e:	681a      	ldr	r2, [r3, #0]
   d5110:	07d2      	lsls	r2, r2, #31
   d5112:	bf5c      	itt	pl
   d5114:	2201      	movpl	r2, #1
   d5116:	601a      	strpl	r2, [r3, #0]
   d5118:	4b12      	ldr	r3, [pc, #72]	; (d5164 <_GLOBAL__sub_I__ZNSt12ctype_bynameIcEC2ERKSsj+0xb8>)
   d511a:	681a      	ldr	r2, [r3, #0]
   d511c:	07d0      	lsls	r0, r2, #31
   d511e:	bf5c      	itt	pl
   d5120:	2201      	movpl	r2, #1
   d5122:	601a      	strpl	r2, [r3, #0]
   d5124:	4b10      	ldr	r3, [pc, #64]	; (d5168 <_GLOBAL__sub_I__ZNSt12ctype_bynameIcEC2ERKSsj+0xbc>)
   d5126:	681a      	ldr	r2, [r3, #0]
   d5128:	07d1      	lsls	r1, r2, #31
   d512a:	bf5c      	itt	pl
   d512c:	2201      	movpl	r2, #1
   d512e:	601a      	strpl	r2, [r3, #0]
   d5130:	4b0e      	ldr	r3, [pc, #56]	; (d516c <_GLOBAL__sub_I__ZNSt12ctype_bynameIcEC2ERKSsj+0xc0>)
   d5132:	681a      	ldr	r2, [r3, #0]
   d5134:	07d2      	lsls	r2, r2, #31
   d5136:	bf5c      	itt	pl
   d5138:	2201      	movpl	r2, #1
   d513a:	601a      	strpl	r2, [r3, #0]
   d513c:	4770      	bx	lr
   d513e:	bf00      	nop
   d5140:	2003e7cc 	.word	0x2003e7cc
   d5144:	2003e7c8 	.word	0x2003e7c8
   d5148:	2003e7c4 	.word	0x2003e7c4
   d514c:	2003e7c0 	.word	0x2003e7c0
   d5150:	2003e7bc 	.word	0x2003e7bc
   d5154:	2003e7b8 	.word	0x2003e7b8
   d5158:	2003e7b4 	.word	0x2003e7b4
   d515c:	2003e7b0 	.word	0x2003e7b0
   d5160:	2003e7ac 	.word	0x2003e7ac
   d5164:	2003e7a8 	.word	0x2003e7a8
   d5168:	2003e7a4 	.word	0x2003e7a4
   d516c:	2003e7a0 	.word	0x2003e7a0

000d5170 <_GLOBAL__sub_I__ZNSt12ctype_bynameIwEC2ERKNSt7__cxx1112basic_stringIcSt11char_traitsIcESaIcEEEj>:
   d5170:	4b18      	ldr	r3, [pc, #96]	; (d51d4 <_GLOBAL__sub_I__ZNSt12ctype_bynameIwEC2ERKNSt7__cxx1112basic_stringIcSt11char_traitsIcESaIcEEEj+0x64>)
   d5172:	681a      	ldr	r2, [r3, #0]
   d5174:	07d1      	lsls	r1, r2, #31
   d5176:	bf5c      	itt	pl
   d5178:	2201      	movpl	r2, #1
   d517a:	601a      	strpl	r2, [r3, #0]
   d517c:	4b16      	ldr	r3, [pc, #88]	; (d51d8 <_GLOBAL__sub_I__ZNSt12ctype_bynameIwEC2ERKNSt7__cxx1112basic_stringIcSt11char_traitsIcESaIcEEEj+0x68>)
   d517e:	681a      	ldr	r2, [r3, #0]
   d5180:	07d2      	lsls	r2, r2, #31
   d5182:	bf5c      	itt	pl
   d5184:	2201      	movpl	r2, #1
   d5186:	601a      	strpl	r2, [r3, #0]
   d5188:	4b14      	ldr	r3, [pc, #80]	; (d51dc <_GLOBAL__sub_I__ZNSt12ctype_bynameIwEC2ERKNSt7__cxx1112basic_stringIcSt11char_traitsIcESaIcEEEj+0x6c>)
   d518a:	681a      	ldr	r2, [r3, #0]
   d518c:	07d0      	lsls	r0, r2, #31
   d518e:	bf5c      	itt	pl
   d5190:	2201      	movpl	r2, #1
   d5192:	601a      	strpl	r2, [r3, #0]
   d5194:	4b12      	ldr	r3, [pc, #72]	; (d51e0 <_GLOBAL__sub_I__ZNSt12ctype_bynameIwEC2ERKNSt7__cxx1112basic_stringIcSt11char_traitsIcESaIcEEEj+0x70>)
   d5196:	681a      	ldr	r2, [r3, #0]
   d5198:	07d1      	lsls	r1, r2, #31
   d519a:	bf5c      	itt	pl
   d519c:	2201      	movpl	r2, #1
   d519e:	601a      	strpl	r2, [r3, #0]
   d51a0:	4b10      	ldr	r3, [pc, #64]	; (d51e4 <_GLOBAL__sub_I__ZNSt12ctype_bynameIwEC2ERKNSt7__cxx1112basic_stringIcSt11char_traitsIcESaIcEEEj+0x74>)
   d51a2:	681a      	ldr	r2, [r3, #0]
   d51a4:	07d2      	lsls	r2, r2, #31
   d51a6:	bf5c      	itt	pl
   d51a8:	2201      	movpl	r2, #1
   d51aa:	601a      	strpl	r2, [r3, #0]
   d51ac:	4b0e      	ldr	r3, [pc, #56]	; (d51e8 <_GLOBAL__sub_I__ZNSt12ctype_bynameIwEC2ERKNSt7__cxx1112basic_stringIcSt11char_traitsIcESaIcEEEj+0x78>)
   d51ae:	681a      	ldr	r2, [r3, #0]
   d51b0:	07d0      	lsls	r0, r2, #31
   d51b2:	bf5c      	itt	pl
   d51b4:	2201      	movpl	r2, #1
   d51b6:	601a      	strpl	r2, [r3, #0]
   d51b8:	4b0c      	ldr	r3, [pc, #48]	; (d51ec <_GLOBAL__sub_I__ZNSt12ctype_bynameIwEC2ERKNSt7__cxx1112basic_stringIcSt11char_traitsIcESaIcEEEj+0x7c>)
   d51ba:	681a      	ldr	r2, [r3, #0]
   d51bc:	07d1      	lsls	r1, r2, #31
   d51be:	bf5c      	itt	pl
   d51c0:	2201      	movpl	r2, #1
   d51c2:	601a      	strpl	r2, [r3, #0]
   d51c4:	4b0a      	ldr	r3, [pc, #40]	; (d51f0 <_GLOBAL__sub_I__ZNSt12ctype_bynameIwEC2ERKNSt7__cxx1112basic_stringIcSt11char_traitsIcESaIcEEEj+0x80>)
   d51c6:	681a      	ldr	r2, [r3, #0]
   d51c8:	07d2      	lsls	r2, r2, #31
   d51ca:	bf5c      	itt	pl
   d51cc:	2201      	movpl	r2, #1
   d51ce:	601a      	strpl	r2, [r3, #0]
   d51d0:	4770      	bx	lr
   d51d2:	bf00      	nop
   d51d4:	2003e7ec 	.word	0x2003e7ec
   d51d8:	2003e7e8 	.word	0x2003e7e8
   d51dc:	2003e7e4 	.word	0x2003e7e4
   d51e0:	2003e7e0 	.word	0x2003e7e0
   d51e4:	2003e7dc 	.word	0x2003e7dc
   d51e8:	2003e7d8 	.word	0x2003e7d8
   d51ec:	2003e7d4 	.word	0x2003e7d4
   d51f0:	2003e7d0 	.word	0x2003e7d0

000d51f4 <__cxa_atexit>:
   d51f4:	b510      	push	{r4, lr}
   d51f6:	4c05      	ldr	r4, [pc, #20]	; (d520c <__cxa_atexit+0x18>)
   d51f8:	4613      	mov	r3, r2
   d51fa:	b12c      	cbz	r4, d5208 <__cxa_atexit+0x14>
   d51fc:	460a      	mov	r2, r1
   d51fe:	4601      	mov	r1, r0
   d5200:	2002      	movs	r0, #2
   d5202:	f3af 8000 	nop.w
   d5206:	bd10      	pop	{r4, pc}
   d5208:	4620      	mov	r0, r4
   d520a:	bd10      	pop	{r4, pc}
   d520c:	00000000 	.word	0x00000000

000d5210 <memcpy>:
   d5210:	b510      	push	{r4, lr}
   d5212:	1e43      	subs	r3, r0, #1
   d5214:	440a      	add	r2, r1
   d5216:	4291      	cmp	r1, r2
   d5218:	d004      	beq.n	d5224 <memcpy+0x14>
   d521a:	f811 4b01 	ldrb.w	r4, [r1], #1
   d521e:	f803 4f01 	strb.w	r4, [r3, #1]!
   d5222:	e7f8      	b.n	d5216 <memcpy+0x6>
   d5224:	bd10      	pop	{r4, pc}

000d5226 <memset>:
   d5226:	4402      	add	r2, r0
   d5228:	4603      	mov	r3, r0
   d522a:	4293      	cmp	r3, r2
   d522c:	d002      	beq.n	d5234 <memset+0xe>
   d522e:	f803 1b01 	strb.w	r1, [r3], #1
   d5232:	e7fa      	b.n	d522a <memset+0x4>
   d5234:	4770      	bx	lr
	...

000d5238 <srand>:
   d5238:	b538      	push	{r3, r4, r5, lr}
   d523a:	4b12      	ldr	r3, [pc, #72]	; (d5284 <srand+0x4c>)
   d523c:	681c      	ldr	r4, [r3, #0]
   d523e:	6ba3      	ldr	r3, [r4, #56]	; 0x38
   d5240:	4605      	mov	r5, r0
   d5242:	b9d3      	cbnz	r3, d527a <srand+0x42>
   d5244:	2018      	movs	r0, #24
   d5246:	f7ff f8c7 	bl	d43d8 <malloc>
   d524a:	f243 330e 	movw	r3, #13070	; 0x330e
   d524e:	63a0      	str	r0, [r4, #56]	; 0x38
   d5250:	8003      	strh	r3, [r0, #0]
   d5252:	f64a 33cd 	movw	r3, #43981	; 0xabcd
   d5256:	8043      	strh	r3, [r0, #2]
   d5258:	f241 2334 	movw	r3, #4660	; 0x1234
   d525c:	8083      	strh	r3, [r0, #4]
   d525e:	f24e 636d 	movw	r3, #58989	; 0xe66d
   d5262:	80c3      	strh	r3, [r0, #6]
   d5264:	f64d 63ec 	movw	r3, #57068	; 0xdeec
   d5268:	8103      	strh	r3, [r0, #8]
   d526a:	2305      	movs	r3, #5
   d526c:	8143      	strh	r3, [r0, #10]
   d526e:	230b      	movs	r3, #11
   d5270:	8183      	strh	r3, [r0, #12]
   d5272:	2201      	movs	r2, #1
   d5274:	2300      	movs	r3, #0
   d5276:	e9c0 2304 	strd	r2, r3, [r0, #16]
   d527a:	6ba3      	ldr	r3, [r4, #56]	; 0x38
   d527c:	2200      	movs	r2, #0
   d527e:	611d      	str	r5, [r3, #16]
   d5280:	615a      	str	r2, [r3, #20]
   d5282:	bd38      	pop	{r3, r4, r5, pc}
   d5284:	2003e3a8 	.word	0x2003e3a8

000d5288 <strcpy>:
   d5288:	4603      	mov	r3, r0
   d528a:	f811 2b01 	ldrb.w	r2, [r1], #1
   d528e:	f803 2b01 	strb.w	r2, [r3], #1
   d5292:	2a00      	cmp	r2, #0
   d5294:	d1f9      	bne.n	d528a <strcpy+0x2>
   d5296:	4770      	bx	lr

000d5298 <strlen>:
   d5298:	4603      	mov	r3, r0
   d529a:	f813 2b01 	ldrb.w	r2, [r3], #1
   d529e:	2a00      	cmp	r2, #0
   d52a0:	d1fb      	bne.n	d529a <strlen+0x2>
   d52a2:	1a18      	subs	r0, r3, r0
   d52a4:	3801      	subs	r0, #1
   d52a6:	4770      	bx	lr

000d52a8 <dynalib_user>:
   d52a8:	401d 000d 4059 000d 4085 000d 4089 000d     .@..Y@...@...@..
   d52b8:	0000 0000 6573 646e 6e69 2067 6574 7473     ....sending test
   d52c8:	6420 7461 2061 6425 7200 6365 6965 6576      data %d.receive
   d52d8:	2064 7266 6d6f 6e20 646f 2d65 6572 3a64     d from node-red:
   d52e8:	0020 0000                                    ...

000d52ec <_ZTVN5spark13EthernetClassE>:
	...
   d52f4:	4477 000d 446d 000d 4463 000d 4459 000d     wD..mD..cD..YD..
   d5304:	444d 000d 4441 000d 4435 000d 442d 000d     MD..AD..5D..-D..
   d5314:	4423 000d 4419 000d 4e31 000d               #D...D..1N..

000d5320 <_ZTV8SPIClass>:
	...
   d5328:	4495 000d 4497 000d 6162 6475 5300 7265     .D...D..baud.Ser
   d5338:	6169 006c 6553 6972 6c61 0031 7974 6570     ial.Serial1.type
   d5348:	7000 7261 6d61 6300 646d 6900 0064 6e68     .param.cmd.id.hn
   d5358:	0064 7473 6d72 6600 6c69 0074 766c 006c     d.strm.filt.lvl.
   d5368:	6461 4864 6e61 6c64 7265 7200 6d65 766f     addHandler.remov
   d5378:	4865 6e61 6c64 7265 6500 756e 486d 6e61     eHandler.enumHan
   d5388:	6c64 7265 0073 534a 4e4f 7453 6572 6d61     dlers.JSONStream
   d5398:	6f4c 4867 6e61 6c64 7265 6100 7070 2500     LogHandler.app.%
   d53a8:	3130 7530 0020 205d 2c00 0020 2928 203a     010u .] ., .(): 
   d53b8:	2000 005b 6f63 6564 3d20 0020 6925 6400     . [.code = .%i.d
   d53c8:	7465 6961 736c 3d20 0020 0a0d 6600 6c00     etails = ....f.l
   d53d8:	006e 6e66 6300 646f 0065 6564 6174 6c69     n.fn.code.detail
   d53e8:	6e00 6e6f 0065 7274 6361 0065 6e69 6f66     .none.trace.info
   d53f8:	7700 7261 006e 7265 6f72 0072 6170 696e     .warn.error.pani
   d5408:	0063 6c61 006c 005a 2b25 3330 3a64 3025     c.all.Z.%+03d:%0
   d5418:	7532 2500 2d59 6d25 252d 5464 4825 253a     2u.%Y-%m-%dT%H:%
   d5428:	3a4d 5325 7a25 6100 6373 6974 656d 0000     M:%S%z.asctime..

000d5438 <_ZTV9IPAddress>:
	...
   d5440:	48e5 000d 48d5 000d 48d7 000d               .H...H...H..

000d544c <_ZTV9USBSerial>:
	...
   d5454:	49bd 000d 4a0d 000d 4a1b 000d 4609 000d     .I...J...J...F..
   d5464:	49f9 000d 49bf 000d 49d5 000d 4a07 000d     .I...I...I...J..
   d5474:	49eb 000d 49b9 000d                         .I...I..

000d547c <_ZTVN5spark13CellularClassE>:
	...
   d5484:	4b1f 000d 4b15 000d 4b0b 000d 4ac1 000d     .K...K...K...J..
   d5494:	4aff 000d 4af3 000d 4ae7 000d 4adf 000d     .J...J...J...J..
   d54a4:	4ad5 000d 4acb 000d 4e31 000d               .J...J..1N..

000d54b0 <_ZTV11USARTSerial>:
	...
   d54b8:	4b59 000d 4ba9 000d 4bb7 000d 4609 000d     YK...K...K...F..
   d54c8:	4b6d 000d 4b8f 000d 4b7b 000d 4ba3 000d     mK...K..{K...K..
   d54d8:	4b5b 000d 4b5f 000d                         [K.._K..

000d54e0 <_ZTVN5spark9MeshClassE>:
	...
   d54e8:	4cc3 000d 4cb9 000d 4caf 000d 4ca5 000d     .L...L...L...L..
   d54f8:	4c99 000d 4c8d 000d 4c81 000d 4c79 000d     .L...L...L..yL..
   d5508:	4c6f 000d 4c65 000d 4e31 000d               oL..eL..1N..

000d5514 <_ZTVN5spark12NetworkClassE>:
	...
   d551c:	4dc9 000d 4dd3 000d 4ddd 000d 4de7 000d     .M...M...M...M..
   d552c:	4df1 000d 4dfd 000d 4e09 000d 4e15 000d     .M...M...N...N..
   d553c:	4e1d 000d 4e27 000d 4e31 000d               .N..'N..1N..

000d5548 <__sf_fake_stdin>:
	...

000d5568 <__sf_fake_stdout>:
	...

000d5588 <__sf_fake_stderr>:
	...
   d55a8:	0043                                        C.

000d55aa <link_const_variable_data_end>:
	...

000d55ac <link_constructors_location>:
   d55ac:	000d414d 	.word	0x000d414d
   d55b0:	000d4481 	.word	0x000d4481
   d55b4:	000d44cd 	.word	0x000d44cd
   d55b8:	000d45f9 	.word	0x000d45f9
   d55bc:	000d47a1 	.word	0x000d47a1
   d55c0:	000d47b1 	.word	0x000d47b1
   d55c4:	000d47e5 	.word	0x000d47e5
   d55c8:	000d4b29 	.word	0x000d4b29
   d55cc:	000d4d79 	.word	0x000d4d79
   d55d0:	000d4efd 	.word	0x000d4efd
   d55d4:	000d4f11 	.word	0x000d4f11
   d55d8:	000d4f65 	.word	0x000d4f65
   d55dc:	000d4fe9 	.word	0x000d4fe9
   d55e0:	000d50ad 	.word	0x000d50ad
   d55e4:	000d5171 	.word	0x000d5171

000d55e8 <link_constructors_end>:
	...
